:020000040000FA
:1000000038AF012011040000190400003102000083
:100010001D0400001F040000210400000000000077
:1000200000000000000000000000000023040000A9
:10003000250400000000000027040000290400003F
:1000400065B700002B04000015BB00002B04000066
:100050002B0400002B04000099B400002B040000C6
:100060002B0400002B040000D9BA00002B04000070
:100070002B04000075B700002B0400002B040000C7
:100080002B0400009DB700002B0400002B0400008F
:100090002B0400002B0400002B0400002B040000A4
:1000A0002B0400002B040000EDBA000001BB00008F
:1000B0002B0400002B0400000000000000000000E2
:1000C0002B0400002B0400002B0400002B04000074
:1000D000ADB700002B0400002B0400002B0400002F
:1000E0002B0400002B040000CD0A000000000000DB
:1000F000000000002B040000000000002B040000A2
:1001000000000000000000000000000000000000EF
:1001100000000000000000000000000000000000DF
:1001200000000000000000000000000000000000CF
:1001300000000000000000000000000000000000BF
:1001400000000000000000000000000000000000AF
:10015000000000000000000000000000000000009F
:10016000000000000000000000000000000000008F
:10017000000000000000000000000000000000007F
:10018000000000000000000000000000000000006F
:10019000000000000000000000000000000000005F
:1001A000000000000000000000000000000000004F
:1001B000000000000000000000000000000000003F
:1001C000000000000000000000000000000000002F
:1001D000000000000000000000000000000000001F
:1001E000000000000000000000000000000000000F
:1001F00000000000000000000000000000000000FF
:10020000DFF80CD000F0BAFA004800470579010089
:1002100038AF012000B583B002900091019244F202
:10022000010071466A460DF0D7F803B000BD00002A
:10023000094B1EF0040F1CBFEFF309801847EFF3C2
:1002400008800649064A884201D8904202D88D4665
:100250004FF00000184700003DB5000038AF012006
:10026000388F012030B450E8012F93B2C489234461
:100270008489A34228BF1B1B0489A34202BFBFF38A
:100280002F8F002007E0C3EA020340E80134002C6E
:10029000E9D14FF001000A6030BC704750E8012FEF
:1002A000C2EA024240E801210029F7D1704730B488
:1002B00050E8022F1FFAA2F3C488A34202BFBFF383
:1002C0002F8F00200DE0C48923448489A34228BFD6
:1002D0001B1BC2EA034340E80234002CE8D14FF074
:1002E00001000A6030BC704750E8022FC2EA224287
:1002F00040E802210029F7D17047034653E8022F56
:10030000D988B2EB324F4FF0000017BF92B241EAEA
:10031000014142EA014104E05A68B2EB324F08BFA2
:10032000012043E80212002AE8D1704730B40446A5
:1003300054E8000F0D4644E80053002BF8D1156037
:1003400030BC704730B4044654E8000F40EA010561
:1003500044E80053002BF7D1156030BC704730B42F
:10036000044654E8000F00EA010544E80053002B5E
:10037000F7D1156030BC704730B4044654E8000F24
:1003800080EA010544E80053002BF7D1156030BC2A
:10039000704730B4044654E8000F00EB010544E810
:1003A0000053002BF7D1156030BC704730B40446C1
:1003B00054E8000FA0EB010544E80053002BF7D1EF
:1003C000156030BC704770B404464FF0000054E82C
:1003D000006F0D68AE4207BF44E80023012044E8E7
:1003E00000630E60002B1CBF0020F0E770BC70475C
:1003F00030B4044654E8000F88422CBF451A054625
:1004000044E80053002BF5D1156030BC7047000064
:100410000648804706480047FEE7FEE7FEE7FEE79E
:10042000FEE7FEE7FEE7FEE7FEE7FEE705B90000B0
:10043000010200002DE9F05F0546002092469B4630
:1004400088460646814640241BE0284641464746EA
:10045000224600F034F953465A46C01A914110D34F
:1004600011461846224600F016F82D1A67EB0108CF
:100470004F4622460120002100F00DF817EB00093D
:100480004E41201EA4F10104DFDC484631462A46D5
:100490004346BDE8F09F202A04DB203A00FA02F12F
:1004A000002070479140C2F1200320FA03F3194362
:1004B0009040704700487047848C02002DE9FE434D
:1004C000994615468846074601AC022942D3002DBD
:1004D00040D000200290A8F101004FF0FF360090BC
:1004E00022E000FB057201FB057011464A46904769
:1004F000002805DC54F82600304444F8260013E0B8
:1005000060682A4600FB057154F8040C00FB057076
:1005100007E00B7890F800C001F801CB00F8013B30
:10052000521E002AF5D1764254F8040C61688842C4
:10053000D7DC4B462A463846FFF7C0FF54F8040C78
:100540004B46A8EB0001401C00FB05702A46491EE3
:10055000FFF7B4FFBDE8FE8310B5441A034694428A
:1005600009D28418114403E011F8013D04F8013D5B
:10057000521EF9D210BD40EA0104A40703D009E0DD
:1005800010C9121F10C3042AFAD203E011F8014B5C
:1005900003F8014B521EF9D210BDD2B201E000F8AF
:1005A000012B491EFBD270470022F6E710B5134617
:1005B0000A4604461946FFF7F0FF204610BD421CCC
:1005C00010F8011B0029FBD1801A704710B50022DA
:1005D00000E0521C835C8C5CA34201D1002BF8D15B
:1005E000D8B2E1B2401A10BD30B50446002003462F
:1005F00000E05B1C934203D2E05CCD5C401BF8D072
:1006000030BD034611F8012B00F8012B002AF9D167
:100610001846704730B505460020034600E05B1CD5
:10062000934205D2EC5CC85C201A01D1002CF6D1B3
:1006300030BD10B5484304460BF032FB002805D00E
:100640000021002C02D0641E0155FAE710BD2DE9EF
:10065000F04791460F4680460446002614F8015B99
:100660002DB1FFF727FF0068405DC007F6D12B2DA5
:1006700002D02D2D18D0641E4A463946204600F07F
:100680002EF827B13968A14201D1C7F80080710561
:100690004FF002040BD54042002803DD0BF0CEFAE8
:1006A0000460A007BDE8F08746F48066E4E7002810
:1006B000F8DA0BF0C3FA04606FF00040F2E7202A8A
:1006C00004DB203A21FA02F00021704721FA02F3FC
:1006D000D040C2F1200291400843194670472DE9ED
:1006E000F05F82460078002715468B460AF1010428
:1006F000B946302801D09DB113E014F8010B012751
:10070000782803D0582801D045B10AE00DB1102D4A
:1007100007D10027102514F8010B02E0082500E09E
:100720000A250026B0460EE005FB080005FB06F191
:10073000012701EB10461FFA80F8B6F5803F00D381
:10074000B94614F8010B294600F02AF80028EBDA24
:10075000BBF1000F05D00FB1641E00E05446CBF88A
:100760000040B9F1000F06D00BF068FA02210160D9
:10077000C81EBDE8F09F48EA0640FAE7064C074D60
:1007800006E0E06840F0010394E807009847103461
:10079000AC42F6D3FFF738FDA4060300C4060300FD
:1007A0003A2800D2303820F02002412A01D3A2F1A9
:1007B0003700884201D34FF0FF30704770B58C1876
:1007C00010F8015B15F0070301D110F8013B2A1165
:1007D00006D110F8012B03E010F8016B01F8016B52
:1007E0005B1EF9D12B0705D40023521E0DD401F84E
:1007F000013BFAE710F8013BCB1A921C03E013F817
:10080000015B01F8015B521EF9D5A142D8D300204B
:1008100070BD00002DE9F04383B09DF834609DF871
:100820003840002800F09D8001290F4626D852B399
:100830000C9941B3002B59D1C6F10F035FFA83F82D
:100840000F9B054623BB231F0C2B12D8E30710D4A4
:10085000C6F10D03DBB2062B0BD8B8F1030F40F243
:10086000F980062E05D9C8F10F039E42019200F0CF
:1008700089808F4C204603B0BDE8F0838D4C204624
:1008800003B0BDE8F0838C4C204603B0BDE8F08394
:10089000012BF8D1097B03292DD90729E9D8102C80
:1008A000E7D801A353F824F07D0900007308000085
:1008B0007308000073080000790900007308000045
:1008C0007308000073080000750900007308000039
:1008D000730800007308000073080000730800002C
:1008E000730800007308000081090000734C204663
:1008F00003B0BDE8F083102CBBD801A353F824F05B
:1009000071090000730800007308000073080000FC
:100910006D090000730800007308000073080000F0
:100920005F090000730800007308000073080000EE
:1009300073080000730800007308000073080000CB
:100940004509000003230D2E93D1994240F08C807D
:100950000B994FEAC80331FA03F384D089E70223E5
:10096000F1E7574C204603B0BDE8F0830123EAE7E6
:100970002346E8E70623E6E70523E4E70423E2E766
:100980000723E0E79821284609F0EEFE019A0123AB
:1009900000204FF0030C11461022C5E90D33AB6265
:1009A00068622863C5F820C0A81809F0D7FE102196
:1009B000284609F0D9FE0A9B85F8846085F88540B1
:1009C000C5F8807005F18609002B4BD195F986306A
:1009D0002CB1023C04EBD4746410E40064B2C6F1A0
:1009E0000E07FFB23B431C4305F187000C9985F8C5
:1009F0008640324609F0B2FE4246B8F1030F94BF7A
:100A0000C8F110000C20042A28BF04220BA9484476
:100A100000F084FC494600221023284608F0FEFE20
:100A200010220446294605F14C0009F097FEECB966
:100A30000A9BB3F57F4F21D26BBBEB670C9985F80E
:100A40005C70324605F15D0009F088FE012385F8EF
:100A50006B3014E70B994FEAC80331FA03F33FF404
:100A600000AF06E74023B3E7164C08E7A4F571048E
:100A7000042C19D8144B53F8244000E74FF6FF63B9
:100A8000A5F86C3004220AA905F16E0000F046FCBE
:100A90000A9B0633D1E702220AA905F16C0000F097
:100AA0003DFC0A9B0233C8E74FF47504E7E600BF3C
:100AB0000C15F0000315F0000D15F0000115F00005
:100AC0000015F0001115F0003CD902000B490C4B49
:100AD0000C4A4FF0FF3008601B68BFF35B8F52E891
:100AE000001F42E800300028F9D1BFF35B8F994224
:100AF000F3D1BFF35F8F044A1360704704BA02500A
:100B000000BA0250306F012008BA025088B3F8B51D
:100B10000E4651B3144632B30546C06F38B3824215
:100B200021D202F110073F1A974228BF1746801AB8
:100B300005F16C0318443A4609F010FEE21BF11966
:100B4000284608F077FF58B1A0F57100042816D8A0
:100B5000042814D8DFE800F0050311090F00094844
:100B6000F8BD0948F8BD0948F8BD0948F8BD09486D
:100B7000F8BD054870470848F8BD0848F8BD4FF46F
:100B80007500F8BD1115F0000015F0000715F00014
:100B90000515F0000E15F0000615F0000315F00025
:100BA000F8B5069E002847D004460798002800F0B4
:100BB0008E80002943D0002E00F08B80002B43D084
:100BC00094F884709942C7F10F07FFB203D042D95D
:100BD0009818814242D322B1204608F07DFF054695
:100BE000F8B90223D4F880202362002323636262D1
:100BF00004F15C011022204609F0B0FDC7F110009D
:100C00002044394609F0B0FDD4F880305BBB102396
:100C1000324604F14C01204608F000FE054600284B
:100C200048D0A5F57105042D55D8042D53D8DFE81B
:100C300005F003173F083C00284D2846F8BD002A60
:100C4000B9D0274D2846F8BD7ABB94F88470C7F117
:100C50000F07FFB2C5E788188342BCD2214DECE7ED
:100C6000214D2846F8BD04F186073846102109F0C9
:100C70007BFD94F885203146384609F06FFD3A46F1
:100C800039461023204608F0C9FD05460028C8D182
:100C900094F88520394604F14C0009F047FDD0B99D
:100CA000079A94F885301370C7E7104D2846F8BDB1
:100CB0000F4DC2E794F885107018C1F1100109F0CA
:100CC00053FD079A94F8853013702846F8BD094DF6
:100CD000B3E7094DB1E74FF47505AEE70015F00035
:100CE0000515F0000815F0001115F0000615F000CC
:100CF0000315F0000C15F0000D15F0002DE9F04380
:100D000093B0DDE91B75002F62D0002D4BD08046DB
:100D100000286FD00C461E46002938D11A9B012BA3
:100D20004FF008093AD8002A66D018461146012328
:100D300020220E9006A8CDE90F33119409F00EFD84
:100D40004A46414601A809F009FD0023CDE90463A4
:100D50001D9B002B44D0BB423FD81D9BBB4202D2FF
:100D6000FB1A9D423CD81D9A2B46394601A808F033
:100D7000BFFF0446002835D0A0F57504052C21D806
:100D8000052C1FD8DFE804F0190A242C1E140129B1
:100D90000ED11A9B012B4FF00C09C4D9174C2046D9
:100DA00013B0BDE8F083164C204613B0BDE8F083C5
:100DB000144C204613B0BDE8F083134C204613B00A
:100DC000BDE8F0834FF47504204613B0BDE8F0830E
:100DD0000E4C204613B0BDE8F083DB1B9D42BCD90E
:100DE0000B4CDCE701A8442109F0BEFC204613B0FF
:100DF000BDE8F083074CD2E7074CD0E70422F000AF
:100E00000A22F0000122F0000722F0000522F00083
:100E10000622F0000922F0000322F0002DE9F04143
:100E20000024B0B00E46154621463C22804611A84B
:100E3000374610942E461D46FFF7B8FB21463C224C
:100E400021A82094FFF7B2FB214608A82022FFF733
:100E5000ADFBCDE90444CDE9064475B3369B63B3DD
:100E6000379B2BB3399B1BB3389B0BB33A9BFBB11E
:100E7000B8F1000F1CD0DFB136B3012E22D14021D2
:100E80000DEB010220AC0023CDE90214CDE90032C4
:100E900001213A464046FFF731FF00284DD03D4C36
:100EA000DDE9381009F060FC204630B0BDE8F08183
:100EB000394C204630B0BDE8F081384C204630B087
:100EC000BDE8F081364CF4E740210DEB010220AC87
:100ED000CDE902140192009633463A46012140467C
:100EE000FFF70CFF0028DAD120220DEB020021468B
:100EF00009F034FC399A0392389A02920021379A09
:100F00000192012300913A4640461946FFF7F6FE4A
:100F1000002839D104AB0193389B0093369A399B52
:100F2000294608A808F02CFB044600282ED13A9840
:100F300004A9102209F012FCBBE720220DEB0200ED
:100F4000214609F00BFC04AB0193389B0093294622
:100F5000DDE9362308A808F013FBB8B93A9804A9CC
:100F6000102209F0E3FB98B9399A0392389A029259
:100F70000123379A019240463A4600931946FFF7FB
:100F8000BDFE0446002894D0064C89E7064C87E74E
:100F9000064C85E70524F0000224F0000124F0004F
:100FA0000324F0000624F0000724F0000824F000D9
:100FB0009942F0B50DD801EB03044FEA540467D30E
:100FC000002C7DD04FF0000C171F2146051F6246F4
:100FD00032E003F1804C0CF1FF3C051F002600EBD2
:100FE0008C0C05EB810E34465CF8047FE64546EA3E
:100FF0000706F9D116F1FF3744F1FF3C6FEA0C0CFC
:1010000099420CF0010C3ED201F1804E0EF1FF3EF0
:10101000171F02EB8E0507EB830355F8042FAB4235
:1010200046EA0206F9D116F1FF3644F1FF32D24307
:1010300002F0010291B3051F002305EB810E284643
:101040003C46194650F8046F54F8045FAE4218BF8E
:10105000002103F0010318BF002388BF41F0010104
:1010600038BF43F001038645ECD1A9B182F00100FD
:10107000BCF1000F00D108408CF0010402B91C4003
:1010800000EB4400F0BDC3B1171F19460022D3E79F
:1010900000263446B446B7E7002BE7D1BCF1000F79
:1010A00003D132B160461446EAE782F00100002322
:1010B000E2E7104613461446E1E760461C46DEE7C9
:1010C00020462346DBE700BFF0B4441831B114F8E2
:1010D000015D4E1E15B931460029F8D1D41833B13F
:1010E00014F8015D5E1E45B93346002BF8D10D1E84
:1010F00018BF01252846F0BC70478B4222D325D863
:101100004C1EA64228BF2646002E23DB013694192A
:101110000025821904E0012D38BF012590420BD033
:1011200012F8016D14F8017DB742F4D3F6D9002D01
:1011300008BF02259042F3D18B4218BF00252846F4
:10114000F0BC704701252846F0BC704702252846B0
:10115000F0BC70470025EFE788420CD030B413464E
:101160006FF04045033305EB9303002540F823500F
:1011700030BC09F0F5BA7047814202D0920009F004
:10118000EFBA704730B40AB300B3DBB113F0030514
:1011900018D18B4216D3A9B1904208D002D913447A
:1011A000984217D3904202D243189A4212D911445E
:1011B000431E11F8014D03F8014F8A42F9D1284628
:1011C00030BC7047044D284630BC7047034D28465C
:1011D00030BC7047024DF6E7050DF000040DF0003D
:1011E000060DF000002A48D02DE9F0410446002801
:1011F00045D015465A1E053234D811F0030631D1B8
:101200008B422FD8CF1C27F003028A4232D8A2EBA0
:10121000030840441A46294609F0A2FA41462046EE
:101220004FEA970809F0A0FAB8F1010F1DD0FF08A6
:1012300004EB87000438231F04EB880553F8042FC0
:1012400055F8041D12BA09BA834219602A60F5D113
:1012500018F0010007D054F827301BBA44F82730A3
:10126000002000E00748BDE8F08123681BBA304643
:101270002360F8E70448BDE8F0810448704703485C
:10128000F1E700BF050DF000090DF000040DF000BE
:101290004218084630B112F8013D411E1BB90846FC
:1012A0000028F8D170471A064FEAC00018D4590632
:1012B00000F1FF3215D49906A0F1020211D4D9062B
:1012C000A0F103020DD41907A0F1040209D45907B3
:1012D000A0F1050205D49B07A0F1060201D407384E
:1012E00070471046704700BFA1B100EB810001E0DC
:1012F00001390FD050F8043D002BF9D04801A0F17E
:10130000200202E00138904206D0002B4FEA43034E
:10131000F8DA704708467047704700BF3AB10A4490
:10132000013812F8013D00F8013F8A42F9D100204E
:10133000704700BF2DE9F041002940D016461F46F6
:101340000A682B4B9A420C4631D1054600283AD008
:101350000268013B9A422ED1002E45D0002F45D085
:10136000069BB3B300F194014FF4377204F15000BF
:1013700009F0DCF90435211D68BBD4F808333A685C
:101380000733B2EBD30F4FEAD3081ED3069B284690
:10139000324602F007FE0446F8B9C7F80080069806
:1013A0004FF4537109F0E0F92046BDE8F081114C8B
:1013B0002046BDE8F081104C2046BDE8F0810F4C7E
:1013C0002046BDE8F0810E4CF2E70E4CC7F80080D5
:1013D000EEE70D4CECE70D4CEAE73968304609F0D2
:1013E000C3F900233B60DAE7094CE1E7094CDFE78A
:1013F000020000EC3408F0003208F0003308F0007E
:101400003108F0003808F0003708F0003A08F00022
:101410003508F0003608F0002DE9F04F83B014468F
:10142000DDE90E8ADDE90C29DDF840B0002C6BD037
:101430001D46002B6DD0092A019255D84B4B0F4603
:101440002968994204D04A4A104603B0BDE8F08F9B
:10145000064640F6CC01204609F086F9454B019A34
:101460009B5CBBB3444BC4F8642403EBC20133F868
:1014700032204968C4F86024052905D804F54C7069
:1014800000F072FE0246A0BB4FF44C722946204683
:1014900009F064F9394A384BC4F8CC28B9F1000F87
:1014A00039D0B8F1005F0BD2D4F8642403EBC20347
:1014B0005B68052B39D9D4F86034B8EB830F4DD075
:1014C00020464FF40D6109F04FF92D4A104603B044
:1014D000BDE8F08F20464FF40D6109F045F9294A27
:1014E000104603B0BDE8F08F264A104603B0BDE8B1
:1014F000F08F20464FF40D61019209F035F9019A01
:10150000104603B0BDE8F08F1F4A104603B0BDE897
:10151000F08F1E4A98E7B8F1000FC5D020464FF46F
:101520000D6109F021F91A4A8EE74246494604F551
:101530004C7000F07DFE02460028DAD14FF0000C1E
:10154000012553463A4631462046CDE90D5CCDF89B
:1015500030B003B0BDE8F04F09F0CCBB424649467D
:1015600004F5846009F0FAF8E8E700BF020000EC37
:101570005808F000B4E6020064E60200030000EC44
:101580005508F0005308F0005108F0005208F00030
:101590005408F0002DE9F04F85B000286DD00F46BB
:1015A00000296FD0092A154651D80A681E46784B83
:1015B0009A4204D0774D284605B0BDE8F08F40F23E
:1015C00084520021044609F0CDF8734B5B5D002B7B
:1015D00038D0DFF8F081C4F8A85408EBC50238F819
:1015E00035305168C4F8A434052906D804F55D7077
:1015F00000F0BAFD0546002836D139464FF45D7239
:10160000204609F0ABF8654BC4F884350F9B002BDE
:101610003AD0109BB3F1005F80F0AD80D4F8A834CD
:1016200008EBC3025268052A16D938F83330109AED
:10163000B2EB830F2DD020464FF4B16109F094F83E
:10164000574DB8E720464FF4B16109F08DF8554D7C
:10165000284605B0BDE8F08FDDE90F1204F55D7096
:1016600000F0E6FD0546C8B120464FF4B16109F02F
:101670007BF8284605B0BDE8F08F4B4D284605B0F5
:10168000BDE8F08F494D96E7109B002BC6D0484D22
:1016900091E70F9904F2644009F060F83F4BD4F8E9
:1016A00084259A4262D1002E6FD0D4F8A834092B39
:1016B000CDD8D4F850830E9A08F10707FF08B2EB93
:1016C000470F60D1042B04F2644A08D8514604F550
:1016D0005D7000F0FDFC054600287FF46CAF08F15A
:1016E0001F056D0904F2AC4BD4F8A4240392E90061
:1016F00058464FEA85080BEBC50909F035F8414615
:10170000484609F031F8D4F85013039A0BEB8503DF
:10171000B1EB421F029330D20A464846514602F0CE
:1017200049FEA8F104084FF0000A3A4631464BF84A
:1017300008A05846FFF7F2FD029BF11943F808A0F4
:101740001E463A461846FFF7E9FD5B462A464946DB
:101750000096201D02F056FE164B051E4FF4B16197
:10176000204618BF1D4608F0FFFF24E7124D28460B
:1017700005B0BDE8F08F0A4D1DE79200514648467E
:10178000FFF7CCFDCDE70D4D15E70D4D13E700BF7D
:10179000010000EC8308F000B4E60200040000EC55
:1017A0008108F0007308F0007108F0007208F00082
:1017B0008008F0008408F0008208F0007708F0004C
:1017C0007608F00064E602002DE9F04F83B060B3C4
:1017D0000C4651B3174642B31E4633B30E9B23B398
:1017E0000C9B13B30D9B002B37D0054601F098FCE2
:1017F0002168426AB1EBC20F81464FEA820A4FEA82
:10180000C20B2DD3326852452AD3DDE90C030E9A60
:101810001FFA8AF19847804668B10E98514608F041
:10182000A3FF404603B0BDE8F08FDFF8408040469C
:1018300003B0BDE8F08F0E9B03F1200200924B46EF
:101840000E9A2946384601F02DFD80460028E4D145
:10185000C4F800B0C6F800A0DFE7DFF81480E0E7C6
:10186000DFF81080404603B0BDE8F08F0023F000A1
:101870000523F0000123F000F0B583B0099F98B173
:1018800016468AB11C467BB1089B6BB167B10A9BB7
:1018900053B123683F2B04D93B681F2B01D9202962
:1018A00005D00C4803B0F0BD0B4803B0F0BD0546B1
:1018B00001F036FC0A9A009203462A4608983146FF
:1018C00001F0F0FC0028EDD14022202322603B6093
:1018D000E8E700BF0123F0000023F00050B3F0B5AB
:1018E0000C4683B019B316460AB31F46089BF3B1E2
:1018F0000A9BE3B1B7F1005F16D2099B402B13D1CD
:101900000B683F2B10D9054601F00AFC0A9B00909A
:1019100001933A46089B3146284601F047FD20B91D
:10192000099B236003B0F0BD034803B0F0BD03483A
:1019300003B0F0BD014870470123F0000023F00020
:10194000F0B583B0DDE908570A9E68B101925AB13B
:1019500055B14EB1402904D1B7F1005F01D8202B19
:1019600005D00A4803B0F0BD094803B0F0BD0446F5
:1019700001F0D6FB019ACDE90806134629463A46FE
:10198000204603B0BDE8F04001F0C6BE0123F000E0
:101990000023F0002DE9F04782B0002A37D01E4620
:1019A000002B34D0804690B30F4681B30A9B73B3AB
:1019B0000C9B63B30B9B002B43D0144602F09AF8A8
:1019C0003268D0F88C30B2EB830F4FEA830A3AD3F7
:1019D0003B68534537D3436A0A981FFA8AF1224677
:1019E0004FEA83090B9B98470546A8B10C984FF422
:1019F000B07108F0B9FE4946404608F0B5FE2046F1
:101A0000514608F0B1FE284602B0BDE8F087104DFF
:101A1000284602B0BDE8F0870C9BC7F80090394615
:101A2000009322465346404600F0A6F8054600289B
:101A3000DCD10C98C6F800A04FF4B07108F094FE09
:101A4000E6E7044DE4E7044D284602B0BDE8F08720
:101A50003023F0000523F0003123F0002DE9F04F92
:101A600085B0109F08B30C46F9B11646EAB19A4604
:101A70000E9BD3B1CFB1054602F03CF82268436A11
:101A8000B2EB830F80464FEA830909D30F9B994538
:101A900006D1D0F88C30BAEB830F4FEA830209D01D
:101AA000324B184605B0BDE8F08F314B184605B0F3
:101AB000BDE8F08F131F07F1400A31463846009306
:101AC000FFF74AFB0E994A465046FFF745FB009A3E
:101AD0003968BB58CDE9011323F0404343F08043FC
:101AE000BB503B6807F1200B23F007033B605246D5
:101AF00058464346394602F019FA0390002832D17D
:101B0000009A0198029B3860BB505946D8F82420AF
:101B10002846FFF731FB039BC4F80090BE4205D076
:101B200049463846009308F01FFE009B5D4505D0EE
:101B300058464946009308F017FE009B0E9A5245FE
:101B400005D049465046009308F00EFE009B0093D6
:101B500007F160004FF4807108F006FE009B184604
:101B600005B0BDE8F08F034BD8E700BF3123F0008C
:101B70003023F0003423F0002DE9F04F85B00E9FA4
:101B8000002854D00C46002951D01646002A4ED0C9
:101B9000002F4CD09A46054601F0ACFF2268416AFE
:101BA000D0F88C30B2EB810F80464FEA81094FEAC2
:101BB000830337D39A4535D1AAF1040B52463146F7
:101BC0003846FFF7C9FA57F80B303A68CDE90123D8
:101BD00023F0404343F0804347F80B303B6807F164
:101BE000200A23F007033B605046434608F12802D1
:101BF000394602F09BF90390F0B1174BBE4205D075
:101C000038464946019308F0AFFD019B55450AD07F
:101C100050464946019308F0A7FD019B184605B0C0
:101C2000BDE8F08F0D4B184605B0BDE8F08F0C4BAA
:101C3000184605B0BDE8F08F0199029B396047F85E
:101C40000B305146D8F824202846FFF795FA039B1D
:101C5000C4F80090D2E700BF3423F0003123F00035
:101C60003023F0002DE9F04383B0002955D01D4604
:101C7000002B57D00446002856D0D0F8B832B3F520
:101C8000107F28D81646D0F8BC2201339A4222D8B9
:101C900007324FEAD2081EB3464521D805F10409A0
:101CA0000A46484633464C21FFF79CFA074650BB8C
:101CB000F11C46454FEA910117D04846FFF714FB47
:101CC00008B321464FF4377205F1500008F046FD85
:101CD000164B2B6000E0164F384603B0BDE8F0838A
:101CE000144F384603B0BDE8F083D4F8BC320191FC
:101CF0001F33C3F34F1304F1D8024846FFF758F9D6
:101D000002280199D9D028464FF44C7108F02CFDD7
:101D1000094F384603B0BDE8F083084F384603B09A
:101D2000BDE8F083064FD7E7064FD5E7020000EC89
:101D30009508F0000B08F0000C08F0000908F0000E
:101D40000A08F0000208F000F0B10B46F1B110B53E
:101D50000F4904688C4211D192B1D0F80C4311683C
:101D60000734B1EBD40F0DD3021D18464C23FFF7F7
:101D700009FA084B002818BF184610BD064810BDC8
:101D8000064810BD064810BD064870470648704713
:101D9000020000ECC508F000C208F000C308F00023
:101DA000C408F000C008F000C108F0002DE9F043BD
:101DB00083B0019300283DD01646002A67D0026800
:101DC0001F46354B9A4204461BD18FB3052914D0C8
:101DD000072912D8D0F84C33C56C21F0020203F168
:101DE0000709042A03F11F034FEAD9094FEA5313E5
:101DF00005F0010522D0022907D0284803B0BDE82C
:101E0000F083274803B0BDE8F0833A6809F1010880
:101E100042453ED3304645F0020500F8015B9B0089
:101E2000221D4946FFF7AEF948BBC7F80080E5E739
:101E30001C48E3E71C4803B0BDE8F0833A684FEA6A
:101E4000490808F10108424523D3042930460CBF54
:101E50000D4645F006059B0000F8015B221D494632
:101E60000193FFF78FF950B909F10100019B04F1CB
:101E70004C0230444946FFF785F90028D5D030465A
:101E8000396808F071FC002308483B60B6E7084851
:101E9000B4E70848B2E700BF010000EC1508F00005
:101EA0001A08F0001708F0001408F0001B08F000F2
:101EB0001608F0001808F0002DE9F04782B0DDE9BF
:101EC0000A98002A5CD01D46002B5ED0B9F1000FA5
:101ED0005DD0B8F1000F5CD0074600285BD08A4681
:101EE000002948D0144618464FF44C7108F03CFCC9
:101EF0004FF45D71484608F037FCD4F8BC621F36D9
:101F00007609B200013E04F1D801404605EB860691
:101F100008F024FC002373602B1DD4F8BC2200932E
:101F200051463846434600F0DFFC0646C8B1284615
:101F30004FF44C7108F018FC48464FF45D7108F0FE
:101F400013FC0C9B23B140F66811184608F00CFCFA
:101F500040464FF4537108F007FC304602B0BDE82C
:101F6000F087204643464A46294602F011FB0646C2
:101F70000028E6D0DBE7094E304602B0BDE8F08726
:101F8000074E304602B0BDE8F087064EE5E7064E44
:101F9000E3E7064EE1E7064EDFE700BF9008F000FA
:101FA0000208F0000308F0000408F0000508F00043
:101FB0009108F0000B2804D8034B53F8203003B1EC
:101FC00018470020704700BF34E60200F0B5BDB0EE
:101FD00004460E466846F02117461D4608F0C4FB2D
:101FE000042C2FD8DFE804F030351F2E0300032324
:101FF00000938023294A1793294B2A4C3994CDE921
:102000003A236846A047284CA0421BD032D828B3B8
:10201000B0F5720F3BD1254C6846F02108F0A4FBC7
:1020200020463DB0F0BD224C224A39940123009352
:1020300040231793204B6846CDE93A23A0471A4C1A
:10204000A042E3D11D4CE7E7194C1A4A399400230A
:10205000EDE7174C174A39940223E8E78FB1DEB158
:10206000019BBBB93A463146684609F019F9A042CE
:10207000E8D004D9124B984209D1124CCCE7002881
:10208000C6D12946684600F023F80446C4E74FF459
:102090007504C1E70C4CBFE70C4CBDE781A1000003
:1020A000094B0000E14D00000100F2000002F000C9
:1020B0008D4D0000599F0000854A00000102F0008C
:1020C0000200F2000202F0000C02F0000302F00035
:1020D00070B5002837D00E46002937D0026E04466E
:1020E000DAB91146012363602046D4F8E8309847F6
:1020F000B0B9D4F8EC30204698470546C0B92368FB
:102100002066032B1CD8144A04F1080152F823203E
:10211000304608F023FB284670BD00F16401E1E77A
:10212000A0F57203022B13D8A0F5FF35284670BD29
:10213000A0F57203022B0BD8A0F5FF35284670BD21
:10214000064D284670BD064D284670BD054DE2E798
:102150004FF47505DFE700BF7CD902000102F000F3
:102160000002F0000502F000002849D038B50D4605
:10217000F021044608F0F8FA042D04D8DFE805F051
:102180001E2A310305001F4838BD1F491F4A204B36
:10219000C4F8E430C4E93A12032580202560E065E4
:1021A000204698471B4B9842EDD021D80028EBD011
:1021B000B0F5720F21D1A0F5FF3038BD164B17498D
:1021C000174AC4F8E43000254020C4E93A122560DB
:1021D000E065E5E7104B1149114AC4F8E4300225E7
:1021E000F2E70D4B0D490E4AC4F8E4300125EBE748
:1021F0000C4B984201D10C4838BD4FF4750038BDE6
:102200000A4870470102F00081A10000094B00005C
:10221000E14D00000100F2008D4D0000599F0000CB
:10222000854A00000200F2000202F0000002F00005
:102230002DE9F041002853D0154622B30E4600295F
:1022400061D0D0F804800446B8F1000F20D1D0E965
:102250001723D01AB0FBF2F702FB1707AF4228BFD3
:102260002F4687BB9A4224D0B5FBF2F702FB07F753
:1022700047B1D4F8E8303A46314620469847A0BBEB
:102280003E44ED1B4DB94FF000084046BDE8F081DB
:10229000DFF88C804046BDE8F081206E19302A4678
:1022A000314604EB800008F059FA226E2A44226677
:1022B000EBE7D4F8E83004F1640120469847A0B970
:1022C000E26D2066D0E704F1640018443A4608F055
:1022D00045FAD4E917233B443E44ED1B2366C1E78E
:1022E000DFF838804046BDE8F0810B4B984210D0B3
:1022F000013398420AD0094BB0F5720F14BF4FF466
:1023000075089846C1E7DFF81C80BEE7DFF8188043
:10231000BBE7DFF81880B8E70100F2000002F00028
:102320000C02F0000302F0000202F0000102F000D3
:1023300070B3F0B51F4B02689A4291B0044624D1A5
:102340000D4639B3D0F8843000F18806032B3046AF
:10235000694634BF40278027FFF7BAFE08B111B0A5
:10236000F0BDD4F884103046FFF7FEFE0028F6D109
:102370003A46211D3046FFF75BFF0028EFD1D4F825
:102380008430042B08D90C48E9E70C4811B0F0BDA3
:102390000B4870470B48E2E70B4A6946D25C30466F
:1023A000FFF746FF0028DAD129463046FFF790FEB6
:1023B000D5E700BF896745230103F0000203F00061
:1023C0000003F0000503F0005CD90200002864D08F
:1023D0002DE9F0419046B0B0002A60D01E46002B97
:1023E00057D002290D4604461FD9CB1E012B1ED8FB
:1023F00080274FF4BC71204608F0B6F9802110A860
:1024000008F0B2F9BE423246414614D96B4628461E
:10241000FFF7DCFD60B9042D09D8224B694633F87B
:10242000152010A808F09AF908E04027E1E71E48B7
:1024300030B0BDE8F08110A808F090F9BE08201D6A
:1024400010A9002251F8043B013283F05C33B24200
:1024500040F8043BF6D3002110AA1368013183F041
:1024600036338E4242F8043BF7D804F188063046F2
:102470002946FFF779FE0028DAD13A4610A93046FE
:10248000FFF7D6FE0028D3D1084BC4F88450236050
:10249000CEE7074830B0BDE8F081064870470648EF
:1024A000C6E700BF50D902000103F0008967452349
:1024B0000703F0000003F0000603F000B0B170B4B1
:1024C0000B4D0668AE4205D139B162B170BC88309F
:1024D000FFF7AEBE074870BC7047002A064870BCC4
:1024E00008BF00207047104670BC70470348704713
:1024F000896745230203F0000303F0000003F000A6
:102500002DE9F84300284FD00E461446054639B150
:10251000302A01D8930723D0264F3846BDE8F883E8
:10252000002A45D1DFF8A0804FF0FF31D8F8000035
:1025300008F03AF9074648BB402105F1840008F04D
:1025400013F9A408D8F80000C5F8C44008F046F90B
:102550000028E2D0184808F08FF83846BDE8F88324
:10256000DFF864804FF0FF31D8F8000008F01CF964
:10257000074678B905F184094846402108F0F4F887
:1025800031464846224608F0E9F8DAE70B4808F0F9
:1025900073F8D1E7094805F1840908F06DF8484659
:1025A000402108F0E1F8EBE7054F3846BDE8F88335
:1025B000044FB2E7040CF000E4D80200CCD80200CB
:1025C000250CF000030CF00038AF01202DE9F04F8E
:1025D0009DB0002800F03B811646002A00F03D81A6
:1025E0000D4621B98B4658461DB0BDE8F08FB14F5E
:1025F00004464FF0FF31386808F0D6F8002840F064
:102600001981AD4BD4F8DC209A4216D0DFF8B8B26D
:102610002946304608F0A8F8D4F8C430002B40F022
:102620000D81386808F0DAF80028DCD0A34808F0FB
:1026300023F858461DB0BDE8F08FD4F8D430DA073F
:1026400040F10E81D4F8CC30113300F20F81D4F870
:10265000D080B8F1040F05D0B8F1080F02D0DFF830
:102660006CB2D5E7D4F8C4200C2A00F2FC8004F147
:102670004003029304F1840A002A00F0FD809200D6
:10268000514604F1480008F069F8D4F8C4200299D2
:1026900008F104039B00009392005346204608F083
:1026A00035F983460028B3D10346224651462046D9
:1026B00008F0E4FA83460028AAD104EB8809012235
:1026C000D9F80C301BBA9B181BBAC9F80C304FEA6A
:1026D000880B16D3D9F808301BBA9B181BBAC9F857
:1026E00008300ED3D9F804301BBA9B181BBAC9F8AE
:1026F000043006D354F828301BBA13441BBA44F8EC
:102700002830002309A81946032207F089FE002873
:1027100040F0AF800146082307AA09A8CDE9074B7E
:1027200007F0D6FE002840F0A480494609A807F02B
:10273000B7FE002840F09D80614AD4F8D4301A4298
:1027400000F0A2802B0915F00F0B049300F0998084
:1027500001330493CDF80CB05B469D420DD0EA1ACC
:1027600011463046059207F0FFFF059A3346314681
:1027700009A807F07DFD00287BD104F1300B102261
:102780000298594607F0EAFF5846102107F0ECFF7F
:10279000102306A90191CDF800B009A85A461946A0
:1027A000069307F0A3FD002863D1039AA81A3044CA
:1027B000594607F0D3FFD4F8D430DB0509D45A4684
:1027C0000298049B314602F0BBFE834600287FF44A
:1027D0001FAFD9F80C30049A1BBAD3181BBAC9F82A
:1027E0000C3017D3D9F8083001221BBA9B181BBA3A
:1027F000C9F808300ED3D9F804301BBA9B181BBA9D
:10280000C9F8043006D354F828301BBA13441BBA55
:1028100044F82830514601232246204608F02EFA7B
:10282000834600287FF4F4AED4F8CC300133C4F8EA
:10283000CC30F1E6234807F01FFFE2E60023C4F89E
:10284000C43004F18400402107F08EFFE9E6DFF890
:1028500080B058461DB0BDE8F08FDFF878B0C2E612
:10286000DFF874B0D4E6DFF874B0D1E6DFF870B00A
:10287000CEE6DFF870B0CBE65046402107F074FF9B
:102880001BE71023039368E704F130031846102177
:10289000039307F069FF039B1022194609A807F06C
:1028A000E7FC0028E5D1D4F8D43043F48033C4F8F1
:1028B000D43047E738AF0120CDAB2301E4D8020084
:1028C00000010100CCD802000E0CF000210CF00039
:1028D000270CF000000CF000080CF000040CF000D5
:1028E000070CF000360CF00030B4029D4DB1064DDF
:1028F000941EAC4202D830BC00F00CB8034830BC87
:102900007047034830BC7047FDFF0700310CF000F2
:10291000300CF0002DE9F04F2DED028B164687B0FC
:1029200007321C46D308129D0393002800F0BC8098
:102930000F46002900F0BF80002C54D0BDF80C10C9
:1029400080462046FEF7A4FC0228064640F2AA80F4
:1029500003285DD12378032B40F2A480039B681CDD
:10296000591E0123019307F0FFFE019B0493019B75
:1029700076429AB206F007064FF0FF0A4AFA06FAC4
:1029800008EE102A5E1E4FF6FF72103B5FFA8AFABD
:102990002E440292059318EE101A2A464046B84774
:1029A00000287DD133780AEA03033370049B102B8F
:1029B00040D0BDF80430224619462846FEF784FB75
:1029C000022852D0029B013B0293E4D13E4B039973
:1029D0000193284607F0C8FE019B184607B0BDECDE
:1029E000028BBDE8F08F99B22A461C46B8470346D1
:1029F0000028ECD1611E70076A5C42F080025CD155
:102A00006A540023184607B0BDEC028BBDE8F08F76
:102A1000039B00F10709A3EBD90105EBD90007F0EF
:102A2000A3FE4FEAD903B9F1870F019388BF1023A2
:102A300004939CE7059B05EB030904EB030B07E0FC
:102A4000002BB6D0B84758BB33780AEA030333707B
:102A5000102319465A464846FEF736FB0346022B1A
:102A60004A464FF010014046EAD1019B002BC8D0E6
:102A7000013DE918012315F8012F13448D422B70F5
:102A80004FEA2323F7D1019B013C2344022214F88F
:102A9000011F0A449C4222704FEA2222F7D1B0E77C
:102AA000034694E7094B92E7094B184607B0BDEC83
:102AB000028BBDE8F08F074B8FE7764206F00706E2
:102AC00032416A5489E700BF010CF000320CF0007B
:102AD000250CF000140CF00070B5002849D00D460C
:102AE000002943D0244E04464FF0FF31306807F0F0
:102AF0005BFE90BB002007F083FE50BB20462A46B9
:102B0000012108F01BF80446012007F079FEB8B94E
:102B1000306807F063FE50B9012007F071FE08B974
:102B2000204670BD154807F0A7FD204670BD14482B
:102B300007F0A2FD012007F063FE0028F0D0F1E7C6
:102B40000E4807F099FD306807F048FE0028E3D0F2
:102B5000EDE70C4807F090FDD0E70B4807F08CFD3F
:102B6000002007F04DFE0028C8D0F2E7074C2046B1
:102B700070BD074C204670BD3CAF0120FCD8020060
:102B8000E4D802001CD90200CCD80200200CF000CE
:102B9000250CF00070B5002950D0044600284AD01A
:102BA000294E0D4630684FF0FF3107F0FDFD00283B
:102BB00038D1002007F024FE58BB244BD4F8DC2089
:102BC0009A4213D1D4F8D430DB073AD520462A46AE
:102BD000002107F0B3FF0446012007F011FE58B9A9
:102BE000306807F0FBFD78B9204670BD0120184C15
:102BF00007F006FE0028F3D0164807F03DFD3068C8
:102C000007F0ECFD0028EFD0134807F035FD204613
:102C100070BD124807F030FD0C4BD4F8DC209A420E
:102C2000D0D0E3E70E4807F027FD002007F0E8FDCD
:102C30000028C2D0EDE70B4C204670BD0A4C204660
:102C400070BD0A4CC8E700BF3CAF0120CDAB2301EB
:102C50000E0CF000FCD80200E4D802001CD90200DF
:102C6000CCD80200250CF000200CF000080CF0007D
:102C700000284CD0F0B50D4689B0002938D0044664
:102C8000E42107F071FD01A9204607F0BFFA10B159
:102C9000204809B0F0BD204F4FF0FF31386807F0F1
:102CA00083FD80BB002007F0ABFD40BB01A92A4695
:102CB000204602F071FC0646012007F0A1FDD0B9C4
:102CC000386807F08BFD78B9002EE1D12046E42169
:102CD00007F04AFD29462046FFF7FEFE0F4B00286D
:102CE00018BF184609B0F0BD0D4807F0C5FCEBE76A
:102CF0000C4809B0F0BD0C4807F0BEFCE0E70B48FB
:102D000007F0BAFCD2E70A4807F0B6FCCAE7094860
:102D1000704700BF110CF0003CAF0120120CF00016
:102D2000E4D80200200CF000FCD802001CD90200FC
:102D3000CCD80200250CF0002DE9F04F97B0DDE96A
:102D400020744FEA043E4EEA844E4EEA83149D4DB1
:102D500044F0045C9C012E680096009EF607FAD5AC
:102D6000229DDFF86482974EC8F800C0920142EAC3
:102D7000834242EA053545F010454FEA8348326800
:102D80000192019AD207FAD58F4ADFF838C215604E
:102D90004EEA811E4EF0104E8E01DCF800200292A9
:102DA000029AD507F9D53D0345EA8745864A854FFE
:102DB000C2F800E044EA050949F004593A68039270
:102DC000039AD207FAD5804ADFF8F8E1C2F80090FA
:102DD00044EA033C48EA0C0747F004574FEA033A39
:102DE000DEF800200492049AD207F9D5764ADFF87B
:102DF000D4E117604CEA814949F010498F04DEF8AC
:102E000000200592059AD207F9D56F4ADFF8B4E1A0
:102E1000C2F8009045F0104545F48075DEF80020BA
:102E20000692069AD207F9D5DFF89CE1674ADFF8E7
:102E30009491CEF8005042EA80124FEA801ED9F8F1
:102E400000500795079DED07F9D5DFF87CB1DFF855
:102E500084915C4DCBF8002049EA00394FEA003BF1
:102E60002A680892089AD207FAD5574DC5F80090FB
:102E7000239A574D45EA8249524A12680992099AA3
:102E8000D507F9D5504A4F4DC2F800904CF024595F
:102E900049F400192A680A920A9AD207FAD54A4DCB
:102EA000484AC5F800904EEA030343F0484343F410
:102EB000821315680B950B9DED07FAD54EEA0B05AD
:102EC000DFF804E13F4ACEF8003045EA080545F056
:102ED000045513680C930C9BDB07FAD53A4B394A1F
:102EE0001D604CEA804040F0045013680D930D9B28
:102EF000DD07FAD5344BDFF8E0C0324A18604AEA01
:102F00000C0C13680E930E9BD807FAD52E4B2D4D43
:102F1000C3F800C047EA013746EA070C4CF00450FA
:102F20000A032B680F930F9BDB07FAD5264B254D21
:102F300018604CF0104C2B681093109BDB07FAD5EF
:102F4000214B204DC3F800C02B681193119BDB0768
:102F5000FAD51D4B1B4D1860274347F004572B68CB
:102F60001293129BDB07FAD5174B16481F60239B61
:102F700044EA080444EA033444F010440368139319
:102F8000139BDD07FAD5104B0E481C60324342F00C
:102F9000245242F4101203681493149BDC07FAD5F0
:102FA000094B08481A600E4346F0484646F4A216FC
:102FB00003681593159BDB07FAD5034B1E6017B00A
:102FC000BDE8F08FB0B0025080B002500040102138
:102FD0000041002100011021400128292DE9F04F76
:102FE0008BB00F46159D6C6A8146084621461E46E9
:102FF0009046FEF779F9214683461498FEF774F956
:1030000023462A4607218246002003F0EDF805F208
:10301000D44205230721012003F0E6F8002E49D011
:10302000424623460721092003F0DEF823463246B4
:103030000721082003F0D8F8149B0097CDE903A5D9
:10304000CDE901B3082209230E210D2003F092FCE3
:10305000054618B128460BB0BDE8F08F0D22214679
:10306000484603F095F8294A13680893089BD90746
:10307000FAD5274B2749284A196013680993099BF9
:10308000DB07FAD5254B0E22214648461F6803F080
:103090007FF8002EDED104F18044013C6FEA17373F
:1030A00059F82430284643EAC77749F824700BB012
:1030B000BDE8F08F234605F1940207211A2003F0A2
:1030C00093F8234605F294420721182003F08CF868
:1030D000234605F2B4420721192003F085F804F1D4
:1030E0008043013B424658F82310079121F00041EC
:1030F00048F8231009202346072103F075F80798A4
:103100000921C20F082003F0D3FF95E7B0B00250A9
:1031100080B00250C01F3647B4B0025088B0025091
:10312000004870478CD902002DE9F843089C81467D
:10313000884610461946656A1646FEF7D5F80028F7
:1031400000F0A980224607462B460721002003F005
:103150004BF804F2D44205230721012003F044F880
:1031600004F1D4022B460721102003F03DF804F1AE
:10317000F4022B460721112003F036F804F58A7279
:103180002B460721122003F02FF804F59A722B46E4
:103190000721132003F028F804F5AA722B46072113
:1031A000142003F021F804F5BA722B4607211520EC
:1031B00003F01AF804F5CA722B460721162003F013
:1031C00013F804F5DA722B460721172003F00CF8E8
:1031D00004F5EA722B4607210C2003F005F804F5EC
:1031E000FA722B4607210D2002F0FEFF04F505724E
:1031F0002B4607210E2002F0F7FF04F50D722B4637
:1032000007210F2002F0F0FF04F555722B4607212D
:10321000022002F0E9FF04F55D722B46072103202E
:1032200002F0E2FF04F565722B460721042002F04C
:10323000DBFF04F56D722B460721052002F0D4FF59
:1032400004F575722B4607211C2002F0CDFF04F512
:103250007D722B4607211D2002F0C6FF072104F2D4
:10326000744208462B4602F0BFFF3946304604F050
:103270000FF9044610B12046BDE8F88348462946B8
:10328000102202F085FF40462946112202F080FFFD
:103290002046BDE8F883024C2046BDE8F88300BF15
:1032A0000223F0002DE9F04F87B05C6A109D1646AE
:1032B0004FEA84090F464FF0000C9A4680464A4672
:1032C00031462B4604200397CDF814C0FEF77EFE4E
:1032D000074660B104EB4404A100284607F044FA15
:1032E000059804F0ABFD384607B0BDE8F08F2B48D9
:1032F0004FF0FF3107F058FA00284AD1002007F0BC
:103300007FFA002841D11E23DAF82000059305AA90
:10331000002104F0B7FEB0BB2B68CDF800A023F06D
:103320000703A9F1040A2B6055F80A3023F0404343
:1033300043F0804305EB090B45F80A305946234614
:103340002A4605EB490000F0F7FA07460028C1D1EC
:103350005BF824105BF80A2042EAC1723146039EF2
:103360004BF80A2030464A4607F0F8F922465946FB
:103370004046FDF701FF33464B444A464146184656
:1033800007F0ECF9A6E7064FA4E7064807F074F942
:10339000B9E7054807F070F9B0E700BF40AF01207A
:1033A0003323F00094DE0200B4DE02002DE9F04F7A
:1033B0002DED048B91B0DDE91E45D4F88C904FEAD9
:1033C000890684460C461F46194690462B463246CF
:1033D0000420CDE9034CFEF7F9FD044670B1284600
:1033E0004FF40C7107F0C0F94FF0FF3004F026FDE8
:1033F000204611B0BDEC048BBDE8F08F2B78721E17
:1034000023F007034FEAC9002B70AB5C069005EB75
:10341000460C014664464031611803F03F0343F017
:10342000400301EB000A0791AB5450460421CDF84C
:1034300014C0FEF799FE05EB060B04460028CED11A
:10344000B8F1000F00F01481C6F180034345C0F0CD
:10345000138142460399059807F080F906EB0802AC
:1034600059465046FEF7E4FE04460028B7D15946B7
:103470005046FEF72DFE04460028B0D199484FF083
:10348000FF3107F091F9002840F01C81002007F07F
:10349000B7F9002840F012814FEA8913002218463C
:1034A000114608EE903A04F0EDFD002840F0E2806D
:1034B0001E9B68331A46012109EE103A4B4602F072
:1034C00093FE5A4610230121022002F08DFE864A07
:1034D00013680B930B9BDB07FAD5844B844A1A6065
:1034E00049460222584602F053FE1E9B0022D3E9B1
:1034F000080104F0C7FD002840F0BC8005991E9A21
:1035000000928B19184608EE103A5A464B46FFF7C0
:103510000BFE044600287FF462AF0598321F50F876
:103520002910835883EAC1738350B91918EE100A21
:10353000324607F013F9B8F1000F00F0C78018EE1B
:10354000102AC6F14003B8EB430F02EB060000F26D
:10355000BF80069B039942469E1807F0FFF8A046DD
:1035600004215046FEF700FE044600287FF437AFE2
:10357000059932465046FEF75BFE044600287FF46C
:103580002EAFB8F1000F0BD00698039B03444246C0
:1035900019465046FEF74CFE044600287FF41FAF44
:1035A00007995046FEF794FD044600287FF417AFB4
:1035B0002246214618EE900A04F064FD04460028D5
:1035C00058D119EE102A4B46012102F00DFE079A40
:1035D00010230121032002F007FE4B462A46012159
:1035E000042002F001FE4B465A460121022002F05F
:1035F000FBFD1E9A012102F59D620846052302F09B
:10360000F3FD394A13680C930C9BDE07FAD5374B50
:103610003849394A196013680D930D9BD807FAD5BC
:103620001E9A364BD2F888201A6035492E4A09F185
:1036300002035B010B6013680E930E9BD907FAD54A
:103640002A4B3049284A196013680F930F9BDB07F8
:10365000FAD5264B2C4A1A6018EE100A4946052264
:1036600002F096FDDDE90512049807F077F8B6E65A
:103670003246F5E6254CB2E61A46039905980993B9
:10368000A8F1800407F06AF8A31980225946504631
:103690000893FEF7CDFD044600287FF4A0AEDDE9D7
:1036A0000823002A3FF4E3AE039950461944FEF77D
:1036B000BFFD044600283FF4DAAE90E6144806F059
:1036C000DBFFE9E6134806F0D7FFDFE6069E47E793
:1036D000069B0399C3F18002A8EB0308802607F03C
:1036E0003DF83DE740AF0120B0B0025080B002503D
:1036F000000108A1C0010CA1B4B0025090B002506A
:1037000094B0025040410C88402114303323F00023
:1037100094DE0200B4DE02002DE9F04F8DB00C46BD
:10372000DDF85890039406464FF0FF317A48D9F8F7
:1037300024A015461F4607F037F84FEACA040028B0
:103740003ED1002007F05CF8B0BBD9F82030321928
:1037500003F01F0312F8012C023B52FA03F326D1A7
:103760004FEA8A084146384605F0AAFD8346F0B97B
:10377000179B1798434442463146049306F0EEFFE8
:1037800004984246394606F0E9FFEDB1C8F140031E
:10379000B5EB430F5BD8049B0399CDF81CB04344B1
:1037A0002A461846059306F0D9FF621911E05B4CD2
:1037B00020460DB0BDE8F08F594806F05DFFC4E724
:1037C000584806F059FFBCE7049B0795434422463E
:1037D0000593059B069203EB480202EB040B584647
:1037E00004210892FEF7C0FC059B4344044609935C
:1037F00000BB069A17995846FEF71AFD0446C8B949
:10380000079B43B11A46039B2B4419465846FEF7C3
:103810000FFD044670B917995846FEF759FC044647
:1038200040B9024601464FF4007004F02BFC0446F8
:10383000E8B13D4C17984FF40C7106F095FF4FF02E
:10384000FF3004F0FBFA20460DB0BDE8F08F049B7A
:103850000399C4F1800B03EB08005A46803D0590A4
:1038600006F07CFF2B1907935D468022B1E7179A7B
:1038700010230121032002F0B7FC09F1680253462E
:103880002046012102F0B0FC284A13680B930B9BE1
:10389000DB07FAD5264B274A1A60179851460322B0
:1038A00002F076FC0022D9F82000114604F0EAFB71
:1038B00004460028BDD1049D394628464246FDF7FE
:1038C0004BFCA8F10401059F6B5803F100436B50BA
:1038D000424606EB08013846FDF73EFC2A46089DA5
:1038E0001799CDF80490234600972846FFF776FBFA
:1038F000044600289ED13146099E42463046FDF7D7
:103900002BFC42463146284605F0A8F8034B002818
:1039100008BF1C468EE700BF40AF01202023F00007
:1039200094DE0200B4DE02003323F000B0B0025097
:1039300080B0025000010CA12DE9F04784B09A46F6
:103940000C9C8146884610461946656A1646FDF766
:10395000CBFCBAF1000F00F0BA802B4622460721BB
:103960000746002002F040FC052304F2D442072160
:10397000012002F039FC2B4604F5EA7207210C20E5
:1039800002F032FC2B4604F5FA7207210D2002F0FA
:103990002BFC2B4604F5057207210E2002F024FCB7
:1039A0002B4604F50D7207210F2002F01DFC2B465B
:1039B00004F515720721102002F016FC2B4604F5C1
:1039C0001D720721112002F00FFC2B4604F5257211
:1039D0000721122002F008FC2B4604F52D72072166
:1039E000132002F001FC2B4604F535720721142048
:1039F00002F0FAFB2B4604F53D720721152002F078
:103A0000F3FB2B4604F545720721162002F0ECFB70
:103A10002B4604F54D720721172002F0E5FB2B46DB
:103A200004F214420721082002F0DEFB2B4604F2C8
:103A300034420721092002F0D7FB04F254422B46FE
:103A400007210B2002F0D0FB234A13680093009B50
:103A5000DB07FAD5214B22491F4A196013680193ED
:103A6000019BD807FAD51D4B1E491B4A19601368E4
:103A70000293029BD907FAD5184B1B49164A1960C5
:103A800013680393039BDB07FAD5144B174A1A609C
:103A9000072104F2744208462B4602F0A5FB394682
:103AA000304603F09DFE044618B1204604B0BDE840
:103AB000F08748462946102202F06AFB4046294614
:103AC000112202F065FB204604B0BDE8F087084CE7
:103AD000204604B0BDE8F087B0B0025080B002507C
:103AE00080022A4780122A4F80010021806118211C
:103AF0000223F00000487047CCDE02002DE9F041BF
:103B0000069C0E46154698462246636A01210746E2
:103B1000002002F069FB012104F1B40208460523EC
:103B200002F062FB636A04F194020121062002F0B4
:103B30005BFB636A42460121082002F055FB2946DF
:103B4000304600F00DF8044630B905F11F0149096F
:103B50003846072202F01CFB2046BDE8F08100BF7A
:103B60002DE9F04FA7B0092304460B221846039411
:103B7000059306920C2301220A250C460421089382
:103B8000079502F059FA059BA14A990141EA834140
:103B900041F0924141F4043113680993099BDF0716
:103BA000FAD59C4A9C4B11600699303243EA811148
:103BB00013680A930A9BDE07FAD5964B944A19605C
:103BC000089B990141EA834141F0924141F404315B
:103BD00013680B930B9BDD07FAD58E4B8C4A19604B
:103BE00013680C930C9BD807FAD58A4B8B49884AEB
:103BF000196013680D930D9BD907FAD5854B884A38
:103C00001A6014F11E0248BF04F13D026FF04043F8
:103C100003EB6213039A671E52F823300293002FBE
:103C2000C0F23981DFF81482794C7A4D002206AB5C
:103C30000DF1140B0DF1200A0DF11C0907F01F0600
:103C40001F2E04D10398791150F821100291029986
:103C5000009321FA06F606F001061946724058460E
:103C6000019205F02FF8019A5146484605F02AF8CE
:103C7000089A009B48EA023122680E920E9AD207F7
:103C8000FAD52960069A674941EA824122680F9273
:103C90000F9AD007FAD52960079A48EA02312268BC
:103CA0001092109AD207FAD52960059A5E4941EA26
:103CB000824122681192119AD007FAD52960059A9B
:103CC0000798910141EA804141EA023141F00451F3
:103CD00022681292129AD207FAD52960DDE90612FB
:103CE0000898920142EA814141EA003141F00451D1
:103CF00022681392139AD007FAD52960089A05987A
:103D0000910141EA003141F0104141F40021226863
:103D10001492149AD207FAD52960079A910141EAC0
:103D2000023141F0104141F4402122681592159A68
:103D3000D007FAD5296022681692169AD107FAD5CB
:103D40003A4A2A60059A110341EA824141F0104142
:103D500041F0C00122681792179AD207FAD529605C
:103D6000DDE90701069A920142EA814141EA003108
:103D700041F0045122681892189AD007FAD52960A8
:103D8000079A48EA023122681992199AD207FAD59D
:103D90002960DDE90720910141EA804141F00451A9
:103DA00041F4804122681A921A9AD007FAD5296004
:103DB000059A1F4941EA821122681B921B9AD20779
:103DC000FAD5296022681C921C9AD007FAD5194AA4
:103DD0002A6022681D921D9AD107FAD5164A2A60D8
:103DE000079A910141EA824141EA023141F01041D2
:103DF00022681E921E9AD207FAD52960069A91016E
:103E000041EA824141EA023141F0104118E000BF2D
:103E1000B0B0025080B002500000224940010021A1
:103E20004051142180400021C040002180300C907E
:103E300000200C9000211429C0400C2100011429FD
:103E400022681F921F9AD007FAD529602268209213
:103E5000209AD107FAD52F4A2A60DDE9070291019D
:103E600041EA003141F0104141F4001122682192F1
:103E7000219AD207FAD52960079A274941EA821187
:103E800022682292229AD007FAD5013F7A1C296033
:103E900009D03246D2E6002606AB0DF1140B0DF127
:103EA000200A0DF11C0919465846324604F00AFF53
:103EB00032465146484604F005FF069B1749184A0A
:103EC00041EA831113682393239BDC07FAD5154B32
:103ED000134A1960DDE90630190341EA804141F0D7
:103EE000184141F0800113682493249BD807FAD528
:103EF0000C4A0D4B11600599303243EA8141136839
:103F00002593259BDB07FAD5064B0020196027B0C7
:103F1000BDE8F08F823018C800200C9000200229E4
:103F2000B0B0025080B00250C02100882DE9F041AD
:103F300084B007460E460D24174803944FF0FF3116
:103F400090461D4606F030FC10BB002006F058FCE1
:103F5000D0B9286A03AA002104F094F8044660B995
:103F6000D5F88C103046FDF7BFF900950246434660
:103F700031463846FFF7C2FD0446039803F05EFF62
:103F8000204604B0BDE8F081044806F075FBE0E788
:103F9000034806F071FBD8E740AF0120C4DF020000
:103FA000E4DF02002DE9F043D0E9D2451F3485B0AB
:103FB000640903EBC40E1E4603EB84071F3500F1B2
:103FC00048030093CDE9027E034601969046903067
:103FD0006A0903F00DFD054640B130464FF45371B8
:103FE00006F0C2FB284605B0BDE8F08338462146FE
:103FF000FDF77AF960B121463046FDF775F938B121
:104000004FEA84094A4640463146FDF787F9E4E71E
:10401000004DE2E72008F1002DE9F04F2DED028B75
:10402000A3B0059109930490002800F09F81002916
:1040300000F0A3819246D2E9C1321F32B2F5207F4F
:1040400003F11F0380F04F81B3F5187F80F04B819F
:104050003299AC4FDFF8C8B25B09520901EB830813
:1040600008EB82010792920001EB8306131F069270
:10407000F21843440B930AF14C0308EE903A08916E
:104080000A924FF000092E9B002B40F04B81B9F1B2
:10409000000F40F02F81069A2F99404606F05EFBF4
:1040A000089A0292329A03960AF5DC73CDE900323F
:1040B00018EE900A0AF5B873079A414603F098FC87
:1040C0000346002840F01081DAE9C14000F11F02E8
:1040D0002023B2F5207F04F11F04149380F00381A4
:1040E000B4F5187F0C9280F0FE80874A92F9023076
:1040F0000D93134692F903200E921A4693F9043059
:104100000F93134614A993F90650129593F907508B
:1041100092F90520139593F908501092119503F028
:1041200073FF0346002840F016810C9A510908EEEF
:10413000101A0B460AF59272012102F055F89DF80B
:1041400034009DF838500C900121084605230AF5EB
:1041500006720D9502F048F863090C989DF83C40F2
:10416000329A012102F040F8284618EE103A099AD6
:104170009DF84050012102F037F8204618EE103A21
:104180004246012102F030F85246012118EE103A61
:10419000284602F029F89DF844108A0142EA844C2E
:1041A0004CF0274CA4043B681593159BD807FAD50F
:1041B000564B44F0AE40C3F800C040F402303B68B8
:1041C0001693169BDB07FAD5504B1860DBF80030CE
:1041D0001793179BDB07F9D54D4B1B68D8047ED48A
:1041E00042F0245242F408323B681893189BDB07D4
:1041F000FAD59DF8480044EA801343EA0131434B65
:1042000041F018411A603B681993199BDC07FAD5F5
:10421000404A3E4B42EA804219603B681A931A9B1F
:10422000D907FAD5394B1A60DBF800301B931B9B7A
:10423000DB07F9D5364B1B68DC0450D49DF84C20C5
:104240000C9BAC0444EA821444EA033444F008446E
:104250004FEA821C3B681C931C9BD907FAD50D9B27
:10426000990141EA8341294B41F058411C603B6868
:104270001D931D9BDB07FAD50D9B4CEA033343EAE4
:104280008244224B44F04454196091043B681E93CD
:104290001E9BDD07FAD51D4B4CEA0030084340F069
:1042A00008401C603B681F931F9BDC07FAD5174B27
:1042B00041F0A24141F4023118603B682093209BF9
:1042C000D807FAD5114B1960DBF800302193219BF8
:1042D000DB07F9D50E4B1B6813F480534FD01498AD
:1042E00003F0ACFD3AE00C4B184623B0BDEC028B5A
:1042F000BDE8F08F094B184623B0BDEC028BBDE83A
:10430000F08F00BFB0B0025010E7020080B0025042
:1043100088B00250000802513108F1001108F10084
:10432000B4B002500A9B069A00241C600AF59271F0
:10433000304606F013FA0B9B1C60CDF80080334624
:10434000DDE90401DAF80823FEF7CEFA0346002877
:104350003FF4A6AEC8E7144A9042C5D12E9B0BB3DA
:10436000B9F1650F1ED009F101098CE60F4B184613
:1043700023B0BDEC028BBDE8F08F0D4BB4E718EE17
:10438000101A3098049314460C9A01F001FF18EEAD
:10439000101A3198224601F0FBFE149803F04EFDEE
:1043A000049BA1E7004B9FE71008F1009108F00083
:1043B0009008F000F8B515460732D2086C42064660
:1043C000FCF7ACFF14F007041BD01F356D09B5F1E5
:1043D000010C12D0331F316803EB8505C4F12007AF
:1043E000334621FA04F0596801FA07F2024343F810
:1043F000042B9D42F5D106EB8C06336823FA04F4B6
:104400003460F8BD2DE9F047D0E9D2A682B0044669
:10441000B6F5187F4FF0200001907DDCBAF5107FD3
:104420007ADCB24550460F46B8BF304601A99046E7
:10443000994603F0E9FD054618B1284602B0BDE8EB
:10444000F08716F11F0548BF06F13E05354A364B89
:1044500016606D11C3F800A004F5B4722B4601215B
:10446000002001F0C1FE0121084604F51772052362
:1044700001F0BAFE2B464A4601211C2001F0B4FE91
:104480000A9A2B460121032001F0AEFE43463A462C
:104490000121022001F0A8FE1AF11F0548BF0AF110
:1044A0003E056D112B4604F1900201211A2001F006
:1044B0009BFE04F51272052301211B2001F094FEDE
:1044C0002B4604F5DA720121142001F08DFE2B46F3
:1044D00004F5FE720121152001F086FE2B462246CE
:1044E0000121162001F080FE2B4604F14802012133
:1044F000172001F079FE2B4604F1D80201210B2090
:1045000001F072FE03F00AFB0546019803F096FCE9
:10451000284602B0BDE8F087044D284602B0BDE849
:10452000F08700BF90B0025098B002503108F100FF
:1045300070B5D0E9D2421F3484B0640900F1480359
:104540000D4601EB84061F3201EBC4010391009379
:1045500000F5B4710346CDE901565209903003F0DD
:1045600047FA70B930462146FCF7BEFE30B9214605
:104570002846FCF7B9FE08B904B070BD024804B083
:1045800070BD024804B070BD1008F0003008F000A3
:104590002DE9F04385B000284CD00E4600294ED0BE
:1045A0001546002A4DD0002B3FD0D0F8BC220393F3
:1045B00005F14C0700F5B6731F3201F1040905F14E
:1045C0000408CDE9018700935209494600F592732A
:1045D000044603F00DFA0746A8B94FF43772214696
:1045E00006F1500006F0BAF8174B336021464FF43D
:1045F000377205F1940006F0B1F8144B2B60384681
:1046000005B0BDE8F08300244846346021462C60A4
:104610004C2206F0A7F840462146902206F0A2F868
:104620000B4F384605B0BDE8F0830A4F384605B059
:10463000BDE8F083084F384605B0BDE8F083074F6A
:10464000DDE7074FDBE700BF020000EC010000ECF4
:104650003008F0000508F0000208F0000308F00040
:104660000408F000F0B50446D0F848038DB000F11E
:104670001F062023B6F5187F00937ED20F466946A9
:1046800003F0C2FC054610B128460DB0F0BD760916
:10469000334604F19002012101F0A6FD01210846F4
:1046A000052304F5127201F09FFD334622460121D5
:1046B000022001F099FD334604F1D80201210420C3
:1046C00001F092FD04F5907233460121052001F0BE
:1046D0008BFD424A13680193019BDB07FAD5404BDF
:1046E00040493E4A196013680293029BD807FAD5E5
:1046F0003B4B3D49394A196013680393039BD90723
:10470000FAD5374B3949354A196013680493049B2D
:10471000DB07FAD5324B364A1A6007F00603022B44
:104720002FD004F1480233460121032001F05CFD43
:104730002A4A13680593059BDC07FAD5284B2D49B7
:10474000264A196013680693069BD807FAD5244BAE
:1047500029492A4A196013680793079BD907FAD594
:10476000274A284B126812F4805F08BF1D46009844
:1047700003F064FB28460DB0F0BD234D28460DB074
:10478000F0BD04F0C7FA002826D01C4A136808932D
:10479000089BDB07FAD51D4B184A196813680A9362
:1047A0000A9BD807FAD51A4A1A4B11601B6809935D
:1047B000099B5F40F90708D5343A13680B930B9BAC
:1047C000DB07FAD5064B144A1A60314604F148005B
:1047D000032201F0DDFCCAE7104DC8E7B0B002507B
:1047E00080B002508021088880411831806108889B
:1047F0000051183180310C8800681051B4B002505B
:1048000088B002501008F0000F08F0000CB0025001
:10481000E4B00250DCB00250C03000294021F0006A
:104820002DE9F041002800F081801D46036A072B26
:104830000F46044616D055B9032B0FD1036B6BB945
:10484000C0E90F55C0E9115500F13C0710252B4672
:1048500039462046BDE8F04104F0E0BF2E46304620
:10486000BDE8F081436B002B37D1B5F5805F39D2BD
:1048700015B9236B002B35D167484FF0FF3105F098
:1048800093FF002840F09780002005F0B9FF002832
:1048900040F09980614B01221A60236A032B23DCCC
:1048A000002B23DA5E4E5F4A1368002BFCD15B4974
:1048B0005D4A0B60106840F0400005F065FE012085
:1048C00005F09EFF00287AD1534805F087FF0028A5
:1048D000C5D0564805F0D0FEC1E7012BC8D1B5F5CB
:1048E000803FC5D3524EBAE7072BDBD1636A012B59
:1048F00078D8636B012B57D8A36B012B00F284800F
:10490000204600F0E9F906460028CCD1A36A012B25
:104910006AD033F0020271D0236A013B062B13D810
:10492000DFE803F009440912121209004FF471067E
:104930003046BDE8F0813F4B22681A6062685A60D9
:10494000A2689A60E268DA603B493C4A01230B6046
:104950001560002D3BD1226B0AB9394A1360314BE7
:104960001E68002EFCD1236A013B062B9BD801A2B6
:1049700052F823F091490000B1490000914900002C
:10498000A7480000A7480000A74800009149000080
:10499000284A2C4B126822601A6862605A68A2602A
:1049A00008331B68E3607EE7274E7CE7274BC3E7AD
:1049B000264A274BEEE7274805F05EFE64E72648C7
:1049C00005F05AFE80E7254805F056FE62E7636B66
:1049D000012B1BD0224A234B176010201D6005F0CD
:1049E000DBFDBCE7204E5EE7204B22691A6062695E
:1049F0005A60A2699A60E269DA608DE71C491D4A33
:104A00000B600123136087E71B4E4CE71B4A1C4BCE
:104A1000176040201D60E2E74CAF012010B8025043
:104A20000100F10010B9025004BA025000E4020083
:104A30000500F10040B402507CB40250BCB40250F6
:104A400024B5025044B402500300F10060B4025097
:104A500064B40250E8E30200A8E30200C8E30200E5
:104A600030BC025034BC02500200F10000B40250CD
:104A700038BA025078B402500400F10028BC025049
:104A80002CBC025000283BD0F0B482B0436A0193A2
:104A9000836893FA83FC019BD0E90712D0E903767F
:104AA000D0E905541BBA4362436C019309BA836A87
:104AB000C16112BA02623FBAD0E90F1236BA2DBAFA
:104AC00024BAC0E902C7C0E90465C76A066B456B32
:104AD000846193FA83FC846B019B3FBA36BA2DBA8A
:104AE00024BA09BA12BA1BBAC0E90AC7C0E90C65F0
:104AF000C0E90E41C0E91023002002B0F0BC7047AD
:104B00004FF47200704700BF002800F098802DE934
:104B1000F0414C4B826D9A42E0B0804603D04A4847
:104B200060B0BDE8F081016E00F148052846C9007B
:104B3000042200F08BF8D8F8543020A84FF480728B
:104B400000211CBA05F00EFED8F85C20E308B3FB88
:104B5000F2F402FB1434141B102C98BFA41820ABE1
:104B6000A4F1100018442946102280258DF88050A9
:104B700005F0F4FD2A46684608F1640105F0EEFDF3
:104B8000D8E917230DEB05010DEB0300D21A05F050
:104B9000E5FDD8E91753ED1AADB26946404600F07D
:104BA00039F9A5423FD3D8E90641D8E90823D8E925
:104BB0000207D8E9046500BA3FBA24BA09BA12BAA2
:104BC000C8E9027036BAD8F83400C8F81C402DBACB
:104BD000D8F83040C8F818101BBAC8F82420D8E913
:104BE0000F12D8F83870C8F81460C8F81050D8F808
:104BF0002860D8F82C50C8F82030D8F8443024BAAF
:104C000000BAC8E90C0436BA2DBA3FBA09BA12BACA
:104C10001BBA0020C8E90A56C8E90E17C8E91032C5
:104C200060B0BDE8F08120AB59196846D8F85C2027
:104C300005F094FD6946404600F0ECF8B3E74FF408
:104C400072007047785634120200F200F0B48AB352
:104C5000051F2B4605EB8206970053F8044F24BA34
:104C60009E421C60F9D13C1F03595918015116D3BB
:104C7000931E00EB830150F82340661CA64240F8C7
:104C800023600CD80BB90AE03BB151F8044D651C08
:104C9000A54203F1FF330D60F6D94AB1051F28463E
:104CA000002150F8043F01311BBA8A420360F8D852
:104CB000F0BC704750F8043C5B1840F8043CF7D354
:104CC00050F8084C631C9C4240F8083CA0F10801D5
:104CD000EED36FF00103D8E738B5224B224A012109
:104CE000054619601368002BFCD1204A1368002B7D
:104CF000FCD11F4A1368002BFCD11E4A1368002BFD
:104D0000FCD11D4B1C68002CFCD14FF0FF3005F08E
:104D10002FFC2B6A23F00403032B184B18680CBFDD
:104D200020F0400020F0800005F02EFC144B002203
:104D30001A602B6A23F00402032A18BF6C6A114A16
:104D40004FEA830318BF04F0010403F01C031C4363
:104D500014602B6A072B02D10B4B01221A60002032
:104D600038BD00BF00B9025070B4025020BD0250DF
:104D700020BC025038BD025038BC025004BA025068
:104D8000BCB40250C0B402507CB40250E8B110B5BB
:104D90000468012C04D0022C10D044B10C4810BD82
:104DA0000C490830202205F0D9FC002010BD0A492A
:104DB0000830142205F0D2FC204610BD0749083007
:104DC000202205F0CBFC002010BD4FF4720070478C
:104DD0000100F20030E00200FCDF020010E00200FF
:104DE00078B110B50368032B044601D0064810BD06
:104DF00006494022083005F0B1FC054BA3650020B0
:104E000010BD4FF4720070470100F2008CD8020010
:104E1000785634122DE9F04F2DED028BADF5597D0A
:104E200000F108050C464022002128A8FBF7BEFB34
:104E3000294628A8402205F091FC2A9B1493319B17
:104E40001593329B1693339B1793349B1893359B82
:104E50001993369B1A93379B1B93289B1293299B7C
:104E60002B9A2D982F9F309E2C99139308EE105A51
:104E7000784B2E9D1C921E9021971F961D91209578
:104E800004F1040C01930D92DDE915420292179A88
:104E90000392189A149B0B92199A0093DDE91AABAE
:104EA00003460C923046DDE912620DF1E009CDE9CE
:104EB0000607CDF820A0CDF824B00A910495174636
:104EC000CA469B4612E002990B9103990C910099F6
:104ED0000A910699DDF834B00096CDE902140D97D9
:104EE000CDF818E044461E461746704683044FEA44
:104EF000844EA1034EEA903E43EA943841EA904141
:104F00000B9BC205850302988EEA010142EA5422F6
:104F100083EA000E06984A4045EA9445E10588EA8E
:104F200005030EEA000E0C9D249241EA50210398DD
:104F30000B9ADDF89090594045400C9B2591DCF888
:104F400000005CF8041C25405D408EEA0202964693
:104F500090FA80F8259A259509BA3D01CAE90081A1
:104F60000198259945EA1678B50745EA970519EBA2
:104F70000E0388EA0505F0E9028941EB0202710699
:104F800041EAD7114D4001900A99009824953501C6
:104F900045EA177E0143BD070A9845EA96058EEA61
:104FA00005058646009831400EEA000E41EA0E01E2
:104FB0000D982291790641EAD61113EB080385EA90
:104FC00001054BEA000142EB09023940FAE8028987
:104FD00025950BEA00050D43DDF890E02299239515
:104FE000089D099813EB080342EB09025B1942EB99
:104FF00000000246DDF894800498239D11EB0E0119
:1050000045EB080510EB030E0798CDF81CB040EBFC
:105010000208CDE92215CB180B99089158A945EB48
:1050200002020A980C9D049051450CF1080C099558
:105030007FF449AF1946084B0E93B6ABCDF83CB0A0
:10504000CDE90746DDF800B00997CDE9001236A892
:10505000119314E048E00200C8E00200069A0292B0
:10506000079A0392DDE908B20D92009A0892019A1C
:105070000992CDE90034CDE906E8CE46D046D0E924
:105080001E64F300620343EA547342EAD6425A4074
:10509000A30643EA9613D0E9047C5A404FEAC409B8
:1050A000730343EAD44349EA5676056D5E4086EAC7
:1050B00094164FEACC73446DA91843EA57094FEA96
:1050C0000C6344EB060643EA17234FEA884489EA57
:1050D000030344EA9E394FEA883444EA9E44C0E917
:1050E000221689EA0404F0E9029ACDE9049A4FEA0B
:1050F0004C6949EAD71983EA090326934FEA0769FD
:10510000FB0743EA5C0349EA1C275F404FEACE53A2
:10511000029A069DDDF898A043EA58235C40249447
:1051200014466C4004EA0E04079D5440039A87EA33
:10513000DC174FEA8E434FEA8E3C27974CEA984C97
:1051400082EA050743EA9833049D83EA0C0307EAE1
:1051500008074FEAC85C57404CEA5E2C4A19059D87
:1051600083EA0C03DDF89CC0259345EB060612EBA1
:105170000A0246EB0C01019E249B009D2494DDE96C
:1051800024942597370147EA15770E9DDDF894C0E2
:10519000C0F8802013EB0903F5E9029A0E95009DF3
:1051A000109144EB0C044FEA857C009DC0F88410FC
:1051B000CDE9049A4CEA960C4FEA0519009D009936
:1051C00087EA0C0749EA16794FEA867C089E4CEA82
:1051D000950C009D89EA0C094BEA060C0CEA050CBB
:1051E000049D5B19059D45EB0404019D4FEA416A4E
:1051F0004AEAD51A009987EA0A0A6F0647EAD117E0
:10520000099D0D9989EA07070BEA06094CEA090C82
:10521000CDF888C09B1841EA050C01EA0502109DF3
:10522000019E45EB04040B9DCDE924A75B190C9D61
:105230000CEA060C4CEA020244EB0505DDF888C0D6
:1052400091462C46259A0A9DCDF828B01CEB0A07FA
:1052500049EB020215EB03090F9D0F9145EB040A80
:10526000FB1842EB0404CDE92272029A0B92039AD6
:105270000C92119A82427FF4F1AE129A0898219E04
:10528000159FD318139ADDE9001542EB0404149A14
:1052900052181C99009241EB05051D99099A2B950E
:1052A00009181E98019140EB020220980D99049272
:1052B00010EB0B0046EB01011F9E08901698069A12
:1052C000049D099116EB090647EB0A0710EB0E0E39
:1052D000179840EB0808189810EB020C1998079AD9
:1052E00040EB02091A98029A10EB020A1B98039AE3
:1052F0002D95099D2F95009D2A95019D2C9540EB9C
:10530000020B089DCDF8C8E038A84FF420720021A8
:10531000CDE92834CDF8D0C03197CDF8CC80CDF888
:10532000D490CDF8DCB02E953096CDF8D8A005F00D
:1053300019FA18EE100A28A9402205F00FFA0DF507
:10534000597DBDEC028BBDE8F08F00BF002861D015
:105350002DE9F0414C1EB4F5047F27D233B32AB3B4
:10536000CD00012B05F1FF3E30D000218C460F46C9
:105370000E4603F1FF384C0901F01F0550F8244098
:105380001F2D24FA05F418BF04F0010421B90126E9
:10539000B44631462746EEE7B34213D0A74201D1C7
:1053A0000CF1010C464504D1624502D21A48BDE811
:1053B000F0813C4601318E4506F10106EAD200201B
:1053C000BDE8F08100264FF0010CF3E70026B4465B
:1053D00037463446610904F01F0350F821101F2B93
:1053E00021FA03F118BF01F001013CB15FB98C450E
:1053F00001D0614608E00136614605E001263446E9
:105400008C460127E6E73E46B242CFD30134AC4298
:10541000F6D1D4E700487047370CF10030B585B0BD
:1054200004460D46104803924FF0FF3105F0BCF9D9
:10543000039A68B9204600950123002104F0F2FB8D
:105440000446094805F0CAF938B9204605B030BD10
:10545000064805F011F9039AECE7054805F00CF948
:10546000204605B030BD00BF4CAF0120D0E20200A5
:10547000E8E202000B6802E0082B0B6006D84268E5
:1054800013424FEA4303F7D00020704700487047AB
:10549000310CF1000138072805D8DFE800F00A0ECA
:1054A000041204040406094870478B698B600020CD
:1054B0007047CB688B60002070470B698B600020C1
:1054C00070474B698B600020704700BF310CF100C2
:1054D00030B4DDE90234049D02940024CDE9035484
:1054E00030BC05F0ABBD00BFF0B4C900002401F131
:1054F000FF3C2646274606E09F4216D0012665451A
:1055000019D82C461F46630904F01F0150F82330B8
:105510001F2923FA01F304F1010518BF03F0010369
:10552000002CE9D101263546EBE701369642E6D15B
:105530000248F0BC70470020F0BC7047360CF10008
:10554000012BF8B516461CD010221D460C4605F05E
:10555000EDF8E0B1AF1E314604EB0710102205F064
:10556000E5F8A0B1022D0ADD0025204610342146C1
:10557000102205F0DBF8013548B1BD42F5D100201D
:10558000F8BD1146102205F0D1F80028F7D10148E6
:10559000F8BD00BF020CF00010B586B005AB0124C9
:1055A000CDE901240093002204AB05F047FD06B0CD
:1055B00010BD00BF084B094A002119601368002B79
:1055C000FCD107480749084A03604FF480604FF058
:1055D000FF330860136070472CB1025010B90250BD
:1055E000C4B1025008BA025008B1025038B504469E
:1055F0004FF4806004F0D0FF054D06480649074A85
:1056000000232B6003600B682360136038BD00BF6C
:10561000C8B102502CB1025004B1025008B102507E
:10562000F0B58FB01203DDE9147C42EA8015564CC8
:1056300045F0245E850122680092009AD607FAD5CB
:105640003F03524A504EC2F800E047EA804747F015
:10565000045747F45077840432680192019AD207C4
:10566000FAD54A4E4A4A376042EA0C3C3036326834
:105670000292029AD707FAD5444A464F424EC2F8E0
:1056800000C047EA834732680392039AD207FAD5EB
:105690003E4A3D4E176032680492049AD207FAD50A
:1056A0003A4A3D4F384E176032680592059AD7073F
:1056B000FAD5364A394F344E176032680692069A48
:1056C000D207FAD51E0346EA8116304B344A2E4FD4
:1056D0001A6046F0104646F440268A013B6807935C
:1056E000079BDB07FAD5294B274F1E6044F0104675
:1056F00046F482463B680893089BDB07FAD5234BA8
:10570000284F1E60204E2F4333680993099BDB0707
:10571000FAD51E4B1C4E1F6045EA003545F0045576
:1057200045F4801533680A930A9BDB07FAD5174BBB
:10573000154E1D6033680B930B9BDF07FAD5134B97
:10574000114E1D6044F0045444F4824433680C93B9
:105750000C9BDD07FAD50D4B0B4D1C600A4342F044
:10576000484444F404242B680D930D9BDB07FAD5C1
:10577000064B0A461C6001460D2300200FB0BDE811
:10578000F04002F007BD00BFB0B0025080B0025040
:10579000800000298020002100D13490C040349046
:1057A000C0302029032008C82DE9F04F99B0DDE969
:1057B00023C74FEA073B4BEA874B4BEA831B9F4DBE
:1057C0004FEA87484BF010449F012E680396039ED2
:1057D000F607FAD5229D9A4EDFF860A234604FEAB0
:1057E000053949EA801949F0245545F420154FEA56
:1057F000801EDAF800600496049EF607F9D5259C11
:10580000DFF838A240EA844B8D4C4BEA033B25601D
:105810004BF0484545F0C0054FEA0339DAF800403F
:105820000594059EF407F9D5854EDFF810A2356082
:1058300047EA090448EA040B4BF01045DAF8006027
:105840000696069EF607F9D57D4EDFF8F0A1356085
:10585000269D44EA854545F01045DAF80060079634
:10586000079EF607F9D5DFF8D8A1744ECAF80050A4
:1058700044F0245A4AF4001A35680895089DED074B
:10588000FAD56F4D6D4EC5F800A044EA8C4A4AF037
:10589000045A35680995099DED07FAD5684D674E9C
:1058A000C5F800A048EA821848F0104848F440586B
:1058B00035680A950A9DED07FAD5614D5F4EC5F82A
:1058C000008035680B950B9DED07FAD55C4DDFF830
:1058D0007C815A4EC5F8008035680C950C9DED070B
:1058E000FAD5574DDFF86881544EC5F80080356809
:1058F0000D950D9DED07FAD5514D524E2E604FEA94
:105900000C3C4CEA811C4CF0104C8D01DFF82C81D2
:1059100001954CF4402CD8F800500E950E9DEE07E2
:10592000F9D5DFF81C81484DDFF810A1C8F800C098
:1059300045EA80484FEA804CDAF800500F950F9DF9
:10594000ED07F9D549EA8345DFF8F4B0DFF8EC90CC
:10595000CBF800804EEA050A4AF0484A9B044AF018
:10596000030AD9F800601096DDF8408018F0010FA6
:10597000F7D04EEA003E3248DFF8C080C0F800A001
:105980004EF0045E4EF4801ED8F80000119011987D
:10599000C007F9D52A48DFF8A480C0F800E0D8F89D
:1059A000000012901298C607F9D52548DFF88C80C0
:1059B000C0F800E04CF0045C4CF4824CD8F80000D5
:1059C00013901398C007F9D5019E1C480B431E4342
:1059D0001B4B46F04846C3F800C046F480460368B7
:1059E0001493149BDB07FAD5130343EA8242144B4A
:1059F00012481E603A4342F0104203681593159B0B
:105A0000D907FAD50E4B0D491A602F4347F01047BE
:105A10000B681693169BDA07FAD5094B074A1F60E5
:105A200044F0104444F4301413681793179BDB07B9
:105A3000FAD5034B1C6019B0BDE8F08FB0B002502E
:105A400080B00250C03020290041009000310C90FD
:105A5000C0400C902DE9F04F99B0DFF870C2269C41
:105A6000239D270347EA844949F0104646F0800603
:105A700099464FEA844EDCF800300193019BDC0725
:105A8000F9D5914B914C1E604FEA894949EA80193A
:105A900049F0104646F400564FEA801A23680293F4
:105AA000029BDB07FAD5884B884C1E604AEA003C13
:105AB0004CF0245646F4001623680393039BDB073F
:105AC000FAD5814B814C1E604EF0104646F40256CA
:105AD00023680493049BDB07FAD5229B7B4C4FEA97
