:020000021000EC
:10C0000000FD0120D935030001360300033603008B
:10C010000536030007360300093603000000000060
:10C020000000000000000000000000000B360300CC
:10C030000D360300000000000F3603001136030028
:10C0400013360300133603001336030013360300C0
:10C0500013360300133603001DD501001336030009
:10C0600013360300133603008D71020013360300EC
:10C070001336030013360300133603001336030090
:10C0800013360300A10B03004128020013360300FE
:10C09000710C0300133603002DE201001336030078
:10C0A0001336030013360300133603001336030060
:10C0B00013360300133603000000000000000000E8
:10C0C0001336030013360300133603001336030040
:10C0D0001336030013360300133603001336030030
:10C0E0001336030000000000000000000000000004
:10C0F00000000000133603000000000013360300A8
:10C10000000000000000000000000000000000002F
:10C11000000000000000000000000000000000001F
:10C12000000000000000000000000000000000000F
:10C1300000000000000000000000000000000000FF
:10C1400000000000000000000000000000000000EF
:10C1500000000000000000000000000000000000DF
:10C1600000000000000000000000000000000000CF
:10C1700000000000000000000000000000000000BF
:10C1800000000000000000000000000000000000AF
:10C19000000000000000000000000000000000009F
:10C1A000000000000000000000000000000000008F
:10C1B000000000000000000000000000000000007F
:10C1C000000000000000000000000000000000006F
:10C1D000000000000000000000000000000000005F
:10C1E000000000000000000000000000000000004F
:10C1F000000000000000000000000000000000003F
:10C2000010B5054C237833B9044B13B10448AFF390
:10C2100000800123237010BD50200020000000008A
:10C22000286E030008B5034B1BB103490348AFF365
:10C23000008008BD0000000054200020286E03008C
:10C24000154B002B08BF134B9D46A3F5803A0021E8
:10C250008B460F461348144A121A18F0E7FD0F4B8D
:10C26000002B00D098470E4B002B00D098470020A1
:10C27000002104000D000D48002802D00C48AFF347
:10C28000008018F083FD2000290000F0D7FC18F092
:10C2900069FD00BF0000080000FD01200000000053
:10C2A0000000000050200020444F0020000000004B
:10C2B0000000000041DF704730B52F4B14461B686B
:10C2C000526887B00D4603F4804362B303B32B4B2F
:10C2D0001B68032B1CDD2A482F2118F079FEC8B1FA
:10C2E0002F21274818F074FE411C264B6268D3F8B2
:10C2F00004350492B4F902200392B4F900200292AA
:10C300006A880192204A00920420C82207F0A8FA05
:10C3100007B030BD1A485C2118F05AFE08B15C2104
:10C32000DFE71749E1E7002BF2D0144B1B68032B22
:10C33000EEDD13482F2118F04BFE98B12F21104845
:10C3400018F046FE411C0F4BB4F90020D3F8043519
:10C3500002926A8801920D4A00920420CD2207F0D1
:10C360007FFAD5E706485C2118F032FE08B15C215F
:10C37000E5E70349E7E700BFA81F0020A41F00204E
:10C380008850030000100140B6500300085103001C
:10C39000012A07B52AD0022A50D0002A70D13C4B7E
:10C3A0001B68590416D53B4B1B68032B12DD3A481A
:10C3B0002F2118F00DFE80B12F21374818F008FE0C
:10C3C000411C364B364AD3F804350092AF22042084
:10C3D00007F046FA03B05DF804FB2F485C2118F023
:10C3E000F7FD08B15C21E8E72B49EAE70622322194
:10C3F0004FF4F03000F0FCFF254B1B685A04E9D5E0
:10C40000244B1B68032BE5DD23482F2118F0E0FDAA
:10C4100058B12F21204818F0DBFD411C1F4B214A49
:10C42000D3F804350092B422D1E71B485C2118F000
:10C43000CFFD08B15C21EDE71749EFE7144B1B680E
:10C440005B04C7D5134B1B68032BC3DD12482F2198
:10C4500018F0BEFD58B12F210F4818F0B9FD411C4E
:10C460000E4B114AD3F804350092B822AFE70A48C0
:10C470005C2118F0ADFD08B15C21EDE70649EFE75E
:10C48000054ABC21032003B05DF804EB17F0CFB8D8
:10C49000A81F0020A41F00208850030000100140A6
:10C4A00031510300515103007151030070B5854DA6
:10C4B0002B68441C580488B017D5834B1B68032B8A
:10C4C00013DD82482F2118F083FDB0B12F217F4862
:10C4D00018F07EFD411C7E4B7E4AD3F80435009255
:10C4E0000194F422042007F0BBF9013C052C1ED86E
:10C4F000DFE804F00C491754415A74485C2118F0E5
:10C5000067FD08B15C21E2E77049E4E7724AB2F9DD
:10C51000003072498B4230DBA3F51C53103B1BB239
:10C520002CE06F4A1368A3F51C53103B136005F011
:10C5300069FB6C4A1368106003F5371303F5D86381
:10C54000834238BF66492A683EBF0B7901330B71BD
:10C550004FF4FA636421CDE9063102F48042062CDF
:10C5600000F23A81DFE814F025002500750075001F
:10C57000CC00CC000A015C4AC9E75C4B138093787D
:10C5800001339370D3E7544AB2F9003045F6EE0117
:10C590008B420BDC03F51C531033C0E7504A136881
:10C5A00003F51C531033C1E74F4AEDE747F6FF731D
:10C5B000E4E712B3444B1B68032B1EDD43482F21D5
:10C5C00018F006FD00283BD02F21404818F000FD50
:10C5D000411C3F4B079AD3F804350492069A039204
:10C5E0003D4A90780290B2F900200192404A0092B0
:10C5F00004204FF4977207F033F93E4E3E4C3278E8
:10C6000038235343E05A12F06BFA30783249C0EBCA
:10C61000C00006AA04EBC0000DF0C4F908280446C7
:10C6200000F25281082800F25181DFE810F0EE009C
:10C630004F014F014F01F9004F014F012801F9004F
:10C6400022485C2118F0C4FC08B15C21BDE71F49F9
:10C65000BFE702B31C4B1B68032B1CDD1B482F21BB
:10C6600018F0B6FC20B32F21184818F0B1FC411C7B
:10C67000174B079AD3F804350492069A0392184A86
:10C6800010790290126801921C4A0092042040F234
:10C69000371207F0E5F8174B174C18781049C0EB24
:10C6A000C000002306AA04EBC0000DF0BFF9B5E7F7
:10C6B00006485C2118F08CFC08B15C21D4E70349E2
:10C6C000D6E700BFA81F0020A41F00208850030049
:10C6D0000010014093510300EE20002011A7FFFF3E
:10C6E00070200020F4200020EA2000200080FFFFBE
:10C6F000A65103006C200020782000200352030084
:10C700000AB3764B1B68032B1DDD75482F2118F0EB
:10C710005FFC50B32F21724818F05AFC411C714B3A
:10C72000079AD3F804350492069A03926E4A9078D9
:10C730000290B2F9002001926C4A0092042040F26B
:10C74000411207F08DF86A4E6A4C32783823534311
:10C75000E05A12F0C5F930786349C0EBC00006AA70
:10C7600004EBC0000DF09EF958E75D485C2118F01D
:10C770002FFC08B15C21CEE75949D0E75C4C237807
:10C780000133DBB2022B28BF00232370002A3CD0E8
:10C79000524B1B68032B38DD51482F2118F018FC31
:10C7A00088B12F214E4818F013FC411C4D4B2278C4
:10C7B000D3F804350192504A009240F24B12042003
:10C7C00007F04EF821E046485C2118F001FC08B162
:10C7D0005C21E7E74249E9E7BAB1404B1B68032B0C
:10C7E00013DD3F482F2118F0F3FB80B12F213C4887
:10C7F00018F0EEFB411C3B4B404AD3F80435009245
:10C80000042040F24F1207F02BF808B070BD3448F6
:10C810005C2118F0DDFB08B15C21E8E73049EAE76C
:10C820002B685A041BD52D4B1B68032B17DD2C4896
:10C830002F2118F0CDFBC8B12F21294818F0C8FBD3
:10C84000411C284B2A4AD3F80435029412780192ED
:10C850002B4A0092042040F25B1207F001F80622F6
:10C8600032214FF4F03000F0C3FDCEE71C485C21CC
:10C8700018F0AEFB08B15C21DFE71949E1E72B684E
:10C880005B04C2D5154B1B68032BBEDD14482F215A
:10C8900018F09EFB78B12F21114818F099FB411C2C
:10C8A000134A104B1278D3F804350192154A0092BE
:10C8B00040F2671283E70A485C2118F089FB08B14F
:10C8C0005C21E9E70649EBE71128A9D0044A40F2C8
:10C8D0006B11204616F0ABFE97E700BFA41F0020A7
:10C8E0008850030000100140EA2000206752030036
:10C8F0006C20002078200020C75203009C540300C5
:10C90000E95203000C53030037B5244B1B685B044A
:10C9100017D5234B1B68032B13DD22482F2118F05A
:10C9200057FB80B32F211F4818F052FB411C1E4BB0
:10C930001E4AD3F804350092042040F27F1206F01C
:10C940008FFF1B4C1B4D6563002301212046E362D2
:10C9500023860CF0FBFF20B1124A4FF4C47116F08D
:10C9600066FE00231448E56602216366A4F8683079
:10C970000CF0ECFF80B10B4A4FF4C47103B0BDE87A
:10C98000304016F054BE07485C2118F021FB08B176
:10C990005C21C8E70349CAE703B030BDA81F0020E7
:10C9A000A41F0020885003000010014036530300EC
:10C9B0007820002090540300B020002007B50378B1
:10C9C000232B2ED1184B1B685B0416D5174B1B6805
:10C9D000032B12DD16482F2118F0FAFAC0B12F21CF
:10C9E000134818F0F5FA411C124B134AD3F80435DA
:10C9F00000920420D42206F033FF0322C8214FF412
:10CA0000F03000F0F5FC03B05DF804EB00F016BB6D
:10CA100007485C2118F0DCFA08B15C21E0E7044922
:10CA2000E2E703B05DF804FBA81F0020A41F00206C
:10CA300088500300001001405653030010B504460F
:10CA400000214FF4F03004EB840400F0C7FC6200D6
:10CA50003221BDE810404FF4C03000F0C9BC00F0F6
:10CA6000F9BC00001FB503A812F0E2FF144B1B68CD
:10CA70005B0419D5134B1B68032B15DD12482F21BE
:10CA800018F0A6FA98B12F210F4818F0A1FA411C0E
:10CA90000E4BBDF80C20D3F8043501920C4A0092DD
:10CAA00004208A2206F0DCFE05B05DF804FB06488F
:10CAB0005C2118F08DFA08B15C21E5E70249E7E74F
:10CAC000A81F0020A41F0020885003000010014070
:10CAD0006F53030007B51D4B1B685B0416D51C4B39
:10CAE0001B68032B12DD1B482F2118F071FA18B3B5
:10CAF0002F21184818F06CFA411C174B174AD3F82D
:10CB00000435009204208F2206F0AAFE00F002FFF6
:10CB100000F028FFFFF7A6FF00F09CFC00214FF477
:10CB2000F03000F05BFC0422C8214FF4F03003B079
:10CB30005DF804EB00F05CBC06485C2118F048FA94
:10CB400008B15C21D5E70349D7E700BFA81F002043
:10CB5000A41F0020885003000010014086530300EA
:10CB600007B5134B1B685B0416D5124B1B68012BD2
:10CB700012DD11482F2118F02BFA80B12F210E4819
:10CB800018F026FA411C0D4B0D4AD3F804350092DB
:10CB90000220A12206F064FE03B05DF804FB064803
:10CBA0005C2118F015FA08B15C21E8E70249EAE7D0
:10CBB000A81F0020A41F002088500300001001407F
:10CBC000A053030007B53138062804D803B05DF838
:10CBD00004EBFFF76BBC144B1B685B0417D5134BBE
:10CBE0001B68032B13DD12482F2118F0F1F988B1CF
:10CBF0002F210F4818F0ECF9411C0E4B0E4AD3F8C8
:10CC000004350092042040F2791206F029FE03B0A8
:10CC10005DF804FB06485C2118F0DAF908B15C21E4
:10CC2000E7E70349E9E700BFA81F0020A41F002091
:10CC300088500300001001409C54030000B5854E4D
:10CC4000854A46F201008DB0042106F0EDFD3368FF
:10CC5000580419D5814B1B68032B15DD80482F2103
:10CC600018F0B6F9002800F0B3802F217C4818F0A6
:10CC7000AFF9411C7B4B7C4AD3F804350092042069
:10CC80004FF4D47206F0ECFD14F03AF920B1744A76
:10CC90004FF4D57116F0CBFC00F0ECFB734800F0BC
:10CCA00015FC20B16E4A4FF4D77116F0C0FC00F0AD
:10CCB000F5FD00F02FFE00F055FE0021202203A814
:10CCC00018F0B4F801238DF80C3007238DF80F30DD
:10CCD00006238DF81430664B07936649664B0B9319
:10CCE00003A800F06DF920B30B2840F0A080336852
:10CCF00059041ED5594D2A68032A1ADD58482F2198
:10CD000018F066F900286CD02F21554818F060F90A
:10CD1000411C544C594AD4F804350092042040F286
:10CD20009B1206F09DFD33685A0402D52B68032B35
:10CD300060DC5348642100F0F1FA4E4B1B78002B65
:10CD40007BD1504D0FCD03AC0FC495E8070084E8AC
:10CD5000070003A800F08AFA20B1414A4FF4E671B7
:10CD600016F065FC01F0DCFC00F00AFC00F09EF817
:10CD700020B13B4A40F2D51116F059FC33685B04F0
:10CD800018D5364B1B68032B14DD35482F2118F0BE
:10CD90001FF9002854D02F21314818F019F9411CEF
:10CDA000304B394AD3F804350092042040F2D712B0
:10CDB00006F056FD00214FF4F03000F00FFB022288
:10CDC000C8214FF4F03000F013FBFFF773FAFCE7D3
:10CDD00023485C2118F0FCF808B15C2146E72049A3
:10CDE00048E71F485C2118F0F3F808B15C218CE794
:10CDF0001B498EE71A482F2118F0EAF870B12F214D
:10CE0000174818F0E5F8411C204AD4F80435009280
:10CE100004204FF4CE7206F023FD8AE710485C210F
:10CE200018F0D6F808B15C21EAE70D49ECE70C4AA6
:10CE300040F2A11116F0FBFB7BE7FFF713FE91E731
:10CE400007485C2118F0C4F808B15C21A4E7044944
:10CE5000A6E700BFA81F0020FD370200A41F002086
:10CE60008850030000100140BF530300ADC401000F
:10CE7000BDC90100E820002009C90100E9530300F1
:10CE8000C5CB0100745403009C54030037540300C5
:10CE900010B5044607F082FA38B123780E2B04D17E
:10CEA000BDE81040002004F0B1BC10BD08B513F07F
:10CEB00025FE20B10CF0A0F808B10CF01FF8BDE879
:10CEC000084004F0D5BB000070B5837DC27D86B0FC
:10CED00043EA0223ADF814300546032305A80E46A5
:10CEE000ADF8163012F070FD0446002845D1288AAE
:10CEF00004AA294612F048FF044600283DD1BDF897
:10CF00001010E88A0DF11203324613F04DF9044671
:10CF1000002832D1297ED5F8120001F0010104F079
:10CF200009F810B1784601F0C1FBBDF812000FF00E
:10CF3000D9FA044608BB174B1B681B031DD5164BBB
:10CF40001B68062B19DD15482F2118F041F8B8B1E0
:10CF50002F21124818F03CF8411C2A7E104B02F099
:10CF60000102D3F804350292D5F8122001920D4A3D
:10CF700000920720C62206F073FC204606B070BD62
:10CF800006485C2118F024F808B15C21E1E7034968
:10CF9000E3E700BFA81F0020A41F002020590300C2
:10CFA000001001403F59030008B504F074FF10F071
:10CFB000ABFE12F0A9FCBDE8084003F0A9BD0000DB
:10CFC00073B50E460546A0B304F0E4FA044668BB08
:10CFD00012F0E8FC10F0ACFE28690FF053FA04469A
:10CFE00020BB2B7F0193AB69009301466B6912480C
:10CFF00059220FF015FD0446C0B92B6A03B19847BA
:10D0000008F0C4FD12F020FC054610F0F9FB0B2DD2
:10D0100001D00B2802D1FFF7C7FF0B2413F06EFDE0
:10D02000054608B10BF028FF06B13570204602B066
:10D0300070BD0E24FAE700BFF820002008B507F005
:10D04000ADF920B1BDE80840002004F0DFBBBDE829
:10D050000840014804F07EBB601F002069DF704774
:10D0600030B5394D2A7887B01AB1012803D003288A
:10D0700062D007B030BD002301A9019300F088FF02
:10D0800008B116F0C7FA0C2200210DEB020017F0D0
:10D09000CDFEBDF80C302D4823F47F7323F003033D
:10D0A00043F4887343F00103ADF80C30002304937C
:10D0B000ADF8143017F084FF019AADF8160003A9FB
:10D0C0004120FFF7CBFF08B116F0A4FA01A800F049
:10D0D000C3FF08B116F09EFA1D4C236803B19847B0
:10D0E000012302A90DF10200029313F02FF808B1F9
:10D0F00016F090FABDF8020012F0B6FD0DF1010134
:10D1000012F0D6FE08B116F085FA0BF0B5FE9DF8C8
:10D11000011000200CF016FB10B1784601F0C6FAA1
:10D1200004F0A6FA08B116F075FA00232B706368B4
:10D13000002B9ED098479CE700F0F6FF002898D07F
:10D1400016F068FA95E700BF522100205F590300EE
:10D150005421002008B503781C2B0CD1064B1B78FA
:10D160004BB101F01FF808B116F054FABDE80840C1
:10D17000024804F0F1BA08BD522100206C1F0020C3
:10D1800010B50749074814F067FB024638B906494D
:10D1900006484969BDE81040032314F076BB10BD72
:10D1A00070210020DC24002054210020A82300202E
:10D1B00010B50378023B082B4AD8DFE803F01E05C0
:10D1C0001249493849493F00224B9B68002B3FD008
:10D1D000007A00283CD0204A01211170BDE810409F
:10D1E00018471C4BDB68002B32D01B4A117879B3EF
:10D1F00000211170BDE810401847184B1A784AB941
:10D20000144B1B6913B114490A709847BDE81040CC
:10D21000FFF7B6BF124B134801221A7004F09AFAB6
:10D2200004F080FAA0B1BDE8104016F0F3B9094B44
:10D230000D489969102214F06DFBF3E7D0E9021054
:10D24000FFF742FE08B116F0E5F9044B01221A700F
:10D2500010BD00BF5421002050210020512100208A
:10D26000522100206C1F0020A823002070B51C4A0A
:10D270001C4E5168044686B0106803AB03C3118985
:10D28000927A19809A700FCC35460FC594E8070042
:10D2900085E80700B36903B3134B0093134A14499D
:10D2A000144803AB14F0AAFAA8B9134815F01EFFEE
:10D2B0000146104814F0BCFA68B9104816F086F818
:10D2C00048B90E4816F0B4F801460A4814F0B0FA0E
:10D2D00008B9FFF755FF06B070BD0720FBE700BF98
:10D2E0007159030054210020B1D1010070210020A8
:10D2F000DC240020A82300209021002058230020B7
:10D3000010B5054C226832B116F0C6FA002802DBCF
:10D3100023689847F8E710BD1C250020154B164AD6
:10D3200010B50C4618600121144813F045FE18B1E1
:10D33000134A4A2116F07BF9610C0023E00341F205
:10D340006F728B4208BF824210D24FF47A72002370
:10D3500017F08CFB01460B48002213F03FFE38B15A
:10D36000BDE81040064A4B2116F061B90521F2E7ED
:10D3700010BD00BF1C25002001D30100A0590300EF
:10D380007C5903002025002070B5104C206808B996
:10D3900016F040F94FF0A0450D4ED5F8043532682F
:10D3A0005340C5F804352368013B236063B909483D
:10D3B00013F060FE3268D5F8043523EA0203064A0A
:10D3C00012681343C5F8043570BD00BF4025002026
:10D3D0004425002048250020702500204FF0A04360
:10D3E00011B1C3F80C057047C3F808057047000079
:10D3F000F8B52AB3132923D9124B134C5200013A22
:10D400004FF0A0451A602060D5F8043518400F4B46
:10D410004FF4FA76186000274FF40040E0FB0167F4
:10D420004FF47A7200233046394617F01FFB002272
:10D430000146074813F0D2FD10B92368C5F80C3532
:10D44000F8BD00BF402500204425002070250020A5
:10D450004825002008B5054813F00CFE044B1A6857
:10D460004FF0A043C3F8082508BD00BF48250020A1
:10D470004425002008B54FF0A04303224FF400518B
:10D48000C3F83427C3F808154FF48041C3F8382790
:10D49000C3F808154FF40041C3F83C27C3F808153A
:10D4A000C3F840274FF48032C3F808250548064AE0
:10D4B000012113F081FD18B1BDE8084016F0AAB8AB
:10D4C00008BD00BFA459030089D30100D8B10F4B98
:10D4D0000F4A18604FF0A0430020C3F82C27C3F870
:10D4E0003027C3F86027C3F864270A4B4FF0004287
:10D4F000C3F80423C3F87C01074BC02283F806233A
:10D5000040221A6070470E20704700BF6825002037
:10D510000C0003000060004000E100E0F8B5134B90
:10D52000134D144E144F0024C3F87C414FF0A04318
:10D5300015F8011BD3F8102501238B40934310D01D
:10D540003368D7F80425991A48BFD11A43F2333308
:10D55000994206D9D7F804353360084B20461B683A
:10D5600098470134042CE1D1F8BD00BF00600040B1
:10D57000A85903006C2500200010014068250020F8
:10D580002DE9F0410446CEB038B1424D2B685A0423
:10D5900003D5414E3368032B02DC4EB0BDE8F08169
:10D5A0003E4B18680DAB611E04F10F0C1F4611F8BD
:10D5B000012F4FEA121E02F00F0210F80EE083F85E
:10D5C00000E0825C5A70614503F10203EFD1002351
:10D5D000334887F820302F2117F0FAFC002846D076
:10D5E0002F212F4817F0F4FC411CDFF8C4802D4A8E
:10D5F000D8F8043501922C4A009202974222042066
:10D6000006F02EF92B685B04C7D53368032BC4DD05
:10D6100023482F2117F0DCFC002831D02F2120488F
:10D6200017F0D6FC411CE27B2068D8F804350B9239
:10D63000A27B0A92627B0992227B0892E27A07928D
:10D64000A27A0692627A0592227A0492E28852BA0B
:10D6500092B20392A28852BA00BA92B2CDE9010204
:10D66000124A00920420432206F0FAF895E70C488B
:10D670005C2117F0ADFC08B15C21B2E70849B4E7C2
:10D6800007485C2117F0A4FC08B15C21C7E70449F6
:10D69000C9E700BFA81F0020A41F0020AC1F002066
:10D6A000AC590300D4590300E6590300EE590300B6
:10D6B0000010014072DF704773DF704774DF7047FE
:10D6C0002DE9F0412F4CA2B006460F4690460021AE
:10D6D0001022204617F0AAFB2B4A2C491378C3EBE3
:10D6E0004315294421602A49013303F001030D4405
:10D6F0001F211370A180A1813C22002104A8A560F4
:10D7000017F094FB062301AA8DF813300E92012323
:10D710003C22002113A88DF80230ADF820308DF89E
:10D720003C30ADF80060CDF824D0ADF80460ADF821
:10D730000880039717F07AFB2246022352F8041B55
:10D740008DF84C3004A800F0F5F908B115F062FF2F
:10D75000104AA16813A800F0EDF908B115F05AFFBE
:10D760000D4A08490D48FFF7A5FF082804D10549CF
:10D770000A480022FFF79EFF08B115F04BFF22B0C8
:10D78000BDE8F081B4250020742500207525002017
:10D79000C4250020C02500207C1F0020781F002009
:10D7A000B0F5202F0AD20A23B0FBF3F310B1012BFE
:10D7B00038BF0123034A9381916070474FF6FF738E
:10D7C000F5E700BF7C1F002008B5064B0121187843
:10D7D000FFF772FF08B115F01DFFBDE808400020FB
:10D7E00004F05EBD781F002008B5054B1878FFF7E0
:10D7F00065FF18B1BDE8084015F00CBF08BD00BFBB
:10D80000781F002076DF70477ADF70477CDF704733
:10D8100069DF704715F0FEBE03F0A0BF07B50378BF
:10D820004BB940883B21FFF7EDFF08B303B05DF82B
:10D8300004EB15F0EFBE012B1AD1134B1B685B04F0
:10D8400016D5124B1B68032B12DD11482F2117F040
:10D85000BFFB80B12F210E4817F0BAFB411C0D4BC6
:10D860000D4AD3F8043500920420682205F0F8FF31
:10D8700003B05DF804FB06485C2117F0A9FB08B172
:10D880005C21E8E70249EAE7A81F0020A41F002066
:10D890002E5A0300001001405E5A03001FB500F02D
:10D8A00043FC08B115F0B6FE002369460120009341
:10D8B00000F06EFB08B115F0ADFE0C22002101A8AE
:10D8C00017F0B4FABDF80430114823F47F7323F045
:10D8D000030343F4887343F00103ADF804300023DD
:10D8E0000293ADF80C3017F06BFB009AADF80E0008
:10D8F00001A94120FFF78CFF08B115F08BFE6846A7
:10D9000000F0AAFB08B115F085FE05B05DF804FB38
:10D910005F5903001FB5112310488DF8043017F02C
:10D920004FFB0E4982B201A8FFF770FF08B115F056
:10D9300071FE08220DEB0200002117F077FA084A69
:10D940004FF0C87302A8CDE90223FFF75DFF08B1CD
:10D9500015F060FE05B05DF804FB00BF5F590300E1
:10D960007800C80010B58AB001AC0822002120461A
:10D9700017F05CFA124A4FF0C873CDE90123002179
:10D980001C2203A817F052FA4FF4803340F6CD4121
:10D99000CDE9041303238DF818300023ADF81A30B5
:10D9A0008DF81C30074B089303A8074B0394099389
:10D9B00000F03CFD08B115F02DFE0AB010BD00BF0F
:10D9C0007800C8001DD8010015D8010070B5EFF32C
:10D9D000108672B60C4A946801239CB993600B4B75
:10D9E0000B4DD3F8801029401160C3F88050D3F854
:10D9F000841051604FF0FF32C3F88420047006B9E0
:10DA000062B670BD0370FAE7BC4E002000E100E092
:10DA1000FC06FFBD10B5084B9A685AB150B9EFF338
:10DA2000108172B6054A1C6814605C685460986086
:10DA300001B962B610BD00BFBC4E002000E100E09D
:10DA40006DDF704779DF70477DDF704764DF7047B7
:10DA50002DE9F04F85B000250E9CBDF83CB0B4F820
:10DA600000A00191074690461E46A9463A884A45BD
:10DA70000DDC45B12388013BA3EB0A039BB2FF2BCE
:10DA80003AD806F80A30002005B0BDE8F08F7A6871
:10DA900052F82900039000220DF10B0103A8FFF7B3
:10DAA000D5FF0028F0D19DF80B20424521D12288D6
:10DAB000002D14BF0020022002EB0801014459454B
:10DAC0001ADC3DB9013292B2019B2280B354228804
:10DAD0000132228022880DF10B01324403A8FFF7A6
:10DAE000B5FF0028D0D121889DF80B200A44228060
:10DAF000012509F10109B9E70C20C5E72DE9F3413A
:10DB0000089FBDF824801546CDE90078022204461E
:10DB10001E46FFF79DFF50B9334610222946204686
:10DB2000CDE9087802B0BDE8F041FFF791BF02B03F
:10DB3000BDE8F0812DE9F04F00231788138090F89D
:10DB40002D3085B006460D46144653B3082F01D834
:10DB50000C2027E102A8FFF773FF002840F0228184
:10DB600023880822EA54238801339BB21B22238096
:10DB7000EA542088013080B2208006220DF109018C
:10DB8000284417F045F923889DF8082006339BB2F6
:10DB900012F0FE0218BF01222380EA5423880133C9
:10DBA0002380B378FBB123880433BB42D0D802A8CA
:10DBB000FFF748FF002840F0F58023880322EA544D
:10DBC000238801339BB219222380EA542388BDF8AD
:10DBD000082001339BB2E9182380EA54120A4A70E4
:10DBE000238802332380F2789AB12388D91CB94262
:10DBF000AED80221E954238801339BB2012123804E
:10DC0000E95423880B449BB22380EA5423880B44B5
:10DC100023807268AAB12388D91CB94298D80221FE
:10DC200092F90020E954238801339BB20A21238012
:10DC3000E954238801339BB22380EA5423880133BB
:10DC400023803389002B40F0A180338A5BB1CDE97A
:10DC500000472B460722032106F11000FFF74EFF75
:10DC6000002840F09F80338B5BB1CDE900472B4605
:10DC70001522142106F11800FFF740FF002840F09C
:10DC80009180326A002A40F09080D6F82480B8F162
:10DC9000000F30D0B8F804302188981C8A1C024448
:10DCA000BA423FF655AFFE283FF652AF03336B54EE
:10DCB000238801339BB2FF222380EA542388013357
:10DCC0009BB22380B8F80020EA54E918120A4A707F
:10DCD0002088023080B22080B8F804205AB1D8F8E9
:10DCE000081000296BD0284417F092F82388B8F860
:10DCF00004201344238096F82C30002B40F09A80A7
:10DD0000307800284ED03388012B58D0228802F179
:10DD1000020CBC453FF61CAF012805D173780233D5
:10DD200013449F42FFF414AF023FBF1ABFB202A9CF
:10DD300005EB0C00ADF80870FFF786FE90BB31785C
:10DD4000BDF80830022900F0BA8072789A4202D3F6
:10DD5000BB4240F2B280012940F0B380974293B2B7
:10DD6000C0F0AF80ADF808300821BDF80830FE2BB8
:10DD70003FF6EEAE22880133AB542288013292B2D4
:10DD80002280A9542288134423800BE0CDE9004768
:10DD90002B460622022106F10800FFF7AFFE0028FD
:10DDA0003FF453AF05B0BDE8F08FB4F800C00CF1FC
:10DDB0000603BB423FF6CCAE1188052901D80720E7
:10DDC000F0E76FF4486E01EB0E039BB24FF27D3E1D
:10DDD0007345F4D95388052BF1D96FF448601818AE
:10DDE00080B27045EBD94FF6FF70814203D0834279
:10DDF00001D09942E3D8052305F80C30238801337C
:10DE00009BB212212380E954238801339BB22380E3
:10DE10001188E954E818090A4170238802339BB23B
:10DE200023805288EA54E918120A4A702388023380
:10DE300023802AE7B36A002BC1D04FF000094FF0CE
:10DE40000C0A4FF0160B96F82C305FFA89F29342C9
:10DE50007FF656AFB16A0AFB02F201EB0208B8F88E
:10DE60000430981CFE283FF673AE208803332B54F1
:10DE7000238801339BB2238005F803B02388013344
:10DE80009BB223808A5AEA54E918120A4A70208801
:10DE9000023080B22080B8F804205AB1D8F80810B7
:10DEA00000298CD0284416F0B3FF2388B8F804204A
:10DEB0001344238009F10109C5E7092155E7BB4255
:10DEC000FBD9ADF808704FE701600B6843604A6802
:10DED000934204BF002343607047436843B1026824
:10DEE00091680B4443605268934204BF002343602F
:10DEF00070474BDF704700001FB50D4C01A8FFF7BE
:10DF0000F8FF70B9214602A8FFF7DEFF039B002B44
:10DF1000F4D00198D3E90021904702A8FFF7DDFF74
:10DF2000F4E7052801D015F075FB04B010BD00BF63
:10DF30008C5A030060DF704769DF704761DF70470C
:10DF400030B5114B1B78A9B0E3B1104D94240DF1FD
:10DF5000020103A8ADF80240FFF7F0FF70B92946AF
:10DF600001A8FFF7B1FF029B002BF0D003A8D3E973
:10DF70000021904701A8FFF7B0FFF4E7052801D082
:10DF800015F048FB29B030BD02260020985A030046
:10DF90007FB505460C4600295AD02E4B0B600C224B
:10DFA000002101A816F042FF012606232268ADF8E1
:10DFB000083001A920208DF804508DF80660FFF785
:10DFC000BBFF0C22002101A816F030FF22688DF85B
:10DFD000056001A94020FFF7AFFF0C22002101A836
:10DFE00016F024FF45232268ADF8063001A923204E
:10DFF0008DF80450FFF7A0FF0C22002101A816F0B5
:10E0000015FF002522688DF8045001A93046FFF75E
:10E0100093FF0C22294601A816F008FF4FF4B063C5
:10E020002268019301A9A120FFF786FF0C2229464F
:10E0300001A816F0FBFE9DF804302268334301A9C5
:10E04000A0208DF80430FFF777FF284604B070BD9C
:10E050000E20FBE7601F002008B5FFF76BFF10B92B
:10E06000014B01221A7008BD0226002010DF704704
:10E0700011DF704713B5044609496846FFF724FFCE
:10E08000019808B902B010BDD0E9002120469047A0
:10E0900018B16846FFF721FFF2E71120F2E700BF51
:10E0A000A85A030013B5044607496846FFF70CFF5A
:10E0B000019B0BB902B010BD2046D3E90021904767
:10E0C0006846FFF70AFFF3E7C05A0300064B9A6859
:10E0D00022B11A6822F480021A607047034B4FF491
:10E0E0008002C3F880207047BC4E002000E100E0B1
:10E0F0000B4991F816335A09EC231341DB0706D577
:10E10000084B9A683AB94FF480030B60704742F2AB
:10E11000020015F07FBA1A6842F480021A60704754
:10E1200000E100E0BC4E0020F7B5194F3C7864BB1D
:10E13000184E012520463570FFF79CFF112821D08D
:10E140002046FFF7AFFF144B8DF80340186801908D
:10E150000DF10300FFF73AFC104901A8FFF786FF15
:10E160000446B0FA80F0400938709DF80300FFF7CC
:10E1700051FC3CB90A4B34701C70FFF7B9FF2846BC
:10E18000FFF790FF204603B0F0BD0824FAE700BF78
:10E190000426002003260020A45A0300ADE4010059
:10E1A00005260020F7B5154F3B781BB3144E012010
:10E1B0003070FFF75FFF11284FF000051CD00220E0
:10E1C000FFF770FF0DF107008DF80750FFF7FEFB1A
:10E1D000FFF74EFF04469DF807003D70FFF71AFC5D
:10E1E0002CB93470FFF772FF0320FFF75BFF204666
:10E1F00003B0F0BD0824FAE72C46F8E70426002017
:10E200000326002007B508496846FFF75DFE019B1D
:10E2100013B903B05DF804FBD3E9002090476846CA
:10E22000FFF75BFEF3E700BFB45A0300FFF7EABF56
:10E2300075DF704776DF70477ADF70477BDF7047A6
:10E24000034B1A8882420CBF18460020704700BF5B
:10E2500024260020024B9B6903B11847704700BF7A
:10E260000826002073B585B22846FFF7E9FF04466B
:10E2700070B1164E027A337B9A420BD200F10A013A
:10E280002846FFF7D5FFE8B1112801D0FFF7E2FFDC
:10E2900002B070BD00230372337C43B13B2128469A
:10E2A000FFF7C8FF30F0080301D0FFF7D3FF736911
:10E2B000002BEDD000228DF80420ADF8065001A807
:10E2C0009847E5E7237A01332372E1E70826002027
:10E2D00037B50B46497A0F4A71B9D2E901141D7A54
:10E2E0000246002D18BF2146586812F077FE08B18B
:10E2F000FFF7B0FF03B030BD002119725369002B46
:10E30000F8D00122ADF806008DF8042001A8984746
:10E31000F0E700BF082600204B8802889A4213D8F5
:10E3200042889A4210D380888A8840F2F313984238
:10E3300094BF031AC31A934206D800F2F310904216
:10E3400034BF0020012070470020704770B503885B
:10E35000122B014659D004D8102B1ED0112B44D0BB
:10E3600070BD502BFCD12F4BC288DB899A42F7D16C
:10E37000038A022BF4D186883046FFF761FF0546F9
:10E380000028EDD001F1120000F08AF838BB68686F
:10E3900012F070FE0028E3D009E0C37B012BDFD12F
:10E3A0004FF6FF70FFF74CFF054620B90420BDE88B
:10E3B0007040FFF74FBF8E881B4A06800023037210
:10E3C0001368C0F80A305368C0F80E3010310A30B4
:10E3D000FFF7A2FF134B6872DB89002BC0D12946DF
:10E3E0003046BDE87040FFF773BF8088FFF728FF15
:10E3F00004460028B4D0406812F03CFE08B1FFF794
:10E4000029FF4FF6FF732380AAE786883046FFF77F
:10E4100017FF05460028A3D008310A30FFF77CFF1C
:10E420006872DCE70826002038260020F8B506468A
:10E4300048B305460FCD154F3C460FC495E807007D
:10E4400084E807003068124C3C60B0B1FFF7F4FE7E
:10E45000C0B9326813682360536863600D480E4A80
:10E460004FF6FF7303800D4B40F8043F002112F07C
:10E47000A3FD002818BF032004E02046FFF7DEFEBE
:10E480000028EBD0F8BD0E20FCE700BF08260020D6
:10E49000382600202426002065E2010040260020C6
:10E4A000007800F0010070470620704730B5754BCA
:10E4B00014461B6844F20102904287B00D4603F4F3
:10E4C000804300F0A98022D8012844D041F2010203
:10E4D000904276D0002B58D06B4B1B68002B54DD3C
:10E4E0006A482F2116F074FD002800F0BF802F210C
:10E4F000664816F06DFD411C654B664AD3F804353D
:10E50000009201957B22012005F0AAF93DE044F23A
:10E5100002029042DED1002B37D05B4B1B68002BF0
:10E5200033DD5A482F2116F053FD00286BD02F21E0
:10E53000564816F04DFD411C554B2288D3F8043542
:10E5400003926268CDE90152534A00920120692288
:10E5500005F086F919E0C3B14B4B1B68002B14DDA5
:10E560004A482F2116F034FD10B32F21474816F0EA
:10E570002FFD411C464B494AD3F804350092CDE9A2
:10E5800001546022012005F06BF94FF0A0434FF4D5
:10E59000F032C3F81825C3F80C25EFF3108372B6D8
:10E5A0004DF6AD6C3E4A1378002B68D107B030BDF4
:10E5B00036485C2116F00CFD08B15C21D6E73349E2
:10E5C000D8E7002BE1D0304B1B68002BDDDD2F4856
:10E5D0002F2116F0FDFC68B12F212C4816F0F8FC15
:10E5E000411C2B4B2F4AD3F804350092CDE901543E
:10E5F0006322C7E725485C2116F0EAFC08B15C21DC
:10E60000EBE72249EDE721485C2116F0E1FC08B177
:10E610005C218DE71D498FE7002BB6D01A4B1B6894
:10E62000002BB2DD19482F2116F0D2FCA8B12F2102
:10E63000164816F0CDFC411C154B2268D3F8043562
:10E6400004926268CDE90252A2680192164A0092D1
:10E650000120732205F004F997E70C485C2116F0BD
:10E66000B7FC08B15C21E3E70849E5E707485C210E
:10E6700016F0AEFC08B15C213AE704493CE730BF34
:10E6800091E700BFA81F0020A41F0020CC5A030060
:10E6900000100140705B0300305B0300F45A03007C
:10E6A000941F00200E5B03004F5B030007B500239F
:10E6B0000146ADF800306A46044B019344F2020073
:10E6C000FFF7F4FE03B05DF804FB00BF1B5E030020
:10E6D00001461022014816F09BBB00BF60260020B7
:10E6E00010B50C4C0C490822204616F091FB08226C
:10E6F0000A49A01816F08CFBA37903F00F0343F02E
:10E700004003A371237A03F03F0363F07F03237276
:10E7100010BD00BF6026002060000010A4000010A3
:10E720000048704760260020002206491346013247
:10E73000202A4B804B6001F8083BF8D1024A136055
:10E74000704700BF7026002070270020F0B50C4BEA
:10E750000C4D1B68044620227BB1013B15F83300A9
:10E7600050B105EBC3067788A74202D176688E4286
:10E7700002D0013AF0D11046F0BD1F23EEE700BFF2
:10E78000702700207026002030B5094A094C136814
:10E7900004EBC3051F2B69604FF0010104F833102F
:10E7A000194408BF0023688014BF1160136030BD96
:10E7B0007027002070260020C0F30C038B42084411
:10E7C00038BFA0F50050C01A70470000F0B50D4BDF
:10E7D0000D4A1E6800218E4212D0156800230AE0FF
:10E7E00052F8044C04EBC30714F83340844201D1BF
:10E7F0007868F0BD01339D42F2D101310832EAE779
:10E800000020F6E7FC2700200428002000B58DB08A
:10E8100048B9991C07D0012101A8CDE902328DF831
:10E82000041001F04FFA034B186803F031FF0DB0EC
:10E830005DF804FB0828002010B50378044613B9DE
:10E840007846FFF733FF607A431C01209840013877
:10E8500010BD2DE9F0410E468EB015461C46074608
:10E8600010B97846FFF722FF16B97846FFF71EFF6A
:10E87000636AA27802330593E378A2F10800002BC3
:10E8800014BF012102210DF10408424242414346D6
:10E8900004F10C0004F031F8A3788DF83430237BB8
:10E8A000ADF82050022B16FA85F5CDE906870B96B8
:10E8B0000C950FD1236913B97846FFF7F7FE23694A
:10E8C0000993102305A8ADF8283004F012F80EB013
:10E8D000BDE8F0810023F5E7B2F5C07F2DE9F047F0
:10E8E00081468846174602D97846FFF7DFFE244B5B
:10E8F00000259A4693F848605EB9384608F035F826
:10E90000702404FB05A4E06648B900242046BDE855
:10E91000F0870135042D03F17003EBD1F5E73022C8
:10E920004946204616F074FAB8F1010FE664A4F8DF
:10E930004A701BD1134BA4F852601B7D84F85130F0
:10E9400084F85060D9F8283063656FF00103A36242
:10E950000D4BA4F85860A3632464012002F09AFAD6
:10E96000702303FB05A585F84880CFE76FF001030E
:10E97000A362064BA36584F86860054B2466EAE74A
:10E98000242800200C280020E9F00100FDF60100F9
:10E99000E1F0010010B50446C06E07F0E8FF04F195
:10E9A000300003F0EFF894F84830022B03D104F163
:10E9B000500003F0E7F820467022002116F036FAE6
:10E9C000002084F84800BDE8104002F063BA10B59A
:10E9D00090F84830012B8CB0044602D07846FFF7FF
:10E9E00065FE01238DF80430636D029303F00AF98C
:10E9F000039001A801F066F92046FFF7CBFF0CB0A9
:10EA000010BD10B50446808A02F0ECFC01281CD130
:10EA1000237BD3B194F91620002A18DBE27D5AB18A
:10EA2000022B12D094F90330002B10DBA378002BBB
:10EA30000CBF0020072010BDE2780AB9012B06D1D7
:10EA4000237833B9A378042BF2E71020F3E70720EB
:10EA5000F1E70020EFE700001FB500230A468DF81C
:10EA60000F3028B3023008600DF10F01104603F09B
:10EA700042FF9DF80F30DBB1144B1B685B0717D5C5
:10EA8000134B1B68032B13DD12482F2116F0A0FA3D
:10EA900098B12F210F4816F09BFA411C0E4B0F4ADC
:10EAA000D3F804350092042040F2154204F0D8FE59
:10EAB0009DF80F0005B05DF804FB06485C2116F0D8
:10EAC00087FA08B15C21E5E70249E7E7A81F0020C3
:10EAD000A41F0020895B030000100140A65B030017
:10EAE00070B50446D4E906122378808A8CB0D3B17D
:10EAF000E38805F0ABFE054690B1A68AE4692C22B6
:10EB0000002101A816F092F904F001040F2301A8D6
:10EB10008DF80430ADF80860ADF80A4001F0D2F885
:10EB200028460CB070BD05F08DFEE4E72DE9F04FEE
:10EB300098461378D2F818A0F3B006460D4614464E
:10EB400023B1D1885046FFF737FE9061E378A27871
:10EB5000002BA2F108000DF10C0914BF01210221C4
:10EB600004F10C0742424B464241384603F0C5FED1
:10EB7000A3788DF83C30ADB2E81A80B2CDE90896A2
:10EB8000E378C4F818A006440E964FF0000912AEC0
:10EB9000ADF828000D96ADF83090002B65D04FF001
:10EBA000100B04F1240A237BC4F82490022B02BF2B
:10EBB0002369ADF830B00B93206A2179524611F0E9
:10EBC00015FE606A30BB237B022B05D1E0893946F4
:10EBD00011F0D0FE0028E6D1374B1B685B0741D50A
:10EBE000364B1B68052B3DDD35482F2116F0F0F91B
:10EBF000002858D02F21324816F0EAF9411C314B39
:10EC0000314AD3F804350092062040F2017204F034
:10EC100027FE27E007A9FFF71FFF0028CCD02046DA
:10EC2000FFF75EFFF0B9A1780B906D1A8DF81C000C
:10EC300097E80300A38AADF82A3001220CAB8DF8C7
:10EC4000282083E80300A37D8DF84030236A0E93CB
:10EC500007A8636A0896ADF824500F93CDF8448056
:10EC600001F030F873B0BDE8F08F227B012AB3D1F8
:10EC7000A146E089B4F814A049F8243F494611F0B0
:10EC8000F7FD606A07A9FFF7E7FE0028C7D16062B9
:10EC90004946504611F0ECFD606A07A9FFF7DCFE1B
:10ECA000002899D0BBE706485C2116F091F908B11D
:10ECB0005C21A0E70249A2E7A81F0020A41F0020B2
:10ECC000895B030000100140B95B0300C37D0A7833
:10ECD00030B5002B3DD0C37822F07F0203F07F03D4
:10ECE0001A430A700B78027803F07F0343EAC213D9
:10ECF0000B70037863B38378083B5A425A414B78D0
:10ED000003F07F0343EAC2134B708A78C58802F090
:10ED10000302C5F3861442EA850223F07F032343EE
:10ED2000D2B28A704B70CB78057A03F01F03C5F31B
:10ED3000C10422F0030243EA45132243DBB2CB7045
:10ED40008A70427A23F01F0302F01F021343CB7034
:10ED500030BDC47822F0400343EA8413DBB20B7069
:10ED6000027923F03F0302F03F0213430B70B9E72F
:10ED70002DE9F04F824689B00D4609B100220A60A4
:10ED80000AF10C039AF85040019301274FF0000B51
:10ED90009AF80900A04203D2002009B0BDE8F08F24
:10EDA000DAF84C1007FA04F20A4264D19AF81720F4
:10EDB000019B8AF80840002A0CBF0C2608268442D2
:10EDC0009AF80020029306FB04F908BFBAF84A60DB
:10EDD0008DF818B008BFA6EB0906002A14BF4FF043
:10EDE00004084FF0010806EB08020492DAF8282024
:10EDF000039202A8DAF82C20059203F020FF0028E5
:10EE0000CBD1079A904454B99AF853203AB9DAF81A
:10EE100018208AF85370C2F30C02AAF806209AF858
:10EE200017209AB99AF8522082B914B17846FFF7A0
:10EE30003DFCBAF84A109AF802208A1ADAF86C10E7
:10EE400053460846FFF705FD8AF852700799504669
:10EE5000FFF73CFFDAF86C1032464944404615F0A3
:10EE6000D7FF02A803F00CFF15B12A6801322A600F
:10EE7000621C8AF850200134E4B289E738B590F872
:10EE80004830012B044602D07846FFF70FFC02F011
:10EE9000B9FE237B074A012B05BFD2E90315A37DE9
:10EEA000D16805FB0311014404F13000BDE838408E
:10EEB00002F07FBE0C280020F0B5C37D1646827894
:10EEC000002B324414BF4FF480734FF4C07393424D
:10EED000C7B00F467DD3424B002493F84810012958
:10EEE00007D19D8A818A8D4203D1DD89C1898D42F6
:10EEF00071D00134042C03F17003EED10121FFF72E
:10EF0000EBFC0546002844D032463946C06E15F069
:10EF10007FFF002304A928460493FFF729FF30F060
:10EF20000404064650D1049B13B12846FFF7A6FF00
:10EF30002C4B1B6813F004034FD02B4B1B68032B87
:10EF400027DDB5F84A00294B802805AA1F6828BF8D
:10EF5000802000231646834202F102021CD10022C7
:10EF6000234806F813202F2116F032F818B32F216A
:10EF70001F4816F02DF8411C1E4B1F4AD3F80435CC
:10EF800001921E4A009202964FF4AC62042004F0F3
:10EF900067FC204647B0F0BDE96EC95C4FEA111C22
:10EFA00001F00F0117F80CC002F802CC795C02F8EE
:10EFB000011C0133CFE70E485C2116F009F808B1B7
:10EFC0005C21D5E70A49D7E72846FFF7E3FC34463A
:10EFD000DFE70924DDE70824DBE71C46D9E700BFAB
:10EFE00024280020A81F0020A41F0020AC1F002000
:10EFF000895B030000100140E25B0300E659030057
:10F00000F0B50D4691B0044610B97846FFF74EFBB7
:10F0100094F84830022B18D1E188A069FFF7CCFBA7
:10F02000284AE16913680F0A0E06591C1160264A26
:10F03000361803F007034FEA031147F1000702EB0C
:10F040000313A08A5052C3E902672C22002105A8AD
:10F05000666D15F0EBFE102305A88DF814300696AA
:10F060008DF81C5000F02EFE2046FFF793FC174B46
:10F070001B685B071BD5164B1B68032B17DD154858
:10F080002F2115F0A5FFA0B12F21124815F0A0FFE8
:10F09000411C114BD3F80435029594F84820019295
:10F0A0000E4A0092042040F2F31204F0D9FB11B092
:10F0B000F0BD08485C2115F08BFF08B15C21E4E746
:10F0C0000449E6E7F827002078270020A81F002041
:10F0D000A41F0020895B030000100140F05B0300C7
:10F0E00008460021FFF78CBF10B591F84830012B7E
:10F0F0000C4602D07846FFF7D9FA94F851305BB14C
:10F10000013B84F85130002384F85030084BBDE8AF
:10F110001040186803F0BCBA217B0129204603D1B6
:10F12000BDE81040FFF76CBFBDE81040FFF74FBCD3
:10F13000082800202DE9F04306468FB010460F4600
:10F1400015469846FFF7CCFC044600285ED195F89A
:10F150000390B9F1000F40F0AA80062F56D1307805
:10F160007378820102F4FE5242EA9302604B1F461A
:10F1700093F84810012928D1B3F814C0E9898C45C7
:10F1800023D1D988914220D1B3F858C0A98ABCF1C3
:10F19000000F01D08C4518D110F0800FD6F8022056
:10F1A0004FF070033ED003FB0473A3F85810702097
:10F1B00000FB047412BAE56C1543E564002A63D1C0
:10F1C00003212046FFF71CFF20E00134042C03F14B
:10F1D0007003CDD1474B1B685B0717D5464B1B68A7
:10F1E000012B13DD45482F2115F0F2FE88B12F21A8
:10F1F000424815F0EDFE411C414B424AD3F804351C
:10F200000092022040F2776204F02AFB0FB0BDE8C2
:10F21000F0833A485C2115F0DBFE08B15C21E7E79A
:10F220003649E9E703FB0473DB898B42BFD0314BDE
:10F230001B685A07EAD5304B1B68012BE6DD2F48C7
:10F240002F2115F0C5FEB0B12F212C4815F0C0FEBE
:10F25000411C70202A4BAA8AD3F80435029200FB85
:10F2600004740220E2890192274A009240F27B62F4
:10F2700004F0F6FACAE721485C2115F0A9FE08B1AE
:10F280005C21E2E71D49E4E72046FFF7D5FA854215
:10F2900003D12046FFF79BFBB8E7002184F850100C
:10F2A0002046FFF765FD2046FFF7E8FDAEE748463C
:10F2B000FFF78CFA02460028A8D0D5E903012B6A93
:10F2C0000B93AB8AADF8223009AB83E80300AB7D2A
:10F2D0008DF830302B788DF82030EB6A8DF8149053
:10F2E000CDE906670D93414605A890478EE700BF1C
:10F2F00024280020A81F0020A41F0020895B0300F1
:10F3000000100140135C0300415C0300F0B589B0BC
:10F3100005460E460192FFF774FB044638B92B7878
:10F32000019A3BB131462846FFF7C6FD0446204608
:10F3300009B0F0BDE97DAB7801920029134414BFF8
:10F340000B210F218B4226D80133049305F10C03C6
:10F350000293AB6A03938DF81800EB6A059302A839
:10F3600003F06DFC04460028E1D1079928464F1CA4
:10F37000FFF7ACFCEB7D019A3BB13146384615F006
:10F3800047FD02A803F07CFCD1E72B463946304606
:10F39000FFF75FFAF5E70924C9E7000010B54FF45D
:10F3A000E0720021134815F041FD002405F036FB02
:10F3B000114B12481C602146802215F037FD104B7E
:10F3C0001049114A11489C75C3E9001210494CF2CA
:10F3D0005032C3E902211A6140F604029A8203F016
:10F3E00039F90C4B18600C4B0C481C60BDE8104000
:10F3F00005F024BC24280020F827002078270020CE
:10F400000C28002080969800F0490200F9FB0100CA
:10F4100020A1070008280020FC2700200DE801009B
:10F4200005F008BA30B504468DB000285FD00369F6
:10F43000002B5CD0C369002B59D08569002D56D0B4
:10F440005A788DF804201A780993838A82F0010291
:10F450000B2B8DF80320027B09D90121022A8DF89C
:10F46000001001D1234A927D5AB904220AE0C17AE0
:10F470000029F2D1012A0CBF012200228DF80020C0
:10F4800031D1082213448DF802200B330C22B3FB38
:10F49000F2F3013B8DF8093000238DF8083094E831
:10F4A000030000238DF8173003AB83E803002389A2
:10F4B000ADF81430A37A8DF81630236A0A932046EB
:10F4C000DF2308950B9311F0F5FA28B12378012B6F
:10F4D00014BFFF2320230B93A28A21696846FFF7FC
:10F4E00015FF0DB030BD04238DF80230D7E70E2094
:10F4F000F7E700BF0C28002030B50A4691B004465B
:10F50000002860D04368002B5DD08569002D5AD05B
:10F5100003788DF8133000230D9383680B2B94BF71
:10F52000017B012101F001008DF8100000208DF811
:10F53000120031B10733DB08013B8DF819308DF82B
:10F540001800D4E9040101238DF8273007AB83E8C4
:10F550000300E389ADF82430237F8DF82630236A39
:10F560000C95CDE90E23194B1B685B071BD5184B77
:10F570001B68062B17DD17482F2115F029FDC8B190
:10F580002F21144815F024FD411C134BA269D3F818
:10F590000435029222780192104A0092072040F628
:10F5A000030204F05DF9D4E9011204A8FFF7AEFEEE
:10F5B00011B030BD07485C2115F00AFD08B15C218F
:10F5C000DFE70449E1E70E20F2E700BFA81F0020B3
:10F5D000A41F0020895B030000100140825C03002F
:10F5E00070B5037B012B90B004460D4677D13D4B9F
:10F5F0001B685B0718D53C4B1B68032B14DD3B488D
:10F600002F2115F0E5FC00285ED02F21374815F09A
:10F61000DFFC411C364B374AD3F8043500920420F6
:10F6200040F2632204F01CF904AE0B2200213046A4
:10F6300015F0FCFB9DF81130E288089603F00303F7
:10F6400043EA82038DF811302B0E8DF812302B0C0B
:10F650008DF813306378022B0CBF80230023C2F394
:10F66000861242EA03024FF0060309934FF00103AA
:10F670008DF82C30A38AADF82E304FF000036DBA10
:10F680008DF810200C93226A8DF81C308DF82830EC
:10F69000E36AADF814500D920F931ED10DF10E01D7
:10F6A00003A811F0F7F9BDF80C30ADF82A30A37DAE
:10F6B0000BB1114B5B7D8DF838306FF0010107A85D
:10F6C000FFF71AFF10B070BD08485C2115F080FCF0
:10F6D00008B15C219AE705499CE7E389E5E700204A
:10F6E000F0E700BFA81F0020A41F0020895B0300D3
:10F6F00000100140AD5C03000C28002010B591F80B
:10F700004830022B0C4602D07846FEF7CFFF02238A
:10F7100084F8683094F84830022B06D1E16C20461A
:10F72000FFF75EFF08B984F8680010BD2DE9F04FBF
:10F730000D469DB0174698460446002800F05882B2
:10F74000002A00F0558221B9092630461DB0BDE8D7
:10F75000F08F1822394613A815F05AFB237894F934
:10F7600000100020DA0981428DF84020B4BF042245
:10F77000012295428DF84100E6D39DF85760EEB125
:10F7800003F07F0381428DF843308DF842002EDA7A
:10F790006278A378920102F4FE5242EA9302ADF835
:10F7A0004620DB00E27803F0180343EA521302F02C
:10F7B0001F028DF848308DF8492018E0C3F38010FF
:10F7C000002903F03F038DF843008DF8443008DA38
:10F7D00094F90130002BB4BF082304238DF8423084
:10F7E000D6E704231A4495428DF84230ACD3002367
:10F7F000199398F80030032B02D97846FEF756FF8C
:10F8000098F80020CB4B10A853F822301B93FFF739
:10F81000F8F80646002898D10146082203A815F0FA
:10F8200005FB788803A911F0A5F828B19DF84130AF
:10F8300043F001038DF84130D7E90312388905F010
:10F8400033F8002855D19DF84130002B3FF47DAFAF
:10F8500013F001031CBF049A14929DF84020002A63
:10F8600000F0B481BDF846101698FEF7A5FF179B6F
:10F87000BDF854C0B0494FEA036A4FEA132B1AEBA4
:10F88000000A4FF000074BF1000B0B88634506D1CF
:10F89000D1E902239B4508BF92453FF456AF01379B
:10F8A000082F01F11001F0D1A44B4FF000091846C8
:10F8B00093F84820022A25D19A8A624522D17023E2
:10F8C00003FB0909B9F80610D9F81800FEF774FF10
:10F8D000D9F81C100A0612184FEA112343F100034D
:10F8E0005B4508BF524535D205214846FFF788FBE6
:10F8F0000FE09DF8413003F0FE038DF84130002BFE
:10F90000A1D122E709F10109B9F1040F03F1700354
:10F91000CED1DDE91612BDF84630BDF8540004F032
:10F92000EDFF002800F0C980DDE91612BDF8463071
:10F93000BDF8540005F018F800283FF406AF10A8F1
:10F94000FEF77AFF014610A8FFF74AFE10A8FFF75E
:10F95000C7F8FAE69B4508BF9245FFF4F6AE784B30
:10F960001B685B071CD5774B1B68032B18DD76489B
:10F970002F2115F02DFB002800F00E812F21724859
:10F9800015F026FB411C714B9DF84820D3F8043537
:10F9900001926F4A0092042040F2A33203F060FF0C
:10F9A00099F84830022B02D07846FEF77FFEDFF848
:10F9B000A8A1DAF800B002F025F90BEB000109F17B
:10F9C000300002F0F6F899F80C30012B1AD199F8B2
:10F9D0006830BBB999F84830022B02D07846FEF760
:10F9E00065FEDAE901329AF8151002FB013A02F0DD
:10F9F00009F900EB0A0109F1500002F0DAF80123DD
:10FA000089F868309DF84810D9F84C3001228A40B6
:10FA100013EA020A7FF499AE1343C9F84C309DF8FB
:10FA2000573099F80920002B14BF4FF0080E4FF003
:10FA30000C0E8A42A5F104050EFB01FE40F0B580D4
:10FA40000EEB0503A9F84A30D9F81820169B9A4204
:10FA50000AD20DF14C0CBCE80F0009F10C070FC7DE
:10FA60009CE8030087E80300D9F86C00211D2A46B2
:10FA7000704415F0CDF94846D9F84C40FEF7DCFE4D
:10FA800084427FF462AED9F84C104846FFF7A8FDD7
:10FA900099F80130DA070CD599F81730D9F86C00CD
:10FAA000B9F84A10002B00F08C8043464A46FFF715
:10FAB00041FB4846FEF76EFF81E09DF857209DF818
:10FAC0004930002A14BF4FF008094FF00C0903FB1E
:10FAD000099914BF4FF480734FF4C07399453DD911
:10FAE000174B1B6859077FF530AE164B1B68002B70
:10FAF0007FF72BAE14482F2115F06AFA88B12F2119
:10FB0000114815F065FA411C104B124AD3F8043520
:10FB10000092CDF8049040F27F32012003F0A0FE65
:10FB200013E609485C2115F053FA08B15C21E7E7B8
:10FB30000549E9E7E45C0300782700202428002039
:10FB4000A81F0020A41F0020895B030000100140B3
:10FB5000D15C0300BD5C03000C2800204A46022152
:10FB600010A8FEF7B9FE814600287FF4F8AE0146E2
:10FB700010A8FFF735FD2C22494605A815F056F9C7
:10FB800010238DF8143005A80223CDF818908DF8B5
:10FB90001C3000F097F8D8E516485C2115F018FAEB
:10FBA00008B15C21EBE61349EDE6002B08BF0C27FA
:10FBB000BD423FF449AF04214846FFF721FA002631
:10FBC000C3E543464A46FEF7B1FF72E7002B3FF418
:10FBD000BCAD9DF85730601C691E23B1434610AA86
:10FBE000FFF7A8FAB1E5434610AAFEF79FFFACE580
:10FBF0000E26AAE5895B0300F7B5184C00262546BA
:10FC0000374695F84830012B0BD101A928460197BA
:10FC1000FFF7AEF8042801D0019B13B12846FFF787
:10FC20002DF90136042E05F17005EAD1002594F86E
:10FC30004830022B0AD194F86830022B06D1E16CCF
:10FC40002046FFF7CDFC08B984F868000135042D83
:10FC500004F17004EBD1012003B0F0BD2428002092
:10FC60002DE9F8430F46064610B3144B1C6898461E
:10FC7000E4B9254600F10409BD4208D1104BC3E99F
:10FC800000650123C8F800302046BDE8F88359F824
:10FC900035306BB116F9353016F83500002B09DB1D
:10FCA00050B1FEF793FD38B90135E5E70424EBE7E1
:10FCB0000E24E9E70B24E7E70F24E5E7FC27002003
:10FCC00000280020F8B5074610B97846FEF7EEFC8C
:10FCD000104E346884B1104D01232B7023791BB969
:10FCE00054F8043C384698472468002CF6D12B7809
:10FCF000022B02D000232B70F8BD3168054C00297F
:10FD0000F8D00B790E6813B1204603F02FFD314671
:10FD1000F5E700BFE8290020E429002010B50446DB
:10FD200010B97846FEF7C2FC00232372211D024859
:10FD3000BDE8104003F0F9BCE829002010B50446E6
:10FD400010B97846FEF7B2FC074A1378013B012B45
:10FD500004D8022313700123237210BD211D034810
:10FD6000BDE8104003F002BDE4290020E82900208E
:10FD70000B888268D25A073222F0030213440288A9
:10FD80009BB2043A934288BF00230B80704713B59F
:10FD90008368C91AADF806100DF10601FFF7E8FFF8
:10FDA000BDF806308068184402B010BD70B5064634
:10FDB00015460C4611B97846FEF778FC16B9784618
:10FDC000FEF774FCB4F1005F24D94FF08053D3F8F0
:10FDD0000C3103F50023B4EB832F1ED26B1E23449A
:10FDE000B3F1005F26D94FF08052D2F80C2102F512
:10FDF0000022B3EB822F20D2042D02D87846FEF7E2
:10FE000055FC35800023043D7380B380B4602580A9
:10FE1000A37070BDB4F5000F08D94FF08053D3F82C
:10FE20000C3103F50053B4EB832FD7D37846FEF79C
:10FE30003DFCD3E7B3F5000F08D94FF08052D2F85C
:10FE40000C2102F50052B3EB822FD5D37846FEF792
:10FE50002DFCD1E738B5044610B97846FEF726FCEC
:10FE60006288A36813449B78012B02D17846FEF781
:10FE70001DFCEFF3108572B6A268A18811448B783F
:10FE8000032B0AD12046FFF782FFA368C31A6380C1
:10FE90000023837005B962B638BD00239370638078
:10FEA000A380F7E7F8B50E461546044610B9784624
:10FEB000FEF7FCFB16B97846FEF7F8FB6288A368EC
:10FEC00013449B78012B02D17846FEF7EFFB002DFF
:10FED00037D02388043B9BB29D4232D8EFF3108782
:10FEE00072B66288A388E81D20F003009A4280B2AF
:10FEF00004D29B1A984210DD042016E018D92188FC
:10FF0000891A814209D29842F6D8032981BFA36891
:10FF10009B1804229A70002363806288A1688B1862
:10FF20008D5201229A700020336007B962B6F8BD85
:10FF3000A26813449B78002BDED193706380A3806A
:10FF4000EBE70920F3E7F8B50D461646044610B96D
:10FF50007846FEF7ABFB15B97846FEF7A7FBAB7802
:10FF6000012B02D07846FEF7A1FB2B88B34202D2C8
:10FF70007846FEF79BFB16B97846FEF797FBEFF342
:10FF8000108772B60223AB70E1182E802046FFF76F
:10FF9000EFFE6288A38893421FBFA3689B180022CC
:10FFA0009A7007B962B6F8BD70B50D46044610B92F
:10FFB0007846FEF77BFB15B97846FEF777FBEFF343
:10FFC000108672B6A288A36813449A78042A06D1D0
:10FFD000211D2046FFF7CCFEA288A36813449A781F
:10FFE000022A05D0032A08D0052006B962B670BDE2
:10FFF00003229A702B600020F7E77846FEF756FB45
:020000022000DC
:10000000F9E738B5044610B97846FEF74FFBEFF331
:10001000108572B6A088A16801448B78042B03D1A7
:100020002046FFF7B4FE01468878831E58425841A7
:1000300005B962B638BD38B5044610B97846FEF742
:1000400035FBEFF3108572B6A088A168014488786B
:10005000C31E012B05D9831E5842584105B962B60B
:1000600038BD2046FFF793FE0146F0E7F8B50D4690
:10007000044610B97846FEF719FB15B97846FEF725
:1000800015FBEFF3108672B6AB78012B19D0032B5A
:1000900022D1A288A36813449D4202D07846FEF77D
:1000A00005FB0027AF70211D2046FFF761FEA288E7
:1000B000A36813449B78042B00D1A78006B962B6CD
:1000C000F8BD6288A36813449D4202D07846FEF7CB
:1000D000EDFA0023AB70F1E77846FEF7E7FAEDE7BB
:1000E00010B5EFF3108472B68288816811448B7862
:1000F000042B02D1FFF74BFE01468878B0FA80F05E
:10010000400904B962B610BD037942799B1A03F520
:100110007F2303F6FF7300EB0330704710B50548EB
:1001200084681C22002114F081FE2046BDE81040A6
:1001300004F044B9EC29002070B5194CE36813B9F8
:100140007846FEF7B3FA237E13B17846FEF7AEFA8F
:100150006368092B02D97846FEF7A8FA114D0026EC
:10016000636855F823309847022811D003280DD032
:10017000012810D163680133092B636002D97846E6
:10018000FEF794FA237E002BEAD004E06660F9E7DC
:10019000237E0BB1207070BDBDE87040FFF7BEBF7D
:1001A000EC290020505D030010B50388044613B904
:1001B0007846FEF77BFA2088084B04EB800030EA93
:1001C000030203D06288B2F5FE4F05D104EA0300B2
:1001D00000F580500478204410BD00BF00F0FFFF00
:1001E00070B504460D4647F6FE66FFF7DDFFA842F0
:1001F00007D2844205D24388013B9BB2B342F4D874
:1002000070BD0020FCE700000B78032B094B04BFF6
:1002100000221A761A78012A03D11B7E43B9FFF710
:100220008BBF022A04D10B78032B01D1FFF776BFD5
:10023000704700BFEC29002010B50C4CE36818781B
:10024000002203F58051184404F0BCFC50B9E16869
:100250000846FFF759FF814206D001F58051E16061
:10026000032010BD0120FCE70220FAE7EC29002062
:100270001FB50A4B02221B688DF800200193084A23
:100280004FF4805369460120029300F0EDFFB0FA6D
:1002900080F0400905B05DF804FB00BF0C2A002087
:1002A000082A00201FB50123CDE902210190054A4B
:1002B0008DF800306946184600F0D6FF05B05DF8AD
:1002C00004FB00BF082A00202DE9F047254BD86821
:1002D00002794179013A91421F4603D101205876B3
:1002E000BDE8F08700F580531F491C781C440B685B
:1002F00013F8045F1D44FFF707FF6388013B9BB2BF
:1003000047F6FE62934200F58056884604D920469F
:100310003146FFF765FF0446DFF850A04FF00109B2
:100320002CB9B4FA84F464097C760120D8E7D8F8B3
:1003300000106288284601F5805104F043FC054610
:100340000028EED004225146204687F81890FFF787
:10035000A9FF28B920463146FFF742FF0446DFE7F0
:100360000020BDE7EC2900200C2A0020245F0300B8
:1003700038B5104CE36818784FF6FF7203F58051DA
:10038000184404F01FFC88B1E36819780B449842C4
:100390000CD0657E0849094B0422002D08BF194680
:1003A000FFF780FF20B90120207638BD0120FCE74F
:1003B0000020FAE7EC2900202C5F0300285F0300EF
:1003C00070B50C4D0C4EE96830680C78043022464C
:1003D000FFF768FF58B93268EB6804F0FC04043496
:1003E00014446C611A7813442B61012070BD002005
:1003F000FCE700BFEC2900200C2A002008B5054BC3
:10040000054918680422FFF74DFFB0FA80F0400953
:1004100008BD00BF0C2A0020F829002010B5074BAA
:10042000074C1968E06840F6FC720431FFF73AFFA8
:1004300010B90120207610BD0020FCE70C2A002016
:10044000EC29002010B50C4CE1680846FFF75CFE73
:1004500081420AD1094B0A4918680422FFF722FF9A
:1004600040B901232376022010BD01F58051E160DF
:100470000320F9E70020F7E7EC2900200C2A0020F0
:10048000102A00202DE9F74F324D2B6913B9784619
:10049000FEF70CF96B6913B97846FEF707F9DFF838
:1004A000B89047F6FE6A6B69D5E9030603EA0908C6
:1004B000A8EB0308FFF728FE7388013B9BB2534566
:1004C00008F5805800F5805B05D930465946FFF79E
:1004D00087FE064668B1344600275C4513D327BB28
:1004E000012334B1618847F6FF72914201D0002B9D
:1004F000D9D001202AE020460192FFF755FE019A4B
:1005000004461746E9E7228807EB8202904509D99D
:1005100086EA040313EA090F04D16388013B9BB206
:100520005345E8D90FB90123DCE768693A463146FB
:10053000FFF7B8FE48B96A693A446A6114B9784667
:10054000FEF7B4F82C610023CBE7002003B0BDE830
:10055000F08F00BFEC29002000F0FFFF1FB50A4B11
:100560000222DB688DF800200193084A4FF4805383
:1005700069460120029300F077FEB0FA80F040094E
:1005800005B05DF804FB00BFEC290020082A00201C
:100590001FB540F6F8731B685A1C0CD1374B1A680C
:1005A000013202D01A68002A4CD14FF080525169B2
:1005B00013694B4303E0002BF7D0A3F58053304C75
:1005C000A3F5805323602F4B1B68DB0223D52E4BF2
:1005D0001B68062B1FDD2D482F2114F0F9FC002885
:1005E00032D02F21294814F0F3FC411C40F6F87258
:1005F000274B1268D3F80435501C08BF1F4A2068E7
:1006000008BF1268CDE90120224A0092072040F27B
:10061000672203F025F9236819684B1E03332AD893
:10062000C1F30B033BBB1C4A1C48D1600121117074
:100630001B491383936001330A2B0ED17846FEF7D2
:1006400035F80FE01B68B8E710485C2114F0C0FCD7
:1006500008B15C21C6E70D49C8E751F82340844240
:10066000E9D1536001200F4900F0EEFDFFF764FD72
:10067000012004B010BD0020FBE700BF14100010E3
:100680000C2A0020A81F0020A41F0020F45C0300F7
:10069000001001401C5D0300EC2900205D050200F4
:1006A000505D03000902020010B5044610B97846F7
:1006B000FDF7FCFF094A107860B1E068D168437922
:1006C000A0EB0333994206D3FFF71EFD81428CBF96
:1006D0000020012010BD0020FCE700BFEC29002015
:1006E000024B1878003818BF01207047EC29002011
:1006F00038B50E4C2378054613B17846FDF7D6FF82
:100700002B78032B02D07846FDF7D0FFEB68E3602F
:10071000012000230649A56063602070238300F058
:1007200093FDBDE83840FFF707BD00BFEC2900206E
:1007300009020200014B1868704700BF0C2A002014
:1007400010B5044610B97846FDF7B0FF63681BB1D9
:1007500023680BB1A36813B97846FDF7A7FFA36818
:100760005A1E1A4202D07846FDF7A0FF0023C4E9C2
:10077000033310BD70B50E460446F0B18368F3B183
:10078000EFF3108572B6D0E90331994203D105B970
:1007900062B605250FE04EB18368013B0B40D0E9FE
:1007A0000012304602FB031114F032FB23690133BF
:1007B000236135B962B6284670BD0E25FBE70925D1
:1007C000F9E70025F7E70000024AD2F80034002BD1
:1007D000FBD0704700E0014038B5C0F30B05EDB920
:1007E000F1B1104C0223C4F80435FFF7EDFF01F618
:1007F000FF7121F47F6121F00F010144884206D18D
:100800000023C4F80435FFF7DFFF284638BDC4F8DD
:100810000805FFF7D9FF00F58050EFE71025F4E752
:100820000925F2E700E0014040EA010370B5064601
:1008300098071ED1FAB112F003001CD10F4B940897
:100840000122C3F80425FFF7BFFF0546A54206D1E4
:100850000A4B0022C3F80425FFF7B6FF70BD51F81C
:1008600025305A1C03D046F82530FFF7ADFF01357F
:10087000ECE71020F2E70920F0E700BF00E00140BC
:1008800041F2826398429DBF024B1878C0F3C000CA
:1008900001207047AB2A002013B50190000C0128FD
:1008A0000C4602D07846FDF701FF084A0849236844
:1008B00013600B7843F001030B7083F00203C3F362
:1008C00040030020137102B010BD00BFA42A002015
:1008D000AB2A002013B50190000C02280C4602D070
:1008E0007846FDF7E3FE084B22681A6022791A71F8
:1008F000064A002058719871D871137843F00203AA
:10090000137002B010BD00BF9C2A0020AB2A00204B
:1009100007B50190000C032802D07846FDF7C6FE0B
:1009200003480522002103B05DF804EB14F07EBA01
:10093000A42A002007B50190000C042802D07846B4
:10094000FDF7B4FE03480822002103B05DF804EB74
:1009500014F06CBA9C2A002013B50190000C0328F7
:100960000C4602D07846FDF7A1FE04490522204638
:1009700002B0BDE8104014F04BBA00BFA42A00201A
:1009800007B50190000C032804D000917846FDF7CC
:100990008DFE00990648052214F03AFA054A1378AC
:1009A000002043F00103137003B05DF804FB00BFA7
:1009B000A42A0020AB2A002013B50190000C0428C3
:1009C0000C4602D07846FDF771FE04490822204605
:1009D00002B0BDE8104014F01BBA00BF9C2A0020F2
:1009E00007B50190000C042804D000917846FDF76B
:1009F0005DFE00990648082214F00AFA054A1378A9
:100A0000002043F00203137003B05DF804FB00BF45
:100A10009C2A0020AB2A002000B50A4B1A7B9B6859
:100A20008DB0012A08BF03F1FF3304930390022322
:100A300001A88DF808208DF80430FFF743F90DB0B8
:100A40005DF804FB402A0020074A1378590709D5AE
:100A50000178122906D10549086805496FF3820318
:100A600048601370704700BFAB2A0020A42A002002
:100A7000402A00201FB5124C2378590602D478462C
:100A8000FDF714FE23785A0717D40E4A526802F570
:100A90000052B2F1807F02920FD80B4A43F0040358
:100AA00012788DF80C2002A94FF44030237005F025
:100AB00073F810B17846FDF7F9FD04B010BD00BF22
:100AC000AB2A0020402A0020AC2A00201FB50023BA
:100AD000ADF80D300C4B9A6802920C4A1B7B8DF8D6
:100AE0000C3013780133DBB202A94FF4802013706D
:100AF0008DF80F3005F050F810B17846FDF7D6FDAF
:100B000005B05DF804FB00BF402A0020AC2A00209D
:100B100008B5002005F0C4F814220748002114F09D
:100B200085F9064A137823F0600343F040031370FD
:100B3000BDE80840FFF79EBF402A0020AB2A0020F6
:100B400010B50C4C14220021204614F06FF901F06E
:100B500059F8094B094A0A499A600022C3E903126D
:100B600058605A61074B6260197862F3C3011970CB
:100B700010BD00BF402A00201C2A0020FD0C0200EE
:100B800000879303AB2A002037B5264D2B78DB0670
:100B90002FD42548254B036000F0DCFD2448254B6D
:100BA000036000F0D7FD2B7813F0200212D103F080
:100BB0000303032B204C1ED02260A26022732282EA
:100BC000FFF784FF236863602B7843F040032B70AA
:100BD000FFF750FF4FF4803005F03CF84FF4003041
:100BE00005F038F8154800F0ABFF2B7843F0100300
:100BF0002B7003B030BD124B1A68A2601A792273B1
:100C00009879597941EA00212182D9790D4B1970DF
:100C10000D4B1879884202D00AB92260D2E71B68CE
:100C20002360CFE7AB2A0020342A0020990D020070
:100C3000902A0020490A0200402A00201C2A002095
:100C40009C2A0020AC2A0020A42A0020034B1878FC
:100C500080F00400C0F38000704700BFAB2A002082
:100C600010B501F087FC0D4A137BA3B9947B94B9AE
:100C7000108AFFF705FE70B1012313739368148285
:100C800001339360FFF722FF2046FFF7C5FE01F016
:100C9000B1FC204610BD0824F9E700BF402A00201F
:100CA00010B501F067FC144A547B9CB1917B09BBE1
:100CB000108AFFF7E5FD044660B1137B51732BB139
:100CC000012B0BD07846FDF7F1FC03E0FFF7C8FFDE
:100CD0000028F7D101F08EFC204610BD0846C2E97D
:100CE000001111731182FFF797FEFFF7EFFEFFF778
:100CF000C1FEEFE70024EDE7402A00201FB5244C99
:100D0000227B2AB1012A0FD07846FDF7CFFC1CE0E8
:100D1000208AFFF7B5FDC0B1FFF7C2FF638A0BB1B0
:100D2000013B638204B010BD218A0846FFF7A8FD8D
:100D300058B142F2B013994288BF6273FFF7B0FF17
:100D40000028EBD1637B002BE8D1238A01339BB2CF
:100D50001E2118462382B3FBF1F201FB12339BB232
:100D6000002BDBD1A3680293237B8DF80C30094B59
:100D7000ADF80D001B788DF80F3002A94FF48020DC
:100D800004F00AFF0028C9D07846FDF78FFCC5E7BC
:100D9000402A0020AC2A002010B50378042B0ED185
:100DA00043681B785BB11C4B4269197B047E69BBAD
:100DB000598AF9B9012C996802D08A4203D810BD2A
:100DC0004C1CA24218D92A318A42F8D8997B0029B2
:100DD000F5D184689A60114A1A619981C3E90011BA
:100DE000FFF774FEFFF746FE04F11000BDE8104067
:100DF000FFF712BE012CE2D1996801318A42DED19F
:100E000001225A73BDE81040FFF74ABF0129D6D12D
:100E1000012CD4D09968F1E7402A00200000062D6B
:100E200038B5184B1B785B06054626D5164CD4E919
:100E300000239A421FD2207B144B1549012808BF7A
:100E40000B469A4207D263682268403B9A4208D315
:100E5000FFF710FE05E001236373FFF721FF002871
:100E6000F1D0EFF3108072B623685A1C22602B6019
:100E700028B962B638BDFFF7FDFD0F20FAE7002064
:100E8000F8E700BFAB2A0020402A0020FFFF7F00C8
:100E900000E0FF0010B50C4A1368144628B1012089
:100EA0000A4903448873136010BD13B97846FDF7EF
:100EB000FDFB2368013B2360002BF5D1034A9373AC
:100EC000BDE81040FFF7ECBE142A0020402A0020A5
:100ED00000B58DB00323ADF8080001A88DF81020EF
:100EE00003918DF80430FEF7EDFE0DB05DF804FBC4
:100EF000014B9868704700BF402A0020034B986858
:100F00001B7B012B08BF00F1FF307047402A0020F7
:100F1000044B9B685840C20748BF03F1FF33184693
:100F2000704700BF402A0020014B187B704700BF6C
:100F3000402A002070B50E4E337813F0200415D1EE
:100F40000C4D43F0200333702973A8602C82FFF707
:100F5000BDFD2046FFF760FD337843F04003C5E94F
:100F600000443370FFF786FD204670BD0820FCE783
:100F7000AB2A0020402A00202DE9F3411D4CDFF868
:100F8000788000250221204602F066FAEFB2014681
:100F90000026B9B96EB12046019102F0C4FA0828C2
:100FA000019906D154F8043C1BB10A463846414623
:100FB00098470135032D04F1BC04E3D1012002B0B0
:100FC000BDE8F08154F8043C1BB134F80C2C3846D1
:100FD000984734F80C3C02210133204624F80C3C9D
:100FE00002F056FA0221204602F036FA0136014696
:100FF000CFE700BFC42A0020885D030038B5012177
:1010000004460C3002F028FA054620B3164BC4F80B
:101010009C300023C4F8A03003786268012B07D00D
:10102000022B1AD07846FDF741FB4FF4FA7306E025
:1010300081688B1A99082B234B4303F5FA730B4AEB
:10104000934294BFC4F8A830C4F8A8200123C4F880
:10105000AC4084F8B830284638BD83689B1A1A0B18
:10106000034B5343E9E700BF951002006085010080
:10107000CC55010010B50446FFF7C0FF48B104F19C
:101080009C0006F019F920B17846BDE81040FDF744
:101090000DBB10BD2DE9F74F494B1B7807460C4699
:1010A0003BB106F03FF9002384F8B83003B0BDE847
:1010B000F08F01F10C09D1F8A8504846012102F047
:1010C000CBF9064610B97846FDF7F0FADFF8F8A03C
:1010D000A5F5FA784FF02B0B00253378012BA8EB00
:1010E000050506D0022B3BD07846FDF7DFFA00233A
:1010F0001FE06368B268B5FBFBF5D21AAD009542FC
:1011000028BF154625B901937846FDF7CFFA019B14
:10111000F168706823F003032A4619441844FFF766
:1011200083FB10B17846FDF7C1FA63681D44656022
:10113000B36862689A422AD106F0F4F84846012161
:1011400002F0A6F90023636084F8B8301D4B1868DC
:1011500001F09EFA204603B0BDE8F04FFFF78ABFCA
:101160006368B268B5FBFAF5D21A2D03954228BF21
:10117000154625B901937846FDF798FA019B7068EA
:1011800023F0030329461844FFF726FBC9E701F0C3
:10119000E3F83378C51B48BF3D1A012B0BD0022B57
:1011A0000BD07846FDF782FA00232B44434594D9AF
:1011B00006F0B8F8CEE72B23F7E75346F5E700BF74
:1011C000B42A0020B02A0020CC55010070B51B487D
:1011D0001B4C01F03FFA1B4B186004F11C0341F259
:1011E00003060825636104F10C0004F11803236170
:1011F000A681A57302F073F904F1D803C4F8D030C6
:1012000004F1C80004F1D403C4F8CC30A4F8C860D9
:1012100084F8CA5002F063F904F5CA73C4F88C313B
:1012200004F5C873A4F8846184F88651C4F8883141
:1012300004F5C270BDE8704002F051B9790F0200A8
:10124000B82A0020B02A0020022838B504460D46EE
:1012500002D97846FDF72AFA0248BC2303FB0404AE
:10126000A56038BDB82A002002282DE9F84F0546B0
:101270000C46914602D97846FDF718FA14B978461B
:10128000FDF714FA2378012B12D16368990702D075
:101290007846FDF70BFAE3689A0702D07846FDF727
:1012A00005FAA3689B0711D07846FDF7FFF90DE01A
:1012B000022B0DD16368C3F30B0313B17846FDF71E
:1012C000F5F9A368C3F30B03002BEDD1A36813B9A1
:1012D0007846FDF7EBF9EFF3108872B6BC26234F82
:1012E0006E4306F10C0BBB440021584602F0B4F8E3
:1012F000824690B30021584602F0CAF810222146D7
:10130000504613F085FDB9F1000F03D0BB195B887F
:10131000A9F80030BC2000FB05756B8895F8B84033
:1013200001336B8004BB124B1D78BDB9B819FFF7B0
:1013300065FEB8F1000F0ED162B6444640B106F129
:101340009C00384405F0B8FF10B17846FDF7AEF9BF
:101350002046BDE8F88F2C46F0E70424B8F1000FD2
:10136000F6D1A0460020E7E70024F7E7B82A0020DE
:10137000B42A002070B5EFF3108672B6144C2368BF
:1013800018BB13B97846FDF791F92368013B236038
:1013900093B9104D95F8B83013B92846FFF76AFE97
:1013A00095F8743113B90C48FFF764FE95F83032A4
:1013B00013B90A48FFF75EFE2368094A003B18BFCD
:1013C0000123137006B962B670BD01332360F3E7E1
:1013D000EC2C0020B82A0020742B0020302C002098
:1013E000B42A002010B1024B800B185C704700BF7C
:1013F000985D030012DF704713B501F0B7FC044697
:10140000D8B1134B1B685B0617D5124B1B68012B19
:1014100013DD11482F2113F0DBFD80B12F210E4881
:1014200013F0D6FD411C0D4B0D4AD3F80435009244
:1014300001947522022002F013FA02B010BD064892
:101440005C2113F0C5FD08B15C21E8E70249EAE739
:10145000A81F0020A41F00209C5D03000010014075
:10146000B85D030070B58AB006F01CFC0446002885
:1014700034D000238DF8103006460FCE05AD0FC5D1
:1014800033682B60627D052A0CD9207D00F00F03A4
:10149000072B07D004AB063A04F11D0100F00F0042
:1014A00005F092FA114B1A68AAB104AB0393237D9D
:1014B000C3F303038DF80430637D062B89BF063B1D
:1014C00000238DF8053004F11D0398BF8DF8053019
:1014D000029301A89047204606F0CEFB06F0FCFBE5
:1014E00080F00100C0B20AB070BD00BFF82C00202F
:1014F00010B5114C2378022B8CB005D07846FDF73F
:10150000D5F801200CB010BDFFF7A0FB18B90B48AF
:10151000FEF704FCF5E706F091FB03232C220021E3
:1015200001A8237013F082FC1D2301A88DF804305C
:10153000FEF7C8FBE5E700BFF42C0020981F002051
:1015400000B50A4B1A78042A8DB00CD105221A7006
:1015500000212C2201A813F069FC1C2301A88DF89E
:101560000430FEF7AFFB0DB05DF804FBF42C002057
:1015700008B50378122B08D10448FEF7DFFB044BB3
:101580001868BDE8084001F083B808BD981F002026
:10159000F02C0020F7B5314F3A780546002A52D199
:1015A000002852D0067A0F2E01D0062E4FD105F01A
:1015B000DBF9E868002843D0FDF78AF80DF1070051
:1015C000FFF718FF0446C0BB9DF80730012B40D140
:1015D000FDF7AAF800F09EFA304600F07DFFE878AB
:1015E00000F02AF900F0B2FD05F0FCFD1C4806F001
:1015F00015FC05F06DFB05F0BDF9FFF7E7FD04F004
:1016000077FA00F047FC05F06FF904F08BFF2846ED
:1016100001F000FBFDF7C2FE03F0BEFDFCF744FF46
:1016200008B1062817D10F4801F014F80E4B1860C6
:101630000E4B00221A6001233B70204603B0F0BD20
:10164000FDF74EF8BAE70824F7E70E24F5E707247C
:10165000F3E70224F1E70446EFE700BFF42C002093
:1016600065140200F1140200F02C0020F82C002078
:1016700037B5254D2A78012A04D0043A012A36D9F3
:10168000082426E001F0D4FAFDF7CAFEFCF70CFFAF
:10169000044650B3062828D01C4B1B685B0418D5A1
:1016A0001B4B1B68012B14DD1A482F2113F090FCF3
:1016B00090B12F21174813F08BFC411C164B174A91
:1016C000D3F804350092019440F28912022002F00E
:1016D000C7F8204603B030BD0E485C2113F078FCFB
:1016E00008B15C21E6E70B49E8E700F021FF05F0CF
:1016F000D5FD04460028ECD102232B70084B186856
:1017000000F0C6FFE5E700BFF42C0020A81F002072
:10171000A41F00209C5D030000100140E15D030058
:10172000F02C002008B5084B1A78032A0AD10422AD
:1017300006481A7005F078FD18B17846FCF7B6FF38
:10174000002008BD0820FCE7F42C00204115020011
:10175000FDF768BEFEF7E2BAFEF7F0BA08B500F092
:10176000C5FC002008BD07F0E5BB0000044B1A686B
:101770000132B2F1704F08BF01221A601868704739
:10178000FC2C002010B5044610B97846FCF78EFFFB
:101790000023C4E9003310BD38B50D46044610B926
:1017A0007846FCF783FF15B97846FCF77FFF0023E6
:1017B0006B60EFF3108372B6226822B92560656012
:1017C00003B962B638BD62685560F8E710B50446E3
:1017D00010B97846FCF76AFFEFF3108272B6206802
:1017E00020B90023636002B962B610BD436823606C
:1017F000002BF8D1F5E710B5044610B97846FCF790
:1018000055FF206810BD35DF7047000008B54FF068
:10181000FF30FFF7F8FFBFF34F8F0549054BCA684C
:1018200002F4E0621343CB60BFF34F8F00BFFDE7CC
:1018300000ED00E00400FA0507289ABF024B33F8D8
:101840001000FA20704700BF065E0300024B586884
:10185000103840B2704700BF00ED00E0002803469A
:10186000B8BF00F11F03084A5B1152F8233042420F
:1018700002F01F0200F01F0058BF504223FA00F090
:1018800000F00100704700BF00E100E046DF704754
:1018900030B501F110031032103013F8014D12F879
:1018A000015D8B4284EA050400F8014DF5D130BD9D
:1018B0002DE9F047144690B002F10F0510220F46B3
:1018C0002D1101460DEB0200984604F00F0413F0B1
:1018D0009FFA002D51D0B4FA84F676090021102227
:1018E00008A813F0A3FAC6F1020A04A8FFF7CEFF76
:1018F0005FFA8AFA01210CAA9DF930000F23914664
:1019000092F800C012F801EF4FEA4C0C013B4CEA90
:10191000DE1C9BB202F801CC002BF1D19DF83F30C8
:101920005B00DBB20028B8BF83F087038DF83F303F
:101930004B1C9A454FF00201DDD2013D07EB05112A
:10194000EEB10CAA6846FFF7A3FF102200210CA8F5
:1019500013F06CFA0024AC4223DB4A46694608A81F
:10196000FFF796FF04A8FFF791FF10224946404673
:1019700013F04EFA10B0BDE8F0872E46AEE72246CF
:10198000684613F045FA10AB2344802203F8402C3C
:101990000134102C02D10CAA6946D3E70DF804607B
:1019A000F6E707EB0412494608A8FFF771FF04A801
:1019B000FFF76CFF0134CEE738B5114B1A680446C7
:1019C0002AB11A6840685268821A002A0DDA1A6829
:1019D00062611C609A88013292B29A8012B978468C
:1019E000FCF764FE0123237038BD1A68154652695E
:1019F0001AB15168091A0029F8DB62616C61E9E7E4
:101A0000042D002010B5124B1A68824204461A4673
:101A10000BD142691A609A8892B2511E89B299809C
:101A20008AB97846FCF742FE0DE01B685BB1596944
:101A3000A1420BD16169596193889BB2591E89B249
:101A40009180002BEDD00023237010BD0B46EDE7F5
:101A5000042D0020014B186800F01ABE002D002054
:101A6000044B1A6822B11B680349586800F052B948
:101A700000F0A6B9042D0020551A02002DE9F0410E
:101A800000F0C0F8224E054637464FF00008336894
:101A900023B133685B685B1B642B06D400F0B2F89B
:101AA000FFF7DEFF0120BDE8F08134682378012BC9
:101AB00002D07846FCF7FAFD63693B60BB88C4F846
:101AC00014809BB25A1E92B2BA8013B97846FCF7C2
