:020000021000EC
:10C0000000FD01202D050300550503005705030021
:10C01000590503005B0503005D05030000000000F7
:10C020000000000000000000000000005F050300A9
:10C0300061050300000000006305030065050300BF
:10C0400067050300670503007561020067050300CB
:10C05000670503006705030069C701006705030062
:10C0600067050300670503001DEF02006705030075
:10C070006705030067050300670503006705030004
:10C080006705030051FE02007DB902006705030049
:10C0900021FF0200670503004DCC01006705030086
:10C0A00067050300670503006705030067050300D4
:10C0B00067050300670503000000000000000000A2
:10C0C00067050300670503006705030067050300B4
:10C0D00067050300670503006705030067050300A4
:10C0E00067050300000000000000000000000000E1
:10C0F0000000000067050300000000006705030062
:10C10000000000000000000000000000000000002F
:10C11000000000000000000000000000000000001F
:10C12000000000000000000000000000000000000F
:10C1300000000000000000000000000000000000FF
:10C1400000000000000000000000000000000000EF
:10C1500000000000000000000000000000000000DF
:10C1600000000000000000000000000000000000CF
:10C1700000000000000000000000000000000000BF
:10C1800000000000000000000000000000000000AF
:10C19000000000000000000000000000000000009F
:10C1A000000000000000000000000000000000008F
:10C1B000000000000000000000000000000000007F
:10C1C000000000000000000000000000000000006F
:10C1D000000000000000000000000000000000005F
:10C1E000000000000000000000000000000000004F
:10C1F000000000000000000000000000000000003F
:10C2000010B5054C237833B9044B13B10448AFF390
:10C2100000800123237010BD1820002000000000C2
:10C22000D034030008B5034B1BB103490348AFF3F7
:10C23000008008BD000000001C200020D034030056
:10C24000154B002B08BF134B9D46A3F5803A0021E8
:10C250008B460F461348144A121A15F029FD0F4B4E
:10C26000002B00D098470E4B002B00D098470020A1
:10C27000002104000D000D48002802D00C48AFF347
:10C28000008015F0C5FC2000290000F015F815F01D
:10C29000ABFC00BF0000080000FD01200000000012
:10C2A000000000001820002078540020000000004A
:10C2B0000000000041DF704700B5AB4CAB4A0421E1
:10C2C0008DB04EF2070010F0B7FA2368590418D564
:10C2D000A74B1B68032B14DDA6482F2115F0BAFDD0
:10C2E000002800F0F2802F21A24815F0B3FD411C78
:10C2F000A14BA24AD3F8043500920420662210F024
:10C30000B7FA13F055FF18B19A4A682114F039F9B9
:10C3100000F0FEF900F0FAFA0021242203A815F03B
:10C32000C7FC01238DF80C3007238DF80F3094499A
:10C33000062303A88DF8143000F04AF928B30B281F
:10C3400040F0F18023685A041FD5894E3268032AD1
:10C350001BDD88482F2115F07DFD002800F0BE80F0
:10C360002F21844815F076FD411C834D854AD5F870
:10C370000435009204204F2210F07AFA23685B04FF
:10C3800003D53368032B00F3B2802368580418D513
:10C39000774B1B68032B14DD76482F2115F05AFDCF
:10C3A000002800F0C5802F21724815F053FD411C74
:10C3B000714B754AD3F8043500920420582210F0CE
:10C3C00057FA012001F0C6FE18B16A4A592114F04B
:10C3D000D8F82368590418D5654B1B68032B14DD66
:10C3E00064482F2115F036FD002800F0AA802F2187
:10C3F000604815F02FFD411C5F4B644AD3F80435AB
:10C40000009204205B2210F033FA00200BF0C4FDF0
:10C4100018B1584A5C2114F0B4F823685A0418D5AE
:10C42000534B1B68032B14DD52482F2115F012FDCE
:10C43000002800F08F802F214E4815F00BFD411C85
:10C440004D4B534AD3F80435009204206F2210F06C
:10C450000FFA0BF0BCFD18B1464A742114F091F8A4
:10C460000BF010FF00F0B2F900F0A4F818B1414A47
:10C47000782114F086F823685B0418D53C4B1B68C0
:10C48000032B14DD3B482F2115F0E4FC002800F0BD
:10C4900085802F21374815F0DDFC411C364B3D4A85
:10C4A000D3F80435009204207A2210F0E1F900213B
:10C4B0004FF4F03000F0F0F80222C8214FF4F030D1
:10C4C00000F0F4F8FFF7F6FEFCE72A485C2115F0CF
:10C4D000C1FC08B15C2107E7264909E725485C2132
:10C4E00015F0B8FC08B15C213BE722493DE7214843
:10C4F0002F2115F0AFFC68B12F211E4815F0AAFCC2
:10C50000411C254AD5F8043500920420502210F031
:10C51000AFF93AE717485C2115F09CFC08B15C21A3
:10C52000EBE71449EDE7134A552114F02AF82CE7FC
:10C5300010485C2115F08EFC08B15C2134E70D49F0
:10C5400036E70C485C2115F085FC08B15C214FE70B
:10C55000084951E707485C2115F07CFC08B15C21D3
:10C560006AE704496CE700BF881F00200DC802007D
:10C57000841F0020EC1E0300001001400A1F03006E
:10C5800034200020431F0300CC1F0300E91F0300D9
:10C590000B20030025200300911F030004485C21A9
:10C5A00015F058FC08B15C2174E7014976E700BF3B
:10C5B000EC1E03000EF0E4B808B50EF0F0FC03F03A
:10C5C000DDFF05F05DFDBDE808400DF059BC000041
:10C5D00073B50E46054688B30EF066F8044650BBA8
:10C5E00005F0A6FD03F0DEFF286909F061FA0446B4
:10C5F00008BB2B7F0193AB69009301466B69104820
:10C600004FF6FF7209F004FD0446A0B92B6A03B18E
:10C61000984711F065FC05F0D5FC054603F01AFDBE
:10C620000B2D01D00B2802D1FFF7C6FF0B2406F01B
:10C630008BFE06B13070204602B070BD0E24FAE7C2
:10C640003820002070B5104C206808B913F08CFF1A
:10C650004FF0A0450D4ED5F8043532685340C5F86B
:10C6600004352368013B236063B9094813F05AFE7F
:10C670003268D5F8043523EA0203064A12681343E8
:10C68000C5F8043570BD00BF902000209420002024
:10C6900098200020C02000204FF0A04311B1C3F823
:10C6A0000C057047C3F8080570470000F8B52AB3B9
:10C6B000132923D9124B134C5200013A4FF0A045D5
:10C6C0001A602060D5F8043518400F4B4FF4FA7605
:10C6D000186000274FF40040E0FB01674FF47A72C6
:10C6E00000233046394615F003F900220146074879
:10C6F00013F0CCFD10B92368C5F80C35F8BD00BFA8
:10C700009020002094200020C020002098200020AD
:10C7100008B54FF0A04303224FF40051C3F834276B
:10C72000C3F808154FF48041C3F83827C3F808153B
:10C730004FF40041C3F83C27C3F80815C3F840275D
:10C740004FF48032C3F808250548064A012113F04A
:10C750008BFD18B1BDE8084013F006BF08BD00BF4F
:10C760005C20030045C60100F8B5134B134D144E71
:10C77000144F0024C3F87C414FF0A04315F8011B6F
:10C78000D3F8102501238B40934310D03368D7F89A
:10C790000425991A48BFD11A43F23333994206D976
:10C7A000D7F804353360084B20461B68984701349E
:10C7B000042CE1D1F8BD00BF006000406020030000
:10C7C000BC20002000100140B82000202DE9F041DD
:10C7D0000446CEB038B1424D2B685A0403D5414EC1
:10C7E0003368032B02DC4EB0BDE8F0813E4B186885
:10C7F0000DAB611E04F10F0C1F4611F8012F4FEA1B
:10C80000121E02F00F0210F80EE083F800E0825CC6
:10C810005A70614503F10203EFD10023334887F8D2
:10C8200020302F2115F016FB002846D02F212F484D
:10C8300015F010FB411CDFF8C4802D4AD8F80435F0
:10C8400001922C4A009202974222042010F010F824
:10C850002B685B04C7D53368032BC4DD23482F2125
:10C8600015F0F8FA002831D02F21204815F0F2FAFF
:10C87000411CE27B2068D8F804350B92A27B0A9217
:10C88000627B0992227B0892E27A0792A27A069250
:10C89000627A0592227A0492E28852BA92B20392A4
:10C8A000A28852BA00BA92B2CDE90102124A0092AD
:10C8B000042043220FF0DCFF95E70C485C2115F0C3
:10C8C000C9FA08B15C21B2E70849B4E707485C211E
:10C8D00015F0C0FA08B15C21C7E70449C9E700BFF9
:10C8E000881F0020841F00208C1F0020642003006C
:10C8F0008C2003009E200300A620030000100140AE
:10C9000060DF704769DF70470DF0AEBF10B588B0CB
:10C9100000F04AF908B113F027FE2B4B0393039B59
:10C9200004930C22002105A815F0C2F90023049AF3
:10C930008DF8143005A90120FFF7E4FF08B113F0CA
:10C9400013FE0C22002105A815F0B2F9F823049A71
:10C95000059305A9A120FFF7D5FF08B113F004FE48
:10C9600004A8FFF7CDFF039B049A9A4204461CD00B
:10C97000164B1B685B0418D5154B1B68012B14DD87
:10C9800014482F2115F066FAA8B12F21114815F08F
:10C9900061FA411C104B049AD3F8043501920F4AF6
:10C9A00000920220AB220FF063FF14B1204613F077
:10C9B000DBFD08B010BD07485C2115F04BFA08B14B
:10C9C0005C21E3E70349E5E7601F0020881F0020A2
:10C9D000841F0020E6200300001001401621030000
:10C9E00070B5EFF3108672B60C4A946801239CB9B7
:10C9F00093600B4B0B4DD3F8801029401160C3F8A6
:10CA00008050D3F8841051604FF0FF32C3F8842077
:10CA1000047006B962B670BD0370FAE7F0530020E7
:10CA200000E100E0FC06FFBD10B5084B9A685AB162
:10CA300050B9EFF3108172B6054A1C6814605C6847
:10CA40005460986001B962B610BD00BFF053002079
:10CA500000E100E001600B6843604A68934204BF54
:10CA6000002343607047436843B1026891680B44F8
:10CA700043605268934204BF0023436070474BDF1A
:10CA8000704700001FB50D4C01A8FFF7F8FF70B903
:10CA9000214602A8FFF7DEFF039B002BF4D001988C
:10CAA000D3E90021904702A8FFF7DDFFF4E705284E
:10CAB00001D013F059FD04B010BD00BF5021030098
:10CAC00061DF704730B5114B1B7891B0E3B1104D69
:10CAD00034240DF1020103A8ADF80240FFF7F0FF86
:10CAE00070B9294601A8FFF7B5FF029B002BF0D0D3
:10CAF00003A8D3E90021904701A8FFF7B4FFF4E7AA
:10CB0000052801D013F030FD11B030BDC420002045
:10CB10005C21030010DF704713B5044609496846DD
:10CB2000FFF798FF019808B902B010BDD0E90021C5
:10CB30002046904718B16846FFF795FFF2E71120AD
:10CB4000F2E700BF6C21030013B5044607496846AD
:10CB5000FFF780FF019B0BB902B010BD2046D3E95F
:10CB6000002190476846FFF77EFFF3E7842103002A
:10CB70000B4991F816335A09EC231341DB0706D50C
:10CB8000084B9A683AB94FF480030B60704742F241
:10CB9000020013F0E9BC1A6842F480021A60704780
:10CBA00000E100E0F0530020F7B5194F3C7864BB7A
:10CBB000184E012520463570FFF7AEFF112821D011
:10CBC0002046FFF7C1FF144B8DF803401868019011
:10CBD0000DF10300FFF704FF104901A8FFF79AFFCA
:10CBE0000446B0FA80F0400938709DF80300FFF762
:10CBF0001BFF3CB90A4B34701C70FFF7B9FF284685
:10CC0000FFF7A2FF204603B0F0BD0824FAE700BFFB
:10CC1000C6200020C52000206821030011800200EA
:10CC2000C720002007B508496846FFF713FF019B9E
:10CC300013B903B05DF804FBD3E9002090476846C0
:10CC4000FFF711FFF3E700BF78210300FFF7EABF0A
:10CC500000B5036993F80B2189B05AB1002283F81B
:10CC60000B21022201938DF80020DB688DF808105B
:10CC70006846984709B05DF804FB10B5046994F85C
:10CC80000B31012B88B010D18DF800306846E36875
:10CC90000194984794F83111A06804F1F50200F06E
:10CCA0007DFF20B9032384F80B3108B010BDA068C4
:10CCB000836802211B699847F7E71FB5044600F116
:10CCC000D50100F1A5036A4601F0CCF8A0686946D9
:10CCD00000F0B6FF10B90F2384F80B3104B010BD7B
:10CCE00030B590F80C3189B00446032B35D8DFE815
:10CCF00003F02B251A0200F1C505294601F090F931
:10CD000005238DF80030B4F8063101945BBAADF814
:10CD100008300395102384F80B316846E368984780
:10CD2000002009B030BD06238DF80030B0F8063180
:10CD300001905BBAADF808300B23ECE707238DF8C0
:10CD4000003001900C23E6E710220021C53014F0DA
:10CD5000AFFF2046FFF7B1FFE3E70320E1E710B59F
:10CD600088B0044601F00CFA88B10A2384F80B312C
:10CD70000B238DF800306369039304F118030293C9
:10CD80006846E36801949847002008B010BD04F19C
:10CD90005801204601F028F90028F6D12046FFF777
:10CDA0009FFFF2E710B5046994F80B31062B88B0A9
:10CDB0001DD194F808315BB108238DF800300923A8
:10CDC00084F80B310194E3686846984708B010BDB9
:10CDD0002169A06800F016FF18B9082384F80B3108
:10CDE000F4E7A068836802211B699847EEE7072BE8
:10CDF000ECD12046FFF7B3FFE8E70000F0B50D46A1
:10CE000004690E78A9B01146284600F0B9FE08B1B1
:10CE1000092E04D9A068836802211B6914E194F8E3
:10CE20000B1194F80901324601F0B8F948BB8D4B5B
:10CE30001B681B07EED58C4B1B68042BEADD8B4867
:10CE40002F2115F007F898B12F21884815F002F826
:10CE5000411C94F80B21864BD3F80435CDE90162CF
:10CE6000844A0092052040F235120FF001FDD1E70F
:10CE70007E485C2114F0EEFF08B15C21E5E77B49B8
:10CE8000E7E72B78013B082BC4D801A252F823F026
:10CE9000B5CE010015CE01001DCF010045CF010028
:10CEA0004DCF010071CF010015CE010027D0010048
:10CEB0004DD001000B22691C04F1F60014F0EAFECB
:10CEC000042384F80B3109238DF87C306B788DF8BE
:10CED000843020946A88130A43EA0223ADF885302F
:10CEE0002B798DF887306B798DF88830AB798DF898
:10CEF0008930B5F80720130A43EA0223ADF88A30D7
:10CF00006B7A8DF88C306A89130A43EA0223ADF8F4
:10CF10008D30E3681FA8984729B0F0BD691C08460A
:10CF2000059101F055F8059900283FF473AF4022B0
:10CF300004F1180014F0AEFE2046FFF710FF0028A1
:10CF4000EAD067E72046FFF7B8FEF8E7691C102231
:10CF500004F1E50014F09EFEA06804F1A50100F0C4
:10CF600081FE00287FF456AF112384F80B31D3E7FC
:10CF70001022691C04F1B50014F08CFE204601F06B
:10CF800091F800283FF446AF07AD0BAE04F17803EB
:10CF90002A46314620460FAF00F0C6FF072304F5AE
:10CFA0008C71102238468DF8583014F073FED4F886
:10CFB0002A31B4F82E211BBACDF84F30130A43EAB8
:10CFC0000223B4F82821ADF85330130A43EA0223B0
:10CFD000ADF84C3094F830312197C3F30002C3F31D
:10CFE000400343EA42038DF84E301923ADF88830F0
:10CFF0000DF1590325930DF172032693002323931A
:10D00000ADF890301FA80823CDE91F658DF89C303E
:10D010000EF00DFDA06816A900F04EFE00287FF46A
:10D02000F9AE1323A1E70A238DF87C3004F17803CD
:10D03000219304F58C7320942293E3681FA89847EA
:10D04000A06883681B690021984765E70C238DF869
:10D050007C306B7820948DF88430E3681FA8984763
:10D06000D8E600BF881F0020841F00209021030005
:10D0700000100140B421030070B50E46194690F827
:10D080000B310446B3B985680B48E86084F8093170
:10D0900084F8312104F58C70192214F0FBFDAB6883
:10D0A000064ADB6831462846984710B9012384F8C0
:10D0B0000B3170BD0820FCE7D821030000879303E3
:10D0C00037B5044690F80B01042837D1012907D061
:10D0D000102B01D813B919B109202DE00029FBD07C
:10D0E00094F8100184F80C11012908BF102300F0F6
:10D0F000010088BF8DF8042084F8072184F80631E8
:10D1000084F8080198BF00234FF002058DF8020053
:10D110008DF80310A06898BFADF8043004F1F50253
:10D12000694688BF8DF80530ADF8005000F05AFD13
:10D1300010B9062384F80B3103B030BD0820FBE79B
:10D1400090F80B310B3B012B01D8FFF7B6BD08203F
:10D15000704710B590F80B210A2A044609D151B145
:10D160002022583014F096FD2046BDE81040FFF70D
:10D17000B7BD082010BD0E20FCE700B589B00A231A
:10D180008DF8003000F17803029300F58C73019064
:10D190000393C3686846984709B05DF804FB70B50F
:10D1A00005692C68A86088B006465CB9022385F83A
:10D1B0000B3101238DF800300195EB6868469847E4
:10D1C00008B070BDB44203D0A36820469B6898475E
:10D1D0002468EAE730B5046994F80B31122B89B062
:10D1E0000D4603D111B92046FFF7C7FF002384F88D
:10D1F0000B3102238DF800300194E3688DF808505C
:10D200006846984709B030BD30B590F80C3189B008
:10D210000446032B35D8DFE803F02B251402062340
:10D220008DF80030B0F8063101905BBAADF80830E7
:10D230000B2384F80B316846E3689847002009B057
:10D2400030BD00F1C505294600F0EAFE05238DF842
:10D250000030B4F8063101945BBAADF8083003959C
:10D260000F23E6E707238DF8003001900C23E0E759
:10D2700010220021C53014F01BFD0F2384F80B3160
:10D28000DCE70320DBE730B5044689B080680D4653
:10D2900000F005FD20B1A068836802211B69984752
:10D2A00094F80B31152B0DD00C238DF8003015237D
:10D2B00084F80B310194E3688DF8085084F80A5122
:10D2C0006846984709B030BD10B588B0044600F0F4
:10D2D00057FF80B10B238DF800306369039304F18D
:10D2E000180302930A2384F80B310194E36868461B
:10D2F000984708B010BD04F15801204600F074FEB4
:10D3000048B92046FFF780FF0028F2D005212046CB
:10D31000FFF7B9FFEDE70221F9E7000013B5046953
:10D3200094F80B31023B132B47D8DFE803F00A4691
:10D33000460D46460F4646154617461746191B46E4
:10D340004620052384F80B3102B010BD204602B000
:10D35000BDE81040FFF7B8BF0F23F3E71123F1E753
:10D360001223EFE72046FFF708FF1423EAE7274BD5
:10D370001B681A07E8D5264B1B68032BE4DD2548FC
:10D380002F2114F067FD78B12F21224814F062FD9F
:10D39000411C214B214AD3F80435009204204FF45C
:10D3A00015720FF065FACFE71A485C2114F052FDB0
:10D3B00008B15C21E9E71749EBE7144B1B681B0731
:10D3C000C2D5134B1B68002BBEDD12482F2114F071
:10D3D00041FD90B12F210F4814F03CFD411C0E4B34
:10D3E00094F80B21D3F8043501920D4A00920120E4
:10D3F00040F257220FF03CFAA6E706485C2114F0F1
:10D4000029FD08B15C21E6E70249E8E7881F002012
:10D41000841F0020E8210300001001400C220300BB
:10D420003C22030070B50D4604690E789AB011468F
:10D43000284600F0A5FB08B1092E01D9022128E0F9
:10D4400094F80B1194F80901324600F0A7FE68BB6E
:10D450009C4B1B681B071BD59B4B1B68042B17DDC4
:10D460009A482F2114F0F6FCB8B12F21974814F0F8
:10D47000F1FC411C94F80B21954BD3F80435CDE910
:10D480000162944A009205204FF4C4720FF0F0F943
:10D4900003212046FFF7F7FEA4E08C485C2114F03E
:10D4A000D9FC08B15C21E1E78849E3E72B78072B39
:10D4B00000F27E81DFE813F008007C014900A4003F
:10D4C0007C01BE00E9001001012204F1F506A91853
:10D4D000304614F0DFFB03238DF844306B78129450
:10D4E0008DF84C30E36811A8984701238DF820305F
:10D4F00094F80D318DF82130B4F80E21130A43EA67
:10D500000223ADF8223094F81231B4F81021ADF8AE
:10D5100024208DF82630B4F81321130A43EA02239D
:10D52000ADF8273094F815318DF82930B4F816216C
:10D53000130A43EA0223ADF82A30A068324608A94C
:10D5400000F040FB00284DD091E06B78002B7FF479
:10D5500075AFAB78012B3FF671AFEA78032A3FF63F
:10D560006DAF012B04D194F81031012B7FF466AF1D
:10D57000012A2B7938D8002B7FF460AF6B79002B10
:10D580007FF45CAF691C052204F2011014F082FBE9
:10D59000AB78003B18BF012384F80831EB7884F89E
:10D5A0000C31012B14BF6B79102384F806312B79D1
:10D5B00084F8073104238DF844301294E36811A8ED
:10D5C000984794F80831082584F80B5153B120226C
:10D5D000002111A814F06CFB8DF844501294E368FC
:10D5E00011A898471AB070BD022A07D1042B3FF644
:10D5F00025AF6B79013B072BC4D91FE7032BF6E757
:10D60000691C0846059100F0E3FC059900283FF4E9
:10D6100015AF402204F1180014F03CFB94F80831D7
:10D6200023B92169A06800F0EDFA8BE72046FFF7E7
:10D630004BFED7E794F80B310F2B1AD11022691C3F
:10D6400004F1E50014F026FB04F1D501204604F1B5
:10D65000A50311AA00F006FCA06811A900F0F0FAD9
:10D660000028BFD0042802D078460AF0D1FD052159
:10D670000FE70C2BB6D11022691C04F1E50014F061
:10D6800009FB0D2384F80B31ACE71022691C04F16F
:10D69000B50014F0FFFA204600F004FD08B904219B
:10D6A000F7E6A06804F1A50100F0DCFA0028DED15D
:10D6B00004F1780304F1980204F18801204600F097
:10D6C00033FC8FE7881F0020841F0020E82103001F
:10D6D00000100140B421030004F18803119304F108
:10D6E000980312936B1C13931923ADF85030082242
:10D6F00000230DF121061A350DF11F0111A8159314
:10D70000ADF858308DF81F30179618958DF86420B5
:10D710000EF08FF99DF81F30DBB31022314604F56F
:10D720008C7014F0B7FA0D9B1BBAC4F82A31BDF8FF
:10D730003830180A40EA032080B2A4F82E01BDF860
:10D7400031301A0A42EA032292B2A4F828219DF845
:10D750003330C3F30001C3F3400343EA410394F8B9
:10D76000301121F003010B43B2F5805F84F83031B2
:10D77000BFF464AE0CF0C0FE01287FF45FAEB4F8D5
:10D780002E0194F80D510CF0B7FE012803D00821AA
:10D790007FE606217DE6B4F82E010138284480B2E8
:10D7A0000CF0AAFE0128F2D1A06800F06DFAC9E6DB
:10D7B00078460AF02DFD15E730B40C4611461A469E
:10D7C00090F80B31012B08D8054BE360A3685D6826
:10D7D000044B2046AC4630BC6047082030BC704744
:10D7E0006C220300008793031FB590F80B31A3F15F
:10D7F0000B02022A044619D80B2B04D1806800F0D2
:10D8000013FA04B010BD0D2B0BD100F1A50300F1EC
:10D81000D5016A4600F026FBA068694600F010FAC0
:10D82000EFE70F2380F80B310020EAE70820E8E754
:10D8300010B590F80B210A2A044609D151B12022D3
:10D84000583014F027FA2046BDE81040FFF7DCBC42
:10D85000082010BD0E20FCE700790B79C31A58424E
:10D860005841704710B5431E00F11002073013F8FD
:10D87000011F12F8014D1C7083421170F7D110BDC9
:10D880004A094FF0FF3301F01F0103FA01F150F88C
:10D890002230194009D04B420B4005495943C90E6B
:10D8A000044B585C00EB421070470320704700BFE8
:10D8B00031B57C077C22030038B5049D88B181B165
:10D8C0007AB173B16DB190F80B4164B9C0E90351FD
:10D8D000426119460B2200F20D1014F0DBF92046CC
:10D8E00038BD0E20FCE70820FAE7000038B50D46E9
:10D8F000044650B149B1064A0EF05CFF20B92C61D4
:10D900002A7963681343636038BD0E20FCE700BFCB
:10D9100059D8010000F0F8BA38B5054678B190F84A
:10D920000B31012B0DD104681CB985F80B41204641
:10D9300038BDA36820469B6898472468F4E70E200A
:10D94000F6E70820F4E72DE9F7430F4690460193E8
:10D950000546A0B190F80B21012A12D81BB14168ED
:10D9600033EA01010FD007262EE032799A421FD008
:10D97000366818E0611C02290BD9002624E00E2627
:10D9800022E0082620E04FF0010980F80B9180F892
:10D99000099101A8FFF774FF03280446EDD009FAA6
:10D9A00004F32E68DBB2002EDFD178460AF030FC9B
:10D9B000314643463A462846FFF7FEFE0646002813
:10D9C000D8D02846FFF7A8FF304603B0BDE8F08363
:10D9D000F7B50E469DF820701D46044600B3F9B118
:10D9E000F3B11B8AB3F5805F02D30B2003B0F0BD07
:10D9F000E88A01920CF080FD0128F6D12368019A93
:10DA00004BB9A36073B12B463146204603B0BDE845
:10DA1000F040FFF731BB1979B942F2D01B68EFE74C
:10DA20000E20E3E70620E1E710B490F809411CB9A5
:10DA30005DF8044BFFF744BB08205DF8044B7047CA
:10DA4000F8B50E461546044600286FD000296DD063
:10DA5000102A6DD890F80631934269D190F80C31B4
:10DA6000012B0DD1C53014F015F994F809312A466F
:10DA700031462046002B55D1BDE8F840FFF760BB8A
:10DA800090F80921DAB9022B21D190F80731032B44
:10DA90001DD82946304600F043FBC0B104F1C5074C
:10DAA00004223146384614F0F5F80C22002104F126
:10DAB000C90014F0FDF83846FFF7D4FED5E7012A77
:10DAC00005D1032B03D190F80731022BE0E794F83E
:10DAD0000931EBB994F80C31022B01D00820F8BDC4
:10DAE00094F80731042BF9D12946304600F008FBA1
:10DAF0000028F3D004F1C5072A463146384614F011
:10DB0000C9F805F1C500C5F1100200212044D0E795
:10DB1000012BE3D194F80C31032BDFD194F80731BA
:10DB2000032BE0E7BDE8F840FFF75EBE0E20D6E726
:10DB30000920D4E790F809310BB9FFF70ABBFFF7CA
:10DB400077BE08B518B100F029F9002008BD0E20F5
:10DB5000FCE700F02FB970B5044616460D4611B922
:10DB600078460AF055FB14B978460AF051FBA368D1
:10DB70003246294620461B68BDE870401847000021
:10DB800048B10378092B05D8034AD35C5B1A584285
:10DB900058417047002070479C22030013B50023B2
:10DBA00004468DF8051010460DF1050101228DF88F
:10DBB000043014F06FF8022201A92046FFF7CBFFD2
:10DBC00002B010BD38B5054610460C460B22013197
:10DBD000013014F05FF8214628460C22BDE8384099
:10DBE000FFF7B9BF38B5054610460C46052201318E
:10DBF0000C3014F04FF8214628460622BDE8384084
:10DC0000FFF7A9BF10B592B00323044640220DF1DF
:10DC100005008DF8043014F03DF8412201A920469A
:10DC2000FFF799FF12B010BD07B5042301220DEBD9
:10DC300003018DF80430FFF78EFF03B05DF804FB9D
:10DC400010B5052386B0044610220DEB03008DF8B5
:10DC5000043014F01FF8112201A92046FFF77BFFC2
:10DC600006B010BD10B586B00623044610220DF193
:10DC700005008DF8043014F00DF8112201A920469A
:10DC8000FFF769FF06B010BD07B50823012201A9FF
:10DC90008DF80430FFF75FFF03B05DF804FB07B5B4
:10DCA00009238DF80510022201A98DF80430FFF731
:10DCB00052FF03B05DF804FB2222FFF74CBF70B5A2
:10DCC00006468AB014460D4609B3084614F0BAF861
:10DCD0006A4681B228460DF014FF042269460DF110
:10DCE000220013F0D7FF162564BAADF820400AF0E1
:10DCF000C9FA102201460DEB020013F0CBFF2B46B0
:10DD000004AA002130460FF01EFA0AB070BD122599
:10DD1000EAE70000F0B50F4689B01546044610B991
:10DD200078460AF075FA15B978460AF071FA07F0E4
:10DD3000FB03122B25D1184E326812B3202200218A
:10DD4000684613F0B5FF1022214601A8079513F08D
:10DD5000A1FF2B785A1E534253410021162F8DF8F4
:10DD600014308DF800100ED10123042204F11201A9
:10DD70000DF116008DF8153013F08CFF33686846EE
:10DD8000984709B0F0BD04220DF116008DF815106A
:10DD900013F08EFFF2E700BFC820002010B5044644
:10DDA00010B978460AF034FA014B1C6010BD00BF70
:10DDB000C8200020014B00221A607047C8200020B4
:10DDC0000A78034B82B000201A7002B0704700BF7F
:10DDD000CD200020024B1B780B7082B002B0704740
:10DDE000CD200020024B82B000221A7002B0704792
:10DDF000CD20002073B505460A4E68460C460DF04E
:10DE000091F8002324219C4201D802B070BD1DF876
:10DE10000300B0FBF1F201FB1202D2B2B25CEA5491
:10DE20000133F0E7BE22030037B50D460421044656
:10DE30000DEB01000DF076F8094B019953F8252000
:10DE4000B1FBF2F302FB131304221BBA0DEB020128
:10DE500004F10C00019313F01DFF03B030BD00BFAF
:10DE6000E42203002DE9F0410446ACB00E4617460B
:10DE700000F1F501112207A81D4613F00BFF94F8DD
:10DE8000093104F118084022A3BB21690DF12D00CE
:10DE900013F000FF402241460DF16D0013F0FAFE31
:10DEA000324607A891210DF02CFE0DF10C08042339
:10DEB0003246009304F15800124BCDF80480202123
:10DEC0000DF035FE284610210DF02CF829461022C1
:10DED00007A813F0DFFE04F1C50110220BA813F010
:10DEE000D9FE3B46202207A940460DF09EFD2CB0EE
:10DEF000BDE8F08141460DF12D0013F0CBFE216904
:10DF00004022C9E7A622030013B50446019113F08D
:10DF100059F901990246204613F058F9012814BF17
:10DF20000320002002B010BD2DE9F043044697B055
:10DF30000D46174600F1D50110220AA81E4613F01F
:10DF4000A9FE94F8093104F1B50904F1A5081022DD
:10DF50008BBB41460EA813F09DFE1022494612A825
:10DF600013F098FE02AA0AA830210DF0CAFD583419
:10DF70000195042502AA2046124B009520210DF0A0
:10DF8000D6FD06ABCDE9005302AA0F4B2046202157
:10DF90000DF0CDFD0DF11B010D22384613F07AFE78
:10DFA000CDE90056094B02AA202120460DF0BFFD05
:10DFB00017B0BDE8F08349460EA813F06BFE10229F
:10DFC0004146CCE7AB220300B0220300B522030098
:10DFD00010B5044613F0F6F80146204613F0DCF9BC
:10DFE000003818BF012010BD73B500F118060446B3
:10DFF00030460D46FFF7ECFF10B978460AF008F9F5
:10E000006169019113F0DEF8019903462A46304612
:10E0100013F01CF900280CBF0320002002B070BDD3
:10E0200037B590F80631013B072B04460D4602D95F
:10E0300078460AF0EDF810220021284613F038FE49
:10E0400094F80C31022B03D0032B14D003B030BD55
:10E0500094F80731032B08D014D9042BF6D194F887
:10E0600006112846FFF7C6FEF0E794F80611284689
:10E07000FFF7DAFEEAE794F80731022BF5D001D971
:10E08000032BEBE701210DF1070094F806410CF09A
:10E0900049FF9DF80720B2FBF4F304FB132301337F
:10E0A000EB73D3E730B593B002AD0423044600937D
:10E0B00000F1D502114B0195202158300DF037FDAC
:10E0C00004F1B50110220AA813F0E4FD04F1C50122
:10E0D00010220EA813F0DEFD06AB0AA92846202266
:10E0E0000DF0A3FC102204F1E50106A813F0C4FD15
:10E0F000B0FA80F0400913B030BD00BFA622030083
:10E100000144884201D10120704710F8013BA3F17E
:10E110003002092AF5D9413B192BF2D9002070476A
:10E12000082937B505460C4602D978460AF070F83A
:10E13000042229460DEB020013F0ACFD044B53F80A
:10E140002400019B984294BF0020012003B030BD01
:10E15000E422030007B5054B8DF807000DF1070118
:10E1600018680FF0C3FE03B05DF804FBBA22030089
:10E17000024B014618680FF0F5BE00BFBA2203003B
:10E1800007B50DF10700FFF7F3FF10B178460AF06D
:10E190003FF89DF8070003B05DF804FB0A4B5B5C99
:10E1A00060B923F0800342F040018B4204D0092A79
:10E1B00014BF0020012070470120704723F0400366
:10E1C00042F080008342F3E708230300D1F8B8311E
:10E1D00008461B69012100F5D8701847F8B5114EA3
:10E1E0003368044613B978460AF012F8EFF3108743
:10E1F00072B63568A5420BD1D4F8C431336007B983
:10E2000062B6F8BD13B978460AF002F8D5F8C451E1
:10E21000D5F8C431A342F5D1D4F8C431C5F8C4311E
:10E22000EDE700BFD020002010B5044610B97846B5
:10E2300009F0EEFFA4F5D87494F8A130012B09D1B0
:10E240002046FFF7CBFF204610F0ECFC002084F8BE
:10E25000A10010BD0820FCE72DE9F0418846911C83
:10E26000054616461F4610F0EEFB044600B3731C2D
:10E2700043742923837432464146133013F00AFD58
:10E280002771EFF3108772B6D5F8A8610136731CB9
:10E29000C5F8A86102D1784609F0BAFF07B962B69D
:10E2A00028462660214610F00AFC0020BDE8F081D7
:10E2B0000420FBE700B5D0F89C3089B01BBA00936E
:10E2C0004FF43063ADF804308DF8061006230722B2
:10E2D0006946FFF7C1FF09B05DF804FB00B5D0F84F
:10E2E0009C3089B01BBA00938DF8041001230622DC
:10E2F00069468DF80530FFF7AFFF09B05DF804FB04
:10E3000000B5D0F89C3089B01BBA00934FF4E0639D
:10E31000ADF80430062201236946FFF79DFF09B0DE
:10E320005DF804FB2DE9F04190F8E030022B88B055
:10E33000044602D0784609F06BFF94F8E330002BD6
:10E340003BD194F8A130032B02D0784609F060FF4E
:10E3500094F8E030022B02D0784609F059FF94F887
:10E36000E130D4F89C1094F8A3208DF80420142BED
:10E3700009BA1D46009128BF1425991C1722B1FB2C
:10E38000F2F194F8E2208DF8082089001B028DF844
:10E3900005102A4604F1E4010DF10900ADF806303C
:10E3A00013F078FC012305F1090269462046FFF7C6
:10E3B00053FFA8B9012384F8E33094F8E3707D1E7D
:10E3C00005EB4503C5EBC305ADB24FF0170894F854
:10E3D000E160B31CB3FBF8F30133DBB2BB4202D8FC
:10E3E00008B0BDE8F08105F11401D4F89C3089B281
:10E3F000761AB6B21BBA172E009394F8A3308DF894
:10E40000043028BF1726BB00E43143F00203324634
:10E4100021440DF106008DF8053013F03BFC01237B
:10E42000B21D69462046FFF717FF1735ADB2002829
:10E43000D6D194F8E330013384F8E3300137C6E7EE
:10E4400070B590F8A130023B022B04460D4602D96C
:10E45000784609F0DDFE2046FFF7C0FE94F8A030B4
:10E46000012B02D0784609F0D3FE204610F0DAFBEB
:10E47000002384F8E030A4F8A03004F1C0000CF0D0
:10E4800005FCD4F8BC31294604F5D870DB68BDE83A
:10E490007040184738B50D46044610B9784609F063
:10E4A000B7FE022D02D9784609F0B2FEA4F5D87461
:10E4B00094F8A13013F0FB0F16D0023B012B02D9C8
:10E4C000784609F0A5FE94F8A130022B02D120462F
:10E4D00010F0A8FB29462046FFF7ECFE28B90423DC
:10E4E00084F8A13084F8A45038BD29462046BDE800
:10E4F0003840FFF7A5BF10B504460CF007FCD4F870
:10E50000DC10014404F1C000BDE810400CF0D5BBA4
:10E5100013B50446EFF3108272B6174B1968C0F8B2
:10E52000C411186002B962B6144B1B681B0718D5DA
:10E53000134B1B68032B14DD12482F2113F08AFCA8
:10E5400088B12F210F4813F085FC411C0E4B0F4A58
:10E55000D3F80435009201944FF4CB7204200EF0EE
:10E5600087F902B010BD07485C2113F073FC08B1B5
:10E570005C21E7E70349E9E7D0200020881F00205D
:10E58000841F00201E2303000010014041230300CC
:10E5900037B591F8A130032B05460C464ED191F8C2
:10E5A000E030022B4AD1D1F8D8301B1A002B14DAF4
:10E5B00001212046FFF77EFE48B9042384F8A130EC
:10E5C000012384F8A430C4F8B40003B030BD1D4B5F
:10E5D000C4F8B430C4F8D850F7E71B4B1B681B07CE
:10E5E0001AD51A4B1B68042B16DD19482F2113F07E
:10E5F00031FCD0B12F21164813F02CFC411C154BD7
:10E6000094F8E420D3F804350192134A00920520CF
:10E6100040F2CE320EF02CF90023204684F8E3308D
:10E6200003B0BDE83040FFF77DBE09485C2113F020
:10E6300011FC08B15C21DEE70549E0E70023C4F8DE
:10E64000B430C2E740420F00881F0020841F002022
:10E650001E230300001001406D230300F0B50F4698
:10E6600089B01646054610B9784609F0D1FDA5F5E2
:10E67000D87494F8A020012A03D194F8A130002B7B
:10E680005DD10023012AC4F8DC60C4F8CC3084F8E2
:10E69000E03084F8A33084F8A23084F8A130C4F8C4
:10E6A000A83113D0012384F8A030264BC4F8B03031
:10E6B000254BC4F8C8302549C4F8B840C4F8D04048
:10E6C0008023A5F18802204610F0D2FAA5F58A76BB
:10E6D000304604210CF026FC002384F8A33080236C
:10E6E00084F8A23033681BBA009310224FF44073B1
:10E6F00039460DF10600ADF8043013F0CBFAFF23D4
:10E70000162269462046FFF7A7FD0646A0B90CF081
:10E71000FDFA0F490144A5F1F0000CF0CEFA3C21BE
:10E72000204610F052FA204610F070F92046FFF70C
:10E73000EFFE022384F8A130304609B0F0BD082670
:10E74000FAE700BF91E50100CDE1010055E70100C6
:10E7500000879303D0F8A8318B4206D1012380F8BB
:10E76000AC31024B18680DF031B87047601F0020C3
:10E7700038B5124B1C6800250CB9012038BD94F83F
:10E78000AC3193B194F8A12094F8E03084F8AC5106
:10E79000042A0DD1022B03D104F1A8000CF076FA63
:10E7A00094F8A4102046FFF74BFED4F8C441E3E7E9
:10E7B000022BFAD12046FFF7B5FDF6E7D020002066
:10E7C0002DE9F0410E4617469846054610B97846A1
:10E7D00009F01EFDA5F5D87494F8A020012A03D1F4
:10E7E00094F8A130002B50D10023012AC4F8DC801A
:10E7F000C4F8CC3084F8E03084F8A33084F8A23038
:10E8000084F8A130C4F8A83113D0012384F8A030D3
:10E810001F4BC4F8B0301F4BC4F8C8301E49C4F8B1
:10E82000B840C4F8D0408023A5F18802204610F0FB
:10E830001FFA0023802284F8A320C4F89C3084F8B7
:10E84000A2303A4631462046FFF739FA054610B95C
:10E85000784609F0DDFCFF232B714FF0FF332B606E
:10E860004FF4FA61204610F0B0F92946204610F026
:10E8700026F9204610F0CAF82046FFF749FE01238A
:10E8800084F8A1300020BDE8F0810820FBE700BF3C
:10E8900091E50100CDE1010055E7010030B5064CDE
:10E8A0000022FF23914202DCD843C0B230BD855C18
:10E8B0006B400132E35CF5E706260300F0B50B7808
:10E8C000012B95B005460C4602D0784609F0A0FC15
:10E8D000271D61783846FFF7E1FFA378834224D1F2
:10E8E00095F8A21028460026FFF7F8FCE67095F888
:10E8F000A220531C03F07F0322F07F02134385F80C
:10E90000A23062780192394603A813F0C3F9284671
:10E910002670FFF7F0FDD5F8BC31019A1B6803A9FA
:10E9200005F5D870984715B0F0BD00232370FAE7BD
:10E930002DE9FF410E461446054610B9784609F008
:10E9400067FC14B9784609F063FC2B681BBAEFF337
:10E95000108172B6A64F3C686CB901B962B66B798A
:10E9600003F00302032A00F2C480DFE812F00B0078
:10E970007F01FE01CD02D4F89C209342EDD0D4F863
:10E98000C441E9E7002C00F0B48094F8A130032BD7
:10E9900040F0AF8094F8E020002A40F0B6802A7959
:10E9A00094F8A2309A4258D1EB881B0A84F8E130DF
:10E9B00017220233B3FBF2F30133DBB2072B07D983
:10E9C000022104F5D87004B0BDE8F041FFF762BD44
:10E9D0002B7A84F8E230093E0123142E84F8E030CB
:10E9E00084F8E33026D9834B1B68180740F18180F7
:10E9F000814B1B68012B7CDD80482F2113F02AFA04
:10EA000078B12F217D4813F025FA411C7C4B7D4ABB
:10EA1000D3F80435009240F2C62202200DF028FF00
:10EA200067E076485C2113F015FA08B15C21E9E74C
:10EA30007249EBE7324605F1090104F1E40013F0F5
:10EA400029F994F8E1309E4253D104F1E0012046C7
:10EA500004B0BDE8F041FFF731BF664B1B6803F01F
:10EA6000080328D2BBB1644B1B68042B13DD634839
:10EA70002F2113F0EFF9A8B12F21604813F0EAF924
:10EA8000411C5F4B604AD3F80435009240F2D52216
:10EA900005200DF0EDFE2979204604B0BDE8F041D7
:10EAA000FFF71CBC55485C2113F0D4F908B15C2178
:10EAB000E3E75249E5E7E3B14F4B1B68012B18DD53
:10EAC0004E482F2113F0C6F9B0B12F214B4813F057
:10EAD000C1F9411C4A4B94F8A220D3F804350292A4
:10EAE0002A790192494A009240F2DA2202200DF07E
:10EAF000BFFE04B0BDE8F08140485C2113F0AAF9E4
:10EB000008B15C21E2E73D49E4E73A4B1B68022A81
:10EB100003F0080340F08780297994F8A2209142FD
:10EB200020D2002BB7D0344B1B68042BB3DD334805
:10EB30002F2113F08FF960B12F21304813F08AF99B
:10EB4000411C2F4B304AD3F80435009240F2E122A9
:10EB50009EE72A485C2113F07DF908B15C21ECE7BF
:10EB60002649EEE725D9002BC3D0234B1B68012B88
:10EB7000BFDD22482F2113F06DF988B12F211F48E6
:10EB800013F068F9411C1E4B94F8A220D3F8043509
:10EB900002922A7901921D4A009240F2E622A5E7EC
:10EBA00016485C2113F056F908B15C21E7E71349D8
:10EBB000E9E7002B9DD0104B1B68042B99DD0F4813
:10EBC0002F2113F047F928B32F210C4813F042F9F5
:10EBD000411C0B4B94F8A220D3F8043502922A79F9
:10EBE00001920B4A0092052040F2EA227FE700BF23
:10EBF000D0200020881F0020841F00201E23030037
:10EC0000001001408123030098230300E823030040
:10EC100032240300B1485C2113F01CF908B15C21D7
:10EC2000D3E7AE49D5E7002B3FF463AFAC4B1B688D
:10EC3000012B7FF75EAFA9482F2113F00BF960B1CC
:10EC40002F21A64813F006F9411CA64BA64AD3F87B
:10EC50000435009240F2EF22DFE6A0485C2113F079
:10EC6000F9F808B15C21ECE79C49EEE7002C3FF491
:10EC700040AF94F8A130032B7FF43BAF9B4B94F84B
:10EC8000E0201B68022A03F008034BD1297994F88D
:10EC9000A320914246D1D3B1914B1B68032B16DDC3
:10ECA0008E482F2113F0D6F898B32F218B4813F0FC
:10ECB000D1F8411C8B4B94F8E420D3F80435019231
:10ECC0008B4A0092042040F231320DF0D1FD002534
:10ECD00004F1A800C4F8B4500BF0D8FF20460FF0A0
:10ECE000A1FF94F8A32084F8E050531C03F07F03A5
:10ECF00022F07F02134384F8A3302046FFF7FBFB8A
:10ED0000D4F8BC315B6804F5D87004B0BDE8F041BC
:10ED1000184772485C2113F09DF808B15C21C5E7E3
:10ED20006E49C7E7002B3FF4E4AE6D4B1B68012B27
:10ED30007FF7DFAE69482F2113F08CF860B12F21E7
:10ED4000664813F087F8411C664B6A4AD3F80435CD
:10ED5000009240F2433260E660485C2113F07AF89A
:10ED600008B15C21ECE75D49EEE7002C3FF4C1AE51
:10ED700094F8A120032A7FF4BCAE94F8E0702979BE
:10ED800094F8A220012F7CD1914224D0574B1B68CC
:10ED900019077FF5AEAE524B1B68012B7FF7A9AE6A
:10EDA0004E482F2113F056F860B12F214B4813F035
:10EDB00051F8411C4B4B504AD3F80435009240F2B5
:10EDC000F9222AE645485C2113F044F808B15C2199
:10EDD000ECE74249EEE794F8E3209B081A41D2079A
:10EDE0003FF587AEB21F172A09D8013B4FF017082D
:10EDF00008FB03F000F114031344412B24D93B4BCF
:10EE00001B681B077FF575AE354B1B68012B7FF721
:10EE100070AE32482F2113F01DF860B12F212F481A
:10EE200013F018F8411C2F4B344AD3F804350092E4
:10EE300040F20732F1E529485C2113F00BF808B1E4
:10EE40005C21ECE72549EEE7F830A91D204412F0DB
:10EE500021FF6B7994F8E3209B0807FA03F313432F
:10EE600094F8E1200232B2FBF8F808F10108DBB2B5
:10EE70005FFA88F884F8E33007FA08F70133BB42F9
:10EE8000E2E59142FFF408AE7FF633AE174B1B6804
:10EE90001F077FF52EAE124B1B68012B7FF729AEA3
:10EEA0000E482F2112F0D6FF88B12F210B4812F007
:10EEB000D1FF411C0B4B94F8A220D3F804350292E9
:10EEC0002A7901920E4A009240F227320EE6034858
:10EED0005C2112F0BFFFA8B15C21E7E71E2303000D
:10EEE000841F0020001001406B240300881F0020B5
:10EEF0009D240300B8240300D824030081230300C9
:10EF0000092503009949D5E79B08012B42D0022B24
:10EF100000F0A080002B40F00181162E7FF4E9ADB7
:10EF200009F0B0F910220146A81D12F0A5FE002834
:10EF30007FF4DFAD002C40F02D81EFF3108372B62B
:10EF40003C6824B9002B7FF4D4AD62B6D1E594F8C7
:10EF5000A120012A00F01C81D4F8C441F1E78348C4
:10EF60005C2112F077FF08B15C2136E17F4938E17E
:10EF70000023C4F89C30BCE5032B7FF4BAAD94F8B1
:10EF8000E030002B7FF4B5AD204604B0BDE8F04181
:10EF9000FFF7B6B9002C3FF4ACAD062E7FF4A9AD57
:10EFA00094F8A130724D022B2AD120460FF03AFE80
:10EFB000142120460FF009FE2B681D0740F11B812C
:10EFC0006C4B1B68032B40F3168168482F2112F00D
:10EFD00041FF60B12F21654812F03CFF411C664B98
:10EFE000664AD3F80435009240F2813200E15F486E
:10EFF0005C2112F02FFF08B15C21ECE75B49EEE7E2
:10F000002B6818077FF575AD5A4B1B68012B7FF7EE
:10F0100070AD56482F2112F01DFF90B12F2153489B
:10F0200012F018FF411C544B94F8A120D3F804357A
:10F030000192534A009240F2893202200DF018FCEE
:10F0400057E54A485C2112F005FF08B15C21E6E76C
:10F050004649E8E7002C3FF44CAD072E7FF449AD5C
:10F0600094F8A130424E023B012B30D894F8E030A6
:10F07000022B03D104F1A8000BF008FEA979204669
:10F08000FFF7DEF9336819077FF533AD394B1B689D
:10F09000032B7FF72EAD35482F2112F0DBFE68B130
:10F0A0002F21324812F0D6FE411C334B354AD3F89B
:10F0B00004350092042040F29B32AFE42B485C21DF
:10F0C00012F0C8FE08B15C21EBE72849EDE7336890
:10F0D0001A077FF50EAD274B1B68012B7FF709AD93
:10F0E00022482F2112F0B6FE78B12F211F4812F0CE
:10F0F000B1FE411C204B94F8A120D3F804350192B5
:10F10000214A00924FF4687297E718485C2112F088
:10F11000A1FE08B15C21E9E71449EBE7144B1B6839
:10F120001B077FF5E6AC134B1B68012B7FF7E1ACA7
:10F130000E482F2112F08EFE78B12F210B4812F0CD
:10F1400089FE411C6A790C4B9208D3F80435019270
:10F150000E4A009240F2A5326FE704485C2112F09B
:10F1600079FE08B15C21E9E70049EBE71E230300C3
:10F17000881F0020841F0020001001404F2503003D
:10F180006525030096250300AC250300DF25030059
:10F1900003B962B694F8A130012B7FF4EDAE2B6871
:10F1A0001BBA2046C4F89C3014210FF00EFD2046F7
:10F1B000FFF7A6F800287FF4DBAE144B1B681E0790
:10F1C00019D5134B1B68032B15DD12482F2112F0A4
:10F1D00041FE00283FF4C3AE2F210E4812F03AFE44
:10F1E000411C0D4B0D4AD3F8043500924FF459726F
:10F1F00004200DF03DFB032384F8A1302046FFF7E7
:10F200007AF9D4F8BC319B687DE500BF881F0020E7
:10F21000841F00201E230300001001404F2503001F
:10F220002DE9F843A0F5D874074694F8A130032BD4
:10F230008846164640D1412A40D810F8D05C002DAF
:10F240003ED12046FFF757F90BF060FD1722B31CA3
:10F25000B3FBF2F30133DAB2236F534303F5F41334
:10F26000184A03F59063C11847F8FC3C8146C4F87E
:10F27000B020A7F584700BF020FD134B4B4447F8EA
:10F28000D83C022384F8E0303146C4F8B84084F812
:10F29000E35084F8E1604046FFF700FB324684F813
:10F2A000E2004146A7F1CC0012F0F4FC2046FFF743
:10F2B00039F82846BDE8F8830820FBE70920F9E77C
:10F2C0001120F7E791E5010080C3C90138B5044674
:10F2D00010B9784608F09CFF084D2B68013303D124
:10F2E00007480CF055FA2860012384F8B431054B27
:10F2F000C4F8B83104F5D87038BD00BF601F0020D5
:10F3000071E701000827030038B5827802F0030393
:10F310000446032B23D8DFE803F002141A1E9308D7
:10F32000154A1648126813440268A3600021F2B11E
:10F3300095685D1B002D17DAD9B91146E1600460AC
:10F3400038BD02F0FC0303EB92035B00E8E7920890
:10F3500064235343E4E7920841F27073F9E7784677
:10F3600008F056FF0023DBE71146D268DFE70029EB
:10F37000E4D0CC60E260E3E7EC200020F420002041
:10F38000032808B503D8044B53F8200008BD78467D
:10F3900008F03EFF0020F9E71C2703002DE9F041AB
:10F3A000584D2B78ABB1584B584E5F680BF0AEFC04
:10F3B00004463078FFF7E4FF3278554B2044C01BF9
:10F3C000002A42D14CF2503290423ED91A680132A2
:10F3D0001A60DFF84C81D8F80020002A00F08980FC
:10F3E0004A4E9378307803F003038342374666DD54
:10F3F000474B94681B68E31A464C5C43FFF7C0FF19
:10F40000D8F80030B4FBF0F09B78C3F3010403F0AC
:10F410000303022B20D0032B31D0012B47D10A222A
:10F42000B0FBF2F302FB1300002840D10BF06EFC9E
:10F4300000F5742101F5107134702B78002B50D039
:10F44000BDE8F04130480BF038BC1A683149B0FBD8
:10F45000F1F010441860BCE7337863B96422B0FB64
:10F46000F2F302FB130010BB0BF050FC2A490223FD
:10F4700001443B70E1E7012B19D10A22EFE7337811
:10F4800063B941F27072B0FBF2F302FB130070B982
:10F490000BF03CFC214903230144EAE7012B02D194
:10F4A0004FF41672EFE7022B01D13C22EBE70BF091
:10F4B0002DFC04463878FFF763FF2118BDE70BF0F9
:10F4C00025FCD8F800300446987800F00300FFF7D8
:10F4D00057FFD8F800309B78C3F30103211833702D
:10F4E000ABE70948012341602B70BDE8F0410BF008
:10F4F000ABBB2B7823B1BDE8F04103480BF0C6BB92
:10F50000BDE8F081F0200020D4200020F120002070
:10F51000EC200020A0860100809698000046C323BE
:10F52000F42000202DE9F341244B1B78032B2AD82B
:10F53000DFE803F0021B1F23214A13680133136025
:10F54000204B214E1E4D00221A70B04634683CB14B
:10F55000A3682A6893421AD02A689B1A002B16DBEC
:10F56000FFF71CFF02B0BDE8F081154A13680A33AB
:10F57000E5E7134A13686433E1E7114A136803F5BA
:10F58000BB531033DBE7784608F042FED8E7278804
:10F59000E368C8F8003001A900233846019301F060
:10F5A000EDFC10B1784608F033FE384663680199E7
:10F5B00098472046FFF7A8FEC8E700BFF1200020CB
:10F5C000EC200020F0200020F420002010B5084C92
:10F5D00018220021204612F06BFB064B064AA3605E
:10F5E00000231360054A1360054A137010BD00BF65
:10F5F000D420002025F50100EC200020F42000207C
:10F60000F020002008B5054B1B7813B104480BF01F
:10F610003DFBBDE80840FFF7D9BF00BFF020002048
:10F62000D4200020F8B50D461646044610B9784699
:10F6300008F0EEFD124F0CF03BF83B6800220BB1D6
:10F64000A34215D105F0030545EA8605A5709BB1D7
:10F65000DB6882B93B602EB12046FFF755FE3B6860
:10F660009C4201D1FFF79AFEBDE8F8400CF060B86B
:10F670001A46DB68E3E7D360002EF5D0ECE700BF65
:10F68000F42000200A4B93F8390093F85D2080F0B5
:10F690000100404280B24AB14FF6FF72904204D05E
:10F6A000586D1B6BC01AC00F70470120704700BF18
:10F6B000F820002038B5154C242303FB00430546F1
:10F6C00093F8393013B9784608F0A2FDB4F86030E9
:10F6D00013B9784608F09CFD242202FB0543002163
:10F6E00083F83910B4F86030013B9BB2A4F8603065
:10F6F0001BB94FF6FF73A4F8623002FB0544A06A01
:10F700000EF0CDFF0023A36238BD00BFF82000201B
:10F710002DE9F8432D4DB5F86030064613B978460B
:10F7200008F076FD294C06F57A79002794F83930EF
:10F730001FFA87F83BB3236BA3EB0903002B22DAF4
:10F74000A38DA26A04F11801404600F0FDFE1028C6
:10F750000CD8DFE800F00E0B0B0B0E150B150E1579
:10F760000B0B0B0B0B0E15000127DFE7784608F09B
:10F770004FFD94F83830013BDBB284F83830EBB9F8
:10F780004046FFF797FF2434002FEDD0FFF77AFFB4
:10F79000B5F86030A5F86200ABB1012802D978460F
:10F7A00008F036FDB5F86230242202FB03531B6BD0
:10F7B0009A1B48BFF21AEA60BDE8F883D4E90C321C
:10F7C00013442363DFE7EB60F6E700BFF820002077
:10F7D00010B5064C64220021204612F069FA044B51
:10F7E000A3604FF6FF73A4F8623010BDF82000202C
:10F7F00011F701002DE9F0470128BDF820A00646C9
:10F8000088461746994602D9784608F001FDB8F1B6
:10F81000000F02D1784608F0FBFC17B9784608F0D3
:10F82000F7FC98F800305B0702D1784608F0F0FC4E
:10F83000B9F1000F02D1784608F0EAFCBAF1000FE6
:10F8400002D1784608F0E4FC274C242303FB06434E
:10F8500093F8393013B13046FFF72CFF0BF056FA0E
:10F86000844697E80F00242505FB064505F1180E90
:10F870008EE80F00C5F82890A5F82CA098F8003065
:10F88000C3F3020385F8383098F80000C3084CF23F
:10F89000503003FB0000012385F83930B4F86030A4
:10F8A0006863604401332863A4F86030FFF7EAFE20
:10F8B000B4F86230984201D1864213D14FF6FF73FB
:10F8C0009842A4F8620002D1784608F0A1FCB4F88E
:10F8D00062300548242202FB0344216BBDE8F04757
:10F8E0000BF0EBB9BDE8F087F82000204A090123AE
:10F8F00001F01F0103FA01F150F82230194214BF40
:10F900000120002070474FF6FF72B2EB104F82B01B
:10F9100083B215D113F47F4007D003F44043B3F50D
:10F92000004F14BF0020012006E023F07F022AB917
:10F930007F3B18BF0123184602B070470346FAE721
:10F9400023F03F03C02BECE701289FBF054B382273
:10F9500002FB003090F8340094BF00F0010000205A
:10F96000704700BFB0210020C0F30F43A3F5405300
:10F970009BB2012B37B514D80C4A107810F0040054
:10F9800011D10B4C0C2253430A68E518D2436A602C
:10F990004A68D243AA60E25C22F00602E25403B055
:10F9A00030BD0520FBE70020F9E700BF2222002040
:10F9B0002422002013B50190000C01280C4602D02F
:10F9C000784608F025FC012363800223A38023806E
:10F9D00002B010BD13B50190000C01280C4602D0F6
:10F9E000784608F015FC6388012B0DD1A388022B03
:10F9F0000AD12388022B07D1044A137843F001036C
:10FA00001370002002B010BD0B20FBE72222002063
:10FA100037B5C0F30F44A4F54054A4B2012C0190B3
:10FA20000D4602D9784608F0F3FB064B0C2202FB88
:10FA300004346368DB432B60A368DB436B6003B073
:10FA400030BD00BF2422002070B51C460B89B3F5E1
:10FA5000BE7F0546164606D3092323602068B0FA08
:10FA600080F0400970BDFFF76FFF28B10C483823C4
:10FA700003FB050083890BB10523EEE73EB98288BD
:10FA80004FF6FF739A4206D0C2889A4203D00868A4
:10FA9000FFF739FF08B90723DFE70023DDE700BFE1
:10FAA000B021002037B5040CB4F5805F01900D46FD
:10FAB00002D0784608F0ACFB064BA4F58054A4B203
:10FAC0000621022201FB0431284603B0BDE8304084
:10FAD00012F0E0B89A21002037B5C0F30F44A4F526
:10FAE0000054A4B2012C01900D4602D9784608F0CA
:10FAF0008FFB054B3821142201FB0431284603B04B
:10FB0000BDE8304012F0C6B8B0210020F7B5C0F310
:10FB10000F43A3F500539BB2012B019024D8154845
:10FB2000007810F004061DD13820134D8F8943430F
:10FB3000EC18A08987421AD10888EB5A984216D14E
:10FB400048886388984212D1CA89E3899A420ED1C3
:10FB50001422204612F09EF894F8343023F0060365
:10FB600084F83430002000E0052003B0F0BD0B2005
:10FB7000FBE700BF22220020B021002010B50E4C70
:10FB800070220021204612F093F8062200210B4833
:10FB900012F08EF818220021094812F089F8094A5B
:10FBA000E2604FF0FF3101236160A384E16362648E
:10FBB000A4F85C3010BD00BFB02100209A210020C5
:10FBC00024220020FFFF02002DE9F04FD5B081462E
:10FBD00007A80F4615461C46BDF8786102F0EEFAFC
:10FBE000724B382202FB0932918904910498BDF8C6
:10FBF0001E10814205D84FF0100A504655B0BDE89E
:10FC0000F08FBDF81C1005910DF12008002D00F0BB
:10FC10009A80D5E90301B5F81EB0B5F824A02D7F70
:10FC200088E8030045B1382000FB093999F81150E4
:10FC3000FF2D04BF5E4B1D7814B9784608F0E8FA32
:10FC400016B9784608F0E4FA0DF1280924220021BB
:10FC5000484612F02DF8504610AA594603F0FCF819
:10FC600082460028C9D1DDE9043298E80300134434
:10FC7000A9F80830BB7A89F80B30FB7A89F80C3088
:10FC800089E80300FB6889F80A5051464846C9F8DC
:10FC90001040A9F81460C9F820300AF0E1FD82464E
:10FCA0000028AAD1434B1A6812F4005F9946A4D0E9
:10FCB000414B1A68042A98469FDD40482F2112F0D4
:10FCC000C9F800284FD02F213C4812F0C3F8411C3E
:10FCD0003B4D3A88D5F8043501923A4A0092052006
:10FCE00040F2A9120CF0C4FDD9F800309B0484D571
:10FCF000D8F80030042B80DD334B802E196828BFE4
:10FD0000802613ABA0191F46844203F1020333D1AE
:10FD100000232A4807F816302F2112F09BF80028FC
:10FD200038D02F21254812F095F8411C274AD5F8E4
:10FD300004350192264A009202974FF4D5720520AD
:10FD40000CF096FD59E7D088B2F804B0414602F0B5
:10FD5000ADFA40BBB8F80220002A3FF44CAF134B79
:10FD60004FF6FF7A5FE715485C2112F073F808B18F
:10FD70005C21A9E71149ABE714F8012B4FEA121CEB
:10FD800002F00F0211F80CC003F802CC8A5C03F8F1
:10FD9000012CB9E709485C2112F05CF808B15C213C
:10FDA000C0E70649C2E74FF0050A26E7B021002068
:10FDB000641F0020881F0020841F00202C270300C0
:10FDC00000100140482703008C1F00205C2703001F
:10FDD0009E200300000CB0F5805F82B00FD10B4B6A
:10FDE000187810F004000CD1094B09881A88914248
:10FDF00009D15A7922F006025A7102B070470520E3
:10FE0000FBE70020F9E70B20F7E700BF22220020E4
:10FE10009A21002007B5104B1B785B0709D40C23EF
:10FE20000E4A5843135C43F00403135403B05DF8C7
:10FE300004FB00F540500223ADF80430ADF8060095
:10FE400001980EF0ADF80028F0D0784603B05DF8C8
:10FE500004EB08F0DDB900BF22220020242200209C
:10FE60001FB5144B144A1B7813F0040F4FF00C030A
:10FE700007D14343D15C41F00201D15405B05DF894
:10FE800004FB03FB002302215A689B68ADF80410B1
:10FE9000DB43039300F54053ADF80630D24301989D
:10FEA000029202A90EF022F80028E7D0784608F066
:10FEB000AFF9E3E7222200202422002007B5134BEC
:10FEC00013491B7813F0040F0BD1382303FB0010E8
:10FED00090F8343043F0020380F8343003B05DF81A
:10FEE00004FB0223ADF8043000F50053ADF80630F2
:10FEF000382303FB001101980DF0F8FF0028EDD026
:10FF0000784603B05DF804EB08F082B922220020A5
:10FF1000B021002007B50C4B1B785B0707D40B4AB8
:10FF2000537943F00203537103B05DF804FB0749B2
:10FF300007480DF0DBFF0028F6D0784603B05DF8E7
:10FF400004EB08F065B900BF222200209A210020AE
:10FF50000200001010B54A0901F01F03012150F8FA
:10FF6000224001FA03F35B42234003D162B94368A4
:10FF700053B10A4659421940044B4B43DB0E044926
:10FF8000C85C00EB421010BD2820FCE731B57C07AF
:10FF9000E42703002DE9F04F85B08146DDF8388075
:10FFA00092461F460D4611B9784608F031F903AB69
:10FFB000524629464846FFF747FD18B9039805B051
:10FFC000BDE8F08F69882B884FF6FF7291422FD1E0
:10FFD000FF2B8CBF4FF0020B4FF0010B2E895E44BC
:10FFE000B6B230460EF059FB044680B369882B88C0
:10FFF0002A784FF6FF7081421DD06170090A227085
:020000022000DC
:10000000A1702A89696804EB0B0011F043FE009689
:100010002346524629464846FFF7D6FD039018B9B5
:1000200017B1B8F1000F0ED120460EF038FBC5E72E
:100030004FF0030BD2E713F47F4F1DBF1B0A237051
:1000400062702270DDE73C60A8F80060B7E704202A
:10005000B5E700002DE9F04F4F4E337843F004032D
:1000600013F0020785B0337003D00B2005B0BDE854
:10007000F08F13F0010F494C19D0A0464FF6FF79CD
:100080004FF00C0BB8F80C304B450CD0B8F806000C
:1000900048455AD1B8F80E50022D5BD1382303FBE6
:1000A000074300229A7408F13808002F4BD03C4DCA
:1000B0002B7813F0040064D1990701D5FFF7D0FE27
:1000C0002B7823F006032B702B7B5A075DD501207C
:1000D000FFF7A0FE2B7B23F006032B73314D6B79CA
:1000E000980701D5FFF716FF6B7923F002036B71B8
:1000F00094F83430990702D50020FFF7DFFE94F81A
:10010000343023F0020384F8343094F86C309A07CA
:1001100002D50120FFF7D2FE94F86C3023F00203E1
:1001200084F86C303378DB070BD41F48029002232D
:1001300002A9ADF80C300DF0D9FE10B1784608F0E8
:1001400067F8002092E701279CE702F04BF80028AF
:10015000A0D08AE7124B0BFB053504350021284659
:10016000FFF7F8FE2828824698D01FFA8AF002F09E
:1001700081F800287FF479AF0AF101012729EED92F
:100180008CE70020FFF746FE9AE79F07A2D50120E3
:10019000FFF766FE9EE700BF22220020B02100206C
:1001A000242200209A210020020001002DE9F04FB6
:1001B00000F114048FB00546204603F0A1F8002793
:1001C0008146002874D04FF6FF73ADF832302B7D96
:1001D000012B70D10DA801F0F1FFEF8ABDF834308A
:1001E000FF1ABFB2CA46534C4FF0000BBAF1000FD2
:1001F00074D0A689F21B5642564194F83430E98BEC
:1002000003F0010304F108000A93FFF76FFB29884C
:100210000B90A28D68884FF0000890456FD34FF087
:100220000008CDF82480444B1B689B0423D5434B26
:100230001B68062B1FDD42482F2111F00BFE002802
:100240006ED02F213E4811F005FE411C3D4B099A0E
:10025000D3F8043506920B9ACDE904620A9A039208
:100260006288029222880192374A0092072040F267
:100270000C420CF0FDFA0A9BB3B1AEB10B9B9BB1E3
:10028000099B8BB12B7D012B1FFA8BF005D1226BC3
:100290000990294600F0F6FF0998A36A226B03EB48
:1002A000C80329465B6898473834BBF1000F12D069
:1002B0000FB0BDE8F08FEA8A4FF6FB739A4291D8EF
:1002C0000DF13201204602F085F810B1784607F0B2
:1002D0009FFFBA4687E74FF0010B87E7E0890128C7
:1002E0000BD81A4ABDF832100C2303FB002004304F
:1002F000FFF7FCFA00F001067FE75046FAE7A36A31
:1003000003EBC80C33F838308B4203D1BCF8023011
:10031000834202D008F101087FE7CDF8249082E7FC
:1003200007485C2111F096FD08B15C218AE7044979
:100330008CE700BFB0210020881F0020841F002010
:100340002C27030000100140642703002422002012
:100350002DE9F0410268137803F0C0018029D0B084
:10036000044600F0A68000F295801D0640F19B80B7
:1003700000252E46624F3B68980419D5614B1B68D7
:10038000042B15DD60482F2111F064FD002800F0DA
:1003900094802F215C4811F05DFD411C5B4B5C4A51
:1003A000D3F8043500920196FD2205200CF060FA86
:1003B000E06902F07DF88046A06902F065F84FF62A
:1003C000FF739D422268ADF81460ADF816507DD1E0
:1003D000B6F5807F34BF012302234FF6FF7113442B
:1003E0008D42A288069373D1FF2E8CBF022101217A
:1003F000521A217A8DF820106189ADF82210E16837
:100400000991217C8DF82810618AADF82A10616964
:100410000B9194F820108DF83010616A0D913968B5
:10042000ADF8328092B28904ADF81C20ADF83800E6
:100430002AD534490968042926DD3649802A0D6801
:1004400028BF80220FA99E180C46B34201F1020179
:1004500040D100232C4804F812302F2111F0FAFC6F
:10046000002843D02F21284811F0F4FC411C274BD1
:10047000294AD3F804350192284A009202944FF495
:100480008A7205200CF0F4F905A8FFF78FFE50B032
:10049000BDE8F081C0297FF46BAF55789EB29378A8
:1004A00045EA032566E77F2B9EB2F0D04FF6FF7535
:1004B00060E7567846EA0326F8E713485C2111F016
:1004C000C9FC08B15C2165E70F4967E7032384E7AE
:1004D00003218DE713F8010B070900F00F00EF5D12
:1004E00001F8027C285C01F8010CAEE706485C21AB
:1004F00011F0B0FC08B15C21B5E70349B7E700BFD4
:10050000881F0020841F00202C27030000100140BA
:10051000B92703008C1F0020CC2703009E20030076
:10052000037813B1142B03D070470430FFF710BFCA
:10053000C388022B01BF034A137843F002031370F0
:10054000704700BF22220020F0B5074685B015464F
:100550001E4681B17AB173B103AB0022FFF774FA82
:1005600010B9039805B0F0BD00962B46002238461E
:10057000FFF72AFBF6E70E20F4E7000008B500F0CD
:10058000C3FEFFF73FF8FFF7F9FA054A137823F0A7
:1005900003031370BDE8084002200DF025BD00BF25
:1005A0002222002008B5FFF7E9FA0848084B03604B
:1005B0000AF058F900F09AFEFFF708F8FFF708F97B
:1005C000044A137823F00703137008BDA421002008
:1005D00021050200222200202DE9F0410D460446AB
:1005E000002800F0BE80002900F0BB80C3681BB16A
:1005F0008368002B00F0B5804FF6FF732B80E36813
:100600001BB9A368002B40F0AE80A688002E40F0F6
:10061000AC8002F099FE10B10F20BDE8F081564B7E
:10062000A088062202FB00329178D278D142194686
:100630006AD1D4E902870026B74240F08B802A882D
:100640004E4E4FF6FF739A4243D196F8343013F072
:10065000010305D096F86C30DB0700F18A80012396
:1006600038222B8002FB03634FF6FF70D8802B8863
:1006700002FB036398802B88A78802FB03639F819A
:100680002B88678802FB03635F802B88278853438E
:10069000F7522B8802FB036250742288A38882429F
:1006A0004FF0060202FB03130BBF9A78DA7801328F
:1006B00001320CBF9A70DA702B88382202FB036378
:1006C00093F8342042F0010283F834202888FFF7A1
:1006D000F5FB2A882169382303FB0262002011639D
:1006E0002A88A16803FB026291622A88E16803FB01
:1006F000026291852A88616903FB026291612A88FE
:1007000003FB0266B28288E71C4B2288B3F80CC058
:100710006788844507D1B3F802C0BC4503D1B3F85C
:1007200000C094450CD0B3F84460864281D1588F04
:10073000B8427FF47EAF188F90427FF47AAF0126E3
:10074000382202FB06332E8093F83430DA077FF527
:1007500070AF61E758F83600FFF7D5F838B10136C9
:100760006AE70E2059E7092057E7052055E70720DB
:1007700053E7042051E700BF9A210020B021002058
:10078000F0B5064685B00F4619B30DF10A030022F5
:10079000009303ABADF80A20FFF7FCFB054688B9D0
:1007A0000D49039B382272438818C07C40070CD047
:1007B00002F11304BDF80A20009221443A46304663
:1007C000FFF718F8284605B0F0BD18460DF067FF92
:1007D000F8E70E25F6E700BFB021002013B5144658
:1007E0000A4639B134B1002300932146FFF7D2FB0A
:1007F00002B010BD0E20FBE710B50446FFF7A4F8C9
:1008000070B127290ED8084A382303FB0423DA885D
:100810008A4203D0D9802046FFF750FB002000E039
:10082000052010BD0720FCE7B021002010B50446CC
:1008300051B1FFF789F848B10548382303FB040498
:100840000020E3880B8010BD0E20FCE70520FAE7AE
:10085000B0210020012838B51BD80F4B382202FBED
:10086000003292F83440E40713D5D27C01F007043B
:1008700002F00705A54204D1C1F3C404B4EBD20FC2
:1008800005D0382202FB0033D974FFF717FB002094
:1008900000E0052038BD00BFB021002069B101286B
:1008A0000DD8084B382202FB003090F83430DB07BB
:1008B00005D5C37C0B70002070470E2070470520C3
:1008C000704700BFB021002038B50446154699B1E5
:1008D00092B1FFF739F888B10A48382303FB0400C6
:1008E00083696BB1837CC3F301030B70837CC3F317
:1008F00085032B70002038BD0E20FCE70520FAE7A9
:100900000620F8E7B02100202DE9F3410DF10702A0
:100910000DF106010546FFF7D7FF10B1784607F045
:1009200077FC294E9DF80770382303FB05633C468E
:10093000B3F824809DF80630032B23D8DFE803F0BA
:1009400005021A1E07EB87046400B4FBF8F23F2A85
:100950001CD8002F35D0012A38BF0122D2B200277F
:10096000382000FB056039461430FEF75BFE02B00C
:10097000BDE8F081642417FB04F4E6E741F27074EB
:100980007C43E2E7784607F043FCDEE740F276235B
:100990009A4205D80A230127B2FBF3F2D2B2DFE76D
:1009A00041F69C039A4295BF642341F27073B2FBF7
:1009B000F3F2B2FBF3F299BFD2B20227D2B203270D
:1009C000CEE73A46CCE700BFB0210020012810B5A1
:1009D0000FD80B4A382404FB002393F83420D207A5
:1009E00007D59A693AB141B19984FFF78DFF00208C
:1009F00010BD0520FCE70620FAE70720F8E700BF56
:100A0000B0210020012838B5044625D815483823E0
:100A100003FB040393F83450ED071DD59D69EDB138
:100A20003F2A1DD803291BD89B7CB2EB930F03D11F
:100A300003F003038B420DD0382303FB040001F0C5
:100A4000030343EA820181742046FFF75DFF2046DD
:100A5000FFF734FA002000E0052038BD0620FCE74F
:100A60000720FAE7B021002038B5044602F06CFCFC
:100A700030BB2046FEF768FF20B3144D382202FB3E
:100A80000452D289022A19D111490B7813F00102BC
:100A900003D00B7BDA0717D401220C20504323F03C
:100AA000040343F001030B54382303FB045390B2B7
:100AB000D881FFF7D5F92046FFF700FA002038BDAE
:100AC0000F20FCE70520FAE70420F8E7B02100201A
:100AD00024220020F8B504460D46FEF735FF08B382
:100AE0001348382303FB0404E789022F1CD027296D
:100AF0001CD8104B0C2606FB073604363046FEF792
:100B0000F5FE68B96A09012305F01F0503FA05F52A
:100B100056F822302B4346F822303846FFF7A0F92A
:100B2000002000E00520F8BD0620FCE70720FAE7DA
:100B3000B02100202422002070B505460C46FEF7A7
:100B400003FF10B31448382303FB0505EE89022E7A
:100B50001DD027291DD8114B0C2505FB0635043562
:100B60002846FEF7C3FE78B16209012304F01F0492
:100B700003FA04F455F8223023EA0403304645F81A
:100B80002230FFF76DF9002070BD0520FCE706203C
:100B9000FAE70720F8E700BFB02100202422002058
:100BA0002DE9F047064615460F4651B34AB3FEF706
:100BB000CBFE40B31748382303FB0606F389022B0C
:100BC00023D00024DFF85090B5F800802C804FF03F
:100BD0000C0AF08901280ED80AFB00902146043047
:100BE000FEF784FE38B12B88984510D927F81340BA
:100BF0002B8801332B800134282CEAD10020BDE85A
:100C0000F0870E20FBE70520F9E70620F7E709202B
:100C1000F5E700BFB0210020242200202DE9F0419B
:100C200007460E46FEF790FEC0B1112919D83825A7
:100C3000DFF834807D43083508EB0500FEF756FEEB
:100C400050B9012303FA06F658F805303846334305
:100C500048F80530FFF732F9002000E00520BDE834
:100C6000F0810720FBE700BFB0210020F8B5064661
:100C70000D46FEF769FEA8B1112915D838240B4F8F
:100C8000744308343819FEF731FE50B1012303FADA
:100C900005F53B59304623EA05033B51FFF70EF9B2
:100CA0000020F8BD0520FCE70720FAE7B02100206E
:100CB0002DE9F041064615460F46F9B1F2B1FEF7AF
:100CC00043FEE8B11048B5F800803823002403FB48
:100CD00006062C80083621463046FEF707FE38B15E
:100CE0002B8898450ED927F813402B8801332B8089
:100CF0000134082CEFD10020BDE8F0810E20FBE785
:100D00000520F9E70920F7E7B021002010B50446D7
:100D1000FEF71AFE70B111290ED8084A382303FBDA
:100D200004239A888A4203D099802046FFF7C6F8A8
:100D3000002000E0052010BD0720FCE7B0210020C6
:100D400010B5044651B1FEF7FFFD48B10548382300
:100D500003FB04040020A3880B8010BD0E20FCE7D9
:100D60000520FAE7B0210020030605D4012803D0AE
:100D7000024B18700020704707207047641F002046
:100D8000014B1878704700BF641F002010B504465F
:100D9000FEF7DAFD60B1074A382303FB04231A7C0F
:100DA0008A4203D019742046FFF788F8002000E03B
:100DB000052010BDB021002010B5044651B1FEF74A
:100DC000C3FD48B10548382303FB04040020237CFD
:100DD0000B7010BD0E20FCE70520FAE7B0210020C3
:100DE00010B50446FEF7B0FD80B181F080037E2B84
:100DF0000ED9084A382303FB04235A7C8A4203D0C5
:100E000059742046FFF75AF8002000E0052010BD75
:100E10000720FCE7B021002010B5044651B1FEF7D1
:100E200093FD48B10548382303FB04040020637C8C
:100E30000B7010BD0E20FCE70520FAE7B021002062
:100E400010B5044660B9074B1A888A4206D05A7911
:100E5000198042F001025A71FFF75CF8204600E069
:100E6000052010BD9A21002021B128B9034B1B8811
:100E70000B8070470E207047052070479A21002094
:100E800021B128B9034B9B780B7070470E20704737
:100E9000052070479A21002021B128B9034BDB7847
:100EA0000B7070470E207047052070479A21002074
:100EB00010B5044669B1FEF747FD60B1074A382313
:100EC00003FB04F013185B884B80135A0B8000203F
:100ED00010BD0E20FCE70520FAE700BFB02100207E
:100EE00037B501910AB310B1052003B030BD4FF6FC
:100EF000FF7313800E4BBDF804009989BDF80640BE
:100F000029B95D88A54202D11D8885420AD0B3F86F
:100F100044100029E8D1598FA142E5D11B8F8342AB
:100F2000E2D1012111800020DFE70E20DDE700BFC4
:100F3000B021002070B5C1B1BAB1C0B90E4B15884F
:100F400010801488AC4214D293F83460F60706D5AA
:100F50009E8926B921F8140014880134148038338E
:100F600008B1002070BD0120EBE70E20FAE7052054
:100F7000F8E70920F6E700BFB021002010B50446CD
:100F800051B1FEF7E1FC48B10548382303FB0404E6
:100F90000020236B0B6010BD0E20FCE70520FAE754
:100FA000B021002070B50646FEF7CEFCE0B1382532
:100FB00075430E4C002205F11400114620442C44C8
:100FC000FEF730FB304600F0E5F9E08801F02AF941
:100FD00000254FF0FF333046636065746582A57568
:100FE000FEF76CFF284670BD0520FCE7B02100200D
:100FF000112837B505461CD80DF106010020FFF772
:101000009FFE28B9BDF80630AB4201D1FFF7CAFFF9
:101010000DF106010120FFF793FE044658B9BDF813
:101020000630AB4202D10120FFF7BCFF204603B0DF
:1010300030BD0724FAE70024F8E700002DE9F04F5F
:101040005B4DB5F8703085B0074613B9784607F0A8
:10105000DFF84FF6FF73564CDFF864A1DFF864B198
:10106000A5F8723007F57A794FF0000894F840300F
:10107000CBB1236BA3EB0903002B1BDA002384F80D
:101080004030B5F87030013BA5F87030208B03A9D3
:10109000FFF774FF10B1784607F0BAF8636B039955
:1010A000208B012298472C34B8F1000F52D14FF019
:1010B0000108DBE7A36BA3EB0902002A65DAA5F8B8
:1010C0007280208B04F11C01FFF75AFB0646E8B141
:1010D000DAF800309B0417D5DBF80030042B13DD61
:1010E00034482F2110F0B6FEE8B12F21314810F01E
:1010F000B1FE411C304B314AD3F8043500920196C1
:10110000802205200BF0B4FB082E15D1D4E90E2364
:101110001A445B00A263E363226BA36BD31A002B18
:10112000C1DAA263BFE723485C2110F093FE08B147
:101130005C21DBE71F49DDE7042E01D00F2E20D113
:101140002C2303FB0858D8F8383003F51C434033F0
:10115000C8F83830B5F870303BB3B5F87230012BB1
:1011600002D9784607F054F8B5F872302C2202FB09
:1011700003539B6BDA1B48BFFA1AEA6005B0BDE85F
:10118000F08F784607F044F8C6E7B5F872204FF6BE
:10119000FF718A4206D02C2101FB0252926B9B1AEE
:1011A000002B80DAA5F872807DE7EB60E6E700BFF0
:1011B00040220020042803000010014029280300D9
:1011C000881F0020841F002038B52C4C2C2303FBE3
:1011D0000043054693F8403013B9784607F018F8F5
:1011E000B4F8703013B9784607F012F82C2202FBDD
:1011F0000542002382F84030B4F87030013B9BB2C6
:10120000A4F87030A3B3B4F87230AB4235D1926B0E
:101210001B4B134494F84020EAB1A26BD11A002969
:10122000B8BF13464FF6FF72B8BF002294F86C1097
:10123000A1B1616ECB1A002B10DA0123A4F8723031
:10124000B4F872300D482C2202FB0344A16BBDE8B8
:10125000384009F032BD4FF6FF72E7E74FF6FF73F3
:101260009A42A4F87220EBD1784606F0D1FFE7E766
:10127000BDE83840014809F009BD38BD40220020D2
:10128000008793030128F8B504460E46174602D995
:10129000784606F0BDFF0AF00BFA134B93F8402096
:1012A00012B11A8BA2421DD093F86C20B2B1B3F8E0
:1012B0004420A24212D101202C2505FB00353388A1
:1012C000AA8D9A420AD1EA8D73889A4206D1FFF715
:1012D0007BFF6B6B0022394620469847BDE8F840FB
:1012E0000AF026BA0020E7E74022002010B5044C9F
:1012F00074220021204610F0DBFC024BA36010BDDD
:10130000402200203D10020073B51F4C0AF0D0F9B6
:10131000B4F870302BB100232046A4F8703009F0E7
:10132000B5FC94F840307BB1258B1848666B0021E2
:101330002C2210F0BDFC01A92846FFF71FFEF0B9D2
:10134000019902222846B04794F86C309BB1B4F85A
:1013500044500F48246E00212C2210F0A9FC01A952
:101360002846FFF70BFE10B1784606F051FF0199B1
:1013700002222846A0470AF0DBF902B070BD784689
:1013800006F046FFDCE700BF402200205822002084
:1013900084220020012873B504462DD8174D0AF089
:1013A00087F995F8403013B12B8BA34220D095F8E4
:1013B0006C30FBB1B5F84430A3421BD10126304656
:1013C000FFF702FF01A92046FFF7D8FD10B17846CC
:1013D00006F01EFF2C2303FB065520466B6B01997C
:1013E0000222984700240AF0A3F9204602B070BDFB
:1013F0000026E4E70524F6E70524F6E7402200206E
:101400004A09012301F01F0103FA01F150F82230CB
:10141000194214BF0120002070474A09012301F03E
:101420001F0103FA01F150F822300B4340F822303B
:10143000704700001F28014602D80248FFF7E0BFAE
:1014400000207047B4220020203881B2072902D83A
:101450000248FFF7D5BF0020704700BFBC22002024
:1014600010B50446FFF7E6FF28B92046FFF7ECFF6A
:1014700000F0010010BD0120FAE700002DE9F0475F
:101480004FF6FF73DFF84080DFF840900B8007468F
:101490000D4600241E464FF0AC0A21464046FFF799
:1014A000AFFF40B10AFB04F333F80930BB4206D169
:1014B0002C80BDE8F0872B88B34208BF2C80013414
:1014C000082CEAD10020F4E724260020282600205A
:1014D0002DE9F0474FF6FF73DFF84880DFF84890BA
:1014E0000B8007460D4600241E464FF0160A214683
:1014F0004046FFF785FF48B10AFB04F333F8093093
:10150000BB4209D108342C80BDE8F0872B88B34258
:1015100004BF04F108032B8001340A2CE7D100201A
:10152000F2E700BF94240020982400202DE9F04722
:101530004FF6FF73DFF84080DFF840900B800746DE
:101540000D4600241E464FF02A0A21464046FFF76A
:1015500057FF40B10AFB04F333F80930BB4206D110
:101560002C80BDE8F0872B88B34208BF2C80013463
:10157000082CEAD10020F4E7402300204423002077
:1015800013B50190000C01280C4602D0784606F0F5
:101590003FFE082323800A22638023812023A28028
:1015A000E38002B010BD000013B50190000C0128CB
:1015B0000C4602D0784606F02BFE2388082B13D168
:1015C000A3880A2B10D16388082B0DD12389082BFF
:1015D0000AD1E388202B07D1044A137843F0010392
:1015E0001370002002B010BD0B20FBE72026002066
:1015F00037B5C0F30F44A4F58054A4B21F2C01905A
:101600000D4602D9784606F003FE07482146FFF74B
:10161000F7FE10B9784606F0FBFD044B33F8243092
:101620002B8003B030BD00BFB4220020C0220020B8
:1016300038B5044610B9784606F0EAFD0A4B002298
:1016400093F8645090B203F122011DB18C420AD08C
:1016500003F143018C4206D00132082A03F1AC03A6
:10166000EED14FF6FF7038BD2826002013B501904B
:10167000000C02280C4602D0784606F0C9FD074B44
:101680001B68DB0702D4784606F0C2FD0449042239
:10169000204602B0BDE8104010F0FCBAB82200208D
:1016A0001026002037B5C0F30F44A4F50054A4B2AF
:1016B000072C01900D4602D9784606F0A9FD0A488C
:1016C0002146FFF79DFE10B9784606F0A1FD0749B7
:1016D000142303FB041110220431284603B0BDE893
:1016E000304010F0D7BA00BFBC220020882B002069
:1016F00073B5C0F30F44A4F5A044A4B2092C019023
:101700000D4602D9784606F083FD0C482146FFF7C6
:1017100077FE10B9784606F07BFD16235C43084E31
:10172000A11D10223144281D10F0B4FA325B2A802A
:1017300033195B886B8002B070BD00BF9424002019
:1017400098240020F8B5A1F1200414260B4F66431D
:101750000546301D29461022384410F09BFAB9196D
:1017600028460AF0B3FF10B1784606F051FD214635
:101770000348BDE8F840FFF750BE00BF882B0020AB
:10178000BC22002073B5050CA5F500530E4699B296
:10179000072901900BD80748FFF732FE28B9A5F5B5
:1017A000FF55A9B23046FFF7CDFF002000E005202D
:1017B00002B070BDBC220020F7B5C0F30F44A4F501
:1017C0004054A4B2072C01900D4602D9784606F089
:1017D0001FFD00212422284610F06AFA12482146F3
:1017E000FFF70EFE10B9784606F012FDAC230F4E3F
:1017F0005C433719335B2B8097F86430AB70A11CC6
:1018000010223144E81C10F045FA97F864304BB1CF
:1018100012341022311905F1130003B0BDE8F04075
:1018200010F038BA03B0F0BD24260020282600208E
:1018300073B5C0F30F44A4F58044A4B2072C019003
:101840000D4602D9784606F0E3FC00212622284600
:1018500010F02EFA12482146FFF7D2FD10B9784653
:1018600006F0D6FC2A210F4E4C43A11D1022314414
:10187000681D10F00FFA325B2A8033195A886A808B
:101880009B7D2B714BB119341022311905F11500D4
:1018900002B0BDE8704010F0FDB902B070BD00BFED
:1018A00040230020442300202DE9F0411E4CAC25AC
:1018B0005543164605F16803621923440F469367A2
:1018C000804610B9194B01221A7005F122012144FA
:1018D00038460AF0C2FE10B1784606F099FC05F1D0
:1018E0007C01214438460AF0C9FE10B1784606F062
:1018F0008FFCA81C394610222044123510F0CAF97A
:1019000010220021601910F0D3F9AC237343E218C0
:1019100024F80380002382F8643031460448BDE88F
:10192000F041FFF77ABD00BF282600200E260020D8
:101930002426002037B5C0F30F4404F5405401902D
:10194000A4B20D46224631F8030BFFF7ADFF074A5C
:10195000AB78AC2101FB0424054A84F86430137889
:10196000002043F00403137003B030BD282600208C
:10197000202600202DE9F8432A255D43144C91468A
:101980008046A81D10220F46204449461E4610F0EE
:1019900081F905F11900002110222044053510F0CD
:1019A00087F9611948460AF04FFE10B1784606F0F3
:1019B0002FFC2A237343E21800211171917557807F
:1019C00024F8038031460348BDE8F843FFF725BDFE
:1019D0004423002040230020F7B5C0F30F44A4F5B2
:1019E0008044A4B2072C01900D462DD817482146FB
:1019F000FFF706FD10B1002003B0F0BD144F698859
:101A000028882A2623466A1D6643FFF7B3FF2B79F1
:101A1000BA199375002BEED0153506F11900294639
:101A20001022384410F036F906F1180139442846DE
:101A30000AF00AFE10B1784606F0EAFB2A2303FBFF
:101A400004742379E375D6E70520D5E74023002009
:101A5000442300202DE9F3410190000C00F50054CF
:101A6000A4B2072C0D4632D900F5805084B2072C61
:101A70002FD80126194A137843F00403137069889C
:101A8000288823462A1DFFF775FF2A27144B674332
:101A9000DA1998469675F6B1143507F119002946FA
:101AA0001022184410F0F6F807F1180141442846B6
:101AB0000AF0CAFD10B1784606F0AAFB2A2303FB00
:101AC000048400202379E37502B0BDE8F08100268C
