:020000040000FA
:1000000018200020150200001D0200001F02000041
:100010002102000023020000250200000000000071
:1000200000000000000000000000000027020000A7
:1000300029020000000000002B0200002D02000039
:100040002F0200002F0200002F0200002F020000EC
:100050002F0200002F0200002F0200002F020000DC
:10006000510400002F0200002F0200002F020000A8
:100070002F0200002F0200002F0200002F020000BC
:100080002F0200002F0200002F0200002F020000AC
:100090002F0200002F0200002F0200002F0200009C
:1000A0002F0200002F0200002F0200002F0200008C
:1000B0002F0200002F0200000000000000000000DE
:1000C0002F0200002F0200002F0200002F0200006C
:1000D0002F0200002F0200002F0200002F0200005C
:1000E0002F0200002F0200002F020000000000007D
:1000F000000000002F020000000000002F0200009E
:1001000000000000000000000000000000000000EF
:1001100000000000000000000000000000000000DF
:1001200000000000000000000000000000000000CF
:1001300000000000000000000000000000000000BF
:1001400000000000000000000000000000000000AF
:10015000000000000000000000000000000000009F
:10016000000000000000000000000000000000008F
:10017000000000000000000000000000000000007F
:10018000000000000000000000000000000000006F
:10019000000000000000000000000000000000005F
:1001A000000000000000000000000000000000004F
:1001B000000000000000000000000000000000003F
:1001C000000000000000000000000000000000002F
:1001D000000000000000000000000000000000001F
:1001E000000000000000000000000000000000000F
:1001F00000000000000000000000000000000000FF
:10020000DFF80CD000F028F800480047AD050000EA
:10021000182000200648804706480047FEE7FEE712
:10022000FEE7FEE7FEE7FEE7FEE7FEE7FEE7FEE7A6
:100230007D02000001020000202A04DB203A21FA9E
:1002400002F00021704721FA02F3D040C2F12002EF
:100250009140084319467047064C074D06E0E06898
:1002600040F0010394E8070098471034AC42F6D3FD
:10027000FFF7CAFF040800002408000070B54FF023
:1002800080520124D2E94C100023082906D1CD0662
:10029000C5F80C31C5F810315E4D2B60082955D1D9
:1002A0005D4D2D685D4E35605B4D2D1D2D68361DF5
:1002B0003560594D08352D68361D3560564D0C3565
:1002C0002D68361D3560544D10352D68361D35604E
:1002D000514D14352D68361D35604F4D18352D683C
:1002E0004E4E203635604C4D1C352D68361D356020
:1002F000494D20352D68361D3560474D24352D6814
:10030000361D3560444D28352D68361D3560424D0B
:100310002C352D68361D35603F4D30352D683F4EEC
:10032000403635603C4D34352D68361D35603A4DCC
:1003300038352D68361D3560374D3C352D68361DF6
:100340003560354D40352D68361D3560082904D19E
:10035000050002D1334E324D3560082904D1050025
:1003600002D1314EFB253560082908D1050006D1A0
:1003700092F858622D4A156866F30305156008293E
:1003800004D1020002D12A4D8A012A60082906D12F
:1003900028480168C90702D06FF0010101602648B2
:1003A000016841F470010160BFF34F8FBFF36F8F9D
:1003B0004FF01021D1F80002002803DBD1F804022D
:1003C000002822DA1D4A14601D480468002CFCD065
:1003D0001224C1F800420568002DFCD0C1F8044287
:1003E00001680029FCD0136001680029FCD0BFF32C
:1003F0004F8F11487C380168124A01F4E0611143C3
:100400000160BFF34F8F00BFFDE710490E48086041
:1004100070BD0000380500400404001020C50040F5
:10042000488103008C56004018F50040E40E00405F
:10043000409602400004004088ED00E004E50140E1
:1004400000E401400400FA050090D00304000020FD
:100450002DE9F047104E042700244FF4A0784FF404
:10046000803900BF08EB840509FA04F0715961B1C5
:10047000D6F80413014208D02946304600F0FFF8B0
:100480000648D0E9002128469047641CE4B2BC42EB
:10049000E8D3BDE8F087000000800040080000209D
:1004A00002E008C8121F08C1002AFAD1704770473D
:1004B000002001E001C1121F002AFBD1704700009B
:1004C00072B609480068C00700D000BEBFF34F8F66
:1004D0000548E4380168054A01F4E0611143016010
:1004E000BFF34F8F00BFFDE7F0ED00E00400FA0519
:1004F0000EB500210091CDE901106A4644F20100D9
:10050000FFF7DEFF0EBD00002DE9FC410646C007E7
:100510004FF000050ED0104F00240122385D0095E9
:1005200000231146019500F06FF8641C042CF4D3ED
:1005300000F032F8B0070DD5074E0024361D00221A
:10054000305D032300951146019500F05DF8641CB1
:10055000042CF4D3BDE8FC81FC070000094908B570
:10056000085C0090684600F069F8D0F80425009B0C
:100570000121994021EA0203C0F808351140C0F872
:100580000C1508BDFC0700000249085C012100F0C1
:1005900063B80000FC07000010B500242046FFF7F8
:1005A000F3FF641C042CF9D310BD00000EB501202C
:1005B000FFF7AAFF1149124AD1E90201CDE9010171
:1005C00001A90E4800F0A2F808B1FFF791FF0B480F
:1005D0000068D0F810050021C2B20A48FFF72CFECF
:1005E00002460120034600900021044800F078F8FC
:1005F000024800F067F830BFFDE70000EC0700009C
:10060000CD07000000127A002DE9FF411C46DDE90C
:100610000A7815460E46684600F010F846EA45018D
:1006200041EA840141EA072242EA0841009A00EBCC
:100630008200C0F80017BDE8FF8100000168202992
:1006400002D24FF0A040704701F01F010160014845
:10065000704700000003005038B501240090684640
:1006600031B1FFF7EBFF00998C40C0F8084538BD69
:10067000FFF7E4FF00998C40C0F80C4538BD08B581
:10068000002242504058009008BD2DE9F041064636
:100690000D464FF4803400681746AC404BB14FF420
:1006A000A07101EB8501FFF7EAFF3068C0F8044351
:1006B00001E0C0F80843306800EB8500C0F84075E1
:1006C000BDE8F081016801220A600079034A00EB6D
:1006D000400002EB800002210172704708000020F8
:1006E000F0B40468049E40F20115D4F800728D4005
:1006F000AF43C4F800720468D4F800521D43C4F834
:1007000000523346F0BCFFF7C0BF00002DE9F041B6
:1007100004460E4600792C4900EB400001EB8007AF
:10072000387A10B10820BDE8F0813A607068002581
:100730004FF4A078786006E008EB85012068FFF7A9
:100740009EFF6D1CEDB26079A842F5D82068F17863
:1007500040F3073000284FEA411104DB00F1E020AC
:1007600080F8001405E000F00F0000F1E02080F8B0
:10077000141D2068012140F30730002809DB00F038
:100780001F0201FA02F24009800000F1E020C0F8E7
:10079000002120687278D0F8043562F30103C0F8B4
:1007A00004352068B278D0F8083562F30103C0F848
:1007B000083520683278D0F8103562F30303C0F8AA
:1007C000103539720020AEE708000020064A0346C3
:1007D000116801F00300491C1160B3F5A07F01D13D
:1007E000FFF7BCBE70470000000000200080004002
:1007F0000004000000000306000000000D0E0F10B2
:100800000B0C18192408000000000020080000004C
:10081000A00400002C0800000800002010200000A8
:0C082000B0040000000000000090D003B5
:0400000500000201F4
:00000001FF
