:020000022000DC
:1070000000FD032099430400C1430400C34304006E
:10701000C5430400C7430400C94304000000000046
:10702000000000000000000000000000CB4304004E
:10703000CD43040000000000CF430400D14304000E
:10704000D3430400D3430400D3430400D3430400D8
:10705000D3430400D3430400CDA00200D343040073
:10706000D3430400519C0200593D0300D343040064
:10707000D3430400D3430400D3430400D3430400A8
:10708000D3430400091904000DF40200D3430400A3
:10709000D9190400D3430400F9AD0200D34304001E
:1070A000D3430400D3430400D3430400D343040078
:1070B000D3430400D343040000000000000000009C
:1070C000D3430400D3430400D3430400D343040058
:1070D000D3430400D3430400D3430400D343040048
:1070E000D3430400D3430400D34304000000000052
:1070F00000000000D343040000000000D34304005C
:10710000000000000000000000000000000000007F
:10711000000000000000000000000000000000006F
:10712000000000000000000000000000000000005F
:10713000000000000000000000000000000000004F
:10714000000000000000000000000000000000003F
:10715000000000000000000000000000000000002F
:10716000000000000000000000000000000000001F
:10717000000000000000000000000000000000000F
:1071800000000000000000000000000000000000FF
:1071900000000000000000000000000000000000EF
:1071A00000000000000000000000000000000000DF
:1071B00000000000000000000000000000000000CF
:1071C00000000000000000000000000000000000BF
:1071D00000000000000000000000000000000000AF
:1071E000000000000000000000000000000000009F
:1071F000000000000000000000000000000000008F
:1072000010B5054C237833B9044B13B10448AFF3E0
:1072100000800123237010BD2032002000000000F8
:10722000B884040008B5034B1BB103490348AFF30E
:10723000008008BD0000000024320020B884040053
:10724000154B002B08BF134B9D46A3F5803A002138
:107250008B460F461348144A121A1EF01BFD0F4BA3
:10726000002B00D098470E4B002B00D098470020F1
:10727000002104000D000D48002802D00C48AFF397
:1072800000801EF0B7FC2000290000F045FB1EF036
:107290009DFC00BF0000080000FD0320000000006E
:1072A0000000000020320020C46600200000000022
:1072B0000000000041DF7047014B1B880B807047C6
:1072C000C03200201FB53248002101F02DFB08B16B
:1072D0001DF080F82F4C226852041DD52E4B1B68E0
:1072E000032B19DD2D482F211EF0A6FD00283DD0CF
:1072F0002F212A481EF0A0FD411C254A284B92F858
:10730000B000D3F80435029012880192254A009209
:107310000420A32209F08AF81D4A2348012100F025
:10732000D1FC08B11DF056F823685B041CD51A4B3C
:107330001B68032B18DD19482F211EF07DFDF0B1CD
:107340002F2116481EF078FD411C174A144B92F865
:107350005801D3F80435029012880192134A009222
:107360000420A92209F062F804B010BD0B485C218A
:107370001EF062FD08B15C21BBE70849BDE7074884
:107380005C211EF059FD08B15C21DAE70349DCE716
:10739000782F00206831002064310020D05E040086
:1073A00000100140F75E0400102E0020305F040042
:1073B000034B04481980A1F5004109B202F00CB852
:1073C000C03200200031002007B5144B1B685B045D
:1073D00016D5134B1B68032B12DD12482F211EF00C
:1073E0002BFD90B12F210F481EF026FD411C0E4BA6
:1073F0000E4AD3F8043500920420CD2209F016F885
:1074000003B05DF804EB01F0A7BD06485C211EF057
:1074100013FD08B15C21E6E70249E8E76831002086
:1074200064310020D05E040000100140615F040060
:107430000378232B01D1FFF7C7BF70471FB503A8FF
:1074400019F0A6F9154B1B685B041AD5144B1B6881
:10745000032B16DD13482F211EF0EEFCA0B12F21C7
:1074600010481EF0E9FC411C0F4BBDF80C20D3F86E
:10747000043501920D4A0092042040F2311208F0C6
:10748000D5FF05B05DF804FB06485C211EF0D4FC76
:1074900008B15C21E4E70349E6E700BF683100205A
:1074A00064310020D05E0400001001407A5F0400C7
:1074B00007B5174B1B685B0417D5164B1B68032BCE
:1074C00013DD15482F211EF0B7FCB8B12F2112484B
:1074D0001EF0B2FC411C114B114AD3F80435009246
:1074E00004204FF49B7208F0A1FF02F0F5FF03F0B7
:1074F0001BF803B05DF804EBFFF7A0BF06485C2162
:107500001EF09AFC08B15C21E1E70349E3E700BF04
:107510006831002064310020D05E0400001001407A
:10752000915F040030B5154B1B685B0485B00C46B9
:10753000154618D5124B1B68032B14DD11482F215B
:107540001EF07AFC88B12F210E481EF075FC411CFC
:107550000D4B0E4AD3F804350092CDE901459A222D
:10756000042008F063FF05B030BD06485C211EF022
:1075700063FC08B15C21E7E70249E9E768310020D4
:1075800064310020D05E040000100140AB5F0400B5
:10759000F0B5394E32685204C7B0044622D5374F91
:1075A0003A68042A1EDD36482F211EF045FCD8B16A
:1075B0002F2133481EF040FC411C324D2279D5F872
:1075C0000435039222890292E28801922E4A0092A7
:1075D0000520C42208F02AFF33685B0402D53B680B
:1075E000042B0ADC47B0F0BD25485C211EF024FCCA
:1075F00008B15C21DDE72249DFE72269234B802ABD
:107600001F6805AB28BF802200211E468A4203F175
:10761000020318D100231A4806F812302F211EF059
:107620000BFCF8B12F2116481EF006FC411C184A2D
:10763000D5F804350192174A00920296C622052019
:1076400008F0F4FECEE7E068405C4FEA101C00F062
:107650000F0017F80CC003F802CC385C03F8010CDB
:107660000131D3E706485C211EF0E6FB08B15C213E
:10767000D9E70349DBE700BF68310020643100200F
:10768000D05E040000100140D65F04006C31002081
:10769000046004000E60040007B503781D2B15D1AB
:1076A0000D480DF1070100F031FB08B11CF092FE0E
:1076B0009DF807303BB9084BD3F8600101F0A4F9FD
:1076C00008B11CF087FE03B05DF804FB142BFAD15F
:1076D000FFF75EFFF7E700BF102E002073B50646E8
:1076E0001A4814460D4615F0C9FA194B1B68A042FA
:1076F00008BF34465B0417D5164B1B68032B13DDFC
:1077000015482F211EF098FBB0B12F2112481EF012
:1077100093FB411C114B124AD3F80435009201949B
:10772000E122042008F082FE08482A46214602B0E1
:10773000BDE8704015F0F2BA07485C211EF07CFBF2
:1077400008B15C21E2E70449E4E700BF102E002005
:107750006831002064310020D05E04000010014038
:107760001660040037B5644DA0F131022B68052A7C
:1077700003F4804300F29E80A0F13004BBB15F4B64
:107780001B68032B13DD5E482F211EF055FB60B3F1
:107790002F215B481EF050FB411C5A4B5A4AD3F82C
:1077A000043500920194F222042008F03FFE012CDF
:1077B00024D0042C43D02B685B0467D54F4B1B6847
:1077C000032B63DD4E482F211EF036FB002868D0C6
:1077D0002F214B481EF030FB411C4A4B4B4AD3F83B
:1077E0000435009240F21B124DE045485C211EF02A
:1077F00023FB08B15C21CCE74149CEE741F294126A
:1078000036210020FFF76AFF4FF4FA62372100208B
:10781000FFF764FF40F6AC5238210020FFF75EFF0F
:1078200040F6AC5239210020FFF758FF384842F2A9
:1078300010723C2103B0BDE83040FFF74FBF01F0AC
:1078400089FB40B10EF030FD01F03AFB03B0BDE81A
:107850003040FFF7B9BD2B685A0417D5274B1B687A
:10786000032B13DD26482F211EF0E6FA80B12F21CD
:1078700023481EF0E1FA411C224B264AD3F8043576
:10788000009240F21512042008F0D0FD03B030BD84
:107890001B485C211EF0D0FA08B15C21E8E71849CA
:1078A000EAE717485C211EF0C7FA08B15C2190E7AF
:1078B000134992E7002BE9D0104B1B68032BE5DD41
:1078C0000F482F211EF0B8FA60B12F210C481EF08E
:1078D000B3FA411C0B4B0D4AD3F80435009240F229
:1078E0002912D0E706485C211EF0A6FA08B15C21F7
:1078F000ECE70349EEE700BF683100206431002067
:10790000D05E040000100140346004007461040083
:10791000C0D401004760040000B5794C794A4FF4A7
:10792000C0408DB0042108F065FD2368580418D5C7
:10793000754B1B68032B14DD74482F211EF07CFA55
:1079400000283DD02F2171481EF076FA411C704B63
:10795000704AD3F804350092042040F2691208F00E
:1079600065FD6D4801F056FD1AF07EF908B11CF076
:1079700031FD02F075FD02F0AFFD02F0D5FD11F012
:1079800089FF0021202203A81EF084F901238DF82D
:107990000C3007238DF80F3006238DF814305F4B21
:1079A00007935F495F4B0B9303A801F095FA10B959
:1079B00011F088FF78B30B280BD01CF00BFD2AE0E8
:1079C00052485C211EF038FA08B15C21BBE74F49F0
:1079D000BDE7236859041ED54B4E3268032A1ADDD1
:1079E0004A482F211EF028FA002857D02F21474857
:1079F0001EF022FA411C464D4B4AD5F80435009240
:107A0000042040F25B1208F011FD23685A0402D5ED
:107A10003368032B4BDC6421444801F00DFC404BE0
:107A20001978002960D1142203A81EF033F9404BC5
:107A30000493404B089303A83F4B099301F0A4FB28
:107A400008B11CF0C7FC03F051FC01F02BFC3B48D3
:107A500006F066FC01F0B6F908B11CF0BBFC236827
:107A60005B0418D5284B1B68032B14DD27482F21F6
:107A70001EF0E2F900283AD02F2124481EF0DCF94C
:107A8000411C234B2E4AD3F804350092042040F2C7
:107A9000951208F0CBFCFFF70DFCFCE71B485C21BE
:107AA0001EF0CAF908B15C21A1E71849A3E71748FD
:107AB0002F211EF0C1F970B12F2114481EF0BCF91E
:107AC000411C204AD5F804350092042040F25D1292
:107AD00008F0ACFC9FE70D485C211EF0ADF908B141
:107AE0005C21EAE70949ECE7FFF7A8FCABE70748A8
:107AF0005C211EF0A1F908B15C21BEE70349C0E793
:107B000068310020C903030064310020D05E040006
:107B1000001001407E60040000310020317402003A
:107B20003C320020C5720200A360040065770200A9
:107B3000B17402002C610400C7620400002E002012
:107B400074610400F160040008B590F86E0015F04F
:107B50009AFD28B1BDE80840024A72211CF047BCDA
:107B600008BD00BFD762040037B50D46044610B902
:107B7000784603F081FBD4F86001D0F8B4306A464F
:107B80001B6800219847BDF800302B8003B030BD42
:107B900013B5044620B90191784603F06DFB0199B5
:107BA000D4F8600100F08AFF30B1044A832102B0AA
:107BB000BDE810401CF01BBC02B010BDD762040031
:107BC0001FB504460DF10F0290F86E00012115F06B
:107BD0005AFD18B11A4A58211CF009FC9DF80F30C3
:107BE0001BB3184B1B685B0416D5174B1B68032B84
:107BF00012DD13482F211EF01FF9C0B12F211048AC
:107C00001EF01AF9411C114B114AD3F804350092A9
:107C100004205D2208F00AFC0021204614F088FBB5
:107C200018B1074A5E211CF0E2FB04B010BD044805
:107C30005C211EF001F908B15C21E0E70049E2E7B0
:107C4000D762040068310020643100200010014038
:107C5000FD62040013B590F86E000C4615F000FDAF
:107C6000D8B1134B1B685B0417D5124B1B68002B54
:107C700013DD11482F211EF0DFF880B12F210E48AF
:107C80001EF0DAF8411C0D4B0D4AD3F80435009272
:107C900001946A22012008F0C9FB02B010BD064819
:107CA0005C211EF0C9F808B15C21E8E70249EAE767
:107CB0006831002064310020D762040000100140C8
:107CC0002963040013B504460191B8B1B2B1C0F8FC
:107CD0006021C2F8D400D0F860310A4AC3F8D0203D
:107CE0006E3015F0E3FC50B9074B0199C4F85C31D4
:107CF000204602B0BDE8104013F0E6BD0E2002B0F1
:107D000010BD00BFC17B02004463040037B50D46BF
:107D10000446A8B1A1B1D0F860310DF1070193F884
:107D2000B80013F056F818B1064ACF211CF05FFBDB
:107D30009DF807102A46204613F04AFE03B030BDD6
:107D40000E20FBE7D762040038B51546044600B1A3
:107D500012B9784603F090FA207F294613F045F9CE
:107D600030B1BDE83840034A40F2C1111CF03FBBBE
:107D700038BD00BF5463040073B514461E46054663
:107D800000B112B9784603F077FA2168287F13F022
:107D90001AF920B1074A40F2D9111CF028FB2368D8
:107DA000019301A9284611F04FFE0EB123683360FC
:107DB00002B070BD5463040010B5037F012B86B080
:107DC00004463CD110F8063C002B3BD134F8083C6B
:107DD00024F80E3C002344F8043C224B1B685B044F
:107DE00021D5214B1B68032B1DDD20482F211EF0C0
:107DF00023F860B32F211D481EF01EF8411C1C4BB8
:107E0000226AD3F804350492626A039234F80C2C87
:107E1000029214F8382C0192164A0092042040F283
:107E2000E92208F003FB54F8243CCBB134F80E2CC3
:107E3000216AA4F1E80006B0BDE81040184713F02D
:107E4000FD0FC3D134F80A3C24F80C3CBEE70748C8
:107E50005C211DF0F1FF08B15C21CCE70349CEE7BE
:107E600006B010BD68310020643100205463040066
:107E700000100140816304002DE9F3411C4B1D4DAE
:107E80001C681D4E1D4F1CB9012002B0BDE8F081D9
:107E900014F8043CA4F5C278FBB12B685B0415D53B
:107EA0003368032B12DD16482F211DF0C5FFB0B13A
:107EB0002F2113481DF0C0FF411C124AD7F804358A
:107EC000009204204FF42D7208F0B0FA002388F8D5
:107ED0008031A4F19C0000F00BFF2468D3E7084830
:107EE0005C211DF0A9FF08B15C21E2E70449E4E749
:107EF000D832002068310020643100200010014099
:107F000054630400C263040038B5C4B20D46204671
:107F1000023113F00BF818B10C4A89211CF067FAF2
:107F2000291D204613F022F818B1084A8A211CF0B6
:107F30005EFA2946204612F0D9FF28B1BDE8384044
:107F4000024A8B211CF053BA38BD00BF54630400B1
:107F500037B50546144612B9784603F08DF995F801
:107F6000B8006946FFF7D0FFBDF802306380BDF866
:107F70000430A3809DF80030237003B030BD13B5EA
:107F8000D0F8D830CDE90031D0F8C83004461BB164
:107F9000D0F8CC00694698476946201D12F0A8FC2D
:107FA00002B010BD30B5154689B0044600B112B913
:107FB000784603F061F9D4F8C0300DF1160120467F
:107FC0009847BDF816302B8094F81431022B3BD122
:107FD00094F8B80006A9FFF797FFB4F8DA30BDF8B7
:107FE0001C2093424FF0FF3318BF00236B80D4F85E
:107FF00008312BB1D4F80C31003B18BF01235B4290
:108000006B601A4B1B685B041CD5194B1B68042B57
:1080100018DD18482F211DF00FFFF0B12F21154852
:108020001DF00AFF411C144B6A68D3F80435039213
:108030006A8802922A880192104A00920520B12291
:1080400008F0F4F909B030BDB4F8DA306B8004F10F
:10805000E80000F05BFE6860D3E706485C211DF095
:10806000EBFE08B15C21DAE70249DCE76831002069
:10807000643100205463040000100140D063040008
:108080002DE9B34F0446A0F1E80900F058FE074679
:10809000204600F03BFE94F82C3034F80C5C226A49
:1080A000022B80464BD034F80E0C401B4FEAE07B8D
:1080B000A0FB070107FB0B11D3171DF0B7FB6946A7
:1080C000054414F8300CFFF71FFF002D40D0BDF819
:1080D00002108D42B8BF0D46BDF804108D42A8BFF6
:1080E0000D46A9B254F82C3C24F8101C0BB148469C
:1080F000984794F82C30022B0FD1626A34F8103C68
:10810000002A27DDBDF804209A4206D1012384F815
:108110009830124B186807F0A1F8B8F5FA7F0BD920
:1081200054F8043CFB1AB3F57A7F05D944F8047C73
:1081300041464846FFF723FF02B0BDE8B08F606AB2
:108140004FEAE07BA0FB070107FB0B110023B4E71C
:108150002946C7E7E1D0BDF80220D5E7D432002098
:1081600038B51546044600B112B9784603F084F8D4
:1081700094F85800294612F02CFE30B1BDE8384082
:10818000024A40F2A9111CF032B938BD5463040010
:1081900070B514461D46064600B112B9784603F084
:1081A0006BF8217896F8580012F000FE20B1044ACE
:1081B00040F295111CF01BF90DB123782B7070BDA6
:1081C0005463040073B504461D46164612B978463A
:1081D00003F052F8694694F8B800FFF795FE31882D
:1081E00000238DF8003071B901238DF8003045B1BE
:1081F000BDF802306B80BDF80430AB809DF80030D4
:108200002B7002B070BD738894F8B800ADF80210FE
:10821000ADF8043012F077FE20B1114A40F253213C
:108220001CF0E5F8BDF8041094F8B80012F08BFECD
:1082300020B10B4A4FF415711CF0D9F89DF80010CD
:1082400094F8B80012F03FFE20B1054A40F25521E3
:108250001CF0CDF86946201D12F070FBC7E700BF87
:108260005463040073B506461D46144612B9784699
:1082700003F002F8218896F8B80012F004FE20B14D
:10828000084A40F212211CF0B2F82388ADF80430FD
:1082900001A9301D12F049FB0DB123882B8002B0DB
:1082A00070BD00BF5463040038B50546144612B9CA
:1082B000784602F0E1FF95F8B800214612F0F6FD8D
:1082C00030B1BDE83840034A40F2F9111CF08FB8D4
:1082D00038BD00BF5463040038B50546144612B9D2
:1082E000784602F0C9FF95F8B800214612F0A6FDC5
:1082F00030B1BDE83840034A4FF4F7711CF077B84D
:1083000038BD00BF5463040008B50023C0F818311D
:1083100000F1F80190F8B80012F067FE30B1BDE846
:108320000840034A40F28F311CF061B808BD00BF1D
:1083300054630400F0B58BB01546109F1E460446EA
:1083400000B112B9784602F097FFD4F8D0301BB1D3
:108350002988D4F8D4009847D4F8C0300DF11E0114
:108360002046984708A994F8B800FFF7CDFD298862
:10837000BDF82430994271D8BDF82230994202D21A
:10838000002918BF1946B4F8D83094F8B800A4F8FA
:10839000E010A4F8DE3012F0F6FD18B1394AD82109
:1083A0001CF025F8B4F8E01049B194F8B8000022A8
:1083B00012F01CFD18B1334ADB211CF018F894F8B8
:1083C000B930BDF81E2013B12B88934258D0B4F8B1
:1083D000E0309B1AC4F8FC3000222D2384F80421DD
:1083E000C4F80031002E3BD12046FFF78DFF264B0D
:1083F000D4F8F8501B685B0422D5244B1B68032B70
:108400001EDD20482F211DF017FD80B32F211D48B0
:108410001DF012FD411C1E4BD4F8FC20D3F804358E
:108420000492D4F8F8200392D4F818210292B4F8F8
:10843000E0200192174A00920420E72207F0F6FF9D
:1084400004F1E80000F046FC37B1B4F8D8303B80C6
:10845000B4F8E0307B807D600BB0F0BD194692E748
:108460007368C4F818313368C4F8F830BFE70548BA
:108470005C211DF0E1FC08B15C21C8E70149CAE7B5
:108480000025E1E7546304006831002064310020D6
:1084900000100140F66304001FB5174B1B685B0416
:1084A00004461DD5154B1B68032B19DD14482F21DD
:1084B0001DF0C2FCB0B12F2111481DF0BDFC411CC4
:1084C000104B34F8102CD3F80435029214F8382CE1
:1084D00001920D4A009204204FF4347207F0A6FF77
:1084E00004B010BD06485C211DF0A6FC08B15C215B
:1084F000E2E70349E4E700BF68310020643100206F
:1085000054630400001001403464040013B50446B1
:10851000694690F8B800FFF7F7FCB4F8D810BDF83A
:108520000220BDF8043029B1914238BF114699426A
:1085300028BF1946D4F8BC30A4F8D8100BB1204697
:10854000984702B010BD000030B590F82C2030F8EC
:10855000083C20F80E3C022AA0F1E80518BF20F8DC
:10856000103C85B004462846FFF7D0FF2A4B1B6815
:108570005B041ED5294B1B68032B1ADD28482F21CD
:108580001DF05AFC00283DD02F2125481DF054FC39
:10859000411C244B34F8102CD3F80435029214F803
:1085A000382C0192204A009204204FF4597207F0AF
:1085B0003DFF54F8243C23B134F80E2C216A2846A0
:1085C000984734F8101C51B114F8300C012212F005
:1085D0000DFC20B1124A40F273311BF008FF34F851
:1085E000101C14F8300C12F0CEFC20B10C4A40F2F2
:1085F00077311BF0FCFE0021284605B0BDE8304075
:10860000FFF7BDBC06485C211DF016FC08B15C21DB
:10861000BBE70349BDE700BF68310020643100209B
:10862000546304000010014067640400F0B587B093
:1086300015460C9E1F46044600B112B9784602F05A
:108640001BFED4F8D0301BB12988D4F8D400984749
:10865000B5F90030C4F8FC3002222D2384F804213F
:10866000C4F80031002F5DD12046FFF74DFED4F84D
:10867000C03004F1D8012046984794F8B80004A906
:10868000FFF742FCB5F90030002B52DDD4F8F8308A
:10869000002B55D0BDF81430A4F8E0302E4B1B68E9
:1086A0005B0421D52D4B1B68032B1DDD2C482F218E
:1086B0001DF0C2FB002846D02F2129481DF0BCFB2D
:1086C000411C284BD4F8F820D3F804350392D4F891
:1086D00018210292B5F900200192234A0092042049
:1086E00040F2711207F0A2FE04F1E80000F0F2FA85
:1086F000B6B1B4F8D8303380B4F8DA30BDF814200D
:1087000093424FF0FF3318BF00237380D4F8F83042
:108710002BB1B5F90030003B18BF01235B427360F9
:1087200007B0F0BD7B68C4F818313B68C4F8F83076
:108730009DE705D0D4F8F83013B1BDF81230ABE79F
:10874000B4F8D830A8E706485C211DF075FB08B1E5
:108750005C21B2E70249B4E76831002064310020AF
:108760005463040000100140986404002DE9F041B6
:1087700088B015460E9F1E46044600B112B97846D1
:1087800002F07AFDD4F8D0301BB12988D4F8D40097
:10879000984704F1080010F0D5FF5B4B84F8E20025
:1087A0001A6812F4804F984625D0584B1B68032B4B
:1087B00021DD57482F211DF03FFB002800F0858068
:1087C0002F2153481DF038FB411C94F8E2E0514A38
:1087D000DFF850C12879504BBEF1000F08BF624648
:1087E000D3F80435CDE901024C4A0092042040F24E
:1087F000151207F01BFED4F8C03004F1D801204652
:10880000984794F8B80006A9FFF77EFB94F8E23089
:10881000002B75D0B4F8D810A4F8DE102B681944DA
:1088200000295BDDBDF81C308B4205DBBDF81A303A
:108830009942B8BF19468BB2A4F8E0302B68C4F84F
:10884000FC3001222D2384F80421C4F80031002ECD
:1088500046D12046FFF758FDD8F800305B0423D5F9
:108860002A4B1B68032B1FDD29482F211DF0E4FA3A
:1088700000283CD02F2126481DF0DEFA411C264B53
:10888000B4F8E020D3F804350492D4F8F820039229
:10889000D4F8182102922A680192214A00920420F9
:1088A0004FF4997207F0C2FD04F1E80000F012FAEB
:1088B00047B1B4F8D8303B80B4F8E0307B80D4F8CE
:1088C000F8307B6008B0BDE8F08111485C211DF0F4
:1088D000B3FA08B15C2174E70D4976E70023ABE7F2
:1088E0007368C4F818313368C4F8F830B4E708483E
:1088F0005C211DF0A1FA08B15C21BCE70449BEE788
:10890000B4F8DE108AE700BF68310020643100202F
:1089100054630400CA64040000100140F1640400C0
:10892000FD640400D264040037B5044600284DD02D
:10893000D0F8C030002B49D0D0F8BC301BB9D0F8EB
:10894000C430002B42D0224BC4F8B430214B224A11
:108950001A60224A5A60C4F8AC30214B214A1A608E
:10896000C4F8A430204A019104F1B8005A6012F012
:1089700049FB054638BB84F8B9000199204611F03F
:10898000E7FF0546F8B9194BC4F8E830184BC4F8AE
:10899000EC30184BC4F8F03004F1E800164B84F8C2
:1089A0008051C4F8F430C4F8700100F0DDF90546D8
:1089B00048B9124804F5C27107F09DFC104806F052
:1089C0002FFC104B1860284603B030BD0E25FAE787
:1089D00034650400CC3200209181020061810200E4
:1089E000C4320020797D0200497D02009984020092
:1089F000B97D02008180020049850200D832002042
:108A0000797E0200D432002030B5054685B00028BA
:108A100050D090F8B84002A9204612F067FA20B171
:108A2000254A4FF475711BF0E2FC0DF10A01204656
:108A300012F07CFA20B1204A40F2D5311BF0D7FC6D
:108A400003A9204612F092FA20B11B4A40F2D63117
:108A50001BF0CDFC6946204612F0BBF920B1164A46
:108A600040F2D7311BF0C3FC0DF10201204612F099
:108A70009DFA20B1104A4FF476711BF0B8FC01A9A1
:108A8000204612F0DBF920B10B4A40F2D9311BF03D
:108A9000AEFC0DF10601204612F008FA20B1064A9C
:108AA00040F2DA311BF0A3FC6946284612F01CF8AC
:108AB00005B030BD0E20FBE75463040038B50D4609
:108AC000044668B3A0F8D810FFF720FD04F1E800D1
:108AD00000F00EF9D4F8C43023B1D4F8F8102A46C7
:108AE00020469847B4F8D81051B194F8B800012244
:108AF00012F07CF920B10B4A40F212411BF077FCD6
:108B0000B4F8D81094F8B80012F03DFA034628B132
:108B1000044A40F216411BF06AFC0023184638BD97
:108B20000E23FBE754630400024B53F82030084641
:108B3000184700BF58650400024B53F82030084620
:108B4000184700BF6C650400836803B1184770477D
:108B5000006B003818BF012070470369013B0333E5
:108B600004D84069003818BF0120704700207047C2
:108B7000024601218C3009F059BF0A4600230B63DD
:108B800002F18C00022109F051BF70B590F82C3031
:108B9000022B064615D0383010F02FFE4FF47A74B1
:108BA000A0FB042304FB0133D40B44EA4344DD0B54
:108BB000326A00239D4208BF94422CBF012000204E
:108BC00070BD0020FCE710B5002304460363036278
:108BD000703005F0BDFD04F13800BDE8104010F024
:108BE00037BE10B50446383010F032FE0023236241
:108BF000E3681BB12046BDE81040184710BD0000D7
:108C00002DE9F04100F138050446284610F020FE19
:108C100004F110030FCB04F1200686E80F00606A10
:108C20001CF0D0FF064610B9784602F025FB206AFA
:108C30004FF47A7832460023A0FB08011CF046FE70
:108C4000A26AA2FB08238B4208BF82423CBF0B46AC
:108C50000246002B08BFB2F57A7F1DD3114ED9030F
:108C6000D00341EA524180194FF000060E4A4FF0FE
:108C7000000346EB01011CF029FE0123C4E91001A9
:108C800084F83830284610F0BBFD40B9636833B132
:108C90002046BDE8F041184721200021EDE7BDE85E
:108CA000F08100BF20A1070040420F0010B504462C
:108CB00005F08EFD236B4FF47A7101FB030104F183
:108CC000700005F05CFD23681BB12046BDE8104034
:108CD000184710BD10B5044610B9784602F0CCFA1A
:108CE000224604F18C000021BDE8104009F09EBE30
:108CF00010B5044610B9784602F0BEFA224604F1D7
:108D00008C000321BDE8104009F090BE2DE93048E9
:108D1000044610B9784602F0AFFA04F13800256A2B
:108D200010F06BFD4FF47A73A0FB03BC03FB01CC86
:108D30004FEADB3040EA4C40281ABDE8308838B5AD
:108D4000044610B9784602F097FA04F1380010F0A2
:108D500054FD4FF47A73A0FB034503FB0155E00B70
:108D600040EA454038BD000038B5044610B97846A1
:108D700002F082FA094BA367094BE364C4F8804010
:108D8000A46404F1380010F077FD0649054604F1AB
:108D90008C0009F01AFE284638BD00BF7B8B02000C
:108DA000718B0200A465040010B5044608F0DCF8DD
:108DB00038B123780E2B04D1BDE81040002005F017
:108DC0000BBB10BD08B518F04DFD20B10CF0FAFE3C
:108DD00008B10CF079FEBDE8084005F02FBA00009C
:108DE00070B5837DC27D86B043EA0223ADF81430AE
:108DF0000546022305A80E46ADF8163017F094FC80
:108E00000446002845D1288A04AA294617F070FE96
:108E1000044600283DD1BDF81010E88A0DF1120378
:108E2000324618F075F80446002832D1297ED5F86C
:108E3000120001F0010104F063FE10B1784602F067
:108E40001BFABDF812000FF083FF044608BB174B56
:108E50001B681B031DD5164B1B68062B19DD154817
:108E60002F211CF0E9FFB8B12F2112481CF0E4FFBC
:108E7000411C2A7E104B02F00102D3F80435029205
:108E8000D5F8122001920D4A00920720C62207F061
:108E9000CDFA204606B070BD06485C211CF0CCFF20
:108EA00008B15C21E1E70349E3E700BF6831002036
:108EB00064310020B465040000100140D365040053
:108EC00008B505F0CEFD15F037FE17F0CBFBBDE879
:108ED000084004F003BC000073B50E460546A0B37D
:108EE00005F03EF9044668BB17F00CFC15F038FE9F
:108EF00028690FF0FDFE044620BB2B7F0193AB6970
:108F0000009301466B691248592210F0B5F90446E6
:108F1000C0B92B6A03B1984709F01EFC17F042FB59
:108F2000054615F081FB0B2D01D00B2802D1FFF770
:108F3000C7FF0B2418F096FC054608B10CF082FD23
:108F400006B13570204602B070BD0E24FAE700BFAE
:108F5000DC32002018F086BC08B508F005F820B116
:108F6000BDE80840002005F037BABDE808400148D8
:108F700005F0D6B92031002069DF704730B5394D92
:108F80002A7887B01AB1012803D0032862D007B02D
:108F900030BD002301A9019301F0DCFD08B11BF0F5
:108FA00019FA0C2200210DEB02001CF073FEBDF833
:108FB0000C302D4823F47F7323F0030343F48873AC
:108FC00043F00103ADF80C3000230493ADF81430E6
:108FD0001CF02AFF019AADF8160003A94120FFF703
:108FE000CBFF08B11BF0F6F901A801F01BFE08B198
:108FF0001BF0F0F91D4C236803B19847012302A927
:109000000DF10200029317F055FF08B11BF0E2F9D1
:10901000BDF8020017F0DCFC0DF1010117F0FCFDBA
:1090200008B11BF0D7F90CF00DFD9DF801100020E0
:109030000DF06EF910B1784602F01EF905F0FEF859
:1090400008B11BF0C7F900232B706368002B9ED07A
:1090500098479CE701F04EFE002898D01BF0BAF923
:1090600095E700BF36330020F36504003833002055
:1090700008B503781C2B0CD1064B1B784BB101F0C3
:1090800077FE08B11BF0A6F9BDE80840024805F0DC
:1090900049B908BD363300202C31002010B50749EE
:1090A000074819F097FA024638B90649064849694F
:1090B000BDE81040032319F0A6BA10BD54330020B8
:1090C000C0360020383300208C35002010B50378DE
:1090D000023B082B4AD8DFE803F01E051249493845
:1090E00049493F00224B9B68002B3FD0007A002863
:1090F0003CD0204A01211170BDE8104018471C4B9C
:10910000DB68002B32D01B4A117879B30021117033
:10911000BDE810401847184B1A784AB9144B1B6920
:1091200013B114490A709847BDE81040FFF7B6BF65
:10913000124B134801221A7005F0F2F805F0D8F826
:10914000A0B1BDE810401BF045B9094B0D48996925
:10915000102219F09DFAF3E7D0E90210FFF740FE64
:1091600008B11BF037F9044B01221A7010BD00BF83
:1091700038330020343300203533002036330020CC
:109180002C3100208C35002070B51C4A1C4E5168D3
:10919000044686B0106803AB03C31189927A198024
:1091A0009A700FCC35460FC594E8070085E8070094
:1091B000B36903B3134B0093134A1449144803AB28
:1091C00019F0DAF9A8B913481AF04EFE0146104812
:1091D00019F0ECF968B910481AF0B6FF48B90E4812
:1091E0001AF0E4FF01460A4819F0E0F908B9FFF760
:1091F00055FF06B070BD0720FBE700BF12660400F4
:1092000038330020CD90020054330020C0360020B7
:109210008C350020743300203C35002010B5054CFF
:10922000226832B11BF018FA002802DB2368984745
:10923000F8E710BD00370020154B164A10B50C4654
:1092400018600121144818F06BFD18B1134A4A2127
:109250001BF0CDF8610C0023E00341F26F728B42EA
:1092600008BF824210D24FF47A7200231CF02EFB0A
:1092700001460B48002218F065FD38B1BDE81040EA
:10928000064A4B211BF0B3B80521F2E710BD00BF21
:10929000003700201D920200406604001D66040095
:1092A000043700202DE9F0410446CEB038B1424DDC
:1092B0002B685A0403D5414E3368032B02DC4EB0B1
:1092C000BDE8F0813E4B18680DAB611E04F10F0C38
:1092D0001F4611F8012F4FEA121E02F00F0210F87C
:1092E0000EE083F800E0825C5A70614503F10203EE
:1092F000EFD10023334887F820302F211CF09CFD4C
:10930000002846D02F212F481CF096FD411CDFF885
:10931000C4802D4AD8F8043501922C4A0092029755
:109320004222042007F082F82B685B04C7D533681B
:10933000032BC4DD23482F211CF07EFD002831D0F3
:109340002F2120481CF078FD411CE27B2068D8F8D2
:1093500004350B92A27B0A92627B0992227B0892CF
:10936000E27A0792A27A0692627A0592227A0492AF
:10937000E28852BA92B20392A28852BA00BA92B26A
:10938000CDE90102124A00920420432207F04EF870
:1093900095E70C485C211CF04FFD08B15C21B2E759
:1093A0000849B4E707485C211CF046FD08B15C2180
:1093B000C7E70449C9E700BF6831002064310020D5
:1093C0006C310020446604006C6604000E600400EA
:1093D0007E6604000010014073B5438906680D469F
:1093E0000446017A23B90191784601F045FF0199BD
:1093F000628905F500456A434FF6FF73B2FBF3F24D
:1094000092B2012A38BF0122304602B0BDE8704056
:1094100000F0C8B813B54389044613B1784601F08B
:109420002BFFD4E90001002200F070F910B178465A
:1094300001F022FF206800F065F9194B60811B687C
:109440005B0418D5174B1B68032B14DD16482F211E
:109450001CF0F2FCD0B12F2113481CF0EDFC411C94
:10946000124B6289D3F804350192114A009204200C
:10947000662206F0DBFF638913B9784601F0FCFE33
:10948000206802B0BDE8104000F0A6BA06485C2192
:109490001CF0D2FC08B15C21DEE70349E0E700BF25
:1094A0006831002064310020BE66040000100140D5
:1094B000E16604002DE9F8430468054694F82000AD
:1094C00000F024FC04F11807FF264FF0FF394FF09D
:1094D0000008207AFF2802D000F018FC2672607A7B
:1094E000FF2802D000F012FC66722068431C03D0F3
:1094F00000F070FDC4F8009084F80B800C34BC427E
:10950000E7D16868BDE8F84300F028BB2DE9F041D9
:10951000134EDFF850800C460025012706EB41066C
:10952000735D5BB1735D013BDBB27355735D93B9E2
:1095300058F824301B682046DB6998474DB167B165
:10954000084B53F824300221BDE8F041586800F080
:1095500076BB0125E4E70027F0E7BDE8F08100BF16
:10956000306600202437002010B540680B4902798E
:109570008C5CFF2CE3B20DD0FE2B0DD0006803F500
:10958000A87350F82330064850F82200984203D1BF
:10959000FF238B54002010BD0120FCE7383700204A
:1095A000403700202DE9F74F0368904693F82120BB
:1095B000022A04460F4640F09B800C254D435A1961
:1095C0005268904509D1DB691BB9002003B0BDE8A2
:1095D000F08F426810799847F7E7FFF7C5FF834699
:1095E000002840F087806368DFF814A11B79FE2211
:1095F0000AF80320266896F8200000F0E3FBD14625
:10960000B8F1000F1FD13544687A00F0DBFB287AEF
:1096100000F0C0FB63681B79FF220AF803200C23CB
:1096200003FB0766C6F804802368DB69002BCCD0F7
:1096300063681A79304B03EB42030221D955606805
:1096400000F0E9FAC1E7B169884507D335441FFA4C
:1096500081F8287A00F0B6FB687AD9E707EB470370
:109660004FEA830A06EB830360685A6891423AD056
:10967000002A38D0904536D25B46032100F09AFA92
:10968000636896F820B0196856F80A00354401F569
:10969000A671AB7A01911BB300F0F2FC024601996E
:1096A000584600F057FB96F8200000F073FB636803
:1096B0001B7909F8037063681A79104B43F822800C
:1096C0000C2505FB0765606800234246394600F01B
:1096D00071FA287A00F05EFB687A00F05BFB9EE787
:1096E00000F0C0FCDAE70379FF2209F80320E7E77E
:1096F00008206BE7112069E7306600204037002022
:10970000383700200368188B704700002DE9F04FB0
:109710002DED028B8BB0044604928A46002900F09E
:109720004981056895F82130002B40F0458100F013
:1097300099FD08B1852846D100F0D2FB002839D028
:109740009E4B9F4E1B6803F0F003303B18BF012374
:109750003370FF2385F820304FF6FF7300222B81F2
:109760004FF0FF33EA722B60EA75AB82EB6005F1D4
:10977000200000F097FA0596074608BB0AF1080397
:10978000804606935AF828B05FFA88F3BBF1FF3F92
:1097900008EE103A00F09D80266896F82110B9B1C5
:1097A00008262046FFF786FE30460BB0BDEC028B44
:1097B000BDE8F08F00F05CFB0028C1D00326F3E782
:1097C0002046FFF777FE0426EEE74FF00108D9E7C1
:1097D0004FF00C0909FB08F9069B06EB090213F888
:1097E00008309372516003228DF820202268039381
:1097F0004A4408A9927AB2FA82F252098DF82120DD
:10980000584601228DF8222000F074FBD8B9039B42
:1098100046F809B00122002B00F0B480BBF11F0F05
:1098200086BF68490BF01F0B4FF0A04102FA0BF204
:10983000C1F80C250C2303FB08FB0BF10800304496
:1098400000F030FA08B10426ABE70BF10900304410
:1098500000F028FA0028F6D106EB0B030793187ADC
:1098600000F0B0FA079B587A00F0ACFA039B56F868
:109870000900002B00F0938000F002FC834656F8AC
:10988000090000F0EFFB8146606801680C2000FBD6
:1098900008664FEA880303F5A07319445A46307AE4
:1098A00000F058FA6368707A19684A4601F5A471A5
:1098B00000F050FA0123F3726368434A1B7902EB0C
:1098C000430318EE101A0022204603F80820FFF781
:1098D00069FEB8F1000F3FF478AFDAF81030B3F555
:1098E000805F01D3092F62D1059B1B7813B1012F33
:1098F00038BF012700238DF8213060688DF8207073
:109900004FF4E063ADF822300379304A099308A997
:1099100000F09CF8064600287FF443AF6368DAF84D
:1099200010201B68D3F81075FFB2100FC7F120018B
:10993000120100FA01F1A7F1200322FA07F720FA39
:1099400003F30F431F43AF6160684FF0010800F05D
:109950002DF904233A466068CDF80080022100F01A
:1099600044F90221606800F06AF9049BEB616368C6
:10997000174A1B7985F8218042F82340154AFF21B8
:10998000D15411E7BBF11F0F86BF0E490BF01F0B1F
:109990004FF0A04102FA0BF2C1F808254AE700F0A7
:1099A00061FB834656F8090000F06AFB6BE75B0831
:1099B000013794E70B26F7E60826F5E6E80F00F0F6
:1099C0005437002000030050306600200D9502003F
:1099D00024370020383700202DE9F0470768DFF8EA
:1099E0006890002604463D46B0464FF00C0A636876
:1099F0001B7909EB430303F80680EB7A73B1236804
:109A000028680AFB0633997AB1FA81F1490900F016
:109A100045FB286800F014FBC5F804800C357EB1C6
:109A20006368084A1B79FF21D154606800F0BEF8D2
:109A3000606800F079F8022387F82130BDE8F087EC
:109A40000126D4E73837002030660020F7B50679C4
:109A5000324D0C2474432F193B7A002B5BD12A51D1
:109A60004A687A609C461A4647790368D4B2A7428E
:109A700047D8CA782A4F1C0B43F30733002BAEBFDD
:109A800003F16043274B04F00F044FEA4212D2B2B5
:109A9000AABF03F561431A5583F80023036843F313
:109AA000073464090122C3F3043302FA03F347F8CD
:109AB000243007684B78D7F8044503F0030324F0FB
:109AC00003042343C7F8043507688B78D7F80845A3
:109AD00003F0030324F003042343C7F808350468A4
:109AE0000B78D4F8100503F00F0320F00F010B439F
:109AF000C4F810350C2303FB065500202A7203B06E
:109B0000F0BDA40004F5A074013243F804C01B5951
:109B10000193019BA8E70820F1E700BF5837002018
:109B200000E100E014ED00E0036801221A6003790F
:109B3000034A0C2101FB032302221A72704700BF63
:109B4000583700200368044901221A6103790C2068
:109B500000FB03131A72704758370020026838B5AB
:109B600042F3073301215B09C2F3043201FA02F226
:109B700020330C4941F8232003680025D3F8002244
:109B8000C3F8005203684FF0FF320446C3F80823BD
:109B9000FFF7D8FF2379044A0C2101FB03231D7230
:109BA00038BD00BF00E100E0583700200368012203
:109BB000DA60704773B54FF4803405688C408BB120
:109BC0008B0003F5A0730026EE50EB580193019B28
:109BD0000368C3F80443036801F5A87143F8212022
:109BE00002B070BDC5F80843F5E7F0B4076840F26D
:109BF0000116D7F800528E4025EA0605C7F8005234
:109C00000468D4F800522B43C4F800329DF8103099
:109C1000F0BCFFF7CFBF8B0013B503F5A07302684C
:109C20009BB20024D450D3580193019B02684FF497
:109C3000803303FA01F1C2F8041302B010BD0268C8
:109C40004FF4803303FA01F1C2F8081370470000A3
:109C50002DE9F341104C114F114E00254FF480387F
:109C6000236883B1D7F8043308FA05F21A420AD000
:109C7000002323602368019304F5E040019B80B238
:109C8000D6E9003198470135042D04F10404E7D1E9
:109C900002B0BDE8F08100BF40910040009000405C
:109CA000583700202DE9F74F4FF00009154D164F9A
:109CB00006464FF0040AC8465FFA89FB01240DF1FD
:109CC000070004FA0BF48DF8078000F061FC2C42C9
:109CD00008D03B6814EA030201BF23433B6086F8C7
:109CE00000B092469DF8070000F076FCBAF1000F34
:109CF00003D0A54309F10109DED1504603B0BDE808
:109D0000F08F00BFFFFF010064370020012337B54B
:109D100003FA00F5C5F31003ABB10C4B0024C3F8F4
:109D200008550DF107008DF8074000F031FC084B95
:109D3000186820EA050018609DF8070000F04CFC48
:109D4000204603B030BD0720FBE700BF00F0014014
:109D50006437002010B5A1B19AB101238340C3F349
:109D6000100484B10A4C246823420ED0C00000F1D4
:109D7000804000F5F830C0F81015C0F81425002018
:109D800010BD0E20FCE70720FAE70820F8E700BF27
:109D900064370020012202FA00F3580C400440B955
:109DA0001BB1064A1268134205D0054AC2F80435B1
:109DB0007047072070470820704700BF64370020B5
:109DC00000F00140012202FA00F3580C400440B9AF
:109DD0001BB1064A1268134205D0054AC2F808357D
:109DE0007047072070470820704700BF6437002085
:109DF00000F0014000F1804000F5C040002382B037
:109E0000036003680193019B02B0704703681F2B36
:109E100083BF03F01F03036001484FF0A040704769
:109E20000003005007B5019001A8FFF7EFFF019B69
:109E300000EB8300D0F8003723F44033C0F800373C
:109E4000D0F8003743EA0141C0F8001703B05DF8CD
:109E500004FB0000054B4FF0FF32072843F8202099
:109E600084BFC01880F84C20704700BF68370020BE
:109E700010B5174C94F85B3043BB04F12403302138
:109E8000FF22013911F0FF0103F8012BF9D1C8B20B
:109E9000FFF7E0FF01310929F9D1062200210D4821
:109EA0001BF0F8FE0C4BC02283F8062340221A60F8
:109EB0004FF4BE70FFF79EFF084B4FF00042C3F80F
:109EC0000423012384F85B30002010BD0820FCE748
:109ED00068370020BD37002000E100E0006000404E
:109EE000034B93F85B00003818BF0120704700BF98
:109EF0006837002037B5354B1A18044692F924000C
:109F0000013061D18878002852D01846002250F8DC
:109F1000045B013546D1181980F82420002043F84D
:109F20002200920002F1804202F5C0420B78D2F882
:109F30001055487825F499151B04000525F4F855AB
:109F400000F4801003F44033C2F81055034320029C
:109F5000D2F8105500F47C5003432B43C2F810355F
:109F60004A780194012A01A826D1FFF74FFF019BEF
:109F70009A40C0F8082501A80194FFF747FF019B0C
:109F8000134903F5E073032240F8232024FA02F278
:109F9000012304F0070003FA00F08B5C1843885497
:109FA000002003E00132082AB1D1042003B030BD03
:109FB000FE2382F82430D3E7FFF728FF019A01231C
:109FC0009340C0F80C35D6E70820EFE7683700204B
:109FD000BD37002037B5174C2518014695F82400E9
:109FE000072809D8FFF736FF95F92430124A03F500
:109FF000A273002042F823006318FF220F4D83F85C
:10A000002420CC0801F0070301229A402B5D134263
:10A010000DD001A80191FFF7F9FE019B03F5E07354
:10A02000022140F823102B5D23EA02022A5503B0D7
:10A0300030BD00BF6837002000600040BD37002001
:10A04000074B184490F924309B0003F1804303F53B
:10A05000C043D3F8102542F00302C3F8102570471F
:10A0600068370020054B184490F924000C3080001C
:10A07000C0B200F1804000F5C04070476837002052
:10A08000054B184490F9240018308000C0B200F14C
:10A09000804000F5C0407047683700200A4B1844E4
:10A0A000003990F924304FEA830303F1804303F52C
:10A0B000C04318BF0121D3F8102522F4801242EAD0
:10A0C0000152C3F810257047683700202DE9F0478A
:10A0D000002488B0CDE902445E4D4FF48072012126
:10A0E00002F1804303F5C04390B21B68012B06D1F7
:10A0F000D5F804330B4202D0FFF77CFE0C43043248
:10A10000B2F5907F4FEA4101EAD1534B1B68012B16
:10A110000ED14FF4BE70FFF76DFE4FF0A04344F038
:10A120000044D3F8103502934C4BD3F81035039309
:10A1300014F0FF0F1AD04A4F01260025264210D0F6
:10A14000AB0003F1804303F5C043D3F81005D3F807
:10A15000101557F8253023B1C1F30141C0F3052094
:10A1600098470135082D4FEA4606E7D1002C6ADAF8
:10A1700004AF002304937B604FF0FF33CDE9063337
:10A18000374EDFF8D8904FF0010896F9543096F822
:10A190005420013322F0C00455D008AB03EBD40A9D
:10A1A00002F007011AF8083C08FA01F10B424FEAE5
:10A1B000D40048D03319920993F9243056F823502B
:10A1C0002DB9032A3FD13B5C0B433B5401E0032AEA
:10A1D000F9D001A80194FFF719FE019B03F5E07384
:10A1E00050F823301AF8180C0842C3F3014307D083
:10A1F000022B28D1032A1CD02DB34FF0000A1CE0FB
:10A20000032B20D1032AF7D102212046FFF70AFEB3
:10A210008DB94FF0A0430299D3F81025D9F8103525
:10A22000914213D002920393049A059B06920793DE
:10A23000ABE71146E9E74FF0010A11462046A8476F
:10A24000BAF1000FE5D108B0BDE8F0870399994253
:10A25000F9D0E7E7006000407C6100400003005057
:10A2600068370020034B187810B901221A70704724
:10A2700085207047C437002072DF704773DF704756
:10A2800074DF70472DE9F0412F4CA2B006460F460F
:10A2900090460021102220461BF0FCFC2B4A2C4942
:10A2A0001378C3EB4315294421602A49013303F095
:10A2B00001030D441F211370A180A1813C220021C4
:10A2C00004A8A5601BF0E6FC062301AA8DF8133054
:10A2D0000E9201233C22002113A88DF80230ADF824
:10A2E00020308DF83C30ADF80060CDF824D0ADF8CA
:10A2F0000460ADF8088003971BF0CCFC22460223D3
:10A3000052F8041B8DF84C3004A800F0F5F908B1A0
:10A310001AF060F8104AA16813A800F0EDF908B12E
:10A320001AF058F80D4A08490D48FFF7A5FF08280C
:10A3300004D105490A480022FFF79EFF08B11AF030
:10A3400049F822B0BDE8F08104380020C53700206C
:10A35000C637002014380020103800203C3100207F
:10A3600038310020B0F5202F0AD20A23B0FBF3F3D6
:10A3700010B1012B38BF0123034A938191607047CC
:10A380004FF6FF73F5E700BF3C31002008B5064BE0
:10A3900001211878FFF772FF08B11AF01BF8BDE829
:10A3A0000840002004F062BD3831002008B5054B9C
:10A3B0001878FFF765FF18B1BDE808401AF00AB831
:10A3C00008BD00BF3831002076DF70477ADF704764
:10A3D0007CDF704769DF704719F0FCBF03F0A4BF52
:10A3E00007B503784BB940883B21FFF7EDFF08B371
:10A3F00003B05DF804EB19F0EDBF012B1AD1134B3C
:10A400001B685B0416D5124B1B68032B12DD114829
:10A410002F211BF011FD80B12F210E481BF00CFDE8
:10A42000411C0D4B0D4AD3F80435009204206822DC
:10A4300005F0FCFF03B05DF804FB06485C211BF04F
:10A44000FBFC08B15C21E8E70249EAE7683100203B
:10A4500064310020F4660400001001402467040009
:10A460001FB500F047FC08B119F0B4FF002369469E
:10A470000120009300F06EFB08B119F0ABFF0C2235
:10A48000002101A81BF006FCBDF80430114823F49C
:10A490007F7323F0030343F4887343F00103ADF8A3
:10A4A000043000230293ADF80C301BF0BDFC009A81
:10A4B000ADF80E0001A94120FFF78CFF08B119F09B
:10A4C00089FF684600F0AEFB08B119F083FF05B0C4
:10A4D0005DF804FBF36504001FB5112310488DF8E7
:10A4E00004301BF0A1FC0E4982B201A8FFF770FFF7
:10A4F00008B119F06FFF08220DEB020000211BF0DC
:10A50000C9FB084A4FF0C87302A8CDE90223FFF740
:10A510005DFF08B119F05EFF05B05DF804FB00BFF8
:10A52000F36504007800C80010B58AB001AC0822B9
:10A53000002120461BF0AEFB124A4FF0C873CDE954
:10A54000012300211C2203A81BF0A4FB4FF480333D
:10A5500040F6CD41CDE9041303238DF818300023D4
:10A56000ADF81A308DF81C30074B089303A8074B41
:10A570000394099300F040FD08B119F02BFF0AB0D5
:10A5800010BD00BF7800C800E1A30200D9A30200FB
:10A5900070B5EFF3108672B60C4A946801239CB92B
:10A5A00093600B4B0B4DD3F8801029401160C3F81A
:10A5B0008050D3F8841051604FF0FF32C3F88420EC
:10A5C000047006B962B670BD0370FAE73C660020FD
:10A5D00000E100E0FC06FFBD10B5084B9A685AB1D7
:10A5E00050B9EFF3108172B6054A1C6814605C68BC
:10A5F0005460986001B962B610BD00BF3C6600208F
:10A6000000E100E06DDF704779DF70477DDF704764
:10A6100064DF70472DE9F04F85B000250E9CBDF832
:10A620003CB0B4F800A00191074690461E46A946EA
:10A630003A884A450DDC45B12388013BA3EB0A0368
:10A640009BB2FF2B3AD806F80A30002005B0BDE8CF
:10A65000F08F7A6852F82900039000220DF10B0167
:10A6600003A8FFF7D5FF0028F0D19DF80B20424545
:10A6700021D12288002D14BF0020022002EB080106
:10A68000014459451ADC3DB9013292B2019B228046
:10A69000B35422880132228022880DF10B0132440A
:10A6A00003A8FFF7B5FF0028D0D121889DF80B2023
:10A6B0000A442280012509F10109B9E70C20C5E708
:10A6C0002DE9F341089FBDF824801546CDE90078B7
:10A6D000022204461E46FFF79DFF50B93346102262
:10A6E00029462046CDE9087802B0BDE8F041FFF7E1
:10A6F00091BF02B0BDE8F0812DE9F04F002317882B
:10A70000138090F82D3085B006460D46144653B39D
:10A71000082F01D80C2027E102A8FFF773FF0028BB
:10A7200040F0228123880822EA54238801339BB217
:10A730001B222380EA542088013080B22080062228
:10A740000DF1090128441BF097FA23889DF8082091
:10A7500006339BB212F0FE0218BF01222380EA5496
:10A76000238801332380B378FBB123880433BB42B1
:10A77000D0D802A8FFF748FF002840F0F5802388D2
:10A780000322EA54238801339BB219222380EA541E
:10A790002388BDF8082001339BB2E9182380EA54CE
:10A7A000120A4A70238802332380F2789AB12388F0
:10A7B000D91CB942AED80221E954238801339BB297
:10A7C00001212380E95423880B449BB22380EA545F
:10A7D00023880B4423807268AAB12388D91CB9420C
:10A7E00098D8022192F90020E954238801339BB2C2
:10A7F0000A212380E954238801339BB22380EA5441
:10A800002388013323803389002B40F0A180338AD1
:10A810005BB1CDE900472B460722032106F110006A
:10A82000FFF74EFF002840F09F80338B5BB1CDE9EE
:10A8300000472B461522142106F11800FFF740FFB0
:10A84000002840F09180326A002A40F09080D6F8CB
:10A850002480B8F1000F30D0B8F804302188981C5B
:10A860008A1C0244BA423FF655AFFE283FF652AF6B
:10A8700003336B54238801339BB2FF222380EA54B5
:10A88000238801339BB22380B8F80020EA54E918EA
:10A89000120A4A702088023080B22080B8F8042062
:10A8A0005AB1D8F8081000296BD028441BF0E4F9FD
:10A8B0002388B8F804201344238096F82C30002B0A
:10A8C00040F09A80307800284ED03388012B58D041
:10A8D000228802F1020CBC453FF61CAF012805D1CD
:10A8E0007378023313449F42FFF414AF023FBF1A40
:10A8F000BFB202A905EB0C00ADF80870FFF786FEA9
:10A9000090BB3178BDF80830022900F0BA80727827
:10A910009A4202D3BB4240F2B280012940F0B38098
:10A92000974293B2C0F0AF80ADF808300821BDF86F
:10A930000830FE2B3FF6EEAE22880133AB5422885E
:10A94000013292B22280A9542288134423800BE062
:10A95000CDE900472B460622022106F10800FFF749
:10A96000AFFE00283FF453AF05B0BDE8F08FB4F858
:10A9700000C00CF10603BB423FF6CCAE118805299E
:10A9800001D80720F0E76FF4486E01EB0E039BB28D
:10A990004FF27D3E7345F4D95388052BF1D96FF4FE
:10A9A0004860181880B27045EBD94FF6FF708142AD
:10A9B00003D0834201D09942E3D8052305F80C3037
:10A9C000238801339BB212212380E9542388013369
:10A9D0009BB223801188E954E818090A4170238842
:10A9E00002339BB223805288EA54E918120A4A7053
:10A9F0002388023323802AE7B36A002BC1D04FF0AB
:10AA000000094FF00C0A4FF0160B96F82C305FFA45
:10AA100089F293427FF656AFB16A0AFB02F201EB6C
:10AA20000208B8F80430981CFE283FF673AE208860
:10AA300003332B54238801339BB2238005F803B0E2
:10AA4000238801339BB223808A5AEA54E918120AF8
:10AA50004A702088023080B22080B8F804205AB1B1
:10AA6000D8F8081000298CD028441BF005F9238859
:10AA7000B8F804201344238009F10109C5E709212E
:10AA800055E7BB42FBD9ADF808704FE701600B6892
:10AA900043604A68934204BF0023436070474368A1
:10AAA00043B1026891680B4443605268934204BF0B
:10AAB0000023436070474BDF704700001FB50D4C0B
:10AAC00001A8FFF7F8FF70B9214602A8FFF7DEFFE3
:10AAD000039B002BF4D00198D3E90021904702A8F2
:10AAE000FFF7DDFFF4E7052801D019F073FC04B08F
:10AAF00010BD00BF5067040060DF704769DF70471A
:10AB000061DF704730B5114B1B78A9B0E3B1104D30
:10AB100094240DF1020103A8ADF80240FFF7F0FF05
:10AB200070B9294601A8FFF7B1FF029B002BF0D0B6
:10AB300003A8D3E90021904701A8FFF7B0FFF4E78D
:10AB4000052801D019F046FC29B030BD523800204C
:10AB50005C670400F0B5064685B00D4600295CD060
:10AB60002F4B0B600C22002101A81BF093F801274A
:10AB700006232A68ADF8083001A920208DF804606A
:10AB80008DF80670FFF7BAFF0C22002101A81BF018
:10AB900081F800242A688DF8057001A94020ADF8DD
:10ABA0000640FFF7ABFF0C22214601A81BF072F80C
:10ABB00045232A68ADF8063001A923208DF80460EA
:10ABC000FFF79CFF0C22214601A81BF063F82A68BE
:10ABD0008DF8044001A93846FFF790FF0C2221466A
:10ABE00001A81BF057F84FF4B0632A68019301A93C
:10ABF000A120FFF783FF0C22214601A81BF04AF891
:10AC00009DF804302A683B4301A9A0208DF8043048
:10AC1000FFF774FF204605B0F0BD0E20FBE700BF34
:10AC2000002E002008B5FFF767FF10B9014B012285
:10AC30001A7008BD5238002010DF704711DF7047CE
:10AC400013B5044609496846FFF720FF019808B983
:10AC500002B010BDD0E900212046904718B16846E7
:10AC6000FFF71DFFF2E71120F2E700BF6C67040059
:10AC700013B5044607496846FFF708FF019B0BB967
:10AC800002B010BD2046D3E9002190476846FFF787
:10AC900006FFF3E784670400064B9A6822B11A683E
:10ACA00022F480021A607047034B4FF48002C3F80D
:10ACB000802070473C66002000E100E00B4991F8DD
:10ACC00016335A09EC231341DB0706D5084B9A6863
:10ACD0003AB94FF480030B60704742F2020019F05A
:10ACE00079BB1A6842F480021A60704700E100E004
:10ACF0003C660020F7B5194F3C7864BB184E01251F
:10AD000020463570FFF79CFF112821D02046FFF721
:10AD1000AFFF144B8DF80340186801900DF103004C
:10AD2000FFF736FC104901A8FFF786FF0446B0FA8A
:10AD300080F0400938709DF80300FFF74DFC3CB9E6
:10AD40000A4B34701C70FFF7B9FF2846FFF790FFDD
:10AD5000204603B0F0BD0824FAE700BF54380020B5
:10AD6000533800206867040079B00200553800208D
:10AD7000F7B5154F3B781BB3144E01203070FFF729
:10AD80005FFF11284FF000051CD00220FFF770FF75
:10AD90000DF107008DF80750FFF7FAFBFFF74EFFA4
:10ADA00004469DF807003D70FFF716FC2CB934707F
:10ADB000FFF772FF0320FFF75BFF204603B0F0BDF3
:10ADC0000824FAE72C46F8E75438002053380020CE
:10ADD00007B508496846FFF759FE019B13B903B050
:10ADE0005DF804FBD3E9002090476846FFF757FE63
:10ADF000F3E700BF78670400FFF7EABF75DF70472D
:10AE000076DF70477ADF70477BDF7047034B1A8825
:10AE100082420CBF18460020704700BF74380020E3
:10AE2000024B9B6903B11847704700BF5838002098
:10AE300073B585B22846FFF7E9FF044670B1164E98
:10AE4000027A337B9A420BD200F10A012846FFF7BF
:10AE5000D5FFE8B1112801D0FFF7E2FF02B070BDC5
:10AE600000230372337C43B13B212846FFF7C8FF20
:10AE700030F0080301D0FFF7D3FF7369002BEDD04A
:10AE800000228DF80420ADF8065001A89847E5E7A8
:10AE9000237A01332372E1E75838002037B50B4697
:10AEA000497A0F4A71B9D2E901141D7A0246002D80
:10AEB00018BF2146586816F045FF08B1FFF7B0FFEC
:10AEC00003B030BD002119725369002BF8D0012264
:10AED000ADF806008DF8042001A89847F0E700BF00
:10AEE000583800204B8802889A4213D842889A42E8
:10AEF00010D380888A8840F2F313984294BF031AD3
:10AF0000C31A934206D800F2F310904234BF0020D7
:10AF1000012070470020704770B50388122B01464E
:10AF200059D004D8102B1ED0112B44D070BD502BFB
:10AF3000FCD12F4BC288DB899A42F7D1038A022BBE
:10AF4000F4D186883046FFF761FF05460028EDD032
:10AF500001F1120000F08AF838BB686816F03EFF75
:10AF60000028E3D009E0C37B012BDFD14FF6FF704F
:10AF7000FFF74CFF054620B90420BDE87040FFF7FD
:10AF80004FBF8E881B4A0680002303721368C0F8E7
:10AF90000A305368C0F80E3010310A30FFF7A2FFB4
:10AFA000134B6872DB89002BC0D129463046BDE8BF
:10AFB0007040FFF773BF8088FFF728FF0446002822
:10AFC000B4D0406816F00AFF08B1FFF729FF4FF62A
:10AFD000FF732380AAE786883046FFF717FF0546F0
:10AFE0000028A3D008310A30FFF77CFF6872DCE745
:10AFF0005838002088380020F8B5064648B3054682
:10B000000FCD154F3C460FC495E8070084E80700B4
:10B010003068124C3C60B0B1FFF7F4FEC0B9326842
:10B0200013682360536863600D480E4A4FF6FF7340
:10B0300003800D4B40F8043F002116F071FE0028FC
:10B0400018BF032004E02046FFF7DEFE0028EBD007
:10B05000F8BD0E20FCE700BF5838002088380020DB
:10B060007438002031AE020090380020007800F0E3
:10B07000010070470620704730B5754B14461B68B9
:10B0800044F20102904287B00D4603F4804300F081
:10B09000A98022D8012844D041F20102904276D002
:10B0A000002B58D06B4B1B68002B54DD6A482F21B6
:10B0B0001AF0C2FE002800F0BF802F2166481AF067
:10B0C000BBFE411C654B664AD3F8043500920195DE
:10B0D0007B22012005F0AAF93DE044F202029042F1
:10B0E000DED1002B37D05B4B1B68002B33DD5A4879
:10B0F0002F211AF0A1FE00286BD02F2156481AF0FC
:10B100009BFE411C554B2288D3F80435039262689C
:10B11000CDE90152534A00920120692205F086F9D7
:10B1200019E0C3B14B4B1B68002B14DD4A482F219B
:10B130001AF082FE10B32F2147481AF07DFE411C01
:10B14000464B494AD3F804350092CDE901546022B8
:10B15000012005F06BF94FF0A0434FF4F032C3F833
:10B160001825C3F80C25EFF3108372B64DF6AD6CBD
:10B170003E4A1378002B68D107B030BD36485C21B9
:10B180001AF05AFE08B15C21D6E73349D8E7002B04
:10B19000E1D0304B1B68002BDDDD2F482F211AF04A
:10B1A0004BFE68B12F212C481AF046FE411C2B4B58
:10B1B0002F4AD3F804350092CDE901546322C7E742
:10B1C00025485C211AF038FE08B15C21EBE72249E2
:10B1D000EDE721485C211AF02FFE08B15C218DE7D4
:10B1E0001D498FE7002BB6D01A4B1B68002BB2DD30
:10B1F00019482F211AF020FEA8B12F2116481AF065
:10B200001BFE411C154B2268D3F80435049262687A
:10B21000CDE90252A2680192164A009201207322DF
:10B2200005F004F997E70C485C211AF005FE08B117
:10B230005C21E3E70849E5E707485C211AF0FCFDDB
:10B2400008B15C213AE704493CE730BF91E700BF11
:10B250006831002064310020906704000010014034
:10B2600034680400F4670400B86704005431002017
:10B27000D26704001368040007B500230146ADF847
:10B2800000306A46044B019344F20200FFF7F4FEDB
:10B2900003B05DF804FB00BFDF6A04000146102222
:10B2A00001481AF0E9BC00BFB038002010B50C4CC2
:10B2B0000C49082220461AF0DFFC08220A49A0188F
:10B2C0001AF0DAFCA37903F00F0343F04003A371F3
:10B2D000237A03F03F0363F07F03237210BD00BFA6
:10B2E000B038002060000010A40000100048704733
:10B2F000B03800200022064913460132202A4B8034
:10B300004B6001F8083BF8D1024A1360704700BF58
:10B31000C0380020C0390020F0B50C4B0C4D1B6824
:10B32000044620227BB1013B15F8330050B105EBF8
:10B33000C3067788A74202D176688E4202D0013ACE
:10B34000F0D11046F0BD1F23EEE700BFC03900204A
:10B35000C038002030B5094A094C136804EBC30516
:10B360001F2B69604FF0010104F83310194408BF26
:10B370000023688014BF1160136030BDC039002005
:10B38000C0380020C0F30C038B42084438BFA0F53E
:10B390000050C01A70470000F0B50D4B0D4A1E68F2
:10B3A00000218E4212D0156800230AE052F8044CA6
:10B3B00004EBC30714F83340844201D17868F0BD30
:10B3C00001339D42F2D101310832EAE70020F6E76D
:10B3D0004C3A0020543A002000B58DB048B9991C71
:10B3E00007D0012101A8CDE902328DF8041001F047
:10B3F0004FFA034B186803F031FF0DB05DF804FB02
:10B40000583A002010B50378044613B97846FFF780
:10B4100033FF607A431C01209840013810BD2DE9AC
:10B42000F0410E468EB015461C46074610B97846C8
:10B43000FFF722FF16B97846FFF71EFF636AA2786E
:10B4400002330593E378A2F10800002B14BF012119
:10B4500002210DF1040842424241434604F10C002E
:10B4600004F031F8A3788DF83430237BADF8205008
:10B47000022B16FA85F5CDE906870B960C950FD1B0
:10B48000236913B97846FFF7F7FE23690993102360
:10B4900005A8ADF8283004F012F80EB0BDE8F08130
:10B4A0000023F5E7B2F5C07F2DE9F04781468846D5
:10B4B000174602D97846FFF7DFFE244B00259A464F
:10B4C00093F848605EB9384608F035F8702404FBFC
:10B4D00005A4E06648B900242046BDE8F0870135A0
:10B4E000042D03F17003EBD1F5E7302249462046E5
:10B4F0001AF0C2FBB8F1010FE664A4F84A701BD140
:10B50000134BA4F852601B7D84F8513084F85060CE
:10B51000D9F8283063656FF00103A3620D4BA4F8DE
:10B520005860A3632464012002F09AFA702303FB9D
:10B5300005A585F84880CFE76FF00103A362064BAD
:10B54000A36584F86860054B2466EAE7743A002036
:10B550005C3A0020B5BC0200C9C20200ADBC0200CA
:10B5600010B50446C06E07F0E8FF04F1300003F0A8
:10B57000EFF894F84830022B03D104F1500003F0A7
:10B58000E7F82046702200211AF084FB002084F89E
:10B590004800BDE8104002F063BA10B590F848309A
:10B5A000012B8CB0044602D07846FFF765FE0123DC
:10B5B0008DF80430636D029303F00AF9039001A83B
:10B5C00001F066F92046FFF7CBFF0CB010BD10B5B7
:10B5D0000446808A02F0ECFC01281CD1237BD3B105
:10B5E00094F91620002A18DBE27D5AB1022B12D002
:10B5F00094F90330002B10DBA378002B0CBF002044
:10B60000072010BDE2780AB9012B06D1237833B99F
:10B61000A378042BF2E71020F3E70720F1E70020DE
:10B62000EFE700001FB500230A468DF80F3028B35E
:10B63000023008600DF10F01104603F042FF9DF843
:10B640000F30DBB1144B1B685B0717D5134B1B681E
:10B65000032B13DD12482F211AF0EEFB98B12F2196
:10B660000F481AF0E9FB411C0E4B0F4AD3F8043582
:10B670000092042040F2154204F0D8FE9DF80F001D
:10B6800005B05DF804FB06485C211AF0D5FB08B153
:10B690005C21E5E70249E7E76831002064310020DA
:10B6A0004D680400001001406A68040070B504464B
:10B6B000D4E906122378808A8CB0D3B1E38805F0F0
:10B6C000ABFE054690B1A68AE4692C22002101A8B0
:10B6D0001AF0E0FA04F001040F2301A88DF80430F9
:10B6E000ADF80860ADF80A4001F0D2F828460CB079
:10B6F00070BD05F08DFEE4E72DE9F04F9846137814
:10B70000D2F818A0F3B006460D46144623B1D188EE
:10B710005046FFF737FE9061E378A278002BA2F144
:10B7200008000DF10C0914BF0121022104F10C07DE
:10B7300042424B464241384603F0C5FEA3788DF89D
:10B740003C30ADB2E81A80B2CDE90896E378C4F88F
:10B7500018A006440E964FF0000912AEADF828006E
:10B760000D96ADF83090002B65D04FF0100B04F122
:10B77000240A237BC4F82490022B02BF2369ADF86E
:10B7800030B00B93206A2179524615F0E3FE606ACF
:10B7900030BB237B022B05D1E089394615F09EFF93
:10B7A0000028E6D1374B1B685B0741D5364B1B6839
:10B7B000052B3DDD35482F211AF03EFB002858D0DF
:10B7C0002F2132481AF038FB411C314B314AD3F853
:10B7D00004350092062040F2017204F027FE27E0B3
:10B7E00007A9FFF71FFF0028CCD02046FFF75EFF18
:10B7F000F0B9A1780B906D1A8DF81C0097E8030042
:10B80000A38AADF82A3001220CAB8DF8282083E8FA
:10B810000300A37D8DF84030236A0E9307A8636A66
:10B820000896ADF824500F93CDF8448001F030F81D
:10B8300073B0BDE8F08F227B012AB3D1A146E08925
:10B84000B4F814A049F8243F494615F0C5FE606AD3
:10B8500007A9FFF7E7FE0028C7D1606249465046B6
:10B8600015F0BAFE606A07A9FFF7DCFE002899D040
:10B87000BBE706485C211AF0DFFA08B15C21A0E7BB
:10B880000249A2E768310020643100204D680400BD
:10B89000001001407D680400C37D0A7830B5002B9C
:10B8A0003DD0C37822F07F0203F07F031A430A7071
:10B8B0000B78027803F07F0343EAC2130B7003781E
:10B8C00063B38378083B5A425A414B7803F07F03B5
:10B8D00043EAC2134B708A78C58802F00302C5F3AD
:10B8E000861442EA850223F07F032343D2B28A7092
:10B8F0004B70CB78057A03F01F03C5F3C10422F027
:10B90000030243EA45132243DBB2CB708A70427ACA
:10B9100023F01F0302F01F021343CB7030BDC47825
:10B9200022F0400343EA8413DBB20B70027923F068
:10B930003F0302F03F0213430B70B9E72DE9F04FCC
:10B94000824689B00D4609B100220A600AF10C0353
:10B950009AF85040019301274FF0000B9AF8090024
:10B96000A04203D2002009B0BDE8F08FDAF84C10F5
:10B9700007FA04F20A4264D19AF81720019B8AF868
:10B980000840002A0CBF0C26082684429AF80020A2
:10B99000029306FB04F908BFBAF84A608DF818B0A4
:10B9A00008BFA6EB0906002A14BF4FF004084FF0A9
:10B9B000010806EB08020492DAF82820039202A894
:10B9C000DAF82C20059203F020FF0028CBD1079A4B
:10B9D000904454B99AF853203AB9DAF818208AF802
:10B9E0005370C2F30C02AAF806209AF817209AB9ED
:10B9F0009AF8522082B914B17846FFF73DFCBAF8A4
:10BA00004A109AF802208A1ADAF86C10534608464F
:10BA1000FFF705FD8AF8527007995046FFF73CFF83
:10BA2000DAF86C103246494440461AF025F902A86B
:10BA300003F00CFF15B12A6801322A60621C8AF8F3
:10BA400050200134E4B289E738B590F84830012B32
:10BA5000044602D07846FFF70FFC02F0B9FE237BC4
:10BA6000074A012B05BFD2E90315A37DD16805FB69
:10BA70000311014404F13000BDE8384002F07FBEFC
:10BA80005C3A0020F0B5C37D16468278002B324424
:10BA900014BF4FF480734FF4C0739342C7B00F4686
:10BAA0007DD3424B002493F84810012907D19D8A89
:10BAB000818A8D4203D1DD89C1898D4271D00134E3
:10BAC000042C03F17003EED10121FFF7EBFC0546D6
:10BAD000002844D032463946C06E1AF0CDF8002313
:10BAE00004A928460493FFF729FF30F00404064612
:10BAF00050D1049B13B12846FFF7A6FF2C4B1B68BF
:10BB000013F004034FD02B4B1B68032B27DDB5F834
:10BB10004A00294B802805AA1F6828BF80200023DF
:10BB20001646834202F102021CD10022234806F885
:10BB300013202F211AF080F918B32F211F481AF073
:10BB40007BF9411C1E4B1F4AD3F8043501921E4A53
:10BB5000009202964FF4AC62042004F067FC204689
:10BB600047B0F0BDE96EC95C4FEA111C01F00F014E
:10BB700017F80CC002F802CC795C02F8011C013302
:10BB8000CFE70E485C211AF057F908B15C21D5E7E0
:10BB90000A49D7E72846FFF7E3FC3446DFE70924E4
:10BBA000DDE70824DBE71C46D9E700BF743A002034
:10BBB00068310020643100206C3100204D680400A1
:10BBC00000100140A66804000E600400F0B50D46A8
:10BBD00091B0044610B97846FFF74EFB94F8483010
:10BBE000022B18D1E188A069FFF7CCFB284AE16954
:10BBF00013680F0A0E06591C1160264A361803F006
:10BC000007034FEA031147F1000702EB0313A08A71
:10BC10005052C3E902672C22002105A8666D1AF074
:10BC200039F8102305A88DF8143006968DF81C50AD
:10BC300000F02EFE2046FFF793FC174B1B685B07B6
:10BC40001BD5164B1B68032B17DD15482F211AF047
:10BC5000F3F8A0B12F2112481AF0EEF8411C114B55
:10BC6000D3F80435029594F8482001920E4A0092C8
:10BC7000042040F2F31204F0D9FB11B0F0BD0848E3
:10BC80005C211AF0D9F808B15C21E4E70449E6E741
:10BC9000483A0020C8390020683100206431002073
:10BCA0004D68040000100140B468040008460021FB
:10BCB000FFF78CBF10B591F84830012B0C4602D02D
:10BCC0007846FFF7D9FA94F851305BB1013B84F81C
:10BCD0005130002384F85030084BBDE810401868FC
:10BCE00003F0BCBA217B0129204603D1BDE81040F6
:10BCF000FFF76CBFBDE81040FFF74FBC583A00207B
:10BD00002DE9F04306468FB010460F46154698467B
:10BD1000FFF7CCFC044600285ED195F80390B9F1FA
:10BD2000000F40F0AA80062F56D130787378820138
:10BD300002F4FE5242EA9302604B1F4693F8481009
:10BD4000012928D1B3F814C0E9898C4523D1D988B9
:10BD5000914220D1B3F858C0A98ABCF1000F01D09C
:10BD60008C4518D110F0800FD6F802204FF07003E8
:10BD70003ED003FB0473A3F85810702000FB04743A
:10BD800012BAE56C1543E564002A63D1032120460D
:10BD9000FFF71CFF20E00134042C03F17003CDD128
:10BDA000474B1B685B0717D5464B1B68012B13DD00
:10BDB00045482F211AF040F888B12F2142481AF047
:10BDC0003BF8411C414B424AD3F804350092022013
:10BDD00040F2776204F02AFB0FB0BDE8F0833A48E6
:10BDE0005C211AF029F808B15C21E7E73649E9E758
:10BDF00003FB0473DB898B42BFD0314B1B685A07AE
:10BE0000EAD5304B1B68012BE6DD2F482F211AF0B5
:10BE100013F8B0B12F212C481AF00EF8411C7020F5
:10BE20002A4BAA8AD3F80435029200FB047402203C
:10BE3000E2890192274A009240F27B6204F0F6FA0E
:10BE4000CAE721485C2119F0F7FF08B15C21E2E75D
:10BE50001D49E4E72046FFF7D5FA854203D1204685
:10BE6000FFF79BFBB8E7002184F850102046FFF74E
:10BE700065FD2046FFF7E8FDAEE74846FFF78CFA80
:10BE800002460028A8D0D5E903012B6A0B93AB8AA0
:10BE9000ADF8223009AB83E80300AB7D8DF830307C
:10BEA0002B788DF82030EB6A8DF81490CDE9066779
:10BEB0000D93414605A890478EE700BF743A0020D5
:10BEC00068310020643100204D68040000100140FA
:10BED000D768040005690400F0B589B005460E4630
:10BEE0000192FFF774FB044638B92B78019A3BB1F5
:10BEF00031462846FFF7C6FD0446204609B0F0BD8E
:10BF0000E97DAB7801920029134414BF0B210F2166
:10BF10008B4226D80133049305F10C030293AB6ADC
:10BF200003938DF81800EB6A059302A803F06DFCEB
:10BF300004460028E1D1079928464F1CFFF7ACFCC6
:10BF4000EB7D019A3BB13146384619F095FE02A8C7
:10BF500003F07CFCD1E72B4639463046FFF75FFA09
:10BF6000F5E70924C9E7000010B54FF4E07200219D
:10BF7000134819F08FFE002405F036FB114B1248D0
:10BF80001C602146802219F085FE104B1049114A91
:10BF900011489C75C3E9001210494CF25032C3E9B4
:10BFA00002211A6140F604029A8203F039F90C4B1F
:10BFB00018600C4B0C481C60BDE8104005F024BC18
:10BFC000743A0020483A0020C83900205C3A00202A
:10BFD00080969800F0490200C5C7020020A1070022
:10BFE000583A00204C3A0020D9B3020005F008BAB4
:10BFF00030B504468DB000285FD00369002B5CD0BB
:10C00000C369002B59D08569002D56D05A788DF818
:10C0100004201A780993838A82F001020B2B8DF891
:10C020000320027B09D90121022A8DF8001001D1D9
:10C03000234A927D5AB904220AE0C17A0029F2D13A
:10C04000012A0CBF012200228DF8002031D10822E4
:10C0500013448DF802200B330C22B3FBF2F3013BA7
:10C060008DF8093000238DF8083094E80300002390
:10C070008DF8173003AB83E803002389ADF8143043
:10C08000A37A8DF81630236A0A932046DF23089599
:10C090000B9315F0C3FB28B12378012B14BFFF23AA
:10C0A00020230B93A28A21696846FFF715FF0DB084
:10C0B00030BD04238DF80230D7E70E20F7E700BF2C
:10C0C0005C3A002030B50A4691B00446002860D0A2
:10C0D0004368002B5DD08569002D5AD003788DF818
:10C0E000133000230D9383680B2B94BF017B012138
:10C0F00001F001008DF8100000208DF8120031B120
:10C100000733DB08013B8DF819308DF81800D4E9AE
:10C11000040101238DF8273007AB83E80300E3898E
:10C12000ADF82430237F8DF82630236A0C95CDE9B5
:10C130000E23194B1B685B071BD5184B1B68062B7E
:10C1400017DD17482F2119F077FEC8B12F211448A9
:10C1500019F072FE411C134BA269D3F80435029208
:10C1600022780192104A0092072040F6030204F060
:10C170005DF9D4E9011204A8FFF7AEFE11B030BD9D
:10C1800007485C2119F058FE08B15C21DFE704493B
:10C19000E1E70E20F2E700BF6831002064310020A3
:10C1A0004D680400001001404669040070B5037B2F
:10C1B000012B90B004460D4677D13D4B1B685B07C1
:10C1C00018D53C4B1B68032B14DD3B482F2119F07D
:10C1D00033FE00285ED02F21374819F02DFE411C78
:10C1E000364B374AD3F804350092042040F26322DC
:10C1F00004F01CF904AE0B220021304619F04AFD70
:10C200009DF81130E288089603F0030343EA8203A5
:10C210008DF811302B0E8DF812302B0C8DF8133059
:10C220006378022B0CBF80230023C2F3861242EAFC
:10C2300003024FF0060309934FF001038DF82C30F1
:10C24000A38AADF82E304FF000036DBA8DF81020A0
:10C250000C93226A8DF81C308DF82830E36AADF813
:10C2600014500D920F931ED10DF10E0103A815F07D
:10C27000C5FABDF80C30ADF82A30A37D0BB1114BD7
:10C280005B7D8DF838306FF0010107A8FFF71AFFCA
:10C2900010B070BD08485C2119F0CEFD08B15C21DA
:10C2A0009AE705499CE7E389E5E70020F0E700BF4E
:10C2B00068310020643100204D6804000010014006
:10C2C000716904005C3A002010B591F84830022BE7
:10C2D0000C4602D07846FEF7CFFF022384F8683080
:10C2E00094F84830022B06D1E16C2046FFF75EFF40
:10C2F00008B984F8680010BD2DE9F04F0D469DB0D7
:10C30000174698460446002800F05882002A00F09C
:10C31000558221B9092630461DB0BDE8F08F18229C
:10C32000394613A819F0A8FC237894F900100020CE
:10C33000DA0981428DF84020B4BF042201229542DF
:10C340008DF84100E6D39DF85760EEB103F07F030E
:10C3500081428DF843308DF842002EDA6278A3785E
:10C36000920102F4FE5242EA9302ADF84620DB004D
:10C37000E27803F0180343EA521302F01F028DF82B
:10C3800048308DF8492018E0C3F38010002903F0ED
:10C390003F038DF843008DF8443008DA94F90130FA
:10C3A000002BB4BF082304238DF84230D6E70423C2
:10C3B0001A4495428DF84230ACD30023199398F873
:10C3C0000030032B02D97846FEF756FF98F800207C
:10C3D000CB4B10A853F822301B93FFF7F8F8064612
:10C3E000002898D10146082203A819F053FC788848
:10C3F00003A915F073F928B19DF8413043F001030A
:10C400008DF84130D7E90312388905F033F8002858
:10C4100055D19DF84130002B3FF47DAF13F001035F
:10C420001CBF049A14929DF84020002A00F0B481A9
:10C43000BDF846101698FEF7A5FF179BBDF854C02F
:10C44000B0494FEA036A4FEA132B1AEB000A4FF088
:10C4500000074BF1000B0B88634506D1D1E902239D
:10C460009B4508BF92453FF456AF0137082F01F1B5
:10C470001001F0D1A44B4FF00009184693F8482062
:10C48000022A25D19A8A624522D1702303FB090929
:10C49000B9F80610D9F81800FEF774FFD9F81C1087
:10C4A0000A0612184FEA112343F100035B4508BF47
:10C4B000524535D205214846FFF788FB0FE09DF82D
:10C4C000413003F0FE038DF84130002BA1D122E76B
:10C4D00009F10109B9F1040F03F17003CED1DDE9CF
:10C4E0001612BDF84630BDF8540004F0EDFF0028E8
:10C4F00000F0C980DDE91612BDF84630BDF85400E1
:10C5000005F018F800283FF406AF10A8FEF77AFFF0
:10C51000014610A8FFF74AFE10A8FFF7C7F8FAE691
:10C520009B4508BF9245FFF4F6AE784B1B685B074E
:10C530001CD5774B1B68032B18DD76482F2119F08B
:10C540007BFC002800F00E812F21724819F074FC4A
:10C55000411C714B9DF84820D3F8043501926F4A75
:10C560000092042040F2A33203F060FF99F84830B3
:10C57000022B02D07846FEF77FFEDFF8A8A1DAF89A
:10C5800000B002F025F90BEB000109F1300002F0D8
:10C59000F6F899F80C30012B1AD199F86830BBB92C
:10C5A00099F84830022B02D07846FEF765FEDAE9AA
:10C5B00001329AF8151002FB013A02F009F900EB7A
:10C5C0000A0109F1500002F0DAF8012389F8683015
:10C5D0009DF84810D9F84C3001228A4013EA020A2B
:10C5E0007FF499AE1343C9F84C309DF8573099F851
:10C5F0000920002B14BF4FF0080E4FF00C0E8A429A
:10C60000A5F104050EFB01FE40F0B5800EEB05031D
:10C61000A9F84A30D9F81820169B9A420AD20DF18F
:10C620004C0CBCE80F0009F10C070FC79CE8030095
:10C6300087E80300D9F86C00211D2A46704419F0E0
:10C640001BFB4846D9F84C40FEF7DCFE84427FF4E1
:10C6500062AED9F84C104846FFF7A8FD99F80130B2
:10C66000DA070CD599F81730D9F86C00B9F84A10E8
:10C67000002B00F08C8043464A46FFF741FB4846BA
:10C68000FEF76EFF81E09DF857209DF84930002AA3
:10C6900014BF4FF008094FF00C0903FB099914BFB0
:10C6A0004FF480734FF4C07399453DD9174B1B6805
:10C6B00059077FF530AE164B1B68002B7FF72BAE6A
:10C6C00014482F2119F0B8FB88B12F21114819F017
:10C6D000B3FB411C104B124AD3F804350092CDF83D
:10C6E000049040F27F32012003F0A0FE13E60948D7
:10C6F0005C2119F0A1FB08B15C21E7E70549E9E7F6
:10C70000A8690400C8390020743A0020683100206C
:10C71000643100204D680400001001409569040058
:10C72000816904005C3A00204A46022110A8FEF705
:10C73000B9FE814600287FF4F8AE014610A8FFF745
:10C7400035FD2C22494605A819F0A4FA10238DF8CE
:10C75000143005A80223CDF818908DF81C3000F095
:10C7600097F8D8E516485C2119F066FB08B15C2102
:10C77000EBE61349EDE6002B08BF0C27BD423FF462
:10C7800049AF04214846FFF721FA0026C3E5434696
:10C790004A46FEF7B1FF72E7002B3FF4BCAD9DF8AF
:10C7A0005730601C691E23B1434610AAFFF7A8FA50
:10C7B000B1E5434610AAFEF79FFFACE50E26AAE5B9
:10C7C0004D680400F7B5184C00262546374695F805
:10C7D0004830012B0BD101A928460197FFF7AEF88D
:10C7E000042801D0019B13B12846FFF72DF901362B
:10C7F000042E05F17005EAD1002594F84830022B8B
:10C800000AD194F86830022B06D1E16C2046FFF77C
:10C81000CDFC08B984F868000135042D04F17004DA
:10C82000EBD1012003B0F0BD743A00202DE9F843AC
:10C830000F46064610B3144B1C689846E4B92546CB
:10C8400000F10409BD4208D1104BC3E90065012382
:10C85000C8F800302046BDE8F88359F835306BB190
:10C8600016F9353016F83500002B09DB50B1FEF70C
:10C8700093FD38B90135E5E70424EBE70E24E9E739
:10C880000B24E7E70F24E5E74C3A0020503A00205C
:10C89000F8B5074610B97846FEF7EEFC104E34683E
:10C8A00084B1104D01232B7023791BB954F8043C3B
:10C8B000384698472468002CF6D12B78022B02D0FA
:10C8C00000232B70F8BD3168054C0029F8D00B7996
:10C8D0000E6813B1204603F02FFD3146F5E700BF87
:10C8E000383C0020343C002010B5044610B978468E
:10C8F000FEF7C2FC00232372211D0248BDE8104050
:10C9000003F0F9BC383C002010B5044610B9784655
:10C91000FEF7B2FC074A1378013B012B04D802232F
:10C9200013700123237210BD211D0348BDE8104080
:10C9300003F002BD343C0020383C00200B888268A4
:10C94000D25A073222F00302134402889BB2043AFF
:10C95000934288BF00230B80704713B58368C91AC0
:10C96000ADF806100DF10601FFF7E8FFBDF806303F
:10C970008068184402B010BD70B5064615460C46D6
:10C9800011B97846FEF778FC16B97846FEF774FCC4
:10C99000B4F1005F24D94FF08053D3F80C3103F584
:10C9A0000023B4EB832F1ED26B1E2344B3F1005F30
:10C9B00026D94FF08052D2F80C2102F50022B3EBB9
:10C9C000822F20D2042D02D87846FEF755FC358000
:10C9D0000023043D7380B380B4602580A37070BDD4
:10C9E000B4F5000F08D94FF08053D3F80C3103F59C
:10C9F0000053B4EB832FD7D37846FEF73DFCD3E743
:10CA0000B3F5000F08D94FF08052D2F80C2102F58F
:10CA10000052B3EB822FD5D37846FEF72DFCD1E739
:10CA200038B5044610B97846FEF726FC6288A3683C
:10CA300013449B78012B02D17846FEF71DFCEFF3DF
:10CA4000108572B6A268A18811448B78032B0AD195
:10CA50002046FFF782FFA368C31A63800023837018
:10CA600005B962B638BD002393706380A380F7E7F1
:10CA7000F8B50E461546044610B97846FEF7FCFB9D
:10CA800016B97846FEF7F8FB6288A36813449B78D2
:10CA9000012B02D17846FEF7EFFB002D37D023881B
:10CAA000043B9BB29D4232D8EFF3108772B6628886
:10CAB000A388E81D20F003009A4280B204D29B1A9A
:10CAC000984210DD042016E018D92188891A814285
:10CAD00009D29842F6D8032981BFA3689B18042283
