:020000040001F9
:10C00000507C0020C1C30100C9C30100CBC30100A3
:10C01000CDC30100CFC30100D1C301000000000067
:10C02000000000000000000000000000D3C3010079
:10C03000D5C3010000000000D7C30100D9C301002F
:10C04000ED300200DBC30100A5330200DBC30100B9
:10C05000DBC30100F92E0200552E0200DBC30100F4
:10C06000DBC30100DBC30100DBC30100DBC3010054
:10C07000DBC3010045310200DBC30100DBC301006B
:10C08000DBC301006D310200DBC30100DBC3010033
:10C09000DBC30100DBC301007D310200DBC3010013
:10C0A000DBC30100DBC30100DBC301005533020029
:10C0B000DBC30100DBC30100000000000000000042
:10C0C000DBC30100DBC30100DBC30100DBC30100F4
:10C0D000DBC30100DBC30100DBC30100DBC30100E4
:10C0E000DBC30100DBC3010099C5010000000000B3
:10C0F00000000000DBC3010000000000DBC3010002
:10C10000000000000000000000000000000000002F
:10C11000000000000000000000000000000000001F
:10C12000000000000000000000000000000000000F
:10C1300000000000000000000000000000000000FF
:10C1400000000000000000000000000000000000EF
:10C1500000000000000000000000000000000000DF
:10C1600000000000000000000000000000000000CF
:10C1700000000000000000000000000000000000BF
:10C1800000000000000000000000000000000000AF
:10C19000000000000000000000000000000000009F
:10C1A000000000000000000000000000000000008F
:10C1B000000000000000000000000000000000007F
:10C1C000000000000000000000000000000000006F
:10C1D000000000000000000000000000000000005F
:10C1E000000000000000000000000000000000004F
:10C1F000000000000000000000000000000000003F
:10C20000DFF80CD000F08AF900480047697D020091
:10C21000507C002030B450E8012F93B2C4892344ED
:10C220008489A34228BF1B1B0489A34202BFBFF31A
:10C230002F8F002007E0C3EA020340E80134002CFE
:10C24000E9D14FF001000A6030BC704750E8012F7F
:10C25000C2EA024240E801210029F7D1704730B418
:10C2600050E8022F1FFAA2F3C488A34202BFBFF313
:10C270002F8F00200DE0C48923448489A34228BF66
:10C280001B1BC2EA034340E80234002CE8D14FF004
:10C2900001000A6030BC704750E8022FC2EA224217
:10C2A00040E802210029F7D17047034653E8022FE6
:10C2B000D988B2EB324F4FF0000017BF92B241EA7B
:10C2C000014142EA014104E05A68B2EB324F08BF33
:10C2D000012043E80212002AE8D1704730B4044636
:10C2E00054E8000F0D4644E80053002BF8D11560C8
:10C2F00030BC704730B4044654E8000F40EA0105F2
:10C3000044E80053002BF7D1156030BC704730B4BF
:10C31000044654E8000F00EA010544E80053002BEE
:10C32000F7D1156030BC704730B4044654E8000FB4
:10C3300080EA010544E80053002BF7D1156030BCBA
:10C34000704730B4044654E8000F00EB010544E8A0
:10C350000053002BF7D1156030BC704730B4044651
:10C3600054E8000FA0EB010544E80053002BF7D17F
:10C37000156030BC704770B404464FF0000054E8BC
:10C38000006F0D68AE4207BF44E80023012044E877
:10C3900000630E60002B1CBF0020F0E770BC7047EC
:10C3A00030B4044654E8000F88422CBF451A0546B5
:10C3B00044E80053002BF5D1156030BC70470000F5
:10C3C0000648804706480047FEE7FEE7FEE7FEE72F
:10C3D000FEE7FEE7FEE7FEE7FEE7FEE7813102004B
:10C3E00001C201002DE9F05F0546002092469B4600
:10C3F00088460646814640241BE02846414647467B
:10C40000224600F02FF853465A46C01A914110D3E5
:10C4100011461846224600F016F82D1A67EB01085F
:10C420004F4622460120002100F00DF817EB0009CD
:10C430004E41201EA4F10104DFDC484631462A4665
:10C440004346BDE8F09F202A04DB203A00FA02F1BF
:10C45000002070479140C2F1200320FA03F31943F2
:10C4600090407047202A04DB203A21FA02F0002194
:10C47000704721FA02F3D040C2F1200291400843F4
:10C4800019467047004870470016030010B5441A5B
:10C490000346944209D28418114403E011F8013D87
:10C4A00004F8013D521EF9D210BD40EA0104A40770
:10C4B00003D009E010C9121F10C3042AFAD203E006
:10C4C00011F8014B03F8014B521EF9D210BDD2B244
:10C4D00001E000F8012B491EFBD270470022F6E76D
:10C4E00010B513460A4604461946FFF7F0FF2046EA
:10C4F00010BD421C10F8011B0029FBD1801A7047A7
:10C5000030B504460020034600E05B1C934203D292
:10C51000E05CCD5C401BF8D030BD0000064C074D00
:10C5200006E0E06840F0010394E807009847103403
:10C53000AC42F6D3FFF768FEC0590300E059030090
:10C5400070B58C1810F8015B15F0070301D110F8D5
:10C55000013B2A1106D110F8012B03E010F8016B02
:10C5600001F8016B5B1EF9D12B0705D40023521E85
:10C570000DD401F8013BFAE710F8013BCB1A921CED
:10C5800003E013F8015B01F8015B521EF9D5A142EB
:10C59000D8D3002070BD00000B490C4B0C4A4FF063
:10C5A000FF3008601B68BFF35B8F52E8001F42E852
:10C5B00000300028F9D1BFF35B8F9942F3D1BFF36C
:10C5C0005F8F044A1360704704BA025000BA0250E9
:10C5D000485C002008BA02509942F0B50DD801EB32
:10C5E00003044FEA540467D3002C7DD04FF0000CB5
:10C5F000171F2146051F624632E003F1804C0CF103
:10C60000FF3C051F002600EB8C0C05EB810E344629
:10C610005CF8047FE64546EA0706F9D116F1FF37D4
:10C6200044F1FF3C6FEA0C0C99420CF0010C3ED235
:10C6300001F1804E0EF1FF3E171F02EB8E0507EB56
:10C64000830355F8042FAB4246EA0206F9D116F1EE
:10C65000FF3644F1FF32D24302F0010291B3051FCD
:10C66000002305EB810E28463C46194650F8046F1E
:10C6700054F8045FAE4218BF002103F0010318BF55
:10C68000002388BF41F0010138BF43F00103864514
:10C69000ECD1A9B182F00100BCF1000F00D108403B
:10C6A0008CF0010402B91C4000EB4400F0BDC3B1A2
:10C6B000171F19460022D3E700263446B446B7E7D1
:10C6C000002BE7D1BCF1000F03D132B16046144614
:10C6D000EAE782F001000023E2E710461346144621
:10C6E000E1E760461C46DEE720462346DBE700BF65
:10C6F000F0B4441831B114F8015D4E1E15B931463D
:10C700000029F8D1D41833B114F8015D5E1E45B983
:10C710003346002BF8D10D1E18BF01252846F0BC6A
:10C7200070478B4222D325D84C1EA64228BF2646EE
:10C73000002E23DB013694190025821904E0012D17
:10C7400038BF012590420BD012F8016D14F8017D1D
:10C75000B742F4D3F6D9002D08BF02259042F3D199
:10C760008B4218BF00252846F0BC7047012528469B
:10C77000F0BC704702252846F0BC70470025EFE763
:10C7800088420CD030B413466FF04045033305EBBC
:10C790009303002540F8235030BC05F09FBD70473F
:10C7A000814202D0920005F099BD704730B40AB3BF
:10C7B00000B3DBB113F0030518D18B4216D3A9B136
:10C7C000904208D002D91344984217D3904202D223
:10C7D00043189A4212D91144431E11F8014D03F82F
:10C7E000014F8A42F9D1284630BC7047044D284693
:10C7F00030BC7047034D284630BC7047024DF6E709
:10C80000050DF000040DF000060DF000002A48D0E0
:10C810002DE9F0410446002845D015465A1E053240
:10C8200034D811F0030631D18B422FD8CF1C27F01A
:10C8300003028A4232D8A2EB030840441A46294632
:10C8400005F04CFD414620464FEA970805F04AFDA9
:10C85000B8F1010F1DD0FF0804EB87000438231F37
:10C8600004EB880553F8042F55F8041D12BA09BAD1
:10C87000834219602A60F5D118F0010007D054F8FE
:10C8800027301BBA44F82730002000E00748BDE8F5
:10C89000F08123681BBA30462360F8E70448BDE8FE
:10C8A000F081044870470348F1E700BF050DF00030
:10C8B000090DF000040DF0004218084630B112F8DE
:10C8C000013D411E1BB908460028F8D170471A06E1
:10C8D0004FEAC00018D4590600F1FF3215D499066A
:10C8E000A0F1020211D4D906A0F103020DD4190758
:10C8F000A0F1040209D45907A0F1050205D49B0751
:10C90000A0F1060201D4073870471046704700BFF7
:10C91000A1B100EB810001E001390FD050F8043DD6
:10C92000002BF9D04801A0F1200202E0013890422A
:10C9300006D0002B4FEA4303F8DA704708467047E9
:10C94000704700BF3AB10A44013812F8013D00F8BF
:10C95000013F8A42F9D10020704700BF2DE9F04124
:10C96000002940D016461F460A682B4B9A420C46B7
:10C9700031D1054600283AD00268013B9A422ED1B7
:10C98000002E45D0002F45D0069BB3B300F1940193
:10C990004FF4377204F1500005F086FC0435211D78
:10C9A00068BBD4F808333A680733B2EBD30F4FEAC9
:10C9B000D3081ED3069B2846324601F0E1FD04460B
:10C9C000F8B9C7F8008006984FF4537105F08AFC57
:10C9D0002046BDE8F081114C2046BDE8F081104CA6
:10C9E0002046BDE8F0810F4C2046BDE8F0810E4C9A
:10C9F000F2E70E4CC7F80080EEE70D4CECE70D4C6B
:10CA0000EAE73968304605F06DFC00233B60DAE761
:10CA1000094CE1E7094CDFE7020000EC3408F000C4
:10CA20003208F0003308F0003108F0003808F00058
:10CA30003708F0003A08F0003508F0003608F0003A
:10CA40002DE9F04F83B060B30C4651B3174642B3A3
:10CA50001E4633B30E9B23B30C9B13B30D9B002BCD
:10CA600037D0054601F0CEF92168426AB1EBC20F1A
:10CA700081464FEA820A4FEAC20B2DD332685245F3
:10CA80002AD3DDE90C030E9A1FFA8AF198478046F3
:10CA900068B10E98514605F025FC404603B0BDE84C
:10CAA000F08FDFF84080404603B0BDE8F08F0E9B6A
:10CAB00003F1200200924B460E9A2946384601F0B7
:10CAC000A5F980460028E4D1C4F800B0C6F800A05B
:10CAD000DFE7DFF81480E0E7DFF81080404603B0BE
:10CAE000BDE8F08F0023F0000523F0000123F000E3
:10CAF000F0B583B0099F98B116468AB11C467BB148
:10CB0000089B6BB167B10A9B53B123683F2B04D9D3
:10CB10003B681F2B01D9202905D00C4803B0F0BD7C
:10CB20000B4803B0F0BD054601F06CF90A9A00927B
:10CB300003462A460898314601F068F90028EDD1ED
:10CB40004022202322603B60E8E700BF0123F00081
:10CB50000023F0002DE9F04782B0002A37D01E46AE
:10CB6000002B34D0804690B30F4681B30A9B73B339
:10CB70000C9B63B30B9B002B43D0144601F0A8FA27
:10CB80003268D0F88C30B2EB830F4FEA830A3AD385
:10CB90003B68534537D3436A0A981FFA8AF1224605
:10CBA0004FEA83090B9B98470546A8B10C984FF4B0
:10CBB000B07105F097FB4946404605F093FB2046CF
:10CBC000514605F08FFB284602B0BDE8F087104DB6
:10CBD000284602B0BDE8F0870C9BC7F800903946A4
:10CBE000009322465346404600F0A6F8054600282A
:10CBF000DCD10C98C6F800A04FF4B07105F072FBC0
:10CC0000E6E7044DE4E7044D284602B0BDE8F087AE
:10CC10003023F0000523F0003123F0002DE9F04F20
:10CC200085B0109F08B30C46F9B11646EAB19A4692
:10CC30000E9BD3B1CFB1054601F04AFA2268436A90
:10CC4000B2EB830F80464FEA830909D30F9B9945C6
:10CC500006D1D0F88C30BAEB830F4FEA830209D0AB
:10CC6000324B184605B0BDE8F08F314B184605B081
:10CC7000BDE8F08F131F07F1400A31463846009394
:10CC8000FFF77EFD0E994A465046FFF779FD009A60
:10CC90003968BB58CDE9011323F0404343F080438A
:10CCA000BB503B6807F1200B23F007033B60524663
:10CCB00058464346394601F027FC0390002832D1FC
:10CCC000009A0198029B3860BB505946D8F824203E
:10CCD0002846FFF765FD039BC4F80090BE4205D0CF
:10CCE00049463846009305F0FDFA009B5D4505D0A6
:10CCF00058464946009305F0F5FA009B0E9A5245B6
:10CD000005D049465046009305F0ECFA009B00938D
:10CD100007F160004FF4807105F0E4FA009B1846BB
:10CD200005B0BDE8F08F034BD8E700BF3123F0001A
:10CD30003023F0003423F0002DE9F04F85B00E9F32
:10CD4000002854D00C46002951D01646002A4ED057
:10CD5000002F4CD09A46054601F0BAF92268416A84
:10CD6000D0F88C30B2EB810F80464FEA81094FEA50
:10CD7000830337D39A4535D1AAF1040B5246314685
:10CD80003846FFF7FDFC57F80B303A68CDE9012330
:10CD900023F0404343F0804347F80B303B6807F1F2
:10CDA000200A23F007033B605046434608F128025F
:10CDB000394601F0A9FB0390F0B1174BBE4205D0F4
:10CDC00038464946019305F08DFA019B55450AD036
:10CDD00050464946019305F085FA019B184605B077
:10CDE000BDE8F08F0D4B184605B0BDE8F08F0C4B39
:10CDF000184605B0BDE8F08F0199029B396047F8ED
:10CE00000B305146D8F824202846FFF7C9FC039B75
:10CE1000C4F80090D2E700BF3423F0003123F000C3
:10CE20003023F0002DE9F04383B0002955D01D4692
:10CE3000002B57D00446002856D0D0F8B832B3F5AE
:10CE4000107F28D81646D0F8BC2201339A4222D847
:10CE500007324FEAD2081EB3464521D805F104092E
:10CE60000A46484633464C21FFF7D0FC074650BBE4
:10CE7000F11C46454FEA910117D04846FFF748FD9F
:10CE800008B321464FF4377205F1500005F024FA3B
:10CE9000164B2B6000E0164F384603B0BDE8F08318
:10CEA000144F384603B0BDE8F083D4F8BC3201918A
:10CEB0001F33C3F34F1304F1D8024846FFF78CFB2E
:10CEC00002280199D9D028464FF44C7105F00AFA8E
:10CED000094F384603B0BDE8F083084F384603B029
:10CEE000BDE8F083064FD7E7064FD5E7020000EC18
:10CEF0009508F0000B08F0000C08F0000908F0009D
:10CF00000A08F0000208F000F0B10B46F1B110B5CC
:10CF10000F4904688C4211D192B1D0F80C431168CA
:10CF20000734B1EBD40F0DD3021D18464C23FFF785
:10CF30003DFC084B002818BF184610BD064810BD20
:10CF4000064810BD064810BD0648704706487047A1
:10CF5000020000ECC508F000C208F000C308F000B1
:10CF6000C408F000C008F000C108F0002DE9F0434B
:10CF700083B0019300283DD01646002A67D002688E
:10CF80001F46354B9A4204461BD18FB3052914D056
:10CF9000072912D8D0F84C33C56C21F0020203F1F6
:10CFA0000709042A03F11F034FEAD9094FEA531373
:10CFB00005F0010522D0022907D0284803B0BDE8BA
:10CFC000F083274803B0BDE8F0833A6809F101080F
:10CFD00042453ED3304645F0020500F8015B9B0018
:10CFE000221D4946FFF7E2FB48BBC7F80080E5E792
:10CFF0001C48E3E71C4803B0BDE8F0833A684FEAF9
:10D00000490808F10108424523D3042930460CBFE2
:10D010000D4645F006059B0000F8015B221D4946C0
:10D020000193FFF7C3FB50B909F10100019B04F123
:10D030004C0230444946FFF7B9FB0028D5D03046B2
:10D04000396805F04FF9002308483B60B6E7084807
:10D05000B4E70848B2E700BF010000EC1508F00093
:10D060001A08F0001708F0001408F0001B08F00080
:10D070001608F0001808F0002DE9F04782B0DDE94D
:10D080000A98002A5CD01D46002B5ED0B9F1000F33
:10D090005DD0B8F1000F5CD0074600285BD08A460F
:10D0A000002948D0144618464FF44C7105F01AF97F
:10D0B0004FF45D71484605F015F9D4F8BC621F368F
:10D0C0007609B200013E04F1D801404605EB860620
:10D0D00005F002F9002373602B1DD4F8BC220093E5
:10D0E00051463846434600F013FB0646C8B1284671
:10D0F0004FF44C7105F0F6F848464FF45D7105F0B9
:10D10000F1F80C9B23B140F66811184605F0EAF8D7
:10D1100040464FF4537105F0E5F8304602B0BDE8E3
:10D12000F087204643464A46294601F093FA0646D0
:10D130000028E6D0DBE7094E304602B0BDE8F087B4
:10D14000074E304602B0BDE8F087064EE5E7064ED2
:10D15000E3E7064EE1E7064EDFE700BF9008F00088
:10D160000208F0000308F0000408F0000508F000D1
:10D170009108F0000B2804D8034B53F8203003B17A
:10D1800018470020704700BFCC390300F0B5BDB090
:10D1900004460E466846F02117461D4605F0A2F8E3
:10D1A000042C2FD8DFE804F030351F2E03000323B2
:10D1B00000938023294A1793294B2A4C3994CDE9AF
:10D1C0003A236846A047284CA0421BD032D828B347
:10D1D000B0F5720F3BD1254C6846F02105F082F87E
:10D1E00020463DB0F0BD224C224A399401230093E1
:10D1F00040231793204B6846CDE93A23A0471A4CA9
:10D20000A042E3D11D4CE7E7194C1A4A3994002398
:10D21000EDE7174C174A39940223E8E78FB1DEB1E6
:10D22000019BBBB93A463146684605F017FDA0425E
:10D23000E8D004D9124B984209D1124CCCE700280F
:10D24000C6D12946684600F023F80446C4E74FF4E7
:10D250007504C1E70C4CBFE70C4CBDE7491D02004B
:10D26000CDEB0100A5EE01000100F2000002F0008C
:10D2700051EE0100211B020049EB01000102F00008
:10D280000200F2000202F0000C02F0000302F000C3
:10D2900070B5002837D00E46002937D0026E0446FC
:10D2A000DAB91146012363602046D4F8E830984784
:10D2B000B0B9D4F8EC30204698470546C0B9236889
:10D2C0002066032B1CD8144A04F1080152F82320CD
:10D2D000304605F001F8284670BD00F16401E1E731
:10D2E000A0F57203022B13D8A0F5FF35284670BDB8
:10D2F000A0F57203022B0BD8A0F5FF35284670BDB0
:10D30000064D284670BD064D284670BD054DE2E726
:10D310004FF47505DFE700BFB82D03000102F000F0
:10D320000002F0000502F0002DE9F84300284FD07C
:10D330000E461446054639B1302A01D8930723D04A
:10D34000264F3846BDE8F883002A45D1DFF8A08093
:10D350004FF0FF31D8F8000004F0E4FF074648BB67
:10D36000402105F1840004F0BDFFA408D8F80000B6
:10D37000C5F8C44004F0F0FF0028E2D0184804F0DB
:10D3800039FF3846BDE8F883DFF864804FF0FF319D
:10D39000D8F8000004F0C6FF074678B905F1840903
:10D3A0004846402104F09EFF31464846224604F09C
:10D3B00093FFDAE70B4804F01DFFD1E7094805F1B8
:10D3C000840904F017FF4846402104F08BFFEBE787
:10D3D000054F3846BDE8F883044FB2E7040CF0006F
:10D3E000482D0300302D0300250CF000030CF00045
:10D3F000507C00202DE9F04F9DB0002800F03B81CB
:10D400001646002A00F03D810D4621B98B4658464C
:10D410001DB0BDE8F08FB14F04464FF0FF313868C2
:10D4200004F080FF002840F01981AD4BD4F8DC20D7
:10D430009A4216D0DFF8B8B22946304604F052FFBF
:10D44000D4F8C430002B40F00D81386804F084FF1C
:10D450000028DCD0A34804F0CDFE58461DB0BDE83E
:10D46000F08FD4F8D430DA0740F10E81D4F8CC3004
:10D47000113300F20F81D4F8D080B8F1040F05D039
:10D48000B8F1080F02D0DFF86CB2D5E7D4F8C420A9
:10D490000C2A00F2FC8004F14003029304F1840A98
:10D4A000002A00F0FD809200514604F1480004F08B
:10D4B00013FFD4F8C420029908F104039B000093E1
:10D4C00092005346204604F0DFFF83460028B3D184
:10D4D000034622465146204605F08EF98346002831
:10D4E000AAD104EB88090122D9F80C301BBA9B1889
:10D4F0001BBAC9F80C304FEA880B16D3D9F808309C
:10D500001BBA9B181BBAC9F808300ED3D9F80430DF
:10D510001BBA9B181BBAC9F8043006D354F828303C
:10D520001BBA13441BBA44F82830002309A8194633
:10D53000032204F033FD002840F0AF8001460823A9
:10D5400007AA09A8CDE9074B04F080FD002840F0A8
:10D55000A480494609A804F061FD002840F09D80A0
:10D56000614AD4F8D4301A4200F0A2802B0915F099
:10D570000F0B049300F0998001330493CDF80CB0A5
:10D580005B469D420DD0EA1A11463046059204F0E2
:10D59000A9FE059A3346314609A804F04DFC00283F
:10D5A0007BD104F1300B10220298594604F094FE0E
:10D5B0005846102104F096FE102306A90191CDF8DB
:10D5C00000B009A85A461946069304F073FC0028D7
:10D5D00063D1039AA81A3044594604F07DFED4F86A
:10D5E000D430DB0509D45A460298049B314602F038
:10D5F00009F8834600287FF41FAFD9F80C30049A4D
:10D600001BBAD3181BBAC9F80C3017D3D9F8083095
:10D6100001221BBA9B181BBAC9F808300ED3D9F8DF
:10D6200004301BBA9B181BBAC9F8043006D354F84F
:10D6300028301BBA13441BBA44F828305146012342
:10D640002246204605F0D8F8834600287FF4F4AE41
:10D65000D4F8CC300133C4F8CC30F1E6234804F0E0
:10D66000C9FDE2E60023C4F8C43004F1840040217F
:10D6700004F038FEE9E6DFF880B058461DB0BDE89A
:10D68000F08FDFF878B0C2E6DFF874B0D4E6DFF8E8
:10D6900074B0D1E6DFF870B0CEE6DFF870B0CBE65C
:10D6A0005046402104F01EFE1BE71023039368E759
:10D6B00004F1300318461021039304F013FE039B7A
:10D6C0001022194609A804F0B7FB0028E5D1D4F8C8
:10D6D000D43043F48033C4F8D43047E7507C002082
:10D6E000CDAB2301482D030000010100302D0300C4
:10D6F0000E0CF000210CF000270CF000000CF000E4
:10D70000080CF000040CF000070CF000360CF000E0
:10D7100030B4029D4DB1064D941EAC4202D830BCCF
:10D7200000F00CB8034830BC7047034830BC704769
:10D73000FDFF0700310CF000300CF0002DE9F04F38
:10D740002DED028B164687B007321C46D308129D7A
:10D750000393002800F0BC800F46002900F0BF8032
:10D76000002C54D0BDF80C1080462046FFF7A4F8DA
:10D770000228064640F2AA8003285DD12378032BB5
:10D7800040F2A480039B681C591E0123019304F0FE
:10D79000A9FD019B0493019B76429AB206F007060D
:10D7A0004FF0FF0A4AFA06FA08EE102A5E1E4FF6FC
:10D7B000FF72103B5FFA8AFA2E440292059318EE2C
:10D7C000101A2A464046B84700287DD133780AEA25
:10D7D00003033370049B102B40D0BDF80430224665
:10D7E00019462846FEF784FF022852D0029B013BCF
:10D7F0000293E4D13E4B03990193284604F072FD55
:10D80000019B184607B0BDEC028BBDE8F08F99B2C2
:10D810002A461C46B84703460028ECD1611E700713
:10D820006A5C42F080025CD16A540023184607B05B
:10D83000BDEC028BBDE8F08F039B00F10709A3EB61
:10D84000D90105EBD90004F04DFD4FEAD903B9F138
:10D85000870F019388BF102304939CE7059B05EB7A
:10D86000030904EB030B07E0002BB6D0B84758BB05
:10D8700033780AEA03033370102319465A464846A0
:10D88000FEF736FF0346022B4A464FF01001404692
:10D89000EAD1019B002BC8D0013DE918012315F8FE
:10D8A000012F13448D422B704FEA2323F7D1019BA4
:10D8B000013C2344022214F8011F0A449C422270B6
:10D8C0004FEA2222F7D1B0E7034694E7094B92E7EB
:10D8D000094B184607B0BDEC028BBDE8F08F074B33
:10D8E0008FE7764206F0070632416A5489E700BFA7
:10D8F000010CF000320CF000250CF000140CF000CC
:10D9000070B5002849D00D46002943D0244E044666
:10D910004FF0FF31306804F005FD90BB002004F0AB
:10D920002DFD50BB20462A46012104F0C5FE0446C9
:10D93000012004F023FDB8B9306804F00DFD50B9A2
:10D94000012004F01BFD08B9204670BD154804F005
:10D9500051FC204670BD144804F04CFC012004F03A
:10D960000DFD0028F0D0F1E70E4804F043FC3068CC
:10D9700004F0F2FC0028E3D0EDE70C4804F03AFC98
:10D98000D0E70B4804F036FC002004F0F7FC002838
:10D99000C8D0F2E7074C204670BD074C204670BD4A
:10D9A000547C0020602D0300482D0300802D0300CF
:10D9B000302D0300200CF000250CF00070B500297C
:10D9C00050D0044600284AD0294E0D4630684FF00A
:10D9D000FF3104F0A7FC002838D1002004F0CEFC71
:10D9E00058BB244BD4F8DC209A4213D1D4F8D4305D
:10D9F000DB073AD520462A46002104F05DFE0446A6
:10DA0000012004F0BBFC58B9306804F0A5FC78B9DB
:10DA1000204670BD0120184C04F0B0FC0028F3D063
:10DA2000164804F0E7FB306804F096FC0028EFD0BD
:10DA3000134804F0DFFB204670BD124804F0DAFB07
:10DA40000C4BD4F8DC209A42D0D0E3E70E4804F027
:10DA5000D1FB002004F092FC0028C2D0EDE70B4C73
:10DA6000204670BD0A4C204670BD0A4CC8E700BF76
:10DA7000547C0020CDAB23010E0CF000602D030080
:10DA8000482D0300802D0300302D0300250CF000ED
:10DA9000200CF000080CF00000284CD0F0B50D462A
:10DAA00089B0002938D00446E42104F01BFC01A908
:10DAB000204604F08FF910B1204809B0F0BD204F86
:10DAC0004FF0FF31386804F02DFC80BB002004F0DB
:10DAD00055FC40BB01A92A46204601F0BFFD064681
:10DAE000012004F04BFCD0B9386804F035FC78B95B
:10DAF000002EE1D12046E42104F0F4FB2946204623
:10DB0000FFF7FEFE0F4B002818BF184609B0F0BD06
:10DB10000D4804F06FFBEBE70C4809B0F0BD0C4872
:10DB200004F068FBE0E70B4804F064FBD2E70A4826
:10DB300004F060FBCAE70948704700BF110CF00011
:10DB4000547C0020120CF000482D0300200CF00043
:10DB5000602D0300802D0300302D0300250CF00004
:10DB60002DE9F04F97B0DDE920744FEA043E4EEA0C
:10DB7000844E4EEA83149D4D44F0045C9C012E6853
:10DB80000096009EF607FAD5229DDFF86482974E34
:10DB9000C8F800C0920142EA834242EA053545F0E6
:10DBA00010454FEA834832680192019AD207FAD5AC
:10DBB0008F4ADFF838C215604EEA811E4EF0104ED3
:10DBC0008E01DCF800200292029AD507F9D53D03B8
:10DBD00045EA8745864A854FC2F800E044EA0509D0
:10DBE00049F004593A680392039AD207FAD5804A59
:10DBF000DFF8F8E1C2F8009044EA033C48EA0C0779
:10DC000047F004574FEA033ADEF800200492049AE2
:10DC1000D207F9D5764ADFF8D4E117604CEA81499A
:10DC200049F010498F04DEF800200592059AD207CA
:10DC3000F9D56F4ADFF8B4E1C2F8009045F010451D
:10DC400045F48075DEF800200692069AD207F9D5D1
:10DC5000DFF89CE1674ADFF89491CEF8005042EA81
:10DC600080124FEA801ED9F800500795079DED07F6
:10DC7000F9D5DFF87CB1DFF884915C4DCBF800205A
:10DC800049EA00394FEA003B2A680892089AD2070D
:10DC9000FAD5574DC5F80090239A574D45EA824969
:10DCA000524A12680992099AD507F9D5504A4F4D40
:10DCB000C2F800904CF0245949F400192A680A92DD
:10DCC0000A9AD207FAD54A4D484AC5F800904EEA5A
:10DCD000030343F0484343F4821315680B950B9DEF
:10DCE000ED07FAD54EEA0B05DFF804E13F4ACEF81E
:10DCF000003045EA080545F0045513680C930C9B69
:10DD0000DB07FAD53A4B394A1D604CEA804040F0B7
:10DD1000045013680D930D9BDD07FAD5344BDFF8E3
:10DD2000E0C0324A18604AEA0C0C13680E930E9B4E
:10DD3000D807FAD52E4B2D4DC3F800C047EA01375E
:10DD400046EA070C4CF004500A032B680F930F9B14
:10DD5000DB07FAD5264B254D18604CF0104C2B688C
:10DD60001093109BDB07FAD5214B204DC3F800C060
:10DD70002B681193119BDB07FAD51D4B1B4D1860C7
:10DD8000274347F004572B681293129BDB07FAD501
:10DD9000174B16481F60239B44EA080444EA0334E7
:10DDA00044F0104403681393139BDD07FAD5104B1E
:10DDB0000E481C60324342F0245242F410120368B1
:10DDC0001493149BDC07FAD5094B08481A600E43DC
:10DDD00046F0484646F4A21603681593159BDB07E8
:10DDE000FAD5034B1E6017B0BDE8F08FB0B00250FB
:10DDF00080B002500040102100410021000110219C
:10DE00004001282900487047C82D03002DE9F04F34
:10DE100087B05C6A109D16464FEA84090F464FF0A2
:10DE2000000C9A4680464A4631462B46042003970A
:10DE3000CDF814C0FFF7AAF9074660B104EB44041B
:10DE4000A100284604F04EFA059802F0F9FC384685
:10DE500007B0BDE8F08F2B484FF0FF3104F062FAB5
:10DE600000284AD1002004F089FA002841D11E235D
:10DE7000DAF82000059305AA002102F0C9FDB0BB25
:10DE80002B68CDF800A023F00703A9F1040A2B604A
:10DE900055F80A3023F0404343F0804305EB090B6B
:10DEA00045F80A30594623462A4605EB490000F05A
:10DEB00031F807460028C1D15BF824105BF80A202E
:10DEC00042EAC1723146039E4BF80A2030464A4668
:10DED00004F002FA224659464046FEF761FC3346FA
:10DEE0004B444A464146184604F0F6F9A6E7064F69
:10DEF000A4E7064804F07EF9B9E7054804F07AF98A
:10DF0000B0E700BF587C00203323F000D03203007C
:10DF1000F03203002DE9F04784B09A460C9C81460C
:10DF2000884610461946656A1646FEF7F1FCBAF1B6
:10DF3000000F00F0BA802B4622460721074600203A
:10DF400001F09AFF052304F2D4420721012001F0D9
:10DF500093FF2B4604F5EA7207210C2001F08CFF99
:10DF60002B4604F5FA7207210D2001F085FF2B46A0
:10DF700004F5057207210E2001F07EFF2B4604F503
:10DF80000D7207210F2001F077FF2B4604F5157263
:10DF90000721102001F070FF2B4604F51D720721A8
:10DFA000112001F069FF2B4604F52572072112208C
:10DFB00001F062FF2B4604F52D720721132001F0BA
:10DFC0005BFF2B4604F535720721142001F054FF46
:10DFD0002B4604F53D720721152001F04DFF2B461D
:10DFE00004F545720721162001F046FF2B4604F583
:10DFF0004D720721172001F03FFF2B4604F2144217
:10E000000721082001F038FF2B4604F23442072193
:10E01000092001F031FF04F254422B4607210B2066
:10E0200001F02AFF234A13680093009BDB07FAD50F
:10E03000214B22491F4A196013680193019BD8079D
:10E04000FAD51D4B1E491B4A196013680293029BA7
:10E05000D907FAD5184B1B49164A19601368039360
:10E06000039BDB07FAD5144B174A1A60072104F209
:10E07000744208462B4601F0FFFE3946304602F056
:10E0800041FA044618B1204604B0BDE8F08748467E
:10E090002946102201F0C4FE40462946112201F013
:10E0A000BFFE204604B0BDE8F087084C204604B00F
:10E0B000BDE8F087B0B0025080B0025080022A471D
:10E0C00080122A4F80010021806118210223F00074
:10E0D00000487047083303002DE9F041069C0E46C6
:10E0E000154698462246636A01210746002001F042
:10E0F000C3FE012104F1B4020846052301F0BCFE71
:10E10000636A04F194020121062001F0B5FE636AFE
:10E1100042460121082001F0AFFE2946304600F0BA
:10E120000DF8044630B905F11F01490938460722A8
:10E1300001F076FE2046BDE8F08100BF2DE9F04FEA
:10E14000A7B0092304460B221846039405930692B0
:10E150000C2301220A250C4604210893079501F09F
:10E16000B3FD059BA14A990141EA834141F09241E7
:10E1700041F4043113680993099BDF07FAD59C4ADF
:10E180009C4B11600699303243EA811113680A935F
:10E190000A9BDE07FAD5964B944A1960089B9901B1
:10E1A00041EA834141F0924141F4043113680B93F9
:10E1B0000B9BDD07FAD58E4B8C4A196013680C93C4
:10E1C0000C9BD807FAD58A4B8B49884A196013688B
:10E1D0000D930D9BD907FAD5854B884A1A6014F127
:10E1E0001E0248BF04F13D026FF0404303EB62138F
:10E1F000039A671E52F823300293002FC0F2398130
:10E20000DFF81482794C7A4D002206AB0DF1140B25
:10E210000DF1200A0DF11C0907F01F061F2E04D175
:10E220000398791150F8211002910299009321FA74
:10E2300006F606F00106194672405846019202F0B1
:10E24000FFFF019A5146484602F0FAFF089A009BE8
:10E2500048EA023122680E920E9AD207FAD5296056
:10E26000069A674941EA824122680F920F9AD007C5
:10E27000FAD52960079A48EA023122681092109A6A
:10E28000D207FAD52960059A5E4941EA824122689F
:10E290001192119AD007FAD52960059A0798910131
:10E2A00041EA804141EA023141F004512268129270
:10E2B000129AD207FAD52960DDE906120898920170
:10E2C00042EA814141EA003141F00451226813924F
:10E2D000139AD007FAD52960089A0598910141EA66
:10E2E000003141F0104141F4002122681492149A47
:10E2F000D207FAD52960079A910141EA023141F02B
:10E30000104141F4402122681592159AD007FAD5A0
:10E31000296022681692169AD107FAD53A4A2A60DD
:10E32000059A110341EA824141F0104141F0C001D8
:10E3300022681792179AD207FAD52960DDE90701FA
:10E34000069A920142EA814141EA003141F00451CA
:10E3500022681892189AD007FAD52960079A48EAD5
:10E36000023122681992199AD207FAD52960DDE99B
:10E370000720910141EA804141F0045141F480417C
:10E3800022681A921A9AD007FAD52960059A1F496D
:10E3900041EA821122681B921B9AD207FAD52960A2
:10E3A00022681C921C9AD007FAD5194A2A60226862
:10E3B0001D921D9AD107FAD5164A2A60079A910133
:10E3C00041EA824141EA023141F0104122681E9245
:10E3D0001E9AD207FAD52960069A910141EA824134
:10E3E00041EA023141F0104118E000BFB0B00250E4
:10E3F00080B0025000002249400100214051142108
:10E4000080400021C040002180300C9000200C9002
:10E4100000211429C0400C210001142922681F92F8
:10E420001F9AD007FAD5296022682092209AD10736
:10E43000FAD52F4A2A60DDE90702910141EA00314D
:10E4400041F0104141F4001122682192219AD20733
:10E45000FAD52960079A274941EA82112268229257
:10E46000229AD007FAD5013F7A1C296009D032469A
:10E47000D2E6002606AB0DF1140B0DF1200A0DF1CA
:10E480001C0919465846324602F0DAFE3246514619
:10E49000484602F0D5FE069B1749184A41EA831107
:10E4A00013682393239BDC07FAD5154B134A196095
:10E4B000DDE90630190341EA804141F0184141F09D
:10E4C000800113682493249BD807FAD50C4A0D4B7E
:10E4D00011600599303243EA814113682593259BE9
:10E4E000DB07FAD5064B0020196027B0BDE8F08F96
:10E4F000823018C800200C9000200229B0B00250D1
:10E5000080B00250C02100882DE9F04184B0074658
:10E510000E460D24174803944FF0FF3190461D46D8
:10E5200003F000FF10BB002003F028FFD0B9286AD9
:10E5300003AA002102F06CFA044660B9D5F88C10E9
:10E540003046FEF7E5F90095024643463146384627
:10E55000FFF7C2FD0446039802F072F9204604B0AA
:10E56000BDE8F081044803F045FEE0E7034803F00E
:10E5700041FED8E7587C002000340300203403001B
:10E580002DE9F043D0E9D2451F3485B0640903EB8F
:10E59000C40E1E4603EB84071F3500F148030093A9
:10E5A000CDE9027E03460196904690306A0902F05A
:10E5B000B1F8054640B130464FF4537103F092FE76
:10E5C000284605B0BDE8F08338462146FEF7A0F99D
:10E5D00060B121463046FEF79BF938B14FEA840915
:10E5E0004A4640463146FEF7ADF9E4E7004DE2E722
:10E5F0002008F10070B5D0E9D2421F3484B064091C
:10E6000000F148030D4601EB84061F3201EBC40103
:10E610000391009300F5B4710346CDE90156520908
:10E62000903002F077F870B930462146FEF770F965
:10E6300030B921462846FEF76BF908B904B070BD21
:10E64000024804B070BD024804B070BD1008F0006C
:10E650003008F0002DE9F04385B000284CD00E467C
:10E6600000294ED01546002A4DD0002B3FD0D0F8BF
:10E67000BC22039305F14C0700F5B6731F3201F17C
:10E68000040905F10408CDE90187009352094946C0
:10E6900000F59273044602F03DF80746A8B94FF41E
:10E6A0003772214606F1500003F016FE174B336017
:10E6B00021464FF4377205F1940003F00DFE144B20
:10E6C0002B60384605B0BDE8F0830024484634602E
:10E6D00021462C604C2203F003FE40462146902246
:10E6E00003F0FEFD0B4F384605B0BDE8F0830A4F3E
:10E6F000384605B0BDE8F083084F384605B0BDE8A0
:10E70000F083074FDDE7074FDBE700BF020000ECB7
:10E71000010000EC3008F0000508F0000208F000ED
:10E720000308F0000408F000F0B50446D0F84803F0
:10E730008DB000F11F062023B6F5187F00937ED21E
:10E740000F46694602F026F9054610B128460DB07D
:10E75000F0BD7609334604F19002012101F08CFBF3
:10E7600001210846052304F5127201F085FB3346AA
:10E7700022460121022001F07FFB334604F1D8023A
:10E780000121042001F078FB04F590723346012149
:10E79000052001F071FB424A13680193019BDB07DE
:10E7A000FAD5404B40493E4A196013680293029BD8
:10E7B000D807FAD53B4B3D49394A19601368039392
:10E7C000039BD907FAD5374B3949354A1960136885
:10E7D0000493049BDB07FAD5324B364A1A6007F0E4
:10E7E0000603022B2FD004F14802334601210320F7
:10E7F00001F042FB2A4A13680593059BDC07FAD512
:10E80000284B2D49264A196013680693069BD807A2
:10E81000FAD5244B29492A4A196013680793079BA4
:10E82000D907FAD5274A284B126812F4805F08BF2F
:10E830001D46009802F004F828460DB0F0BD234DA7
:10E8400028460DB0F0BD02F023FD002826D01C4A5A
:10E8500013680893089BDB07FAD51D4B184A196803
:10E8600013680A930A9BD807FAD51A4A1A4B116003
:10E870001B680993099B5F40F90708D5343A136870
:10E880000B930B9BDB07FAD5064B144A1A603146F3
:10E8900004F14800032201F0C3FACAE7104DC8E7AB
:10E8A000B0B0025080B002508021088880411831F9
:10E8B000806108880051183180310C88006810513F
:10E8C000B4B0025088B002501008F0000F08F000F9
:10E8D0000CB00250E4B00250DCB00250C03000294D
:10E8E0004021F0002DE9F041002800F081801D4614
:10E8F000036A072B0F46044616D055B9032B0FD1D8
:10E90000036B6BB9C0E90F55C0E9115500F13C0725
:10E9100010252B4639462046BDE8F04102F08EBF57
:10E920002E463046BDE8F081436B002B37D1B5F55C
:10E93000805F39D215B9236B002B35D167484FF072
:10E94000FF3103F0EFFC002840F09780002003F037
:10E9500015FD002840F09980614B01221A60236A5E
:10E96000032B23DC002B23DA5E4E5F4A1368002B57
:10E97000FCD15B495D4A0B60106840F0400003F039
:10E98000C1FB012003F0FAFC00287AD1534803F0C0
:10E99000E3FC0028C5D0564803F02CFCC1E7012B4E
:10E9A000C8D1B5F5803FC5D3524EBAE7072BDBD1AE
:10E9B000636A012B78D8636B012B57D8A36B012BAB
:10E9C00000F28480204600F0E9F906460028CCD108
:10E9D000A36A012B6AD033F0020271D0236A013B93
:10E9E000062B13D8DFE803F00944091212120900BC
:10E9F0004FF471063046BDE8F0813F4B22681A6043
:10EA000062685A60A2689A60E268DA603B493C4AF0
:10EA100001230B601560002D3BD1226B0AB9394AE6
:10EA20001360314B1E68002EFCD1236A013B062B7C
:10EA30009BD801A252F823F055EA010075EA0100C3
:10EA400055EA01006BE901006BE901006BE9010087
:10EA500055EA0100284A2C4B126822601A6862604D
:10EA60005A68A26008331B68E3607EE7274E7CE7A4
:10EA7000274BC3E7264A274BEEE7274803F0BAFBAC
:10EA800064E7264803F0B6FB80E7254803F0B2FBB5
:10EA900062E7636B012B1BD0224A234B17601020C7
:10EAA0001D6003F037FBBCE7204E5EE7204B226978
:10EAB0001A6062695A60A2699A60E269DA608DE759
:10EAC0001C491D4A0B600123136087E71B4E4CE76E
:10EAD0001B4A1C4B176040201D60E2E7647C00204D
:10EAE00010B802500100F10010B9025004BA0250EF
:10EAF000083803000500F10040B402507CB4025015
:10EB0000BCB4025024B5025044B402500300F100DA
:10EB100060B4025064B40250F0370300B037030011
:10EB2000D037030030BC025034BC02500200F10068
:10EB300000B4025038BA025078B402500400F10018
:10EB400028BC02502CBC025000283BD0F0B482B04C
:10EB5000436A0193836893FA83FC019BD0E907120F
:10EB6000D0E90376D0E905541BBA4362436C0193A4
:10EB700009BA836AC16112BA02623FBAD0E90F12C0
:10EB800036BA2DBA24BAC0E902C7C0E90465C76A1B
:10EB9000066B456B846193FA83FC846B019B3FBADF
:10EBA00036BA2DBA24BA09BA12BA1BBAC0E90AC7D2
:10EBB000C0E90C65C0E90E41C0E91023002002B095
:10EBC000F0BC70474FF47200704700BF002800F09F
:10EBD00098802DE9F0414C4B826D9A42E0B080461E
:10EBE00003D04A4860B0BDE8F081016E00F14805ED
:10EBF0002846C900042200F08BF8D8F8543020A829
:10EC00004FF4807200211CBA03F06AFBD8F85C2034
:10EC1000E308B3FBF2F402FB1434141B102C98BF6E
:10EC2000A41820ABA4F11000184429461022802516
:10EC30008DF8805003F050FB2A46684608F16401C5
:10EC400003F04AFBD8E917230DEB05010DEB030098
:10EC5000D21A03F041FBD8E91753ED1AADB2694659
:10EC6000404600F039F9A5423FD3D8E90641D8E93A
:10EC70000823D8E90207D8E9046500BA3FBA24BAE4
:10EC800009BA12BAC8E9027036BAD8F83400C8F81E
:10EC90001C402DBAD8F83040C8F818101BBAC8F874
:10ECA0002420D8E90F12D8F83870C8F81460C8F8D2
:10ECB0001050D8F82860D8F82C50C8F82030D8F870
:10ECC000443024BA00BAC8E90C0436BA2DBA3FBAA7
:10ECD00009BA12BA1BBA0020C8E90A56C8E90E17C9
:10ECE000C8E9103260B0BDE8F08120AB5919684620
:10ECF000D8F85C2003F0F0FA6946404600F0ECF8E2
:10ED0000B3E74FF472007047785634120200F200F5
:10ED1000F0B48AB3051F2B4605EB8206970053F823
:10ED2000044F24BA9E421C60F9D13C1F0359591864
:10ED3000015116D3931E00EB830150F82340661C4B
:10ED4000A64240F823600CD80BB90AE03BB151F859
:10ED5000044D651CA54203F1FF330D60F6D94AB19D
:10ED6000051F2846002150F8043F01311BBA8A4292
:10ED70000360F8D8F0BC704750F8043C5B1840F8CA
:10ED8000043CF7D350F8084C631C9C4240F8083C04
:10ED9000A0F10801EED36FF00103D8E738B5224B9C
:10EDA000224A0121054619601368002BFCD1204A34
:10EDB0001368002BFCD11F4A1368002BFCD11E4A9C
:10EDC0001368002BFCD11D4B1C68002CFCD14FF0AC
:10EDD000FF3003F08BF92B6A23F00403032B184B4D
:10EDE00018680CBF20F0400020F0800003F08AF982
:10EDF000144B00221A602B6A23F00402032A18BF66
:10EE00006C6A114A4FEA830318BF04F0010403F04F
:10EE10001C031C4314602B6A072B02D10B4B0122ED
:10EE20001A60002038BD00BF00B9025070B4025013
:10EE300020BD025020BC025038BD025038BC0250E8
:10EE400004BA0250BCB40250C0B402507CB40250A8
:10EE5000E8B110B50468012C04D0022C10D044B1E4
:10EE60000C4810BD0C490830202203F035FA002070
:10EE700010BD0A490830142203F02EFA204610BDB6
:10EE800007490830202203F027FA002010BD4FF474
:10EE9000720070470100F2006C3403003834030044
:10EEA0004C34030078B110B50368032B044601D03D
:10EEB000064810BD06494022083003F00DFA054B04
:10EEC000A365002010BD4FF4720070470100F200EE
:10EED000F02C0300785634122DE9F04F2DED028B03
:10EEE000ADF5597D00F108050C464022002128A807
:10EEF000FDF7F6FA294628A8402203F0EDF92A9BEF
:10EF00001493319B1593329B1693339B1793349B29
:10EF10001893359B1993369B1A93379B1B93289B09
:10EF20001293299B2B9A2D982F9F309E2C991393E7
:10EF300008EE105A784B2E9D1C921E9021971F961A
:10EF40001D91209504F1040C01930D92DDE9154209
:10EF50000292179A0392189A149B0B92199A009393
:10EF6000DDE91AAB03460C923046DDE912620DF181
:10EF7000E009CDE90607CDF820A0CDF824B00A912C
:10EF800004951746CA469B4612E002990B910399D5
:10EF90000C9100990A910699DDF834B00096CDE9FC
:10EFA00002140D97CDF818E044461E4617467046E9
:10EFB00083044FEA844EA1034EEA903E43EA94381C
:10EFC00041EA90410B9BC205850302988EEA01013C
:10EFD00042EA542283EA000E06984A4045EA9445E4
:10EFE000E10588EA05030EEA000E0C9D249241EA31
:10EFF000502103980B9ADDF89090594045400C9BA6
:10F000002591DCF800005CF8041C25405D408EEA88
:10F010000202964690FA80F8259A259509BA3D0194
:10F02000CAE900810198259945EA1678B50745EAAD
:10F03000970519EB0E0388EA0505F0E9028941EB13
:10F040000202710641EAD7114D4001900A990098D9
:10F050002495350145EA177E0143BD070A9845EA24
:10F0600096058EEA05058646009831400EEA000EA8
:10F0700041EA0E010D982291790641EAD61113EB6F
:10F08000080385EA01054BEA000142EB0902394019
:10F09000FAE8028925950BEA00050D43DDF890E0BA
:10F0A00022992395089D099813EB080342EB090266
:10F0B0005B1942EB00000246DDF894800498239D22
:10F0C00011EB0E0145EB080510EB030E0798CDF888
:10F0D0001CB040EB0208CDE92215CB180B99089122
:10F0E00058A945EB02020A980C9D049051450CF179
:10F0F000080C09957FF449AF1946084B0E93B6AB3F
:10F10000CDF83CB0CDE90746DDF800B00997CDE970
:10F11000001236A8119314E0883403000835030068
:10F12000069A0292079A0392DDE908B20D92009ABC
:10F130000892019A0992CDE90034CDE906E8CE465D
:10F14000D046D0E91E64F300620343EA547342EAF6
:10F15000D6425A40A30643EA9613D0E9047C5A40AB
:10F160004FEAC409730343EAD44349EA5676056D6E
:10F170005E4086EA94164FEACC73446DA91843EAC0
:10F1800057094FEA0C6344EB060643EA17234FEA9C
:10F19000884489EA030344EA9E394FEA883444EA02
:10F1A0009E44C0E9221689EA0404F0E9029ACDE9F6
:10F1B000049A4FEA4C6949EAD71983EA090326936E
:10F1C0004FEA0769FB0743EA5C0349EA1C275F40F3
:10F1D0004FEACE53029A069DDDF898A043EA5823E1
:10F1E0005C40249414466C4004EA0E04079D54408D
:10F1F000039A87EADC174FEA8E434FEA8E3C279743
:10F200004CEA984C82EA050743EA9833049D83EA66
:10F210000C0307EA08074FEAC85C57404CEA5E2C2B
:10F220004A19059D83EA0C03DDF89CC0259345EB44
:10F23000060612EB0A0246EB0C01019E249B009D80
:10F240002494DDE924942597370147EA15770E9D2C
:10F25000DDF894C0C0F8802013EB0903F5E9029AA9
:10F260000E95009D109144EB0C044FEA857C009DA7
:10F27000C0F88410CDE9049A4CEA960C4FEA0519BF
:10F28000009D009987EA0C0749EA16794FEA867CC7
:10F29000089E4CEA950C009D89EA0C094BEA060C85
:10F2A0000CEA050C049D5B19059D45EB0404019DCA
:10F2B0004FEA416A4AEAD51A009987EA0A0A6F06B4
:10F2C00047EAD117099D0D9989EA07070BEA060954
:10F2D0004CEA090CCDF888C09B1841EA050C01EAFC
:10F2E0000502109D019E45EB04040B9DCDE924A76A
:10F2F0005B190C9D0CEA060C4CEA020244EB050576
:10F30000DDF888C091462C46259A0A9DCDF828B094
:10F310001CEB0A0749EB020215EB03090F9D0F9145
:10F3200045EB040AFB1842EB0404CDE92272029A71
:10F330000B92039A0C92119A82427FF4F1AE129AC8
:10F340000898219E159FD318139ADDE9001542EB0A
:10F350000404149A52181C99009241EB05051D995A
:10F36000099A2B9509181E98019140EB02022098EA
:10F370000D99049210EB0B0046EB01011F9E0890C3
:10F380001698069A049D099116EB090647EB0A07A1
:10F3900010EB0E0E179840EB0808189810EB020CB3
:10F3A0001998079A40EB02091A98029A10EB020A80
:10F3B0001B98039A2D95099D2F95009D2A95019DD7
:10F3C0002C9540EB020B089DCDF8C8E038A84FF40F
:10F3D00020720021CDE92834CDF8D0C03197CDF886
:10F3E000CC80CDF8D490CDF8DCB02E953096CDF809
:10F3F000D8A002F075FF18EE100A28A9402202F0EA
:10F400006BFF0DF5597DBDEC028BBDE8F08F00BFA1
:10F41000002861D02DE9F0414C1EB4F5047F27D2BD
:10F4200033B32AB3CD00012B05F1FF3E30D00021CC
:10F430008C460F460E4603F1FF384C0901F01F05BC
:10F4400050F824401F2D24FA05F418BF04F00104DD
:10F4500021B90126B44631462746EEE7B34213D020
:10F46000A74201D10CF1010C464504D1624502D2FC
:10F470001A48BDE8F0813C4601318E4506F101068F
:10F48000EAD20020BDE8F08100264FF0010CF3E73E
:10F490000026B44637463446610904F01F0350F88D
:10F4A00021101F2B21FA03F118BF01F001013CB11B
:10F4B0005FB98C4501D0614608E00136614605E040
:10F4C000012634468C460127E6E73E46B242CFD3BA
:10F4D0000134AC42F6D1D4E700487047370CF10054
:10F4E00030B585B004460D46104803924FF0FF3109
:10F4F00002F018FF039A68B9204600950123002105
:10F5000002F0A8FA0446094802F026FF38B920465E
:10F5100005B030BD064802F06DFE039AECE70548E1
:10F5200002F068FE204605B030BD00BF647C0020BC
:10F5300010370300283703000B6802E0082B0B602C
:10F5400006D8426813424FEA4303F7D000207047C1
:10F5500000487047310CF1000138072805D8DFE872
:10F5600000F00A0E041204040406094870478B696F
:10F570008B6000207047CB688B60002070470B6960
:10F580008B60002070474B698B600020704700BF84
:10F59000310CF10030B4DDE90234049D0294002402
:10F5A000CDE9035430BC03F027BA00BFF0B4C90062
:10F5B000002401F1FF3C2646274606E09F4216D074
:10F5C0000126654519D82C461F46630904F01F0122
:10F5D00050F823301F2923FA01F304F1010518BF65
:10F5E00003F00103002CE9D101263546EBE7013693
:10F5F0009642E6D10248F0BC70470020F0BC70474C
:10F60000360CF100012BF8B516461CD010221D4611
:10F610000C4602F049FEE0B1AF1E314604EB071084
:10F62000102202F041FEA0B1022D0ADD0025204685
:10F6300010342146102202F037FE013548B1BD4298
:10F64000F5D10020F8BD1146102202F02DFE002851
:10F65000F7D10148F8BD00BF020CF00010B586B02C
:10F6600005AB0124CDE901240093002204AB03F093
:10F67000C3F906B010BD00BF084B094A002119604C
:10F680001368002BFCD107480749084A03604FF470
:10F6900080604FF0FF330860136070472CB1025058
:10F6A00010B90250C4B1025008BA025008B1025059
:10F6B00038B504464FF4806002F02CFD054D064835
:10F6C0000649074A00232B6003600B682360136020
:10F6D00038BD00BFC8B102502CB1025004B1025075
:10F6E00008B102502DE9F04F99B0DFF870C2269CA6
:10F6F000239D270347EA844949F0104646F08006D7
:10F7000099464FEA844EDCF800300193019BDC07F8
:10F71000F9D5914B914C1E604FEA894949EA80190D
:10F7200049F0104646F400564FEA801A23680293C7
:10F73000029BDB07FAD5884B884C1E604AEA003CE6
:10F740004CF0245646F4001623680393039BDB0712
:10F75000FAD5814B814C1E604EF0104646F402569D
:10F7600023680493049BDB07FAD5229B7B4C4FEA6A
:10F77000834E4EEA811E784B4EF0104E1E604EF4C2
:10F78000005E8E0123680593059BDB07FAD5724B5B
:10F79000724CC3F800E046EA013949F0245B4BF4AF
:10F7A000001B23680693069BDB07FAD54FEA053E4C
:10F7B000694B6A4CC3F800B04EEA854E4EF0104ECD
:10F7C0004EF0800E4FEA854823680793079BDD07BC
:10F7D000FAD5249B604C40EA834545F048455F4B91
:10F7E000C4F800E045F403551C680894089CE4073D
:10F7F000FAD5594B594C1D6048F0104545F4025557
:10F8000023680993099BDB07FAD5259BDFF848E1BC
:10F81000524CCEF8005041EA834343F0484545F44A
:10F82000025523680A930A9BDB07FAD547EA821739
:10F83000494B4A4C1D6047EA080848F010479501BB
:10F8400023680B930B9BDB07FAD5434B434C1F609C
:10F8500045EA824242F0104242F4405223680C933F
:10F860000C9BDD07FAD53C4B3C4C1A6023680D938A
:10F870000D9BDA07FAD5384B394C384A1C601368AF
:10F880000E930E9BDB07FAD5334B364C334A1C6084
:10F8900013680F930F9BDF07FAD52F4B324C1C6078
:10F8A0002E4A49F0104444F4402413681093109BEE
:10F8B000DD07FAD5284B2D4D284A1C6045EA8045C6
:10F8C000800413681193119BDC07FAD5224B284C56
:10F8D000224A1D604AEA040413681293129BDB0754
:10F8E000FAD51D4B1D4A1C604CF0045444F480149E
:10F8F00013681393139BDF07FAD5174B174A1C6045
:10F9000013681493149BDD07FAD5134B134A1C603C
:10F9100040F0045040F4824013681593159BDC07B7
:10F92000FAD50D4B0D4A18600E4346F0484646F492
:10F93000042613681693169BD907FAD5064B074A77
:10F940001E6013681793179BDB07FAD5024BC3F8A9
:10F9500000B019B0BDE8F08F80B00250B0B00250D6
:10F9600000310C90C0400C90C03020290041009024
:10F97000032008C82DE9F04F9FB0AF4F2D9D289E62
:10F980002C0344EA854C4CEA831C4FEA854E0194D3
:10F990004CF0104C9D013C680494049CE407FAD59B
:10F9A0004FEA801BA54F4BEA033848EA8646DFF84A
:10F9B0008882C7F800C046F010461F03D8F8004000
:10F9C0000594059CE407F9D5DFF87082DFF868C27A
:10F9D0004BEA00340294C8F8006044F0245848F41C
:10F9E0000018DCF800400694069CE607F9D5DFF81D
:10F9F0004C92914EC9F8008045EA070C4EEA0C0E75
:10FA00004EF0104E34680794079CE407FAD5299C01
:10FA1000DFF82892DFF82082C9F800E047EA811673
:10FA200046EA84468C0146F010460094D8F800401F
:10FA30000894089CE407F9D5009CDFF80082DFF801
:10FA4000F891C8F8006044EA013E4EF0245848F4AA
:10FA50000018D9F800400994099CE607F9D52A9CBA
:10FA6000DFF8D891744EC9F800804FEA043A4AEAA8
:10FA7000844A2A9C4AEA050A4AF0104A4FEA844915
:10FA800034680A940A9CE407FAD52B9C47EA84461A
:10FA900006430396694E684CC6F800A0039E46F0E4
:10FAA000484A4AF0C00A26680B960B9EF607FAD51C
:10FAB000624C614EC4F800A049EA0C0A4AF0104AB0
:10FAC00034680C940C9CE407FAD52C9C47EA8446D5
:10FAD0000E430396594E584CC6F800A0039E2E4381
:10FAE00046F0484A26680D960D9EF607FAD5019C09
:10FAF00044EA8216514C46EA09094F4EC4F800A068
:10FB000049F010494FEA821A34680E940E9CE407BB
:10FB1000FAD54A4C484EC4F800904AEA824A4AF064
:10FB2000104A4AF4405A4FEA824934680F940F9CB5
:10FB3000E407FAD5414E404CC6F800A0266810965E
:10FB4000109EF607FAD53D4EDFF8F8A03A4CC6F8FD
:10FB500000A026681196119EF607FAD5374EDFF8F9
:10FB6000E8A0354CC6F800A026681296129EF6074B
:10FB7000FAD5324EDFF8D4A02F4CC6F800A04EF0D4
:10FB8000104E4EF4402E26681396139EF607FAD5B3
:10FB90002A4E2B4CC6F800E044EA804E30368004F2
:10FBA00034681494149CE407FAD547EA8347DFF8D5
:10FBB0008CA0214CCAF800E04BEA070646F0484604
:10FBC00046F003064FEA834A23681593159BDB072B
:10FBD000FAD5DFF868E0184CCEF80060029B43F0DD
:10FBE000045646F4801623681693169BDB07FAD555
:10FBF000124CDFF844E02660DEF800301793179BC4
:10FC0000DC07F9D50D4CDFF830E0266040F00450F9
:10FC100040F48240DEF800301893189BDB07F9D5DA
:10FC2000009B054C4AEA01011943044B41F048414D
:10FC3000186041F480410BE0B0B0025080B0025037
:10FC40000041009000310C90C0400C90C030202941
:10FC500023681993199BDE07FAD5194B19481960C7
:10FC600003681A931A9BDC07FAD5154B1549C3F89C
:10FC7000008049EA02322A4342F010420B681B938B
:10FC80001B9BD807FAD50E4B0E491A602F4347F03D
:10FC900010470B681C931C9BDA07FAD5084B094ADE
:10FCA0001F604CF0104141F4301113681D931D9BEF
:10FCB000DB07FAD5024B19601FB0BDE8F08F00BF1B
:10FCC00080B00250B0B002502DE9F0434E4C89B0E4
:10FCD00023680193019BDD07FAD54C4B13449B002D
:10FCE0000A181D681E2A05F11F0588BF1E224FEA4B
:10FCF000551502FB05F288BFC0F11E01B2F5806FF9
:10FD000004D94FF48061B1FBF5F1091A002976DDC1
:10FD100000F1A05000F52C4005F1010E4FF0000C51
:10FD2000394ADFF8F4803A4C87002EF0010660462D
:10FD300013680293029BDB07FAD5D7F8009013688B
:10FD40000393039BDB07FAD5C8F80090002355B155
:10FD500001339D422060FBD1AE4204D92B460133D2
:10FD60009E422060FBD10CF1010C614507F10407B4
:10FD7000DED1254A13680493049BDC07FAD5254B92
:10FD8000214A196813680593059BD807FAD5224BB9
:10FD900019607DB100231E491A4601339D420A6055
:10FDA000FBD1AE4206D91A492B46002201339E42AE
:10FDB0000A60FBD1144A13680693069BD907FAD54B
:10FDC000164B114A196813680793079BDB07FAD58E
:10FDD000114B196035B100230D491A4601339D427C
:10FDE0000A60FBD1AE4207D9094A002301E00EF1B7
:10FDF000010E76451360FAD109B0BDE8F08305F134
:10FE0000010E2EF00106B4E7B4B0025024AC001489
:10FE1000D8B002507CB00250D4B0025078B002503A
:10FE200010B4124C85B023680193019BDB07FAD50F
:10FE300002F1A05202F52C4293000C4A1C68136890
:10FE40000393039BDB07FAD5094B1C6051B10438BF
:10FE5000084A00EB810113680293029B40F8043FBB
:10FE60008842F8D105B05DF8044B7047B4B0025039
:10FE7000E4B00250DCB0025070B42F4D85B02C6855
:10FE80000094009CE407FAD500F1A05000F52C4046
:10FE90008000294C0568206801900198C607FAD5B2
:10FEA0002648012605609BB1043A254E02EB8304E7
:10FEB00052F8040F3060A242FAD15E1C26F0010213
:10FEC000934205D21E4C0020013393422060FBD1A7
:10FED000194A26F0010013680293029BDC07FAD549
:10FEE000184B0B449B001B681F33B0EB531F4FEAAA
:10FEF00053121DD210490B680393039BDB07FAD5FD
:10FF00000E4B0544121A1D6012D000230C481946EE
:10FF1000013393420160FBD15A1C22F00101994246
:10FF200006D90748002300E001328A420360FBD172
:10FF300005B070BC704700BFB4B00250D4B00250DE
:10FF4000D8B0025024AC0014F0B595B07D4C1A9E88
:10FF5000370347EA864747F0045545F08005266891
:10FF60000096009EF607FAD51B9C764E920142EA57
:10FF70000434754A44F01044156044F40024326897
:10FF80000192019AD507FAD56F4A6E4E146047EA7E
:10FF9000811747F010478A0134680294029CE407F5
:10FFA000FAD54FEA033C4CEA834C674B654C1F6023
:10FFB0004CF0045646F0800623680393039BDF074A
:10FFC000FAD5614B5F4C1E6023680493049BDD07E8
:10FFD000FAD55D4B5D4F5E4C5A4E1C6047EA814737
:10FFE0008C0433680593059BDB07FAD5564B554EB9
:10FFF0001F604CF0104C4CF4807C33680693069BD9
:020000040002F8
:10000000DD07FAD5504E534D4E4FC6F800C045EAB5
:10001000801586013B680793079BDB07FAD54A4F9B
:100020004D4BDFF820C13D6043EA003E0703DCF89A
:1000300000300893089BDD07F9D5434DDFF828C150
:10004000C5F800E01C9B30354CEA834E2B680993C1
:10005000099BDB07FAD53C4B3A4DC3F800E02B680F
:100060000A930A9BDB07FAD5374B3C4DDFF8FCC0FF
:100070001D60344D46EA0C0C2B680B930B9BDB0781
:10008000FAD5314B2F4DC3F800C03E4346F004561D
:1000900046F400262B680C930C9BDF07FAD52A4DFB
:1000A0002F4B2E6043EA804030352B680D930D9B1B
:1000B000DE07FAD5244B234D18602B680E930E9B58
:1000C000DB07FAD5204B274D1E481D60144344EA38
:1000D000013444F004550E0303680F930F9BDF07B0
:1000E000FAD5194B17481D6044F01044036810936B
:1000F000109BDB07FAD5144B12481C600368119360
:10010000119BDF07FAD5104B0E481D60164346F0D1
:10011000245646F4101603681293129BDC07FAD596
:10012000094B08481E600A4342F0484242F4A212BA
:1001300003681393139BDB07FAD5034B1A6015B0C2
:10014000F0BD00BFB0B0025080B0025080200090DF
:10015000802008210040102100011021802020294A
:10016000802000214021282900410021024010C8A0
:100170002DE9F00B93B06A4E1A9C6A4FDDE91B58CB
:100180004FEA043B46EA04363C680194019CE407CC
:10019000FAD5654C654F266047EA05373034266846
:1001A0000296029EF607FAD55F4E614C37601F9F9C
:1001B000303644EA073437680397039FFF07FAD5C0
:1001C000594F584E3C604BEA854949F0045545F07B
:1001D000800537680497049FFF07FAD5524C554FA6
:1001E00025601E9D303447EA053627680597059F30
:1001F000FD07FAD5209C1D9D4A4F240344EA8545FE
:10020000494C45F01045266045F080053E6806964D
:10021000069EF407FAD54FEA083444EA8848424C6F
:10022000404E256048F0045545F0C00534680794F9
:10023000079CE707FAD53C4C3F4F3A4E256047EA0A
:1002400083179D0134680894089CE407FAD5364C5E
:10025000344E276045EA834545F004579B0447F434
:10026000A04734680994099CE407FAD52E4C2D4E1A
:10027000276034680A940A9CE407FAD52A4C2F4F69
:10028000284E276034680B940B9CE707FAD5264C60
:100290002B4F244E276034680C940C9CE407FAD54D
:1002A000214C284F1F4E276034680D940D9CE707A2
:1002B000FAD543EA80101C4B234E1A4C1E6040F0C6
:1002C000104040F4804023680E930E9BDE07FAD561
:1002D000154C1E4B2060134843EA811103680F93AD
:1002E0000F9BDC07FAD5104C194B0E48216043EAEE
:1002F000821203681093109BD907FAD50A4B09495B
:100300001A6045F0104545F4A0450B681193119B08
:10031000DB07FAD5044B1D6013B0BDE8F00B704746
:1003200080001829B0B0025080B00250800008212F
:100330000001089040010890004018294041142114
:100340000021182900311021C0200C2100500C90F0
:1003500000301090564A94B013680193019BDB075C
:10036000FAD5544B5449524A196013680293029BC0
:10037000D807FAD54F4B51494D4A1960136803937A
:10038000039BD907FAD54B4B4D49494A196013686D
:100390000493049BDB07FAD5464B4A49444A19604B
:1003A00013680593059BD807FAD5424B4649404A46
:1003B000196013680693069BD907FAD53D4B43494C
:1003C0003B4A196013680793079BDB07FAD5394B43
:1003D0003F49374A196013680893089BD807FAD534
:1003E000344B3C49324A196013680993099BD90779
:1003F000FAD5304B38492E4A196013680A930A9B84
:10040000DB07FAD52B4B3549294A196013680B9342
:100410000B9BD807FAD5274B3149254A1960136839
:100420000C930C9BD907FAD5224B2E49204A196010
:1004300013680D930D9BDB07FAD51E4B2A491C4A06
:10044000196013680E930E9BD807FAD5194B2749EC
:10045000174A196013680F930F9BD907FAD5154BEC
:100460002349134A196013681093109BDB07FAD5D0
:10047000104B20490E4A196013681193119BD8073D
:10048000FAD50C4B1C490A4A196013681293129B47
:10049000D907FAD5074B1949054A19601368139310
:1004A000139BDB07FAD5034B154A1A6014B070474B
:1004B000B0B0025080B0025080801829809008218E
:1004C00000210890808024214021089080B02C9049
:1004D00080700890C0A02821C0A00C90C0421829AC
:1004E000C0522C2140411421002118290031102133
:1004F000C0200C2100422C9040520C908032109071
:10050000C0522C902DE9F043FF2993B027D1C36945
:1005100009939B0F012B054604D0734C204613B062
:10052000BDE8F08309A9FE2200F098FE0128F4D16D
:10053000FC244FF0FF394FF01608152714262246E9
:1005400009A9284600F08AFE00EB89030433072B33
:10055000E3D8DFE803F055504B4639341F09634CAC
:10056000204613B0BDE8F083CDE905780B230A22BD
:10057000092108200496CDE90223CDE90001FFF707
:10058000F7FD4FF0FF39023C45D0FFF7E3FEFFF7E0
:10059000E1FED4E7122111204FF0100C06910590D6
:1005A0000B230A2209210820CDF810C0CDE902232F
:1005B000CDE90001FFF7DCFD4FF00009E3E70E2174
:1005C0000D204FF00C0CE9E70E210D204FF00C0C24
:1005D000069105900B230A2209210820CDF810C0AE
:1005E000C9E70F210C204FF00D0CD7E71321102085
:1005F0004FF0110CD2E7132110204FF0110CE7E758
:100600004FF0170CCDE904760B230A2209210820AC
:10061000CDF818C0CAE7224609A9284600F01EFEF8
:10062000044600287FF479AF0F220C230B200A2107
:1006300006920593092208230D25CDE90121CDE974
:10064000030500931622172315211420FFF790FDB0
:10065000274AB9F1000F23D113680E930E9BDD07D3
:10066000FAD5244B2449224A196013680F930F9B33
:10067000D807FAD51F4B21491D4A196013681093FA
:10068000109BD907FAD51B4B1D49194A19601368ED
:100690001193119BDB07FAD5164B1A4A1A603DE7F6
:1006A00013680A930A9BD907FAD5124B1249104ACC
:1006B000196013680B930B9BDB07FAD50D4B12499E
:1006C0000B4A196013680C930C9BDF07FAD5094B92
:1006D0000E49074A196013680D930D9BDE07FAD582
:1006E000044B0B4A1A6019E70323F0000223F000C1
:1006F000B0B0025080B0025080210229C061289819
:100700000074208840742488C06158980074508810
:10071000407454882DE9F04F0D4687B004461146C9
:10072000284600929846FCF7F3F8D4F8BC320099BA
:1007300004F1D80A1F3306465B0952462846FBF7E8
:100740004BFF002E70D001286ED0D4E9AEB0394BEB
:10075000584593F91A2093F91CC000924FF02007D6
:1007600093F91B2093F91D30059738BF584605A90A
:100770000192CDF808C0039300F00CF9074618B1B8
:10078000384607B0BDE8F08F2B490BF11F094FEA3F
:1007900059194B46C1F800B022460121FFF76CFB06
:1007A0000121084604F5DC720523FFF765FB4B4683
:1007B00004F1480201210B20FFF75EFBD4F8BC32A4
:1007C0009DF808409DF800001F3352465B099DF8D4
:1007D0000CA00121FFF750FB42464B462046012169
:1007E000FFF74AFB109A4B4650460121FFF744FBA6
:1007F00006F11F035B099DF804002A460121FFF75B
:100800003BFB00F0F3F9119822464946FFF708FB3D
:10081000129852464946FFF703FB059800F010F87E
:10082000384607B0BDE8F08F044F384607B0BDE842
:10083000F08F00BF2C3A030090B002503008F10056
:1008400008B558B90F4B00221A60012001F096FD3F
:1008500098B90D4801F080FD50B908BD2028014627
:100860004FF0070228BF20210020FFF72DFAE9E70B
:10087000BDE80840054801F0BDBC054801F0BAFCE0
:10088000E7E700BF1CB80250587C00204037030047
:100890005837030070B41C6885B001F01F0644B9D6
:1008A0001E2E06D01068F04000F0030005B070BCAA
:1008B00070470F4D2C680194019CE407FAD500F1B4
:1008C000A05404F52C44A400094D20682C6803941E
:1008D000039CE407FAD5074C00EB61110648216040
:1008E000016802910299116000211960DAE700BFE6
:1008F000B4B00250E4B00250DCB0025030B4214A2F
:1009000084B013680093009BDC07FAD500F1A05374
:1009100003F52C439B001B4A186813680193019B45
:10092000D907FAD5184B1A6812F11F0348BF02F114
:100930003E035B11591E0FD4124A144D144C136818
:100940000393039BDB07FAD50B182B6023680293F4
:10095000029B2BB90139F2D2580104B030BC704768
:1009600001314801A0F120014FF0004202E00138BE
:100970008142F2D013424FEA5202F8D004B030BCA8
:10098000704700BFB4B00250ACB00250E4B00250A7
:10099000DCB0025038B504460D4619484FF0FF311F
:1009A00001F0C0FC60B9002001F0E8FC80B92046ED
:1009B0002A46002100F02CF80446A0B9204638BD94
:1009C000104801F017FC002001F0D8FC0028EED000
:1009D0000D4801F00FFC20462A46002100F018F8CF
:1009E00004460028EAD0012001F0C8FC20B90448E0
:1009F00001F0B2FC204638BD044801F0FBFBF6E7ED
:100A0000587C0020983703007837030058370300DC
:100A1000A0F12003B3F5426F61D8F0B48F2882B003
:100A200053D900F11F035B095B013F339B0901337D
:100A300011B18B4255D80B46DC004FF48051B1FB0D
:100A4000F4F1202928BF202102B11160264C274D46
:100A50000126002226600239144603FA06F640F603
:100A6000FC778C4204F10104B6BF2A602F60921912
:100A70001E2C05F10405F4D11D4C1E4D226032449C
:100A80002A6000F13F011C4A1C4DDFF890C0E56070
:100A900021F03F0110604031194F1A4E1A4D1B488A
:100AA000CCF800109B011A493B6033602B60E36275
:100AB0000360D3610A680192019AD207FAD5154AF8
:100AC0000020136002B0F0BC704700F1470400F151
:100AD0006603E4064FEA5313A6D00133A4E70E4899
:100AE00070470D48EEE700BF1CB8025000B002503E
:100AF00078B002507CB0025090B0025020F80F0045
:100B000098B002509CB00250A0B00250A8B0025061
:100B1000B4B00250ACB002502221F00094B00250A8
:100B200030B42D4C88B0206800900098C507FAD5E5
:100B30002A4C2B482B4D2560303440EA83452368EE
:100B40000193019BD807FAD5900140EA8240234BDC
:100B5000214A1D6040F0104444F4C04413680293DD
:100B6000029BDB07FAD51D4B1B4A1C6013680393DD
:100B7000039BDD07FAD58B0143EA8141174B1A4DE0
:100B80001D60154A41F0104545F4C04513680493B3
:100B9000049BDB07FAD5114B0F4A1D6013680593C0
:100BA000059BDD07FAD50D4B0B4A1C6041F05841FF
:100BB00013680693069BDC07FAD5084B064A1960B2
:100BC00040F0584013680793079BDB07FAD5034BA7
:100BD000186008B030BC7047B0B0025080B002500E
:100BE00080710098C0210229806118902DE9F0439E
:100BF000974AABB013680993099BDF07FAD5954B69
:100C00009549934A196013680A930A9BDE07FAD53F
:100C1000904B92498E4A196013680B930B9BDD072A
:100C2000FAD58C4B8E498A4A196013680C930C9B39
:100C3000DC07FAD5874B8B49854A196013680D93F9
:100C40000D9BD807FAD5834B8749814A19601368F1
:100C50000E930E9BD907FAD57E4B844A1A601B204F
:100C6000FFF74CFE04461820FFF748FE8442784AFE
:100C700009D913680F930F9E16F00106F9D0754B32
:100C80007B4A1A6009E013681093109BDB07FAD5C2
:100C9000704B784A1A60044600266D4A1368119317
:100CA000119BDF07FAD56B4B7349694A19601368CA
:100CB0001293129BDD07FAD5664B704A1A601C200E
:100CC0001D2118220B238DE80F000F230E220D216A
:100CD0000C20FCF745FF01340C200D210E220F23C0
:100CE0008DE80F0024F0010413231222112110209B
:100CF000FCF736FF0125A11E08AB07AA1B200895AB
:100D0000FFF7C8FD022800F06A81032800F0408147
:100D1000012800F0168100274D4A13681F931F9B7E
:100D2000DB07FAD54B4B5649494A196013682093A3
:100D3000209BDD07FAD5474B5249454A1960136895
:100D40002193219BD807FAD5424B4F4A1A60043CA5
:100D500039D44FF0170916254FF01A081521142021
:100D6000CDE900011A231622CDE90259FCF7F8FE5D
:100D7000142003468DE822011622FFF7E5F808ABA0
:100D800007AA21461B20FFF785FD00EB87000430F2
:100D9000072816D8DFE800F0A1A8A59D999584043E
:100DA00012271122102315211420CDE904270393C3
:100DB000CDE90001029517231622FEF7DBFD4FF067
:100DC000FF37023CCAD519201C21162215231824EE
:100DD000CDE90121CDE9030400930E2214230D2156
:100DE0000C20FEF77FFC1A4A002F40F08180136828
:100DF0002693269BDC07FAD5164B2449144A196022
:100E000013682793279BD807FAD51248204B21490E
:100E1000214C0F4A0460002E14BF1E460E46136874
:100E20002893289BD907FAD50A4B094A1E601368F4
:100E30002993299BDB07FAD5064B184A1A60182319
:100E40001D221C210120FFF76BFE2BB0BDE8F083B3
:100E5000B0B0025080B00250000200210082202178
:100E6000408220218082242140066E490096692913
:100E7000C0066649C0066249000662410016624922
:100E800040D62129C0D32029C0142129C0552129A9
:100E90004007564940075E490007524900065A4933
:100EA0000E270D220C2315211420CDE904270393CE
:100EB000CDE90001029517231622FEF75BFD0027FE
:100EC0007FE718271D221C23EDE718271D221C236E
:100ED00069E7182719221C23E5E71227132210239C
:100EE000E1E70E270F22DDE70E270F220C235AE73A
:100EF00013682293229BD907FAD54C4B4C494D4A93
:100F0000196013682393239BDB07FAD547484A4BA4
:100F10004A494B4C474A0460002E14BF1E460E46F9
:100F200013682493249BDF07FAD5404B414A1E6087
:100F300013682593259BDD07FAD53C4B414A1A607F
:100F40007DE73C4A13681393139BD807FAD5374BB8
:100F50003D49384A196013681493149BD907FAD590
:100F6000324B3A49334A196013681593159BDB07D6
:100F7000FAD52E4B36492F4A196013681693169BE3
:100F8000DF07FAD5294B334A1A604FF0FF37C3E623
:100F9000284A13681B931B9BDF07FAD5234B2E4966
:100FA000244A196013681C931C9BDD07FAD51F4B5C
:100FB0002A49204A196013681D931D9BD807FAD54A
:100FC0001A4B27491B4A196013681E931E9BD907A9
:100FD000FAD5164B234A1A604FF0FF379CE6154AA4
:100FE00013681793179BDD07FAD5104B1649114A62
:100FF000196013681893189BD807FAD50B4B13493F
:101000000C4A196013681993199BD907FAD5074B35
:101010000F49084A196013681A931A9BDB07FAD51F
:10102000024B0C4A1A60002776E600BF80B00250DF
:10103000C0D32029B0B002504007364940073E498E
:101040000007324900063A49000532494005364951
:1010500080053A49C0053E490005424940054649D8
:1010600080054A49C0054E492DE9F043644A93B0D2
:1010700013680093009BD907FAD5624B6249634A13
:10108000196013680193019BDB07FAD5604B1B685D
:10109000DF0400F1AF805A4A13680293029BDE0717
:1010A000FAD5584B5B49594A196013680393039B5F
:1010B000DD07FAD5564B1B68DC0400F18580534BE5
:1010C000554E4F494F4FDFF86CC14FF00109DFF823
:1010D00068E1524D00241A680492049AD007FAD5A8
:1010E00030681A680692069AD207FAD5CEF8000040
:1010F0002A680592059A12B95DE052080134D007BA
:10110000FBD514F01F0568D11D680995099DE807F6
:10111000FAD5434DD5F800801D680B950B9DED0762
:10112000FAD5DFF814E13D4DCEF800802D680A9520
:10113000E0070A9D05D505F00704032C4AD0052CCD
:1011400048D002F00302032A05D105F00305032D60
:1011500008BFC9F100090A680C920C9AD407FAD5A5
:10116000304A3A600A680D920D9AD007FAD52E4A95
:101170003A600A680E920E9AD207FAD52B4A3A6064
:101180000A680F920F9AD507FAD5294A3A600A6879
:101190001092109AD407FAD51B4A3A601A68119235
:1011A000119AD007FAD51A4A1268D2048FD5484648
:1011B00013B0BDE8F0830A680792079AD207FAD500
:1011C000C7F800C0203486E74FF00109484613B045
:1011D000BDE8F083C9F10009B3E7DFF860E0013D45
:1011E0004EEA053E0D680895089DED07FAD5C7F84B
:1011F00000E089E74FF00009484613B0BDE8F083EE
:10120000B0B0025080B0025000082A51B4B0025071
:1012100088B0025000182A5128B00250DCB00250A9
:101220002CB0025000032A4980022E49C0C228A1D6
:10123000C002324980F22961E4B002508002286184
:101240000B6830B40468524284EA03052A405440D3
:101250005340046030BC0B60704700BF0B6812F055
:101260001F0F10B404464FEA937004D09B005DF842
:10127000044B0B607047002A6FF04043B8BF1F3229
:1012800003EB621254F822300B605DF8044B704798
:101290002DE9F047894ABAB013680093009BD8073C
:1012A000FAD5874B8749884A196013680193019BD7
:1012B000D907FAD5854B1B68DB0400F19181824A7E
:1012C00013680393039BDE07FAD5814B7E4A1968A6
:1012D00013680593059BDD07FAD57E4A7E4B1160A6
:1012E0001B680493049F07F00303032B00F0748230
:1012F00007F00703052B714A00F027811368199343
:10130000199BDC07FAD56E4B74496C4A1960136857
:101310001A931A9BD807FAD5694B714A1A60FFF7DE
:10132000A3FE013000F01D82644A13681B931B9BCF
:10133000D907FAD562486B4B0360013F40F07182D8
:101340005E49DFF8D0C1604B674E624D624CB846D3
:101350000A681C921C9AD207FAD5C0F800C008F19E
:1013600020081A681D921D9AD707FAD537681A689F
:101370001F921F9AD207FAD52F6022681E921E9FD5
:10138000002FE5D017F0010311D17F08FE071946A1
:1013900003F10103F9D5494802682092209AD50744
:1013A000FAD5524A464842EA013198440160434A1C
:1013B00013682193219BDC07FAD5414B4C493F4AE6
:1013C000196013682293229BD807FAD53C4B494AEF
:1013D0003A4CDFF84491484E414D1A609A462368D2
:1013E0002393239BD907FAD5CAF800902368249346
:1013F000249BDA07FAD5CAF8006023682593259B59
:10140000DB07FAD5CAF80050FFF72EFE0130E6D10F
:101410002A4A13682693269BDC07FAD5284B3749BE
:10142000264A196013682793279BD807FAD5244BBF
:101430003349224A196013682893289BD907FAD5A3
:101440001F4B2A491D4A196013682993299BDB0702
:10145000FAD51B4B2B49194A196013682A932A9B0A
:10146000DE07FAD5164B2849144A196013682B93E6
:101470002B9BDD07FAD51248244A104BDFF89C90CD
:10148000DFF89CE0224EDFF89CC002601A682C92C4
:101490002C9AD407FAD5C0F800901A682D922D9A8C
:1014A000D107FAD50849094DC0F800E000241A68B0
:1014B0002E922E9AD207FAD5066035E0B0B00250CF
:1014C00080B0025000081251B4B0025088B00250EF
:1014D00000B00250E4B00250DCB002508002124969
:1014E000C0020249C01002290CB00250C0000C61B9
:1014F000C0011E41C0111E4980021E49C0311C9806
:10150000C0100E21C030109840021249809184A86A
:1015100000182651C0F00D61C0111E2140320C8808
:1015200040622488409224880A682F922F9AD2071A
:10153000FAD52A68D20460D401341A683092309AFD
:10154000D207FAD5C0F800C0B1E713680993099B28
:10155000DB07FAD5854B8649864A196013680A93DA
:101560000A9BDF07FAD5814B8349824A19601368C9
:101570000B930B9BDE07FAD57C4B80497D4A1960A3
:1015800013680C930C9BDD07FAD5784B7C497D4A98
:10159000196013680D930D9BDC07FAD57A4B754AD9
:1015A0001B68D80440F1928013680E930E9BD907F4
:1015B000FAD56E4B75496F4A196013680F930F9BEC
:1015C000DB07FAD5694B72496A4A196013681093B0
:1015D000109BDF07FAD5654B6E4A1A60002054E075
:1015E000644A13680293029BDF07FAD55F4B6A4A8D
:1015F0001A6001203AB0BDE8F087002C3FD0A8EB7C
:101600000404012C33D0621E02F01F01002A4FF0A7
:101610000107B8BF04F11E028F4051111A683292BF
:10162000329AD207FAD55D4A564C0260226833924C
:10163000339AD507FAD55A4A524C15682268349223
:10164000349AD207FAD5574C574A2944216017607B
:101650001A683592359AD207FAD5544A02601A6848
:101660003692369AD507FAD5514A02600EE71A68C3
:101670003192319AD107FAD54E4A026006E707F057
:101680000303032B40F0C58001203A4A13683793C7
:10169000379BDC07FAD5354B4749364A1960136842
:1016A0003893389BD907FAD5304B4449354A1960ED
:1016B00013683993399BDB07FAD5334B1B6813F456
:1016C000805F18BF01203AB0BDE8F087136811931E
:1016D000119BDE07FAD5254B39492A4A1960136850
:1016E0001293129BDD07FAD5274B1B68DC04C3F36A
:1016F0000030CAD51F4B1A681392139AD107FAD536
:101700001A4B304A1B491A600B681493149BDA0772
:10171000FAD5164B1E4A17491A600B681593159B8C
:10172000DB07FAD5114B284A12491A600B68169349
:10173000169BDF07FAD50D4B244A0E491A600B6839
:101740001793179BDE07FAD5084B214A09491A60FF
:101750000B681893189BDD07FAD5044B1D4A1A60D5
:101760003CE700203AB0BDE8F08700BF80B00250EF
:1017700040120229B0B00250C0112461807110984B
:1017800000181A51B4B0025088B0025080310221C2
:1017900080211861C0601098C0000E4100022241F3
:1017A00020B00250D4B00250D8B0025040821C98F1
:1017B000C0900C88C0700C8880310C88004818518B
:1017C000009818518051022940121071C06124986C
:1017D00040021071C0901C88343A13680693069B2F
:1017E000DC07FAD5104B1149114A196013680793A9
:1017F000079BD807FAD50C4B0E490D4A19601368A0
:101800000893089BD907FAD5074B0B4A1A600020AA
:101810003BE707F00707052F4FF001003FF435AF16
:10182000E8E64FF00008ADE580B00250C01002219C
:10183000B0B0025080110C61C0601098002800F018
:10184000BF80F8B51D46436B0E4617460446002B75
:1018500035D0012B02D1B5F5803F33D265484FF02A
:10186000FF3100F05FFD002857D1002000F086FD19
:1018700000284ED1604B01221A60236A032B28DC1A
:10188000002B28DA5D4A1368002BFCD15A4A1360FA
:10189000236A23F00403032B594B18680CBF40F054
:1018A000400040F0800000F02DFC012000F066FDBB
:1018B000002836D14F4800F04FFD28B9F8BDB5F5E6
:1018C000805FCBD34F48F8BD4F4800F093FC002019
:1018D000F8BD072BD6D1636A012BD3D8636B012BDC
:1018E000D0D8A36B012BCDD82046FDF757FA00289E
:1018F000C8D1A36A012B6CD033F0020263D0236AF3
:101900005A1E062A1BD8DFE802F0104B101A1A1ACA
:1019100010003E4800F06EFCACE73D4800F06AFC69
:10192000A3E73C4800F066FCC4E73B4B22681A6022
:1019300062685A60A2689A60E268DA60236A23F0FB
:101940000403032B31D0A36B012B4CD0334A344B0F
:10195000176020201D60636B012B2CD0314A324B65
:1019600016601D6000F0D6FB244A1368002BFCD1E2
:10197000236A013B062B10D8DFE803F00414040FA0
:101980000F0F0400244A294B126822601A68626013
:101990005A68A26008331B68E3600123236371E780
:1019A000234BC3E7224A234BEEE7636B012B01D0A5
:1019B0001020D3E74020204A204B16601D60D1E75D
:1019C0004FF4710070471E491E4A0B6001231360DB
:1019D00095E71D4B22691A6062695A60A2699A6094
:1019E000E269DA608BE7194A194B176080201D60A5
:1019F000B1E700BF647C002010B8025010B902505B
:101A000004BA02500500F10008380300D037030083
:101A1000F0370300B037030040B4025030BD02502D
:101A200034BD025030BC025034BC025044B40250A9
:101A300060B4025064B4025028BC02502CBC025066
:101A400038BA025078B4025000B4025028BD025097
:101A50002CBD0250F8B5069E002E33D001292FD898
:101A6000012B31D81C4C074600251C482560046812
:101A7000002CFCD11A4D2C68002CFCD1194D2C687F
:101A8000002CFCD1184D2C68002CFCD1174D2C6873
:101A9000002CFCD1012B19D01548164B02602020D8
:101AA0001E6001290BBF144B144B154A154A1760D1
:101AB0001E6000F02FFB144B18680028FCD1F8BD05
:101AC0001248F8BD1248F8BD1248F8BD1248134B31
