:020000040000FA
:1000000000240020150200001D0200001F02000055
:100010002102000023020000250200000000000071
:1000200000000000000000000000000027020000A7
:1000300029020000000000002B0200002D02000039
:100040002F0200002F020000950400002F02000084
:100050002F0200002F0200002F0200002F020000DC
:100060002F0200002F0200002F0200002F020000CC
:100070002F0200002F0200002F0200002F020000BC
:100080002F0200002F0200002F0200002F020000AC
:100090002F0200002F0200002F0200002F0200009C
:1000A0002F0200002F0200002F0200002F0200008C
:1000B0002F0200002F0200000000000000000000DE
:1000C0002F0200002F0200002F0200002F0200006C
:1000D0002F0200002F0200002F0200002F0200005C
:1000E0002F0200002F0200002F020000000000007D
:1000F000000000002F020000000000002F0200009E
:1001000000000000000000000000000000000000EF
:1001100000000000000000000000000000000000DF
:1001200000000000000000000000000000000000CF
:1001300000000000000000000000000000000000BF
:1001400000000000000000000000000000000000AF
:10015000000000000000000000000000000000009F
:10016000000000000000000000000000000000008F
:10017000000000000000000000000000000000007F
:10018000000000000000000000000000000000006F
:10019000000000000000000000000000000000005F
:1001A000000000000000000000000000000000004F
:1001B000000000000000000000000000000000003F
:1001C000000000000000000000000000000000002F
:1001D000000000000000000000000000000000001F
:1001E000000000000000000000000000000000000F
:1001F00000000000000000000000000000000000FF
:10020000DFF80CD000F04AF800480047550D000018
:10021000002400200648804706480047FEE7FEE726
:10022000FEE7FEE7FEE7FEE7FEE7FEE7FEE7FEE7A6
:10023000C10200000102000040EA01039B0703D055
:1002400009E008C9121F08C0042AFAD203E011F815
:10025000013B00F8013B521EF9D27047D2B201E0D7
:1002600000F8012B491EFBD270470022F6E710B5BB
:1002700013460A4604461946FFF7F0FF204610BD14
:1002800030B504460020034600E05B1C934203D2D5
:10029000E05CCD5C401BF8D030BD0000064C074D43
:1002A00006E0E06840F0010394E807009847103446
:1002B000AC42F6D3FFF7A8FF342100005421000020
:1002C00070B54FF080520124D2E94C100023082968
:1002D00006D1CD06C5F80C31C5F810315E4D2B6046
:1002E000082955D15D4D2D685D4E35605B4D2D1D46
:1002F0002D68361D3560594D08352D68361D356021
:10030000564D0C352D68361D3560544D10352D6811
:10031000361D3560514D14352D68361D35604F4DF5
:1003200018352D684E4E203635604C4D1C352D68E5
:10033000361D3560494D20352D68361D3560474DD9
:1003400024352D68361D3560444D28352D68361D01
:100350003560424D2C352D68361D35603F4D3035AA
:100360002D683F4E403635603C4D34352D68361D86
:1003700035603A4D38352D68361D3560374D3C3582
:100380002D68361D3560354D40352D68361D35607C
:10039000082904D1050002D1334E324D35600829B9
:1003A00004D1050002D1314EFB253560082908D162
:1003B000050006D192F858622D4A156866F30305C8
:1003C0001560082904D1020002D12A4D8A012A6051
:1003D000082906D128480168C90702D06FF0010139
:1003E00001602648016841F470010160BFF34F8F3E
:1003F000BFF36F8F4FF01021D1F80002002803DB0C
:10040000D1F80402002822DA1D4A14601D4804684D
:10041000002CFCD01224C1F800420568002DFCD04D
:10042000C1F8044201680029FCD01360016800296A
:10043000FCD0BFF34F8F11487C380168124A01F499
:10044000E06111430160BFF34F8F00BFFDE710492A
:100450000E48086070BD000038050040040400101C
:1004600020C50040488103008C56004018F500402C
:10047000E40E0040409602400004004088ED00E099
:1004800004E5014000E401400400FA050090D003B7
:100490008400002001480068004700005C00002044
:1004A000002809DB00F01F02012191404009800073
:1004B00000F1E020C0F88012704702E008C8121F67
:1004C00008C1002AFAD170477047002001E001C13D
:1004D000121F002AFBD17047024801210164816389
:1004E000704700000010004006480021C0F81C11B1
:1004F00001214161D0F81C110029FBD0024800689D
:10050000C0B27047001000404815004072B609485C
:100510000068C00700D000BEBFF34F8F0548E43825
:100520000168054A01F4E06111430160BFF34F8F98
:1005300000BFFDE7F0ED00E00400FA050EB5002174
:100540000091CDE901106A4644F20100FFF7DEFF99
:100550000EBD10B58268C368934203D000F0A2FBC1
:10056000002010BD052010BD29B112B1531E134249
:1005700003D0092070470E2070470160838000215E
:100580008160C1600846704710B58268C3689A1AD6
:1005900083889A4203D800F08FFB002010BD04200E
:1005A00010BD000070B50A4E01460A48B578FFF745
:1005B000D0FF04464DB10020B070711C0122C81D4F
:1005C00000F058FC08B1FFF7B9FF204670BD0000ED
:1005D00064000020DC030020F0B5244E89B01F46E3
:1005E0000D00044672603FD0A888296882B2204876
:1005F000FFF7BAFF002835D1A889A96882B21C4844
:100600001030FFF7B1FF00282CD12022194968468D
:10061000FFF712FE60690690207C00B101208DF882
:1006200014008DF81C70607C00B10E208DF8150050
:10063000E0680290A06803902068019060680090D4
:100640000A480D4A6946083000F0E0FB002809D14D
:10065000B0702068401C05D004490122491CC81D07
:1006600000F008FC09B0F0BD0720FBE764000020A3
:10067000DC030020142100006D1C000010B50146B1
:100680001048FFF781FF040019D10F480F4A017885
:10069000515C19B1001D00F06FFF02E00C3000F05A
:1006A00045FE60B9084907480839FFF752FF30B9DD
:1006B000054901220839044800F0ECFB04462046B5
:1006C00010BD0000EC0300206C000020480000205A
:1006D00000F002B800F008B872B602480168491C80
:1006E000016070478000002003490868401E0860D0
:1006F00000D162B6704700008000002070B505464A
:1007000008680C46411C04D000F070FC206800F022
:100710002EFC6068411C02D0002100F016FC296804
:10072000A069C1F82405607D227D29681043C1F8C5
:100730006C05D4E900122868C0F81425C0F80C151F
:10074000207D012814D1A068411C02D0002100F0B6
:10075000FCFBE068411C04D000F048FCE06800F0BD
:1007600006FCD4E902122868C0F80825C0F8101564
:1007700070BD70B5054608680C46411C04D000F0F9
:100780003FFC206800F0FDFB6068411C02D00021A6
:1007900000F0E4FB2968A069C1F82405607D217D93
:1007A0002A680843C2F86C05D4E900122868C0F82A
:1007B0000C15C0F81425207D012814D1A068411C17
:1007C00002D0002100F0CAFBE068411C04D000F018
:1007D00017FCE06800F0D5FBD4E902122868C0F8E5
:1007E0000825C0F8101570BD2DE9FC410646C0076C
:1007F0004FF000050ED0104F00240122385D009507
:1008000000231146019500F055FB641C042CF4D321
:1008100000F01CF8B0070DD5074E0024361D00224D
:10082000305D032300951146019500F043FB641CE5
:10083000042CF4D3BDE8FC81C81F00000249085C09
:10084000012100F0E7BB0000C81F000010B5002424
:100850002046FFF7F3FF641C042CF9D310BD000001
:1008600070B51B4802240178427801F00F01FF2A7D
:100870001CD8184B5B7A032B01D0042B01D1022921
:1008800014D8062B01D0052B01D103290ED831B184
:1008900001290DD002290DD003290DD006E00E4903
:1008A000801CFFF7EDFC08B9012070BD002070BD71
:1008B0000F2302E0552300E0FF23002105E00D197E
:1008C000455D9D42F2D1491CC9B29142F7D3EBE795
:1008D0008802002000000020D01F00002DE9F04118
:1008E0002E4C0126820B267300252582217807468F
:1008F00039B1C7F305203AB1032A0AD0012911D131
:1009000013E00520BDE8F081F9B2BDE8F04100F048
:1009100041BE012906D0E08940F40040208200F069
:10092000E9F828E026820220ECE7014694F83C0032
:10093000C7F3850300F0C00007F003071843C4E9BC
:100940000F07616494F809C00846BCF1030F09D091
:10095000BCF1040F06D0032F08D0272806D9268221
:100960000120CFE7032FF8D1FF202064E581012A81
:1009700003D0022A0DD00020C4E74FF4817108484B
:10098000FFF773FC012000F0C1FF0420207028460F
:10099000B8E7BDE8F041184600F054BE0000002062
:1009A0008802002002494FF4007008607047000080
:1009B00050160040034900230A7B0B73098A01602B
:1009C00010467047000000204AB1012A0BD0022ACD
:1009D0000DD0032A0FD0042A11D0002070470B4AF3
:1009E000026008200EE00A4A026009200AE0094A73
:1009F00002600A2006E0084A02601A2002E0074A64
:100A000002601B2008700120704700000080004039
:100A10000090004000A0004000A0014000B0014054
:100A200010B501F047F810B900F008FF08B1042034
:100A300010BD05480021012201730270C163034803
:100A40000260084610BD00000000002040E50140A3
:100A500008281AD0072818D0062816D0052814D040
:100A6000042812D0032810D002280ED068B1FC2828
:100A70000BD0F82809D0F42807D0F02805D0EC28AE
:100A800003D0E22801D0D82807D1052907D00629AC
:100A900005D0032903D0042901D004207047002089
:100AA0007047000006490978012901D900207047E4
:100AB00003490246491C01F11B00FFF785BF0000F6
:100AC0000000002070B5C4B214F0300F01D044F023
:100AD000C004074D2878012804D8697A2046FFF71A
:100AE000B7FF08B1002070BD0120AC6170BD0000EF
:100AF0000000002010B500F017F808480124046039
:100B00000649002008310860091D08600448046196
:100B100000F044FF0348047010BD000008F50140D8
:100B20000090004000000020704700002DE9F05FB9
:100B3000DFF85CB1544E554C564F4FF0010940F26E
:100B4000E24A00250BF104082078042809D1D6F8E0
:100B50000401012805D1C6F80451A07A08B1C7F8EC
:100B60001090D6F80C0130B3C6F80C510120FFF7F5
:100B700097FC207804282DD14846C6F80490A17A25
:100B800051B1CBF800A03F22C8F80020F860C7F8A8
:100B90004051C7F8445138603F480068012805D1EA
:100BA000FFF75EFE10B1E089401CE0814FF48171D7
:100BB0003A48FFF75AFB207804280BD1D6F80001F9
:100BC000012807D1C6F80051A07A18B1C7F80C90D7
:100BD000C7F80090E069D0F8401111B1C0F8405159
:100BE0000EE0D0F8440158B1E069C0F8445194F9DE
:100BF0000100FFF755FC6069401C6061BDE8F09F93
:100C0000D7F84001012826D1FFF76EFCE17A19B12F
:100C10005F2811D900200DE02149002209688BB21C
:100C2000090C0F2B02D9022900D201225F2800D320
:100C300012B1012000F016FFFFF74EFCCBF800A028
:100C4000C7F80490C7F80C90C7F84051C7F8009057
:100C50000920FFF725FCD7F8440100283FF474AFC2
:100C6000FFF742FC5F2801D3002000E0012000F0E4
:100C7000F9FEFFF731FCC8F80050C7F844510920CD
:100C8000FFF70EFC60E700000010004000000020AD
:100C90004095004000900040001400408802002071
:100CA00074150040826883881A4003689A5C0A7051
:100CB0008168491C81607047C26883881A40036854
:100CC0009954C168491CC1607047000070B50D4659
:100CD000044600684FF4887100F0C5F94FF4907134
:100CE000206800F0C0F94FF49271206800F0BBF961
:100CF0004FF4A271206800F0B6F94FF4AC7120688F
:100D000000F0B1F920681249C0F80413206869079F
:100D100040F30730090E002804DB00F1E02080F8E2
:100D2000001405E000F00F0000F1E02080F8141D31
:100D3000206840F30730002809DB00F01F02012182
:100D400091404009800000F1E020C0F8001170BD22
:100D500010034200F0B500258DB02F462C4601202F
:100D6000FFF742FD1822254906A8FFF765FA244837
:100D7000029024494FF48070CDE9030105900723C8
:100D8000214A02A906A8FFF727FC08B1FFF7D6FB06
:100D9000FFF746FE18B10DB04FF0FF30F0BDFFF782
:100DA000C5FE06466846FFF7FDFB0028F7D147B1B0
:100DB00005F11500864206D99DF80000354604026B
:100DC000EDE70127F8E79DF80000002704432046DF
:100DD000FFF784FD01A8FFF7EDFD0028DFD00198A3
:100DE000C0F30720FFF74AFC0028F8D10198C0B2F1
:100DF000FFF744FC0028F9D1D1E70000B01F000044
:100E00008800002088010020591C0000F0B505462C
:100E10000478154889B0164640F82420124A08691B
:100E20000832A2F10C0742F82400487F38552022EE
:100E30006846FFF701FA04942878385C48B10EB18F
:100E40000A4A00E000226946281D00F087FA09B02E
:100E5000F0BD0EB1064A00E00022694605F10C0023
:100E600000F030F9F3E700004C0000206D1E000098
:100E7000111D000030B40378054CE35C1BB130BC9D
:100E8000001D00F0A1BA30BC0C3000F085B90000A4
:100E90004800002030B40378054CE35C1BB130BC43
:100EA000001D00F013BB30BC0C3000F0EBB90000AB
:100EB000480000202DE9FF411C46DDE90A7815466F
:100EC0000E46684600F068F846EA450141EA8401AA
:100ED00041EA072242EA0841009A00EB8200C0F88A
:100EE0000017BDE8FF812DE9FF411C46DDE90A78C6
:100EF00015460E46684600F05DF846EA450141EAAF
:100F0000840141EA072242EA0841009A00EB82008C
:100F1000C0F80017BDE8FF812DE9FF411C46DDE95F
:100F20000A7815460E46684600F052F846EA450132
:100F300041EA840141EA072242EA0841009A00EBB3
:100F40008200C0F80017BDE8FF811CB500220B46E7
:100F5000009211460192FFF7C6FF1CBD1CB500228E
:100F60000B46009211460192FFF7D6FF1CBD1CB53F
:100F7000002100910B46012201911146FFF7B3FFBA
:100F80001CBD1CB5002100910B46012201911146A8
:100F9000FFF7C2FF1CBD00000168202902D24FF0FC
:100FA000A040704701F01F01016001487047000038
:100FB000000300500168202902D24FF0A040704782
:100FC00001F01F010160014870470000000300505C
:100FD0000168202902D24FF0A040704701F01F01A4
:100FE00001600148704700000003005001B56846E9
:100FF000FFF7E0FF009A01219140C0F8081508BDF5
:1010000001B56846FFF7E4FF009A01219140C0F85E
:10101000081508BD38B501240090684631B1FFF7C6
:10102000BBFF00998C40C0F8084538BDFFF7B4FFFE
:1010300000998C40C0F80C4538BD4058002800D0BD
:101040000120704708B5002242504058009008BD6A
:10105000D0F80403084000D0012070474058002811
:1010600000D00120704708B500224250405800903F
:1010700008BD0121B1EB507F01D101207047002054
:10108000704770B50D4600F0CDFB04000FD0002076
:10109000FFF71EFB207920B10020FFF71BFB11207A
:1010A00070BD0120256020710020FFF713FB002098
:1010B00070BD00000149024800F042BE8C030020D0
:1010C000002000402DE9F0410546007916460F4604
:1010D00000EB40012D4A01EBC00102EB810494F8C2
:1010E0002A1011B10820BDE8F081294951F82010DB
:1010F0002868FFF7C6FF08B11120F4E739462846F3
:10110000FFF7FCFA66603869206030004FF0010696
:101110002FD03F7F4FF48E712868FFF793FF4FF475
:10112000A2712868FFF78EFF28681A49C0F80413D7
:1011300028684FEA471140F30730002804DB00F12C
:10114000E02080F8001405E000F00F0000F1E0203E
:1011500080F8141D286840F30730002809DB00F0F0
:101160001F0106FA01F14009800000F1E020C0F8FB
:10117000001128680421C0F800150020A061E0617A
:1011800084F8290044F8140FA675ACE78C030020FE
:101190000C210000800002002DE9F05F0546007977
:1011A0004FF4017600EB400303EBC000344B03EB3C
:1011B00080040020636813B12B68C3F80863A36937
:1011C0004FF000096BB1E06938B1606810B1286870
:1011D000C0F804631120BDE8F09FE26101202161A5
:1011E00005E0C4F82490A261E160C4F81C9094F872
:1011F0002910014302D1284600F023FC6068002832
:10120000286803D0C0F804630020E4E74FF4A27616
:101210003146FFF717FFB2464FF4927B59462868D4
:10122000FFF70BFF06464FF484712868FFF705FFB0
:10123000804651462868FFF700FF074648EA070046
:101240003043EBD056EA070007D12146286800F06A
:10125000C9FBA169606A8142E0D8C4F818900EB158
:101260000320B8E70FB10F20B5E794F8291001204B
:101270000029296801D00860C6E74860C4E700007B
:101280008C0300202DE9F05F054600790B4600EB4A
:10129000400101EBC000244901EB8004284600F026
:1012A00045F810B11120BDE8F09F62614FF00009D0
:1012B000C4F82090A36084F828904FF48E784E46AE
:1012C00041462868FFF7BEFE28684FF0010AC0F8C3
:1012D00008A02146286800F095FC606808BBD5F896
:1012E00000B067690FE000BF94F8280008B10F262E
:1012F00015E041465846FFF7A0FE0028F4D02146ED
:10130000584600F07FFC206AB842F2D35746414667
:101310002868FFF792FE0028F9D02868C760C4F853
:1013200014903046BFE700008C030020007900EBEA
:10133000400101EBC000044901EB80004069002836
:1013400000D00120704700008C03002001490248B2
:1013500000F0A4BDB8030020002000402DE9F041BA
:101360000546164600790F46154A00EBC00102EB10
:10137000810494F8201011B10820BDE8F0811149D2
:1013800051F820102868FFF77CFE08B11120F4E71F
:1013900039462846FFF7EDF96660386920601EB1CE
:1013A000397F2846FFF792FC28680821C0F800150D
:1013B0000020A061E0616061012184F82010DCE779
:1013C000B8030020102100002DE9F05F04460079E9
:1013D0000E4600EBC001DFF8F0A017460AEB8105CE
:1013E0003046FFF746FEB0B168684FF000084FF492
:1013F000047910B12168C1F80893A8694FF0000B77
:1014000080B1E86948B1686810B12068C0F80493F9
:101410001120BDE8F09F1020FBE7EF614FF00108BD
:101420002E6102E0EE60C5E9067B00254FF488716D
:101430002068FFF718FE4FF4A2712068FFF713FE33
:101440002068C0F83465C0F838752068B8F1000F1E
:1014500012D0D0F8001241F02001C0F8001220791B
:10146000D04600EBC0010AEB8100406838B120682B
:10147000C0F804932846CCE701210160EFE74FF460
:10148000887A4FF4A27951462068FFF7E7FD0746B6
:1014900049462068FFF7E2FD06464FF49271206846
:1014A000FFF7DCFD014647EA06000843EBD022794E
:1014B00002EBC20308EB8302C2F818B001B10325A6
:1014C000002ED7D00F25D5E7B80300202DE9F0472F
:1014D00004460E460079274900EBC00001EB800569
:1014E00017463046FFF7C5FD30B1204600F044F8FE
:1014F00020B11120BDE8F0871020FBE76F61AE60DE
:101500004FF490774FF0000839462068FFF7ABFDA5
:101510004FF4AC7631462068FFF7A5FD2068AA6835
:101520006969C0F84425C0F8481520684FF00109E2
:10153000C0F808906868D0B9BA4651462068FFF7ED
:101540008DFD074631462068FFF788FD0743F4D03C
:1015500010B14FF00F0808E02068C0F80C90314639
:101560002068FFF77BFD0028F9D000206861404625
:10157000C0E70000B80300200079054900EBC00077
:1015800001EB80004069002800D001207047000076
:10159000B803002070B50C460546FFF7ABFA0422ED
:1015A000012126480A2D3DD2DFE805F005121B2057
:1015B00023284444443F032C34D800210322C16330
:1015C000427241711E48016821F00041016027E02C
:1015D0000F2C27D80CB1012100E000210901C163C3
:1015E0001EE02046BDE8704000F0D4B8032C19D8A6
:1015F00016E0032C16D81621018211E04FF4FF7279
:10160000032C07D9251F44F29023032D07D92D1F42
:10161000032D01D8028203E00C3C032C02D8038284
:10162000002070BD0182042070BD60B2BDE8704032
:1016300000F090BA0182104670BD0000000000204A
:10164000401700402DE9F0414D4C024620460B4624
:10165000D4F840C00125C16BBCF1FF0F05D0FF29B4
:1016600003D925820320BDE8F0814648464E022773
:101670004170BCF1020F1AD006DCBCF1000F0AD099
:10168000BCF1010F43D10EE0BCF1030F23D0BCF13C
:10169000FF0F3CD124E0002200F8022B0A463B4910
:1016A000FEF7CAFD08E000F8025B0F2202E000F836
:1016B000027B5522FEF7D2FD002000F027F9607A68
:1016C0000021E26B04282BD003282BD005282BD037
:1016D00006282CD02DE0042200F8022BFF22E9E797
:1016E000184632B1012A04D0022A0DD0032A15D19E
:1016F00010E0002000F00AF9FFF754F9C6F8005294
:1017000035600320207009E0FFF7DCF904E0258252
:101710000420A8E7FFF7C6F90028F8D00020A2E7C8
:10172000582106E0502104E04FF4347101E04FF4F9
:10173000E771D200052802D0062802D002E0D200CC
:1017400000E052001144042800D149080020F9317A
:1017500040F27122401C42439142F9D840F271217B
:101760004843E169C1F84005094801F5A0710160ED
:10177000001D066006480C3805602770CEE70000A3
:10178000000000208802002000100040D01F000050
:1017900010F501402DE9F041031F002603221D49E9
:1017A00001251D4F1D4C032B02D86272667106E0A5
:1017B000A0F10803032B0CD804206072657108683F
:1017C00020F000400860002000F04CF93D61A67256
:1017D00018E0104EA0F10C07114B4836032F03D828
:1017E000052005E0A5720DE0103803280ED806206C
:1017F00060726271086820F46C50184308603068A9
:101800000028EFD0BDE8F04100F018B82582042090
:10181000BDE8F0814017004000900040000000202B
:1018200000C400800349884201D10348704700206A
:1018300070470000002000405C00002070B5314C73
:10184000617AA069FFF704F9012510B1258204200F
:1018500070BD00F0A3F82C49A06908602A48617A9D
:10186000001D016028481830026822F0FF02026063
:101870000368E26A43EA126303601002224A1032EC
:1018800010602148243005601F4A0020203210607B
:10189000207AA27940EA02201B4A283210601A48B6
:1018A0000830032922D0042920D02179E2780904C4
:1018B00041EA0221A2781143627941EA026141F0D2
:1018C000C141016094F8280094F82410400640EAD1
:1018D0000160218C40EA0140E17940EA01200A4997
:1018E00040F0FF000C310860002070BD2179E278E3
:1018F000090441EA0221A2781143627941EA0261B6
:10190000DFE70000000000200C1500402DE9F04149
:101910000746FFF709F91C481C4A016B1160121DAC
:10192000416B1160416C022202EB4101174A303ACF
:101930001160121F16491160164C0025C4F80051A1
:101940000126C4F80062D4F8001241F00201C4F884
:1019500000124FB1807A10B1012000F083F8C4F872
:101960000C516660BDE8F081084A017E2C3A116096
:10197000807A0028F6D00848C6604660C0F840511A
:10198000C0F84451EEE70000000000203815004088
:101990008802002000100040009000400D49032004
:1019A00008600D490020C1F80002C1F810010122B1
:1019B000C1F81020D1F81021002AFBD0C1F8100185
:1019C000486008600549C8810548016821F4702114
:1019D0000160704708F50140001000400000002041
:1019E0001415004070B5054688690C4600284FF470
:1019F000847128460AD0FFF725FBD5F81805626ADE
:101A0000E1688854606A401C606270BDFFF71AFB91
:101A1000D5F8180570BD1FB501238DF80030CDE94C
:101A20000121D0E90012684690471FBD1FB5012370
:101A30008DF80030CDE90121D0E9001268469047C9
:101A40001FBD10B5044600684FF49271FFF7FAFA13
:101A50004FF484712068FFF7F5FA206801210160D6
:101A600010BD00000F4910B50E4A403180B1136817
:101A70000D4C234043F07D0343F0004313600A689C
:101A8000094B8F331A4042F0600242F0004204E0FA
:101A9000064B13600A6822F000420A600449C872CB
:101AA00010BD00003C17004000FFFF7F34300040B5
:101AB0000000002010B54FF080410020C1F8000167
:101AC00001220A60D1F80031002BFBD01E4BD969EE
:101AD0004A60CA60C1F80405C1F84001C1F8440178
:101AE000C1F84801C1F84C014FF48034C1F80443F7
:101AF000C1F800220424C1F810459C6BC1F8404590
:101B00004FF48274C1F844450A60104958614A6034
:101B1000CA600F4A1060C1F84001C1F84401C1F821
:101B20004801C1F84C010A4A40F2E2413C321160DE
:101B3000111D08600920FEF7B3FC054907200C3190
:101B40000860002010BD0000000000200090004050
:101B50000495004070B5D82228494FF46C747E2853
:101B600013D008234FF482657F2811D000F17F063F
:101B7000942E18D38A690123D0B203EB4000088267
:101B8000D82A08D0082A09D00BE08A610C8232E0FA
:101B90008B610D822FE040F4007001E040F4806022
:101BA0000882042070BD10F1280FEEDD0828EFDA5E
:101BB000134C012214F822305BB2834214DD54F836
:101BC00022506BB21B1A00D55B4204EB82025BB25F
:101BD00052F8042C54B2201A00D54042984201DD3C
:101BE0008D6105E08A6103E0521CD2B20F2AE1D375
:101BF000087E40000882002070BD00000000002028
:101C0000D020000070B50C4605464FF48E71FFF7EA
:101C100019FA216AA068415C206A401C2062C5F85C
:101C20001C1570BD1FB500228DF80020029181683F
:101C300001914261D0E90012684690471FBD1FB56F
:101C400000228DF800200291816801914261D0E963
:101C50000012684690471FBD0178022901D0012972
:101C600002D14068FEF76ABC704700007CB501787D
:101C7000254DA1B301290BD002291DD18DF80010EB
:101C8000C068691C01900122C81DFFF7F3F830E01D
:101C9000017A59B1406801781C48FEF775FC1B4C6D
:101CA000012650B18DF8006001900DE01649012227
:101CB000491CC81DFFF7DEF87CBDA068E1688142C1
:101CC00005D000208DF80000696868468847A06844
:101CD000E168081AA1888842E8D9AE707CBDFFE7A8
:101CE0000A4809491030FEF734FC30B103208DF862
:101CF0000000696868468847F0E70349012201F15E
:101D00000800FFF7C7F8E9E764000020DC030020C3
:101D10001FB50A4601788DF8001041680191017ADB
:101D20008DF80810C0680390044850F82210083855
:101D300050F82220684690471FBD00005400002044
:101D40002DE9FF470C4605464FF40071FFF780F977
:101D500001274FF40178002618B34FF492794946D1
:101D60002846FFF76AF9E0B149462846FFF76AF9C5
:101D7000C5F8088394F8290000B96F6002208DF837
:101D80000000D5F88004C5F880040390A069029093
:101D9000E0680190A661E661D4E9001268469047C8
:101DA00028E004212846FFF753F918B34FF4847153
:101DB0002846FFF742F9E8B121462846FFF712FE10
:101DC000616AA069884215D1E06938B1E268616A48
:101DD000A0612069E6616662E06008E094F829008D
:101DE00000B96F60C5F80883A661E268616A2046A1
:101DF000FFF711FE4FF48E7841462846FFF71DF994
:101E000080B16069216A814202D294F8280028B327
:101E100041462846FFF716F9606918B16169204606
:101E2000FFF700FF4FF4A27841462846FFF705F977
:101E3000002818D041462846FFF704F994F82900F5
:101E400000B12F60A06900280DD0A661E268616A28
:101E500004B02046BDE8F047FFF7DDBD2146284627
:101E6000FFF7D0FEDEE7BDE8FF8700001FB50A469A
:101E700001788DF8001041680191017A8DF8081001
:101E8000C0680390044850F82210083850F8222007
:101E9000684690471FBD0000540000202DE9FF4117
:101EA0000C464FF4927705463946FFF7D7F80026DF
:101EB000B8B139462846FFF7D6F802208DF8000061
:101EC000D5F88004C5F880040390D5F83C0502904D
:101ED000E0680190A661E661D4E900126846904787
:101EE00023E04FF4887739462846FFF7B7F8E0B18A
:101EF00039462846FFF7B7F8D5F83C15A06988425F
:101F000013D1E06960B1E268D5F8000220F020004A
:101F1000C5F80002E069A0612069E661E06001E0C7
:101F2000A661E2682046FFF781FD4FF4A2773946AB
:101F30002846FFF793F868B139462846FFF793F82B
:101F4000A06938B1A661E661D5F83C152046E26883
:101F5000FFF76CFD4FF4907631462846FFF77EF888
:101F600060B131462846FFF77EF80120E8606069DD
:101F700020B1D5F84C152046FFF761FE4FF4AC7642
:101F800031462846FFF76AF800280ED03146284629
:101F9000FFF769F86069002807D0D5F84C1504B040
:101FA0002046BDE8F041FFF74ABEBDE8FF810000D2
:101FB0000800000006000000050000000700000007
:101FC0000000000000A04E000D0E0F100B0C1819A1
:101FD000FFC1FBE84C90728BE7B3518963AB2323BD
:101FE00002841872AA612F3B51A8E53749FBC9CA80
:101FF0000C18532CFD45E39AE6F15DB0B61BB4BE58
:102000002A50EAE90E9C4B5E5724CCA1B759B887F9
:10201000FFE07D742648B9C5F3D9A8C4B1D59111A4
:1020200001420C39D5B0979D28D4F29BA4FD64657C
:10203000068C2996FEA2714DF3F82E58DB0D5A5FDF
:102040001528F57407CE25AF2B12E6D0DB2CDCC3A8
:102050007FF03E3A13A4DCE2F96C54E2D8EAC88877
:102060000021869C6AD8CB4E146AF94DD27EB232DA
:1020700003C6144B7FD1B8A6797C17ACED06ADAF83
:102080000A947ABA03E792D7150973E86D16EEE160
:102090003F781F9D09526EF17C362A716C7564443D
:1020A0008010434E35EC65270AB5FC26693F5999E7
:1020B00001638AA5BF685CD33CBE0BD67683D65736
:1020C000054A3DDD8173C9EB8A8439F4360BF7008C
:1020D000D8000000E2000000EC000000F00000006A
:1020E000F4000000F8000000FC0000000000000008
:1020F00002000000030000000400000005000000D2
:10210000060000000700000008000000B5100000F5
:102110004D130000FFFFFFFFFFFFFFFFFFFFFFFF6B
:10212000FFFFFFFF00000000000000000000D601DC
:10213000060100005421000000000020880000007B
:10214000BA040000DC210000880000207823000091
:10215000CA04000000080801000001000303000099
:10216000000000000000000000000000000000006F
:10217000008000400300000000000000000000009C
:10218000294176715B06000055555500C4090000D1
:10219000000000000000000000000000000000003F
:1021A000000000000000000000000000000000002F
:1021B000000000000000000000000000000000001F
:1021C000000000000020004000000000002000404F
:0C21D00000000000000000000090D003A0
:0400000500000201F4
:00000001FF
