:020000040000FA
:1000000018340020D9040000E1040000F9020000C7
:10001000E5040000E7040000E9040000000000001F
:10002000000000000000000000000000EB040000E1
:10003000ED04000000000000EF040000F1040000E7
:100040009D0F0000F304000091110000F304000074
:10005000F3040000F3040000DD0C0000F3040000D2
:10006000F3040000F3040000F3040000F3040000B4
:10007000F3040000F3040000F3040000F3040000A4
:10008000F3040000AD0F0000F3040000F3040000CF
:10009000F3040000F3040000F3040000F304000084
:1000A000F3040000F3040000F3040000F304000074
:1000B000F3040000F3040000000000000000000052
:1000C000F3040000F3040000F3040000F304000054
:1000D000F3040000F3040000F30400009D1100008D
:1000E000F3040000F3040000F3040000000000002B
:1000F00000000000F304000000000000F304000012
:1001000000000000000000000000000000000000EF
:1001100000000000000000000000000000000000DF
:1001200000000000000000000000000000000000CF
:1001300000000000000000000000000000000000BF
:1001400000000000000000000000000000000000AF
:10015000000000000000000000000000000000009F
:10016000000000000000000000000000000000008F
:10017000000000000000000000000000000000007F
:10018000000000000000000000000000000000006F
:10019000000000000000000000000000000000005F
:1001A000000000000000000000000000000000004F
:1001B000000000000000000000000000000000003F
:1001C000000000000000000000000000000000002F
:1001D000000000000000000000000000000000001F
:1001E000000000000000000000000000000000000F
:1001F00000000000000000000000000000000000FF
:10020000DFF80CD000F096FB004800475D6000006E
:100210001834002030B4044654E8000F0D4644E87A
:100220000053002BF8D1156030BC704730B4044641
:1002300054E8000F40EA010544E80053002BF7D1D1
:10024000156030BC704730B4044654E8000F00EA33
:10025000010544E80053002BF7D1156030BC70470E
:1002600030B4044654E8000F80EA010544E8005326
:10027000002BF7D1156030BC704730B4044654E809
:10028000000F00EB010544E80053002BF7D1156087
:1002900030BC704730B4044654E8000FA0EB0105B1
:1002A00044E80053002BF7D1156030BC704770B4A0
:1002B00004464FF0000054E8006F0D68AE4207BFDF
:1002C00044E80023012044E800630E60002B1CBFBB
:1002D0000020F0E770BC704730B4044654E8000FCB
:1002E00088422CBF451A054644E80053002BF5D13F
:1002F000156030BC70470000094B1EF0040F1CBF96
:10030000EFF309801847EFF308800649064A884250
:1003100001D8904202D88D464FF0000018470000E7
:10032000810D0000183400201814002030B450E86B
:10033000012F93B2C48923448489A34228BF1B1B85
:100340000489A34202BFBFF32F8F002007E0C3EA56
:10035000020340E80134002CE9D14FF001000A60AB
:1003600030BC704750E8012FC2EA024240E8012148
:100370000029F7D1704730B450E8022F1FFAA2F3DA
:10038000C488A34202BFBFF32F8F00200DE0C489B1
:1003900023448489A34228BF1B1BC2EA034340E8CD
:1003A0000234002CE8D14FF001000A6030BC7047E5
:1003B00050E8022FC2EA224240E802210029F7D188
:1003C0007047034653E8022FD988B2EB324F4FF003
:1003D000000017BF92B241EA014142EA014104E044
:1003E0005A68B2EB324F08BF012043E80212002ADC
:1003F000E8D1704730B4044654E8000F0D4644E895
:100400000053002BF8D1156030BC704730B404465F
:1004100054E8000F40EA010544E80053002BF7D1EF
:10042000156030BC704730B4044654E8000F00EA51
:10043000010544E80053002BF7D1156030BC70472C
:1004400030B4044654E8000F80EA010544E8005344
:10045000002BF7D1156030BC704730B4044654E827
:10046000000F00EB010544E80053002BF7D11560A5
:1004700030BC704730B4044654E8000FA0EB0105CF
:1004800044E80053002BF7D1156030BC704770B4BE
:1004900004464FF0000054E8006F0D68AE4207BFFD
:1004A00044E80023012044E800630E60002B1CBFD9
:1004B0000020F0E770BC704730B4044654E8000FE9
:1004C00088422CBF451A054644E80053002BF5D15D
:1004D000156030BC7047000006488047064800475A
:1004E000FEE7FEE7FEE7FEE7FEE7FEE7FEE7FEE7E4
:1004F000FEE7FEE7BD0F0000010200002DE9F05FFE
:100500000546002092469B46884606468146402482
:100510001BE0284641464746224600F0B9F95346BB
:100520005A46C01A914110D311461846224600F08F
:1005300016F82D1A67EB01084F46224601200021CC
:1005400000F00DF817EB00094E41201EA4F1010444
:10055000DFDC484631462A464346BDE8F09F202A64
:1005600004DB203A00FA02F1002070479140C2F10A
:10057000200320FA03F31943904070470048704766
:10058000B0BB000010B50446FFF7F8FF0068005D3F
:1005900000F0010010BD2DE9FE439946154688463E
:1005A000074601AC022942D3002D40D00020029022
:1005B000A8F101004FF0FF36009022E000FB057229
:1005C00001FB057011464A469047002805DC54F8A7
:1005D0002600304444F8260013E060682A4600FBF9
:1005E000057154F8040C00FB057007E00B7890F8D7
:1005F00000C001F801CB00F8013B521E002AF5D1E2
:10060000764254F8040C61688842D7DC4B462A468F
:100610003846FFF7C0FF54F8040C4B46A8EB000126
:10062000401C00FB05702A46491EFFF7B4FFBDE8D9
:10063000FE8310B5431A934209D28318881803E049
:1006400010F8011D03F8011D521EF9D210BD40EA39
:1006500001039B0703D009E008C9121F08C0042A40
:10066000FAD203E011F8013B00F8013B521EF9D227
:1006700010BDD2B201E000F8012B491EFBD2704739
:100680000022F6E710B513460A4604461946FFF75E
:10069000F0FF204610BD421C10F8011B0029FBD1C1
:1006A000801A704710B5002200E0521C835C8C5CFD
:1006B000A34201D1002BF8D1D8B2E1B2401A10BD4B
:1006C00030B504460020034600E05B1C934203D291
:1006D000E05CCD5C401BF8D030BD034611F8012B27
:1006E00000F8012B002AF9D11846704730B50546AD
:1006F0000020034600E05B1C934205D2EC5CC85C22
:10070000201A01D1002CF6D130BD00000FB400B585
:100710008DB010A909900B9000914FF0FF300A9016
:1007200000200C9005480690054807906A4609A8E5
:100730000F9900F0D1F80DB05DF814FBF50800003A
:10074000130900002DE9FF5F1D464FF0FF3BD5E97F
:10075000014691465F464FF00008A9697F1C019849
:100760008847296A824688470028F6D1BAF1FF3FB8
:100770000CD024F4C064002E19DD600614D5BAF143
:100780002B0F09D0BAF12D0F0ED103E0584604B05B
:10079000BDE8F09F44F48064A9697F1C01988847F4
:1007A000761E8246002E02DDBAF1300F03D0B9F179
:1007B000000F26D032E0A969761E44F400747F1C35
:1007C000019888478246002E05DDBAF1780F06D0E1
:1007D000BAF1580F03D0B9F1000F10D01EE0B9F1F3
:1007E000000F02D0B9F1100F18D1A969761E24F4B8
:1007F00000747F1C019888478246102002E0082080
:1008000000E00A20814609E008FB0908A969761E74
:1008100044F400747F1C019888478246002E05DD51
:100820004946504600F044F80028EDDAE96901989D
:100830008847A00502D46FF00100A8E7E00725D1A2
:10084000600613D5600502D5C8F1000000E04046FF
:1008500029680A1D2A600968220501D5087015E07B
:10086000220701D5088011E008600FE02868011D0B
:1008700029600068210502D580F8008006E0210784
:1008800002D5A0F8008001E0C0F8008038467EE77D
:10089000202A04DB203A21FA02F00021704721FAD5
:1008A00002F3D040C2F1200291400843194670473C
:1008B0003A2800D2303820F02002412A01D3A2F198
:1008C0003700884201D34FF0FF307047026811446F
:1008D0001378016018467047D1600449516104499A
:1008E000116200211161114600F036B8CD080000F8
:1008F00085050000426842B1016811F8013B23B14F
:10090000521EC0E90012184670470121C160881EBE
:10091000704742685AB1C368016843B983688B4223
:1009200005D0491E521CC0E90012002070474FF04C
:10093000FF307047064C074D06E0E06840F00103C9
:1009400094E8070098471034AC42F6D3FFF75CFCFC
:100950006CCA00008CCA00002DE9F34F8BB04FF039
:10096000000801F10C000C464FF0010B46460DF15A
:10097000080A01906269012101989047051E2DD057
:10098000252D2CD0216A8847C0B1626901210198C8
:100990009047216A88470028F7D1411E6269019873
:1009A000904700E0761CA1690B988847216A884728
:1009B0000028F7D1E1690B988847DBE7A1690B981C
:1009C00088470746A84201D1761CD3E7E1690B9816
:1009D00088477F1C02D1B8F1000F6FD046E1002795
:1009E00062693D463946019890472A2804D16269D8
:1009F0000121019890470125DFF884926269012165
:100A000001989047A0F130010A290AD24F45E5DC50
:100A100007EB870100EB4107303FDFD445F01005BD
:100A2000ECE7E90601D46FF000476C280AD04C28A7
:100A300014D0682815D06A280DD074281CD07A28C4
:100A40001AD01DE062690121019890476C2802D0FC
:100A500045F0040514E045F002050DE045F02005E1
:100A60000AE06269012101989047682802D045F0A8
:100A7000080505E045F40065626901210198904789
:100A8000C4E9015765283DD019DC58287AD00CDC20
:100A9000452837D004DC252826D0412831D131E043
:100AA00046282FD047282CD12CE05B2877D061280E
:100AB00028D063287CD0642823D15AE0D0E06F2866
:100AC00048D008DC66281DD067281BD0692821D0B3
:100AD0006E2816D127E0702845D0732868D0752875
:100AE00047D078280DD14DE0A1690B98884705467D
:100AF00025283FF469AFE1690B9888476D1C3FF4E6
:100B00006AAFB3E023466A466FF001000B99AFF37A
:100B100000809EE045F040006060A80723464FF04B
:100B2000000236D43EE0E8077FF447AF2068011D9D
:100B300021600068290501D506701BE7290701D54A
:100B4000068017E7A90703D5F117C0E9006111E78F
:100B500006600FE745F040006060A80723464FF0AD
:100B6000080216D41EE040F60E0125EA010060607E
:100B700016E045F040006060A80723464FF00A02E7
:100B800007D40FE045F040006060A80708D5234671
:100B900010226FF001000B99AFF3008059E007E0DD
:100BA000234610226FF001000B99FFF7CBFD50E0B8
:100BB0004FF000094F464B46632802D05B2806D011
:100BC00040E0E80601D40120A06001273AE0626914
:100BD0000121019890475E2805D14FF00109626913
:100BE000494601989047216939B900210A46534680
:100BF00043F82120491C0829FADBB0B3216969B9FF
:100C0000C11700EBD16253110AEB830122F01F02DE
:100C1000821A01200B68904003430B606269012136
:100C2000019890475D28E8D1B9F1000F09D0002064
:100C3000514651F82020D24341F82020401C08287A
:100C4000F7DB02AB224600976FF001000B99AFF380
:100C5000008000280CDA401C08D1BBF1000F05D041
:100C60004FF0FF300DB0BDE8F08FFFE74046F9E7E9
:100C7000E90701D108F1010806444FF0000B79E6BD
:100C8000CCCCCC0C70B58C1810F8015B15F00703B8
:100C900001D110F8013B2A1106D110F8012B03E015
:100CA00010F8016B01F8016B5B1EF9D12B0705D41D
:100CB0000023521E0DD401F8013BFAE710F8013B66
:100CC000CB1A921C03E013F8015B01F8015B521E82
:100CD000F9D5A142D8D3002070BD00002DE9FC4118
:100CE0000025DFF8948000954FF4807601242F468C
:100CF0000195304606F024FD38B1D8F804032042AF
:100D000003D0304606F012FD2543361D64007F1CDB
:100D1000B6B2082FEDD34FF4BE74204606F010FD96
:100D200048B1204606F002FD45F000456A46022122
:100D3000002006F063FC15F0FF0F16D001260024FA
:100D40002E420ED008EB8401D1F81005D1F8101511
:100D5000C0F30520094AC1F3014152F8242002B131
:100D600090477600641C082CEAD3002D02DA68460E
:100D700008F0ECFEBDE8FC8100600040EC080020BB
:100D80001CB5824607F06CF806F006FE0028FBD181
:100D900036485FEA0A05076836483749344EA0EB03
:100DA00001004FEAD0004FF0010808EB00447088C2
:100DB0001ED0002821D0204630A1AA6906F02AFFC3
:100DC0007088002819D0D5E90201CDE90001D5E9E4
:100DD000002320462FA106F02DFF708868B1E86936
:100DE0000090D5E90423204638A106F01AFF04E05C
:100DF00018B120463FA106F009FF1C48001D0068FD
:100E0000800705D5708818B12046474906F0FEFED8
:100E1000DFF81891002500BF08FA05F0384208D025
:100E200059F825202AB1708818B1204640A106F053
:100E3000F1FE6D1C1A2DEFD3380608D5708830B13D
:100E40000A480C30026820463CA106F0E3FE380454
:100E500008D5708830B105481030026820463FA19F
:100E600006F0D8FE504600F087F8000028ED00E0BC
:100E70001C0400209CCB0000ECCA000048415244F6
:100E8000204641554C542061742030782530385824
:100E900000000000202052303A20203078253038E1
:100EA00058202052313A20203078253038582020E0
:100EB00052323A2020307825303858202052333AA8
:100EC0002020307825303858000000002020523192
:100ED000323A2030782530385820204C523A2020A1
:100EE00030782530385820205053523A2030782519
:100EF00030385800537461636B2076696F6C61748D
:100F0000696F6E3A20737461636B20706F696E74E1
:100F10006572206F75747369646520737461636BA7
:100F200020617265612E0000D0BC00009802002094
:100F300043617573653A2025732E00004D656D4D34
:100F4000616E616765204661756C742041646472EE
:100F50006573733A20307825303858004275732015
:100F60004661756C7420416464726573733A203015
:100F70007825303858000000BFF34F8F05480168CE
:100F8000054A01F4E06111430160BFF34F8F00BFD8
:100F9000FDE700000CED00E00400FA0510B507F0D5
:100FA0007DFDBDE8104007F005BC00000249024885
:100FB000091F0968006808479002002070B54FF0CB
:100FC00080520124D2E94C100023082906D1CD0615
:100FD000C5F80C31C5F810315E4D2B60082955D18C
:100FE0005D4D2D685D4E35605B4D2D1D2D68361DA8
:100FF0003560594D08352D68361D3560564D0C3518
:101000002D68361D3560544D10352D68361D356000
:10101000514D14352D68361D35604F4D18352D68EE
:101020004E4E203635604C4D1C352D68361D3560D2
:10103000494D20352D68361D3560474D24352D68C6
:10104000361D3560444D28352D68361D3560424DBE
:101050002C352D68361D35603F4D30352D683F4E9F
:10106000403635603C4D34352D68361D35603A4D7F
:1010700038352D68361D3560374D3C352D68361DA9
:101080003560354D40352D68361D3560082904D151
:10109000050002D1334E324D3560082904D10500D8
:1010A00002D1314EFB253560082908D1050006D153
:1010B00092F858622D4A156866F3030515600829F1
:1010C00004D1020002D12A4D8A012A60082906D1E2
:1010D00028480168C90702D06FF001010160264865
:1010E000016841F470010160BFF34F8FBFF36F8F50
:1010F0004FF01021D1F80002002803DBD1F80402E0
:10110000002822DA1D4A14601D480468002CFCD017
:101110001224C1F800420568002DFCD0C1F8044239
:1011200001680029FCD0136001680029FCD0BFF3DE
:101130004F8F11487C380168124A01F4E061114375
:101140000160BFF34F8F00BFFDE710490E480860F4
:1011500070BD0000380500400404001020C50040A8
:10116000488103008C56004018F50040E40E004012
:10117000409602400004004088ED00E004E5014094
:1011800000E401400400FA050090D003A003002011
:101190000148006800470000780100202DE9F04177
:1011A0001A48D0F80453002601240FE095FAA5F060
:1011B000B0FA80F7B80000F5807007F06BFA10B154
:1011C00004FA07F0064304FA07F08543002DEDD139
:1011D000C6F3C05726F40005DFF834800AE000BFEC
:1011E00095FAA5F0B0FA80F658F82600804704FA80
:1011F00006F08543002DF3D109F07EFD002F03D0CA
:10120000BDE8F04103F066B9BDE8F081007002402E
:1012100008B50000C11700EBD161074B4A1153F824
:10122000222021F01F01411A01208840024201D0F2
:10123000012070470020704700E100E002E008C88C
:10124000121F08C1002AFAD170477047002001E040
:1012500001C1121F002AFBD17047022001F084BA9D
:1012600070B50024064D06E06868012110F83400CE
:1012700007F0E4FA641C28788442F5D3002070BD9E
:1012800090010020F8B516460C4605460A2A01D200
:101290000720F8BD07F0CAFB18B907F08BFB002840
:1012A000F7D1134F202113487D603C70BE60FFF7DB
:1012B000E7F90020C7E904000F4E0DE005EBC4007C
:1012C0003168009181788DF8011000780B4A6946E9
:1012D00007F000FB0028DCD1641EE4B2EED2BDE8CA
:1012E000F84005480021064A001D00F067B80000DC
:1012F00090010020E00B0020A4B500007D48000014
:101300000D40000072B606F0ABFD00BF06F044FBD6
:101310000028FBD1144D154915486A88081AC408DD
:101320002AB1012000EB044012A106F06FFC144822
:101330000068C00700D000BE6888022805D30220DC
:1013400000EB04400FA106F061FCBFF34F8F0C4887
:10135000E43801680F4A01F4E06111430160BFF312
:101360004F8F00BFFDE7000030040020C4CB000019
:10137000ECCA0000466174616C206572726F720085
:10138000F0ED00E053797374656D207265736574D8
:10139000000000000400FA050EB500210091CDE91F
:1013A00001106A4644F20100FFF7ACFF0EBD0000D9
:1013B000014802F092BE0000D80100203AB1006856
:1013C0000129426100D000210161002070470720FF
:1013D0007047000038B51148082358224168009131
:1013E0000F49006805F004F8002815D10D4A694638
:1013F0000D4802F077FE04000ED101210A4802F0E8
:10140000F6FE0123094A1946074802F03EFE064946
:10141000012008390870204638BD0000ACB5000036
:10142000000C0020319D0000D8010020FFFF7F004C
:1014300070B5044690F820000D4608B1002070BD3C
:10144000A26103F001FA401941F10001C4E902016F
:10145000206900B125612146BDE87040002009F0F7
:1014600045B90146002081F82000012009F03EB96D
:1014700070B505460548046905E02946204601F097
:10148000B1FD20680468002CF7D170BD1C0200205B
:1014900070B5094804690CE0267A002505E0294664
:1014A000204600F0EAFE6D1CEDB2B542F7D320688D
:1014B0000468002CF0D170BD1C02002070B50A48F1
:1014C00004690DE0267A002506E000222946204620
:1014D00000F012FF6D1CEDB2B542F6D3206804682F
:1014E000002CEFD170BD00001C02002070B508492F
:1014F000054606200C6907E02946204601F072FDEA
:10150000062803D121680C68002CF5D170BD0000BD
:101510001C020020F8B5044600250FE0002705E076
:10152000007800F0BDFA08B11120F8BD3946781CEA
:10153000C7B2304600F09CF80028F1D12946681C5B
:10154000C5B2204600F0AFF80600E7D100250DE057
:10155000002703E00078214600F0A7FA3946781CFE
:10156000C7B2304600F084F80028F3D12946681C41
:10157000C5B2204600F097F80600E9D1074800E020
:10158000086801680029FBD1046005486946806944
:1015900000906068026820469047F8BD2C02002049
:1015A000C0B500002DE9F04F87B04FF000081D4690
:1015B000934689460446DDF840A04646CDF80C80A7
:1015C00000E0761C6068012300224768214603A8DA
:1015D000B8470028F5D140468DF800800027B8466E
:1015E00001903BE0606801236A46D0F804C02146C0
:1015F00001A8E0476068012305AAD0F804C021468D
:1016000001A8E0479DF8141049451AD1D84514D1D6
:101610009DF80000CAF8000005F8010B6A1C85F867
:10162000009060689DF800302146456801A89B1E27
:10163000A847002007B0BDE8F08F08F1010000F0D6
:10164000FF0860689DF800300022D0F804C02146F1
:1016500001A89B1EE0479DF800000744B742C1D394
:101660000520E7E701480069704700001C020020E0
:1016700042788A4201D8002070478278104408449A
:10168000704742788A4201D800207047827810441F
:101690000844704742788A4201D800207047827817
:1016A000104408447047027A8A4201D800207047EB
:1016B00001EB4101093008447047027A8A4201D89F
:1016C0000020704701EB4101093008447047027A5D
:1016D0008A4201D80020704701EB410109300844DB
:1016E0007047000002484078002800D00120704771
:1016F0001C02002002484178491C417000207047BC
:101700001C02002002484178491E417000207047A9
:101710001C020020084901E00968091D0968002928
:10172000FAD10549091F01E01168091D0A68002A5C
:10173000FAD10860002070473402002009490BE00C
:10174000824207D1026852680A6000680021416045
:10175000084670471168091D0A68002AF0D1052063
:10176000704700003002002010B500210A464FF4F7
:1017700000634418227200EB8104491CC9B2636102
:101780000429F6D380F8292080F8282010BD10B550
:10179000002000F05DF9BDE81040802000F058B94D
:1017A00010B5002000F056F9BDE81040802000F090
:1017B00051B9000070B50D460146287806240B2863
:1017C00013D007DC07284CD2DFE800F04B0D0F11D7
:1017D0004B2739000C2825D00D2825D00E282CD0D9
:1017E00085283ED110E0032014E0002439E024488D
:1017F00004F040FE0028F8D0224801210160BFF328
:101800006F8FBFF34F8FF0E71D48001F007803284C
:1018100027D1042009F0D4F923E0084600F058F855
:1018200004461EE0002005E01748006810F0010F94
:1018300003D0022009F0C4F9D7E70120FAE7EB78DA
:10184000032B0ED00E48001D02683AB10021016042
:10185000416818469047040005D000E00E2408F0C7
:1018600033F8204670BD09F0A3F928B1A878002804
:10187000F7D107F0FEFFF4E707F0F8FFF1E700000B
:10188000440200205C70024038040040024949785C
:10189000C14001F00100704740020020024A0146A9
:1018A000D2E9000210470000A80D002070B50C46D8
:1018B000054607F0D5FFA84201D0102070BD0348AF
:1018C000D4E90012C0E90212002070BD40020020DD
:1018D0007FB5054605208DF8000006240DF10100B6
:1018E00007F0CAFF09F064F92949002008609DF853
:1018F000010010F01F0006D001280FD0022826D0CA
:10190000032833D106E06946284608F0BFFB0446A9
:1019100006282AD16846FFF7E9FD25E09DF8050075
:1019200003A900F0C7FC050008D06A469DF80C101A
:1019300000F09FFC0446062802D016E0102415E0B3
:101940006A469DF80C10284608F0A8FC0CE09DF8AB
:101950000500010705D0694600F058F8044606283E
:1019600003D1684608F010FC044624B107F0ACFF30
:1019700004B0204670BD09F01BF930B107F070FFCC
:101980000028F5D107F075FFF2E707F06FFFEFE7EA
:1019900048020020FEB5C08814460E46A04201D27F
:1019A000054600E01546844207D2802007F098FDE6
:1019B000B4FBF0F100FB114068B100200096CDE9C6
:1019C0000150002000F0EEFD6946802000F07AF81A
:1019D000040002D006E00120F0E705498020FFF76F
:1019E00065FF0446002000F0DFFD2046FEBD00003C
:1019F00008B6000008B140210160014870470000AE
:101A0000FC0D002007F068BC07F082BC10B50C4646
:101A1000010600F00F02092A09D200F00BF8006855
:101A200028B141680A682146BDE8104010471020DF
:101A300010BD0000010600F00F0001D5034901E0D0
:101A40000249483101EBC00070470000600D0020E2
:101A500007F09EBC10B5044600F00F00082805D220
:101A6000204607F0B7FC204607F06AFD2046BDE897
:101A7000104007F0BDBC000070B50C46054607F0ED
:101A8000F7FC18B105480078022801D0082070BD85
:101A900021462846BDE8704007F0ECBC1C0200203F
:101AA00010B5FFF7C7FF006810BD10B50C46FFF773
:101AB000C1FF04601CB161680968416010BD00216C
:101AC000FBE7000070B50C46054607F0D1FC18B1E5
:101AD00005480078022801D0082070BD214628461C
:101AE000BDE8704007F05CBD1C020020F8B504465C
:101AF00000782A4D05280BD1294800682849C0B232
:101B0000091F096811F0FF0F04D1052802D1254CE7
:101B1000207818B3234F6946243F386A04F07BFCD1
:101B200006001AD020683060002000F03BFD688875
:101B3000E968401A401CF080184800210C3004F07D
:101B4000B8FCB080002000F02FFD6946386A04F030
:101B500083FC0146204609F041FBF8BDAE6905E073
:101B6000316860888968884730684668002EF7D1F8
:101B7000002000F017FDE86808B960886880074811
:101B800001210C3004F07FFC002000F00DFD01214C
:101B9000204609F023FBE868F8BD00001C02002085
:101BA00084740240E4B5000070B5774C05460178B6
:101BB000207809297BD008DC092979D2DFE801F0F7
:101BC0006A84B28D9FBBC283D700822927D017DCDD
:101BD0000A296ED00F296DD080293BD0812972D17E
:101BE0006A48FFF75BFE6948FFF742FC0D2009F0E9
:101BF00003FBFFF74DFCFFF7CAFD606950B906E033
:101C0000832931D0842937D085295CD193E060487D
:101C1000007A00B1012007F05BFE01207EE0FFF7B3
:101C200037FC07F07BFE002008F088FC5748401C7A
:101C3000FFF71EFC5548401CFFF730FE0E2009F050
:101C4000DBFA207800F084FC00283CD0BDE870402E
:101C500005F020BA052803D0062803D0072832D182
:101C600002205BE0082059E003282CD107F07AFE1F
:101C7000002828D0042051E0032805D107F072FE87
:101C800010B1042008F05AFC07F0C8FE00281AD052
:101C9000062043E0032801D0082803D13B48801CDC
:101CA000FFF782FF002009F0A7FA646909E060E00D
:101CB00009E060E044E02946204601F093F92068FD
:101CC0004468002CF7D170BDFFF7E2FBFFF768FD19
:101CD000022008F033FC012005E0082809D0052087
:101CE00008F02CFC032009F087FA2846FFF7D6FD00
:101CF00044E0022008F022FC07F05CFDF2E703203C
:101D000009F07AFA2148C01CFFF7C8FD1F48C01C23
:101D1000FFF7AEFB20780628A2D10720BDE870406F
:101D200008F00CBC032008F009FC022009F064FA5A
:101D30002846FFF79DFB2846BDE87040FFF7AEBD83
:101D40000F2019E0A878FFF775FED0E90023294697
:101D5000104698470028B6D0A8780107B3D000F005
:101D60000F010829AFD2BDE8704007F0C5BB0820BD
:101D700002E0092000E00A2009F03EFA2846BDE80A
:101D80007040FFF775BB00001C020020D1B50000B9
:101D9000F00D0020FFF7AABEF8B5214C00250095F4
:101DA000204EA0684FF4006728B9211D306A04F066
:101DB00048FBA060C0B1818869B1C188B94200D335
:101DC000C580C188ADF80210C188491CC1808188D6
:101DD000491E81801FE0FFF7E7FE1149306A091DA7
:101DE00004F024FBA56019E0E068002817D000206B
:101DF00000F0D8FB6088B84200D365806088ADF8F9
:101E00000200401C6080064801210C3004F062FB97
:101E1000002000F0C9FB6846FFF7C6FE0120F8BDB0
:101E20001C020020C0B500000148FFF75FBE0000A3
:101E3000C0B5000010B5001D04F01FFBBFF34F8FAD
:101E400010BD10B5001D04F018FBBFF34F8F10BD7F
:101E500010B5001D04F00BFBBFF34F8F10BD10B584
:101E6000001D04F004FBBFF34F8F10BD10B500211F
:101E7000FFF723FC0021FFF704FC007810BD10B52C
:101E80000021FFF724FC0021FFF704FC007810BDBF
:101E90002DE9F0478046002418780E461F46154667
:101EA000A2464FF001090F286AD2DFE800F0082BA4
:101EB000767869353A696969698092A4A70079885A
:101EC000104603F0ECFA0146A0F57F40FF3822D01F
:101ED000002053462A1892F8244034B105EB800CB8
:101EE0007C88CCF8144082F8243095F829201AB167
:101EF000401CC0B20428EDD3B069C9B2C2694046E3
:101F0000904748E00321104600F059F985F80C90FD
:101F10002846FFF729FC6BE03146404608F07EF981
:101F200039E0B8784446000624D5D87820B9032291
:101F30003146404609F05AF9686828B1032128461D
:101F400000F03DF9002453E000204FF400624946C0
:101F500005EB80035B69934202D12B1883F82410B0
:101F600095F829301BB1401CC0B20428F0D3B069E9
:101F700081680EE0B069C06810B1D87810B106E091
:101F8000062435E002223146404609F02FF9B069B7
:101F9000C1682046884704462AE002212CE002213D
:101FA000104600F00CF9B06981684046F2E74046FF
:101FB000FFF7B0FB04001BD14046FFF79BFB04007A
:101FC00016D12846FFF7D0FB0021284600F006F97D
:101FD0000EE04046FFF7B2FB040009D14046FFF790
:101FE00091FB040004D100214FEA050000F0E7F85E
:101FF0002046BDE8F08701211046E7E701211046A1
:10200000F4E7C26952680A60C069006870472DE948
:10201000F041056880464FF0000417000E4605F1B8
:102020000C05204614D0291891F82E20B2422CD04D
:1020300014B90AB901F12E04401C0628F3D324B1C7
:102040002846FFF7F7FE7FB90DE01120BDE8F081CB
:10205000291891F82E10B14214D12C182E3414D016
:102060002846FFF7E7FE002626702846FFF7F0FE19
:10207000284600F0D8F80028E8D04046BDE8F041F6
:1020800002F0D7BE401C0628E2D30020DEE700683D
:1020900090F84800084000D0012070472DE9F04139
:1020A000046807460D4694F838000C34164628405C
:1020B00000D00120B04202D10020BDE8F0812046CE
:1020C000FFF7B8FE94F82C000EB1284300E0A843B7
:1020D00084F82C002046FFF7BBFE204600F0A3F852
:1020E0000028EAD03846BDE8F04102F0A2BE026AFC
:1020F00052680A60006A006870472DE9F04107469F
:10210000046890F834000D460C341646A84202D8F4
:102110000720BDE8F081204600F076F840B194F841
:102120003200E84000F00100B04203D10020F0E7A7
:102130000820EEE72046FFF784FE012094F83210D5
:10214000A8400EB1014300E0814384F832102046DC
:10215000FFF785FE204600F07BF80028D9D03846EE
:10216000BDE8F04103F033B970B5046806460C349D
:102170000D46204600F048F840B14DB1B4F92E00AC
:10218000294602F09CFE28B1112070BD082070BDC8
:10219000002070BD2046FFF754FEA08D2844A08586
:1021A0002046FFF75CFE204600F052F80028F0D0F1
:1021B0003046BDE8704003F00AB9C068704701229C
:1021C0008A40D14304F065B901228A40D14304F02A
:1021D00060B901228A40D14304F05BB9012202FABE
:1021E00001F104F06BB9012202FA01F104F066B9C1
:1021F000012202FA01F104F061B90068C840C0434D
:1022000040F30000401C704710B504460021FFF762
:10221000F4FF30B101212046FFF7EFFF08B10120A4
:1022200010BD002010BD10B501686FEA910141F3A7
:102230000001491C03D000F0A5F9002010BD006882
:102240006FEAD00040F30000401C80F0010010BD98
:1022500010B504460221FFF7D0FF18B100F092F943
:10226000002010BD03212046FFF7C7FF80F00100CA
:1022700010BD114642681368184770B5044640689F
:102280000D46C2680AB12046904720462946FFF70E
:102290000AFA05464678002408E021462846FFF75A
:1022A000E7F9007807F074F8641CE4B2B442F4D3A0
:1022B00070BD00002DE9F04180460E480E460569CC
:1022C00014E02F7A00240DE021462846FFF7EBF9B1
:1022D0000178414504D106B134702846BDE8F0814B
:1022E000641CE4B2BC42EFD328680568002DE8D135
:1022F0000020F3E71C02002070B504464068154634
:102300000E4683681BB120469847062803D1204615
:1023100031460DB1072070BDFFF7C5F90546467877
:10232000002408E021462846FFF7A2F90078FFF7CD
:1023300091FB641CE4B2B442F4D3002070BD0346A8
:1023400000205A681269002A01D0184610477047C9
:102350002DE9F8432E4C054608234FF484722B498F
:10236000206A04F045F810B10320BDE8F88329483D
:1023700007F026FA0028F8D127490870086148615B
:1023800048212648FEF77CF9244848214830FEF7CA
:1023900077F9224878307DB195E80E00183080E852
:1023A0000E00002004F0FAFE18B1852801D0FEF7D7
:1023B000F3FF1B4D002611E004F138010EC9EDE7D3
:1023C000002703E000782946FFF76FFB3946781CA9
:1023D000C7B24046FFF74CF90028F3D13146701CD4
:1023E000C6B22846FFF75FF95FEA0008E8D16068E7
:1023F00000906946284600F0F5FD040003D007F080
:1024000005FB2046B1E70020AFE70000580C002094
:10241000C0B50000951D00001C020020600D0020CA
:1024200048B6000030B1012807D0022808D105487D
:10243000FFF75CBB03480838FAE70248001FF7E7DC
:1024400070470000F0B5000010B507F001FA10B1B8
:1024500007F0F4F908B1082010BD044804F0B2FEFA
:1024600008B1FEF799FF002010BD0000F4B5000090
:1024700070B50C460F4901EB800555F82400017832
:1024800031B10020FFF7B6FA002255F8241006E01B
:10249000801C70BD521CD2B2491C20F812300B783F
:1024A000002BF7D1022101EB4201C9B241F4407186
:1024B000018070BD70020020074803E0016811F040
:1024C000010F07D00168C1F340010029F6D003488D
:1024D000FFF70CBB7047000038040040C5B5000092
:1024E000034808B5806800906846FFF7FFFA08BD0A
:1024F000C0B5000030B44FF0000180B10D4B002298
:1025000013F8124084420ED103EB4200407870B1C0
:10251000094A02EB800252F8212042B100E000207B
:1025200030BCFFF7A5BF521CD2B2062AE8D330BC9C
:102530000020704732B7000070020020034808B541
:10254000C06800906846FFF7D1FA08BDC0B500002A
:10255000092808D2DFE800F0070705070705050589
:1025600005000120704700207047092808D2DFE8E5
:1025700000F0070705070707070705000120704758
:102580000020704708B50120FFF780F9002806D029
:102590000348006900906846FFF7A8FA012008BDCB
:1025A000C0B5000000F002B800F008B872B60248EA
:1025B0000168491C016070478802002003490868CF
:1025C000401E086000D162B67047000088020020FB
:1025D00070B5054608680C46411C04D005F07FF82C
:1025E000206804F0DFFF6068411C02D0002104F085
:1025F000C7FF2968A069C1F82405607D227D29688C
:102600001043C1F86C05D4E900122868C0F81425FD
:10261000C0F80C15207D012814D1A068411C02D0FF
:10262000002104F0ADFFE068411C04D005F057F82C
:10263000E06804F0B7FFD4E902122868C0F8082562
:10264000C0F8101570BD70B5054608680C46411CF1
:1026500004D005F04EF8206804F0AEFF6068411C1D
:1026600002D0002104F095FF2968A069C1F8240573
:10267000607D217D2A680843C2F86C05D4E9001208
:102680002868C0F80C15C0F81425207D012814D145
:10269000A068411C02D0002104F07BFFE068411CCF
:1026A00004D005F026F8E06804F086FFD4E90212B1
:1026B0002868C0F80825C0F8101570BDF0B50022D4
:1026C0000D4BCA60C1E901230C4B0D4D1446EE1AA7
:1026D0000A600CE003EB0215EF683F79FF2F05D08D
:1026E000A04202D1A8680860F0BD641C521CB2EB85
:1026F000161FEFD3F0BD0000C8B90000CCCA00001F
:10270000ECCA0000102802D31038C0B2704740F065
:10271000800070472DE9FC410646C0074FF00005D8
:102720000ED0104F00240122385D00950023114681
:10273000019504F0AFFE641C042CF4D300F04EF8B5
:10274000B0070DD5074E0024361D0022305D03234F
:1027500000951146019504F09DFE641C042CF4D3F1
:10276000BDE8FC8144B40000094908B5085C00904C
:10277000684604F05BFFD0F80425009B01219940D6
:1027800021EA0203C0F808351140C0F80C1508BD55
:1027900044B400000249085C012104F0B4BF000009
:1027A00044B400000249085C002104F0ACBF000002
:1027B00044B40000084908B5085C0090684604F07D
:1027C00035FFD0F804050099C84010F0010000D092
:1027D000012080F0010008BD44B4000010B50024C1
:1027E0002046FFF7D7FF641C042CF9D310BD10B5A9
:1027F00000242046FFF7D6FF641C042CF9D310BD3B
:1028000010B50246064B4FF0FF3000215C5C94424D
:1028100001D1084610BD491C0429F7D310BD0000A2
:1028200048B400002DE9F0470D468146FFF7E8FF68
:102830000446042836D2DFF874801B481C4EA8F1E9
:102840000C0725B3012D0ED0022D2BD104EB440033
:1028500030444578002D25D0B968002922D028467B
:10286000BDE8F047084704EB4401755C0E447178FD
:1028700049B10E4A4FF48041093A8068FEF7D8FD0D
:1028800008B987F80390B17808F80410E2E7806887
:10289000FEF7E7FD04EB4401314418F804008D789D
:1028A000A842D7D0BDE8F0874CB40000C00000209B
:1028B000CC0800200149086000207047400100203A
:1028C00010B51E4C0E380C2836D2DFE800F0061783
:1028D000212B353535351219232D184803211C308D
:1028E000FFF742FC20680022BDE810405221FEF7AD
:1028F0009FBD2068BDE81040FEF7B3BD012200E097
:1029000000220E480021BDE810401C30FFF7F5BB47
:10291000012200E0002209480221BDE810405430A5
:10292000FFF7BCBB012200E0002204480A21BDE8F9
:1029300010405430FFF76BBB10BD0000FCB200002C
:1029400070B50023042810D20D4D00EB4004012A7D
:1029500002D101290CD00022094E00EB4000304486
:1029600061B1012906D0022906D00723184670BD9F
:102970000E30C2B22A55F9E74270F7E78270F5E7E8
:10298000CC08002070B506461E480024C0E901614D
:10299000B00720D50025012211462846FFF7D0FFB9
:1029A0006D1C0446042D02D2002CF4D013E094B91F
:1029B00040F2333204211448FEF764FC04000AD1CB
:1029C000FEF74EFC040006D10F48104A0021001FFC
:1029D000FEF7F4FC0446F00712D00120FFF79AFE40
:1029E00074B909480A4A00210C38FEF7E7FC0400D4
:1029F00006D10548074A01210838FEF7DFFC0446E6
:102A0000204670BDB400002058B40000DD2C00004A
:102A1000895A00005B1200002DE9F05F6E4C0546FC
:102A200000266078B34618B184F801B003F014F8BA
:102A30006A4F4FF47A694FF4C87A4FF00108182DA5
:102A400069D2DFE805F00C1313384754696E727BC6
:102A5000727BC58484848484B3B6B9BCC5C502F0D6
:102A6000FBFF3868FEF7FDFC06465CE00020FFF740
:102A7000A1FE00284FF0000008D0FFF78BFE022DCA
:102A800002D14FF4E16008E0484606E0FFF78AFE15
:102A9000022D01D1C82000E05046410CC0034FF484
:102AA0007A72801841F10001257052000023FDF771
:102AB00025FD01462AE00020FFF77CFE00284FF0AC
:102AC000000004D0FFF766FE4FF44870E5E7FFF71B
:102AD00069FEDFE70020FFF76DFE00284FF00000E1
:102AE00002D0FFF757FECFE7FFF75CFED4E70020E8
:102AF000FFF760FE00284FF0000002D0FFF74AFE0B
:102B000001E0FFF74FFE257040F6CD410022386806
:102B1000FEF78EFC064646E00020FFF725FE2570F6
:102B200008E0002051E025703DE084F8018001209C
:102B3000FFF71AFE002240F26661E8E784F80180A0
:102B40000120FFF711FE00224FF40051DFE7786803
:102B5000FEF787FC0646D5F1110000D02EB1022009
:102B6000FFF718FE84F802B01DE0012816D980B2E4
:102B7000C8214843C117C90341EA5041C0034FF47B
:102B80007A72801841F1000152000023FDF7B6FC73
:102B9000014600227868FEF74BFC06460220FFF74C
:102BA00001FE84F802803046BDE8F09F02F054FF39
:102BB000B9E702F051FFB4E702F04EFF04E002F083
:102BC0004BFF0020FFF7EEFD0120FFF7EBFDAAE72A
:102BD000FFF70DFEA7E70000B40000204CB4000092
:102BE0002DE9F0470546861C91460F464FF0010A35
:102BF0000020FFF7D7FC1B4C04F21C4860683860CB
:102C0000D4E90101184F401A3968081A0EE0012171
:102C1000404603F038FC03F02FF90146404603F02C
:102C200032FCD4E90101401A3968081A401C864276
:102C3000EDD8B9F1000F03D0052065F3891002E04B
:102C4000062065F39F5061683A68114004EB8101EA
:102C5000C8606068304460600020FFF7A5FC504603
:102C6000BDE8F087F80F00202403002070B50D4662
:102C700004460A2902D10D21FFF7F8FFA068226857
:102C8000411CA1601554D4E90101814204D32046BE
:102C9000BDE8704004F005BB70BD000004488168C9
:102CA0004068814201D10120704700207047000038
:102CB000F80F0020034630B5074800210478426829
:102CC00006E000BF02EBC10005789D4203D0491C1D
:102CD000A142F7DB002030BD9001002000780221E6
:102CE000FFF7A0BD05494FF0FF32082841F820202A
:102CF00002D3084480F8582070470000EC080020F8
:102D0000F0B54FF0FF3512B10023082601E008238B
:102D10000C260C4C05E000BF54F823707F1C04D037
:102D20005B1CB342F8D32846F0BD26185DB286F886
:102D3000305044F82310002AF5D1E11881F85800EA
:102D4000F1E70000EC0800200249084490F9300047
:102D500070470000EC08002070B5816804468A7F47
:102D6000002A4DD0C87F00284AD0121A0844D5B294
:102D700000F120016A1C1F30FDF75BFCA068C17FD9
:102D8000491EC177A068817F491E81778DB30822D3
:102D90001C49206904F078FA204603F001FB817891
:102DA000C078814211D1A06817A2C17F43180821C1
:102DB0002046203303F016FF204600F017F929467D
:102DC0002046BDE8704001F02FB8204600F022F9FF
:102DD000204600F00BF9A0680BA2C17F4318082120
:102DE0002046203303F0FEFE2046BDE8704000F090
:102DF00007B92069BDE87040044A03A104F044BA51
:102E000070BD0000E02F00002573000001B9000034
:102E100070B504468068827FC17F521A12F0FF05A8
:102E20003AD0084400F121012A462030FDF701FC88
:102E3000A068817F491E8177204603F0B1FA81782E
:102E4000C078814214D1A06814A2C17F4318082120
:102E50002046203303F0C6FE114A10A1206904F079
:102E600013FA6D1EE9B22046BDE8704000F0DCBFE9
:102E7000204600F0CFF8204600F0B8F8A06807A27E
:102E8000C17F431808212046203303F0ABFE2046C3
:102E9000BDE8704000F0B4B870BD000025730000BC
:102EA00005B900002DE9F041044680680F46D0F8CE
:102EB0004811C27F11F00106817FA1EB0203DDB250
:102EC0000BD07F2901D3002D7ED0A068C17F08449C
:102ED000002180F8207066B113E07F297CD2002D9C
:102EE000F3D0831803F120012A46481CFDF7A1FB0B
:102EF000EBE7A068827F521CD2B28277A0682032B2
:102F000081544DB3204603F04BFA8178C07881425A
:102F10000ED1A06831A2C17F43180821204620337A
:102F200003F060FEA81BC1B2204600F07DFF21E047
:102F3000204600F06FF8A06828A2C17F431808213E
:102F40002046203303F04EFE204600F059F80121C0
:102F5000204601F043F80DE03EB1A068827F521C8C
:102F6000D2B28277A068203281543A461CA12069EF
:102F700004F08AF9A168C87F401CC877204600F099
:102F800040FF0028204603D0BDE8F04100F058BFC4
:102F900001F047FC00281FD0204603F001FA054647
:102FA000C078A978401A401EC1B2204600F0CAFE7F
:102FB000204600F045FFE878A978401AC1B22046C3
:102FC00001F018F8287800E006E0401EC1B2204663
:102FD000BDE8F04101F002B8BDE8F08125730000C2
:102FE0002563000042681268104700000069024A29
:102FF00002A104F049B90000F9B8000025730000EF
:103000000069024A024904F03FB90000F3B8000029
:10301000FC2F00000069024A024904F035B90000A3
:10302000F0B80000FC2F00002DE9F04F4FF0000930
:1030300095B005464F464C4600F0E0FD284602F0AC
:1030400083FB284600F08AFE284600F0DAFE10B91D
:10305000284600F0F5FEAA680C2301A90EA820322C
:1030600003F072F803460E9840B15BB149A2022109
:10307000284603F0B7FD15B0BDE8F08F284600F0F4
:10308000DFFEF8E7494848490026A1EB00080DF1AA
:10309000040A834613E008D345A0009049A2022108
:1030A0002846019B03F09EFDE5E70BEBC604606834
:1030B00001685AF82900FDF7F5FA18B1761CB6EB4D
:1030C000D80FE8D94FF000000F90A96848608860D9
:1030D000C86008616168C86828B14AC9AA68C2E9BD
:1030E0000360C2E90113606809F101044FF00006B2
:1030F000D0F808800E98844235D25AF8240033A1C3
:10310000FDF7D0FA40B35AF8240031A1FDF7CAFA0E
:1031100010B310A832460090761C0FAB21464046F3
:1031200000F028FDFEB10F98E8B101685AF82400BC
:10313000FDF7B8FA0028DDD10F98C16839B190E8E1
:103140004810AA682746C2E903C1C2E90136002631
:10315000641CD0F80880CDE7A868D0F8481141F089
:103160000201C0F84811A868036933B10E980AEB50
:103170008702C11B2846984704E017A2022128466F
:1031800003F030FDA868D0F8481121F00201C0F822
:10319000481170E76E6F74207465726D696E6174AA
:1031A00065643A2025630A00CCCA00008CCA00007E
:1031B0003A20636F6D6D616E64206E6F7420666F70
:1031C000756E6400257325730A0000002D680000E9
:1031D0002D2D68656C700000506C656173652073FF
:1031E000706563696679206120737562636F6D6DC8
:1031F000616E642E0A0000008068D0F84801C0F3B8
:10320000C00070472DE9F0410446C0688EB00D46FD
:10321000406800263246006801A904F00DFF18B18D
:1032200000200EB0BDE8F0816DB1019804F0D6FE2B
:10323000A168D1F83801401CC1F8380100F007003E
:1032400001287AD10126204603F0AAF805468078A5
:10325000012804D9401EC1B2204600F0CBFE2878D8
:10326000012804D9401EC1B2204600F0DDFD2046F1
:10327000FFF7BCFE2EB132A20221204603F0B2FCC1
:103280005BE04FF000080023082202A9019804F037
:10329000B4FE04980590BDF80C00ADF81800BDF818
:1032A0000E00ADF81A008DF81D800298082700F076
:1032B0000300012802D0022818D032E002983B46D1
:1032C000860AC0F3C2008DF81C00029808A9C0F35A
:1032D0008315AA00019804F090FE2069009005ABC8
:1032E0002A4608A9304604F0CFFD1AE00298850D61
:1032F000C0F3C2008DF81C00082D01D22E4600E05C
:1033000008263B46324608A9019804F076FE374469
:10331000AD1B05AA314608A8236904F095FC002DD1
:10332000EAD1019804F05AFEE068002201A9406841
:10333000006804F081FE0028A5D0012071E700009C
:103340004C6F7374206C6F6773202D20696E6372ED
:1033500065617365206C6F67206261636B656E6485
:103360002071756575652073697A652E0A00000005
:1033700030B4406804682469A44630BC60472DE935
:10338000FC41002604460127019601AB0122694653
:103390002046FFF7EDFF0198002836D09DF8000089
:1033A0007F28F2D804F047FEA068417821B10129B6
:1033B0006FD002296ED18DE09DF800500D2D09D0FF
:1033C0000A2D07D0D0F84821002161F38D12C0F8F2
:1033D000482122E0D0F84811C1F3871129B1D0F873
:1033E0004811C1F38711A94217D1D0F8481165F3EC
:1033F0008D11C0F84811A068817F41B12046FFF7C8
:1034000013FE0221204600F0F5F8BDE8FC81C0F86B
:103410004461204600F014FDF3E7092D1ED004DCC2
:10342000002DB2D0082D04D121E01B2D12D07F2D0C
:1034300026D0FDF7A3F80068405D10F03E0FA4D041
:103440002046FFF7D9FE30B39DF800102046FFF765
:1034500029FD9AE7A1680120487096E72046FFF70A
:10346000CBFE002891D0204600F0DEF88DE7204604
:10347000FFF7C2FE002888D02046FFF76DFC84E7E6
:103480002046FFF7B9FE0028E3D02046FFF7C0FC36
:103490007BE716E019E0A1689DF80020887F7F286F
:1034A000D7D2C87F0B18401CC87783F82020A068AB
:1034B000C17F084480F82060A168887F401C88771D
:1034C00063E79DF800105B2901D0002100E0022194
:1034D00041705AE7002141702046FFF78DFE002819
:1034E00093D09DF80000422840D01BDC33287CD0CC
:1034F00012DC312872D03228ABD1A1680320487089
:10350000A068D0F84811D0F8482127EA010161F3FA
:103510000002C0F8482138E7342856D0412898D115
:10352000012124E0462853D01BDC432823D0442823
:103530008FD1204602F034FF05460078A979491C56
:10354000884202D1A978012987D001284FF00101D2
:1035500020462FD000F068FCA168C87F401EC877C5
:1035600013E748283DD04C2889D1C9E700212046DF
:1035700001F0D8FF09E7204602F012FF0546007867
:103580006978884203D1A978EA78914298D069791C
:1035900088424FF00101204606D100F0D3FB697943
:1035A000204600F041FC01E000F018FDA168C87F52
:1035B000401CD4E700F01EFD6979204600F00EFDA6
:1035C000A068C17F491EC177DFE6A168032048706B
:1035D000204600F0C3FBD8E607E0FFE7A168032020
:1035E0004870204600F0E3FBCFE6A1680320487056
:1035F00046E700008268022911700CD18268002120
:1036000082F820108268D1778268917702A2032124
:10361000036803F0E7BA704725730000002801D063
:10362000FDF739B8704700002DE9F04F054600203E
:10363000A7B007461590064620900690A868817F9F
:10364000C1F17F01C9B25FEA010970D0C27F00F108
:103650002001A030FCF7EDFFA8680024C17F0844DA
:1036600080F8A040FCF78AFF21900168A8680C232D
:10367000C27F0244D27F895CC0F84441AA6801F04D
:10368000010A07A916A8A03202F05EFD0798FFF70D
:10369000C5FF00F0FF08A34617941894169818B1B8
:1036A0005044401EB0426CD8BAF1000F01D0002047
:1036B00005E007A850F82600FFF7B0FFC0B280462B
:1036C000002419A822460090641C17AB31465846C6
:1036D00000F050FA179800286CD0016807A84246FD
:1036E00050F8260002F084F90028EAD018987F1CD0
:1036F000F0B117980068FFF791FF0699C0B28842B1
:1037000000D90690B9F1000F2ED022A8009018AB76
:1037100031465846159A00F02DFA17980168189806
:1037200001EB08020168002001EB080316E08DE0C0
:10373000601E209017980068FFF770FFC0B20690D7
:10374000A0EB080048450FDAC0B20CE013F800C047
:10375000614506D1401C10F0FF0010D0115C00291B
:10376000F4D1814500D98146601E159017981890B4
:10377000A7D266A20421284603F034FA1AE0FF20FB
:10378000EFE7002419A822460090641C17AB3146CD
:10379000584600F0EFF9ECB31798002856D00168AE
:1037A00007A850F82600FCF77DFF0028EAD11798FB
:1037B000D0F808B0BBF1000F09D0179838B11699AE
:1037C000761CF6B201EB0A008642FFF467AF002FC9
:1037D0003CD0012F43D000212846069A06F048F934
:1037E000209C0DF11C0A19A822460090641C17ABFE
:1037F0003146584600F0BEF91798424601685AF81B
:10380000260002F0F5F840B117987F1E069A01686D
:10381000284600E01DE006F02BF9002FE3D146A278
:10382000032128462B6803F0DDF9AB6843A2082189
:103830002846203303F0D6F9284600F099FB189863
:103840004A4601682846414400F032FA27B0BDE8F4
:10385000F08F2EA20421284603F0C4F9F6E79BF866
:10386000000038B119A8009018AB31465846159A97
:1038700000F080F918980068FFF7D0FE404506D0A8
:1038800018984A4601682846414400F011FA2198E8
:10389000A9680268C87F0B1893F82030D25CD20761
:1038A00015D0897F8842D1D2284602F079FD8478EC
:1038B000A868C17F491CC177284602F071FD807855
:1038C000A0421FD10121284600F088FBBEE7D1F8B5
:1038D0004801C00711D0D1F8480120F00100C1F81B
:1038E000480120212846FFF7DDFAA868D0F84811E2
:1038F00041F00101C0F84811A8E720212846FFF750
:10390000D1FAA3E7284600F09BFA9FE754616220B2
:1039100066756E6374696F6E3A20636F6D6D616E6C
:10392000647320636F756E746572206F766572665E
:103930006C6F7765642E0A000A25730025730000FA
:10394000002806D08868D0F8481141F02001C0F85E
:103950004811704770B5044640680D4690F828003D
:1039600030B1A0680068FDF77CFD08B108280CD1D3
:10397000012685B1606903F07BFC61680022083193
:10398000606903F031FC08B1062070BD606880F802
:103990002960002070BD606890F8280048B9074A87
:1039A0000021A068FDF70AFD6168002881F8286001
:1039B000F0D12046BDE8704006F096BA55A600004A
:1039C00070B5044640680D4602606068002243609E
:1039D000606880F82820606880F8292060682022CC
:1039E0000830FCF726FE2C61074A2946606903F07F
:1039F000FBFB050005D1E06804F056FD206904F0EA
:103A000053FD284670BD000091A700001A60C068F1
:103A10001A4604F087BC10B50446406903F028FC40
:103A2000A0680068BDE81040FDF71BBD7CB51A60BA
:103A3000044600691A4604F0B3FC050025D160690C
:103A4000134A0178515C19B1001D05F091FB02E0A9
:103A50000C3005F0F1F9C0B9FF20009001236A464F
:103A600001A9206904F0E8FC78B900980199C2B274
:103A7000606903F0EDFB0546606890F8290020B10D
:103A80001DB92069009904F0C4FC28467CBD0000E3
:103A9000480100202DE9F8431E4615468846074692
:103AA00000241BE0786808EB04016B460268D2F83A
:103AB0000CC02A46E047009804442D1A70B9B86833
:103AC000017803290AD000BFD0F848118906FBD538
:103AD000D0F8481121F02001C0F84811002DE1D1A3
:103AE000002E01D000983060BDE8F88370B5084C16
:103AF000050009D010342168002907D0086820602B
:103B0000496828468847F6E70834F4E770BD0000A6
:103B1000D8080020054A012120B1012805D1917063
:103B2000FFF7E4BF51700020FAE77047D808002083
:103B300008B550686A4605A1FCF7E8FD04490098FD
:103B40000E300968C0B2884708BD00002575000026
:103B50004001002008B550686A4604A1FCF7D6FD74
:103B6000034900980968C0B2884708BD2575000060
:103B7000400100202DE9F05F1C460A9E15464FF0DB
:103B8000000959B180B3017839B3426831462846FB
:103B900090473068D8B12660BDE8F09F14491548B9
:103BA000A1EB0008B5EBD80F11D2DFF84CA000262E
:103BB000834609E00BEBC607786801685AF82500D0
:103BC000FCF770FD30B1761CB6EBD80FF2D3C4F819
:103BD0000090E1E778682060DEE7406800EB0210C3
:103BE000016809B11860D7E7FFE7C3F80090D3E791
:103BF000CCCA00008CCA0000A40300202DE9F041CB
:103C000085680646002495F82000002811D0A046BB
:103C1000FCF7B4FC0746006804F1200104F101043C
:103C2000695CE4B2415CC90705D0002CF4D185F889
:103C30002080BDE8F081641E14F0FF040FD0A87F3F
:103C4000021B04F12000291805F12000521CFCF78A
:103C5000F0FCB168887F001B8877B168C877B268CC
:103C60003D68937FD0181F300446002102E0491CB4
:103C7000C9B2401E0778EF5DFF07F8D18442D8D063
:103C80005B1A203302F80380B268907F401A907765
:103C9000B168C877CDE710B5D0E90234D1E9022088
:103CA000D11AA04101D3012010BD002010BD000099
:103CB0002DE9F0410446806815460F46827FC17F9A
:103CC000531A2A44DEB27F2A37D8002D35D0084453
:103CD00000F1200105F120021044721CFCF7A9FC40
:103CE000A0682A46C17F084439462030FCF7A1FC71
:103CF000A0682030FFF792FCA16811A28877A06825
:103D0000C17F431808212046203302F06BFFA068D2
:103D1000C17F2944C177204600F073F818B92046C6
:103D200000F07FFD10B1204600F08AF8002E04D08C
:103D30002046BDE8F04100F01BB9BDE8F08100006D
:103D400025730000002904D00A46006901A103F090
:103D50009BBA70471B5B25644200000070B50546A6
:103D600002F01EFB044600786178884203D1A078F7
:103D7000E17888421AD0E178A078814204D9081A03
:103D8000C1B22846FFF7DEFF20786178884205D966
:103D9000401AC1B2284600F047F804E0081AC1B240
:103DA000284600F01BF9A868817FC17770BD70B507
:103DB000054602F0F5FA044601788079401C8142FC
:103DC00002D1A07801281BD0A078012804D9401E78
:103DD000C1B2284600F00EF92078A179884206D9B0
:103DE000401A401EC1B2284600F01EF805E0081A2D
:103DF000401CC1B2284600F0F1F8A9680020C8773D
:103E000070BD10B504460068FFF708FC0146A068C5
:103E1000C27F407E1144B1FBF0F200FB121008B1EA
:103E2000002010BD012010BD002904D00A46006901
:103E300001A103F029BA70471B5B25644400000010
:103E4000006901A103F020BA0A0000002DE9FC4737
:103E5000002604468DF8046080683546B146B046B9
:103E60008021A030FCF70CFC4049206903F00CFADB
:103E7000206903F016FA00276B46012201A92046AB
:103E8000FFF776FA0098D8B19DF804001B2806D0F9
:103E9000A16891F8A0101B29EED152281FD0A2686A
:103EA00008F1A001505408F1010000F0FF08B8F13A
:103EB000090F0AD9A168042081F8A090BDE8FC8709
:103EC0002A494FF6C0101031884700980028D3D1F6
:103ED0007F1CBFB2B7F57A7FCED30D20EEE7A16885
:103EE00008F1A0004A4601F80090A16891F8A100ED
:103EF0005B2803D081F8A0200B20DFE702206FF0C1
:103F00002F0309E005EB850503EB4505401C3D4407
:103F1000C0B2ADB2802808D200F1A007CF5D3B2F20
:103F2000F0D1401CC0B2802809D30C20C6E700BFE6
:103F300006EB860603EB46063E44B6B2F1E700F117
:103F4000A007CF5D002FF3D1FA20FA2E01D9087512
:103F500000E00E75FA2D02D9A168887501E0A0680D
:103F60008575A06880F8A0200020A7E711B900009F
:103F700070B5054602F014FA04468078E17888426C
:103F800001D1012600E000262846FFF73AFF18B9C4
:103F9000284600F046FC10B12846FFF751FF1EB13D
:103FA00060782178401A12E0E078A178401AC1B216
:103FB000284600F01FF820786178884206D9401A18
:103FC000C1B22846BDE8704000F008B8081AC1B276
:103FD0002846BDE87040FFF727BF0000002904D045
:103FE0000A46006901A103F04FB970471B5B2564C5
:103FF00043000000002904D00A46006901A103F033
:1040000043B970471B5B25644100000070B5002474
:104010000F4D10E0686800EBC406307804F0C2FC75
:104020007178012901D0012100E000214140307860
:1040300000F008FB641C28788442EBDBD5E904011E
:10404000084303D0BDE8704006F06CBB70BD0000B3
:104050009001002010B50021024802F02AFA80F3F6
:10406000100010BD141400204FF480328A40016803
:10407000C1F848230068C0F8082370474FF4A072C5
:1040800002EB810189B200F049BB2DE9F041054600
:104090000E464FF4A07000EB860081B228684FF402
:1040A0008034B440984622F07F47C0F8084328681F
:1040B000C0F84843286804F01DFA286800EB860021
:1040C000C0F840752868C0F84443B8F1000F02D02A
:1040D0002868C0F80443BDE8F0810068D0F8040502
:1040E0007047000070B54379274C2A4D44F82320CF
:1040F0004279231D03EBC202254C1679234A121B79
:10410000D40846B16888082602283AD3022000EB7A
:10411000044021A133E006680A88C6F8082590F912
:1041200004208978002A4FEA411104DB02F1E022E1
:1041300082F8001405E002F00F0202F1E02282F89A
:10414000141D90F904100122002909DB01F01F065B
:1041500002FA06F64909890001F1E021C1F800617F
:104160004179002603EBC1010A71417943F831001E
:104170006888032805D3032000EB04400FA103F057
:1041800045FD304670BD00008C0200206CCB000065
:10419000ECCA00000404002052544320696E73747A
:1041A000616E636520616C726561647920696E6916
:1041B0007469616C697A65642E0000005254433A58
:1041C00020696E697469616C697A65642E0000000B
:1041D00090F90400002809DB00F01F020121914042
:1041E0004009800000F1E020C0F8001270470A4644
:1041F000022100F01DBA4FF4827100F08FBA0068FE
:1042000001210160704700680121416070472DE97C
:10421000F05F07460C464FF4A07000EB84001FFAD5
:1042200080FA38684FF48036A6409B4622F07F45DE
:10423000C0F848633868C0F808633868D0F8048567
:1042400000EB8402D2F84095C2F8408551463868A8
:1042500004F050F9A9EB080020F07F40012806D1B6
:10426000102004F0E3FA5146386804F043F9386846
:10427000D0F80485C0F84463A5EB080121F07F4124
:104280003868012900EB840010D0C0F84055386828
:10429000D0F804156FF07F4C6A1A521E22F07F424C
:1042A000ACEB0B03934217D362B118E06D1CC0F85E
:1042B0004055102004F0BAFA3868D0F8040540459B
:1042C0000AD10CE000EB84006D1CC0F84055386842
:1042D000D0F80405884202D00D20BDE8F09F0122ED
:1042E0003146384600F0A4F90020F6E76FEA006195
:1042F000C90F61F31F1070470106044900D59031C2
:1043000000F00F0001EB001070470000A80900202A
:1043100004F03CB9812004F067B9822004F064B94C
:10432000832004F061B9842004F05EB9852004F094
:104330005BB9862004F058B9872004F055B9000015
:1043400038B5882506F0CAFC2846FFF7D5FF817BE3
:104350000124032915D00068002811D12846FFF751
:10436000C5FF8440E1430C4804F0CAF90B480A49F0
:10437000806800900C398DF802504968684688477B
:1043800038BD2846FFF7B2FF8440E143BDE838401E
:10439000014804F0B5B900008C010020D4B400003D
:1043A00038B506F09BFC0020FFF7A6FF817B0124B7
:1043B000032906D0006870B1BDE838404C2004F0F5
:1043C0008BB90020FFF792FF8440E143BDE83840FD
:1043D000094804F095B90020FFF788FF8440E143C5
:1043E000054804F08DF905480349C0680C39009070
:1043F00049686846884738BD8C010020D4B4000065
:10440000012004F00DB9022004F00AB9032004F0E1
:1044100007B9042004F004B9052004F001B906200E
:1044200004F0FEB8072004F0FBB8000038B50824FB
:1044300006F054FC2046FFF75FFF817B032915D06F
:104440000068002812D12046FFF750FF012181406B
:10445000C943074804F054F90648054940690090EB
:104460000C398DF8024049686846884738BD00001D
:104470008C010020D4B4000070B50E4804680460BC
:10448000BFF36F8FBFF34F8F01260CE094FAA4F0B7
:10449000B0FA80F52846FEF735F906FA05F18C43A7
:1044A000294606F0C3FD002CF0D1BDE8704006F0AF
:1044B00023BC00006C74024010B5054CA078FFF7D7
:1044C00015FF0146A078BDE8104006F0AFBD000022
:1044D00080010020F8B51A4800681A4DC6B2A878C5
:1044E000FFF704FF012404FA00F12889EA68C043B9
:1044F00080B21043014202D0A87806F0F1FC06F029
:104500008000A8700020FFF7F1FE04FA00F680207A
:10451000FFF7ECFE04FA00F006430A48F1430C30C2
:1045200004F0EEF88020FFF7E1FE8440A868044321
:104530000548AC60006A0090696868468847F8BD25
:104540008074024080010020D4B4000038B50020FF
:1045500000900F480068ADF802008820FFF7C6FE03
:10456000012505FA00F40A486038006840B1C1032B
:1045700001D4401C04D00820FFF7B8FE85402C432E
:10458000044988682043886049686846884738BD80
:10459000207502408001002070470000F8B51848DF
:1045A0000568284604F086F8BFF36F8FBFF34F8F7E
:1045B000144E154CE80506D501206070706A009015
:1045C000616868468847A8054FF0000705D5677001
:1045D000B06A009061686846884768050ED56078C3
:1045E00000280BD06770094901200860582004F0AA
:1045F00073F8F06A0090616868468847F8BD00006B
:1046000000740240D4B4000080010020087502400C
:10461000054908B50020487088700448406800903B
:1046200049686846884708BD80010020D4B400006E
:104630000368C3F84413002A02D00068C0F80413CA
:10464000704700002DE9F0470E463249804601EBE5
:104650005001C007097801D00F0901E001F00F07F0
:10466000424601200021FBF77AFFDFF8AC900446B8
:104670000D46052F4BD2DFE807F0031419262A0058
:10468000002E44D00121404605F0F2FE0020FDF747
:1046900089FF4846D0E904120C431543C9E9044593
:1046A00030E00EB1022114E0002112E04EB10321EE
:1046B000404605F0DDFE4046BDE8F047012106F02A
:1046C000A3BD012105E0002E21D1042101E02EB17E
:1046D00003214046BDE8F04705F0CABE0021404630
:1046E00005F0C6FE0021404606F08EFD0020FDF7D5
:1046F00059FF4A46E043D2E90434184024EA050150
:10470000C9E90401BDE8F0470020FDF74DBFBDE851
:10471000F0870000E00B00209001002010B5006839
:1047200042581AB103F0E6FE012010BD002010BD72
:104730002DE9F05F17460E00814670D013B1F9B233
:10474000FFF74CFC0024FBF719FF8246006800E0ED
:10475000641C315D415CC907FAD100253046FEF783
:104760005DFFD9F80810001B4A7ED11B814228D377
:1047700006EB040805E000BF18F805100A290CD064
:104780006D1C8542F8D33119D9F8100002F07CFD78
:104790004846BDE8F05FFFF753BBD9F8100002F0C0
:1047A00080FD414600232A464846FFF773F92C4412
:1047B0004846641CFFF744FBF9B24846FFF70EFC7D
:1047C000E1E78B46DAF8001006EB040818F805005C
:1047D0000B5CDB0702D0AB460A2804D0E8199042F4
:1047E00001D26D1CF2E7D9F8100002F05AFD4146E3
:1047F00000235A464846FFF74DF95C44DAF80000BA
:1048000000E0641C315D415CC907FAD14846FFF7FE
:1048100017FBF9B24846FFF7E1FB9EE7FFE7BDE86B
:10482000F09F10B504460068FEF7F8FE0146A06848
:10483000827F407E1144B1FBF0F200FB121008B100
:10484000002010BD012010BD10B50B48FFF745FC3E
:10485000094A083AD2E90434C018D2E9063244F1D0
:104860000001C31A71EB020204D24FF0807280186B
:1048700041F1000110BD0000D801002010B5C0B208
:10488000FEF718FA0446007804F08CF801466078C8
:10489000012801D0012000E0002090EA010F08D09B
:1048A0000449D1E90401084303D1BDE8104005F0F3
:1048B00039BF10BD9001002070B5056804460C3565
:1048C00000F092FA0646D6E90001FBF7D9FE05F1A1
:1048D00034007168FBF7D4FE05F12C007168FBF71A
:1048E000CFFE0020FDF75EFE2046FDF7BFFA010671
:1048F00001D504F04BFD03212846FDF765FC00209F
:10490000FDF752FE002070BD00F093BA30B400F104
:1049100010040B460268214630BC0C32FDF7B8BAD1
:104920002DE9F05FDFF8A8830C7A054688F800408F
:10493000006816468A464FF0000940F2D9124C46EC
:104940001F46A0F2D9114FF0090B90426FD021DC25
:10495000B0F5E87F6CD013DCB0F5E67F5CD007DC07
:1049600090B3A0F58070C73839D0012879D141E0E3
:10497000B0F5E77F5DD0A0F58070CF38F6D165E067
:10498000A0F2D11008286CD2DFE800F07D89946B8A
:104990006B9FAAB5192971D00EDC0E296FD006DCE9
:1049A00001296DD002296CD00B29DFD1DDE00F2960
:1049B00068D01829DAD119E11D390529E3D2DFE8D9
:1049C00001F0F6F5F4F3F20088F8019071E100BF10
:1049D00085F804B0BC4202D340F2C71053E10EB1D7
:1049E000287930550420641C2871BC4202D34FF44E
:1049F000E47048E10EB12879305598F8011050461E
:104A0000641CFCF75AFEC8F8080000782871BC4204
:104A100002D34FF4E67036E10EB128793055641CAC
:104A200085F80490BC4204D34FF4E7702BE16DE0AD
:104A300018E00EB128793055D8F80800641CBC4243
:104A40004078287102D340F2CF101CE10EB12879D2
:104A500030550320641C2871BC4203D34FF4E87026
:104A600011E130E10EB1287930559AF81800641C34
:104A70002871BC4207D340F2D11004E1C1E085E0C7
:104A80004FE05BE094E00EB1287930559AF81900B8
:104A9000641C2871BC4202D34FF4E970F3E00EB1FC
:104AA00028793055641C85F80490BC4202D340F24A
:104AB000D310E8E00EB128793055641C85F804B0B5
:104AC000BC4202D34FF4EB70DDE00EB128793055D3
:104AD0002120641C2871BC4202D340F2D710D2E0DE
:104AE0000EB1287930551120641C2871BC4202D3C4
:104AF0004FF4EC70C7E00EB1287930550120641CEA
:104B00002871BC4202D340F2D910BCE00EB1287922
:104B10003055641C85F80490BC4202D34FF4ED700C
:104B2000B1E00EB1287930555046641C00F0D2F83F
:104B30002871BC4202D340F2DB10A4E00EB1287908
:104B400030555046641C00F0C5F888F8020088F81B
:104B5000039036E0DAF81000BC4250F821000079EA
:104B6000287102D34FF4F2708DE00EB128793055E0
:104B700098F803105046641C00F0B4F8A8F806003A
:104B80002871BC4202D340F2E7107CE00EB12879D4
:104B90003055B8F80600641C000A2871BC4207D3DF
:104BA0004FF4F4706FE072E05FE053E047E03BE009
:104BB0000EB12879305598F80310491C88F8031075
:104BC000641C98F8031098F8022040469142C1D323
:104BD000816849780171494688F8039061E00720AF
:104BE0002871BC4202D340F2F1104CE00EB128799A
:104BF00030550520641C2871BC4202D34FF4F97073
:104C000041E00EB12879305598F80310641CD8F8AB
:104C10000800FCF736FDC8F80C0000782871BC428B
:104C200002D34FF4FB702EE00EB1287930550320EB
:104C3000641C2871BC4202D340F2F71023E00EB18D
:104C4000287930554020641C2871BC4202D34FF4AF
:104C5000FC7018E00EB128793055641C85F804907A
:104C6000BC4202D340F2F9100DE00EB12879305564
:104C700098F80300DAF83010641CBC42085C287114
:104C800005D34FF4FD7028600120BDE8F09F0EB100
:104C90002879305598F803104046491C88F80310CD
:104CA000641C0279C9B2914299D34178491C88F8B1
:104CB000011098F8011098F800008142FFF488AEC6
:104CC0004FF4FF70DFE70020C5F80090DDE700003B
:104CD00050020020007D7047006950F82100806874
:104CE00010447047006950F821000068704708B50B
:104CF0000B46002100911979012903D0022905D022
:104D0000062008BD6946FDF77CF902E06946FDF71B
:104D1000EEF9009A411C581C521EFCF73BFE08BDE0
:104D2000FEB5056804460C35FDF7A0F806460321DC
:104D30002846FDF749FA204600F056F80021009178
:104D4000019102910168009140680190204600F0B5
:104D50005BF80020FDF726FC69463046FCF7B2FE02
:104D600018B903212846FDF73EFA0020FDF71CFC88
:104D70000020FEBD30B50446006A85B000210268FF
:104D800011700091019102910168491C00914068E5
:104D9000401E01900020FDF705FC69460020FCF74D
:104DA00091FE050008D1074803A90068CDE9030476
:104DB0000020FCF77BFD05460020FDF7F5FB05B064
:104DC000284630BD90B6000010B508B1032010BDD4
:104DD0000A6A084609681268527881F84820C26A4F
:104DE00002219047002010BD70B500F11004056845
:104DF0002046FDF7E2F908214035C0E90051204680
:104E0000BDE87040FDF7D9B970B50546FFF7ECFF76
:104E100004462968D4E9000238310D46FBF750FCFE
:104E2000002805D0D4E900022946FBF702FC012046
:104E300070BDFEB5056804460C35FDF717F806464B
:104E400003212846FDF7C0F92046FFF7DDFF0028C3
:104E50001BD02046FFF7C8FF00210091019102916D
:104E600001680091406801900020FDF79BFB6946B6
:104E70003046FCF727FE040003D103212846FDF746
:104E8000B2F90020FDF790FB2046FEBD10B589B1B8
:104E900001290FD0022906D003290FD1BDE8104007
:104EA0000220FDF761BC0220FDF75EFCBDE810406A
:104EB00000F0B2BDBDE81040FFF7FEBC10BD0844D5
:104EC000B0F5004F02DA10F5004F01DA012070470B
:104ED000002070477F2801DD7F2070476FF07F0141
:104EE000884201DA0846704740B2704770B50546FF
:104EF000006800F10C04284600F059FA0646D6E98D
:104F00000001FBF7BDFB04F133007168FBF7B8FB50
:104F10000021A185E185218684F832100846FDF73D
:104F200041FB2846FCF7ABFF010601D504F02EFA41
:104F300003212046FDF74DF90020FDF735FB002049
:104F400070BD00F044BA30B400F110040B460268A2
:104F5000214630BC0C32FCF79BBF00002DE9F05F0E
:104F6000DFF8AC830C7A8A4688F800400168164660
:104F70004FF00009054640F21B224C461F46A1F2A5
:104F80001B204FF0090B914271D023DC40F212221A
:104F9000A1F2122091426BD013DC40F20F20A1F25B
:104FA0000F22814258D007DC71B3A1F50071093995
:104FB00035D0012975D13DE0012A5AD0022AF9D114
:104FC00064E009286DD2DFE800F06C7E8A956C6C95
:104FD000A0ABB600192871D00EDC0E286FD006DC0D
:104FE00001286DD002286CD00B28E3D1DDE00F281A
:104FF00068D01828DED119E11D380528E2D2DFE893
:1050000000F0F6F5F4F3F20088F8019071E100BFCA
:1050100085F804B0BC4202D340F2092053E10EB13E
:10502000287930550420641C2871BC4202D340F218
:105030000A2048E10EB12879305598F80110504601
:10504000641CFCF744FBC8F8080000782871BC42D7
:1050500002D340F20F2036E10EB128793055641C9E
:1050600085F80490BC4204D34FF404702BE16DE04A
:1050700018E00EB128793055D8F80800641CBC42FD
:105080004078287102D340F211201CE10EB128793A
:1050900030550320641C2871BC4203D340F2122017
:1050A00011E130E10EB1287930559AF81800641CEE
:1050B0002871BC4207D340F2132004E1C1E085E02F
:1050C0004FE05BE094E00EB1287930559AF8190072
:1050D000641C2871BC4202D34FF40570F3E00EB19A
:1050E00028793055641C85F80490BC4202D340F204
:1050F0001520E8E00EB128793055641C85F804B01D
:10510000BC4202D34FF40670DDE00EB12879305571
:105110002120641C2871BC4202D340F21920D2E045
:105120000EB1287930551120641C2871BC4202D37D
:1051300040F21A20C7E00EB1287930550120641CD6
:105140002871BC4202D340F21B20BCE00EB128798A
:105150003055641C85F80490BC4202D34FF40770AC
:10516000B1E00EB1287930555046641C00F0D2F8F9
:105170002871BC4202D340F21D20A4E00EB1287970
:1051800030555046641C00F0C5F888F8020088F8D5
:10519000039036E0DAF81000BC4250F821000079A4
:1051A000287102D340F226208DE00EB128793055C7
:1051B00098F803105046641C00F0B4F8A8F80600F4
:1051C0002871BC4202D340F229207CE00EB128793C
:1051D0003055B8F80600641C000A2871BC4207D399
:1051E00040F22A206FE072E05FE053E047E03BE0EE
:1051F0000EB12879305598F80310491C88F803102F
:10520000641C98F8031098F8022040469142C1D3DC
:10521000816849780171494688F8039061E0072068
:105220002871BC4202D340F233204CE00EB1287901
:1052300030550520641C2871BC4202D34FF40D7018
:1052400041E00EB12879305598F80310641CD8F865
:105250000800FCF71FFAC8F80C0000782871BC425F
:1052600002D34FF40E702EE00EB128793055032092
:10527000641C2871BC4202D340F2392023E00EB1F5
:10528000287930554020641C2871BC4202D340F27A
:105290003A2018E00EB128793055641C85F8049046
:1052A000BC4202D340F23B200DE00EB128793055CC
:1052B00098F80300DAF83010641CBC42085C2871CE
:1052C00005D34FF40F7028600120BDE8F09F0EB1A8
:1052D0002879305598F803104046491C88F8031087
:1052E000641C0279C9B2914299D34178491C88F86B
:1052F000011098F8011098F800008142FFF488AE80
:105300004FF41070DFE70020C5F80090DDE70000E3
:1053100060020020007D7047006950F8210080681D
:1053200010447047006950F821000068704710B5BC
:105330000C460979012901D0062010BD00F037F88C
:10534000D0E90012601CBDE81040FCF723BBFEB59D
:105350000646FCF794FD346805460C3403212046CC
:10536000FCF737FF304600F022F8016894F832204D
:105370000A7000224A708A70CA70009201920292EA
:1053800001680091406801901046FDF70BF96946ED
:105390002846FCF797FB18B903212046FCF728FFA5
:1053A0000020FDF701F90020FEBD0620704770B512
:1053B00000F1100405682046FCF7FFFE04213F358C
:1053C000C0E900512046BDE87040FCF7F6BE2DE96B
:1053D000FE4F0168074601F10C0AFCF750FD8346B9
:1053E00003215046FCF7F5FE38463C68FFF7DFFF27
:1053F000066894F83E0096F800903070B4F93800D2
:10540000FFF768FD0546208F401B20877570B4F9B3
:105410003A00FFF75FFD8046608FA0EB08006087D1
:1054200086F80280B4F93C00FFF754FDA18F45EAED
:105430000805091AA187F07005434FF0000405D153
:105440003178494502D10020BDE8FE8F3846FFF78C
:10545000AEFF0094019402940168009140680190AD
:105460000020FDF79FF869465846FCF72BFB040027
:1054700003D103215046FCF7BBFE0020FDF794F852
:105480002046E1E741B1012906D0022906D00329CF
:1054900004D10220FDF768B9FFF728BD70472DE958
:1054A000FC41024690F828004FF6FF7400B300203C
:1054B000009040F2FF7C6F46019013181B7A9B000E
:1054C00027F8103061450DD102EB80067569B5F5FE
:1054D000006F07D005F2FF75B5FBF3FE03FB1E5509
:1054E0006D1C7561556825B103211046FCF767FEF8
:1054F00014E002EB80056D690D44B5FBF3F603FB88
:1055000016550A26B3FBF6F39B1C9D4207D392F86F
:1055100029301BB1401CC0B20428CED32046BDE8C0
:10552000FC810000FEB50026044600960196029616
:105530008068E9B3D0E950128A4272D0D0F83C01B9
:1055400000286ED02046FEF732FCA068D0F8445107
:10555000002D69D0002309226946284602F04DFD3E
:10556000A1689DF808500098C1F84401A068002384
:105570000922D0F84401694602F03FFDA1689DF878
:1055800008200923D1F844012031521C02F035FDD6
:10559000A1689DF80800C877A1689DF80800887781
:1055A0009DF80800A84202D22046FDF71FFD00E04A
:1055B0000BE0A3682BA208212046203301F012FB48
:1055C0002046FEF71EFC68BB43E0D0F844010028EB
:1055D00047D02046FEF7EBFBA06800230922D0F855
:1055E0004401694602F009FDA0680199C0F8441120
:1055F000A0680029857FB9D1A030FEF70FF80028F8
:10560000A06805D000F1A0012030FBF766F801E0AA
:1056100080F82060A0682030FEF700F88DF80800C0
:10562000B6E71EE01AE0FFE72030FDF7F7FF10F0C5
:10563000FF05A068D0F83C11C0F84411A06805D05F
:1056400000F12001A030FBF748F88FE780F8A06058
:105650008CE72046FFF7E5F8002802D02046FEF749
:10566000EFFBFEBD25730000FEB50D4681680446C4
:105670000026D1F83C0138B300230922694602F024
:10568000BCFC0195A06800230922D0F83C016946C2
:1056900002F0BBFC0196A068D0F83C110091807F1D
:1056A0008DF80800A068C0F83C5100230922694623
:1056B000284602F0AAFCA168092328468A7F2031E7
:1056C000521C02F0A2FCFEBDC1F83C51A068C0F81B
:1056D000405100960196A068807F8DF80800E4E7AD
:1056E000FEB504468068D0F84061002E28D0002323
:1056F00009226946304602F080FCA1680198002525
:10570000C1F84001009501952B46092269463046B3
:10571000029502F07AFC304602F041FCA168D1F813
:10572000400170B100230922694602F066FC009531
:10573000A06800230922D0F84001694602F065FC08
:10574000FEBDC1F83C51FEBDFEB504468068203068
:10575000FDF764FF10F0FF05A0684FF00006C0F8E9
:10576000446133D0A068D0F83C01E0B100230922A5
:10577000694602F042FC9DF80820AA4213D1A068B5
:10578000092300F1A001D0F83C01521C02F035FCC5
:10579000A06800F1A0012030FAF784FF0028A0687B
:1057A00080F8A06012D000260A352946606902F010
:1057B000C6FB0100204604D003B0BDE8F040FFF76F
:1057C00053BFFFF78DFF761C082EEED3FEBD000001
:1057D00010B516490220FDF7D5F808B1FBF7DCFD3E
:1057E000002116220846FDF7ABF808B1FBF7D4FDFF
:1057F000172200210120FDF7A3F808B1FBF7CCFD2B
:10580000182200210220FDF79BF808B1FBF7C4FD28
:10581000192200210320FDF793F808B1FBF7BCFD26
:10582000BDE810400120FCF775BF0000C128000052
:1058300000B589B01348FDF73DF808B1FBF7ACFDA2
:105840002022114901A8FAF7F4FE06200190082051
:10585000029000208DF81800032000900A480123D0
:105860001A4601A9843801F029FB08B1FBF794FD21
:105870000548843801F0DAFB002801D0FBF78CFDE5
:1058800009B000BDC128000084B300002DE9FC5F11
:105890000E008346DDE90C47C6F1000098469246AB
:1058A000814600D40846012503E000BF90FBFAF0D2
:1058B0006D1C5045FADAA84500D9454624B1002EA2
:1058C00001DB780700D5641EB80702D5B8F1000FD8
:1058D0000AD0F80708D13CB1A54205D2202158468C
:1058E000641EFDF7C3F9F6E7002E02DA4E462D21BD
:1058F00002E0780703D52B215846FDF7B7F907F0EA
:10590000030002280BD1B8F1000F08D13CB1A54229
:1059100005D230215846641EFDF7A8F9F6E7CDE917
:105920000047434652463146584605F0E7F8BDE881
:10593000FC9F000070B50D46044600684FF4887166
:1059400002F01EFE4FF49071206802F019FE4FF431
:105950009271206802F014FE4FF4A271206802F0E8
:105960000FFE4FF4AC71206802F00AFE2068124965
:10597000C0F804132068690740F30730090E0028B7
:1059800004DB00F1E02080F8001405E000F00F00D7
:1059900000F1E02080F8141D206840F30730002853
:1059A00009DB00F01F02012191404009800000F155
:1059B000E020C0F8001170BD100342000246002034
:1059C0001268530713D502F00300012802D0022801
:1059D0000CD105E0C2F383100B68801C184404E06E
:1059E0000223086803EB92521044086001207047BC
:1059F00010B5FAF77BFE08B1002010BD012010BDE4
:105A00000268134602E08A4204D01268002AFAD1E2
:105A10000B6001607047000010B501210D48FCF7D4
:105A200036FB00284FF0010002D0FCF7BBFE01E07E
:105A3000FCF7B0FE02210748FCF729FB00284FF0D5
:105A4000000003D0BDE81040FCF7ACBEBDE810403C
:105A5000FCF7A0BE50B300000A4810B5807860B1D2
:105A6000002401E0022C06D02046FCF793FE641CC3
:105A7000042CF7D310BD0324F6E7BDE81040FCF773
:105A8000ADBE0000B400002003480179C90702D070
:105A90000078FCF7C1BF7047B4000020014B00F054
:105AA000D7BD0000695C0000014B00F0D1BD0000D3
:105AB000355E0000014B00F0CBBD00003D5E0000F4
:105AC000014B00F0C5BD00001D5F00007CB5144611
:105AD0000546012902D001F0EBF938B102B02846A1
