:020000040000FA
:10000000F0260020F90200000103000003030000B5
:1000100005030000070300000903000000000000C2
:100020000000000000000000000000000B030000C2
:100030000D030000000000000F030000110300008A
:10004000A10300001303000075070000F90300007E
:100050001303000013030000130300001303000048
:100060001303000013030000130300001303000038
:100070001303000013030000130300001303000028
:100080001303000013030000130300001303000018
:100090001303000013030000130300001303000008
:1000A00013030000130300001303000013030000F8
:1000B0001303000013030000000000000000000014
:1000C00013030000130300001303000013030000D8
:1000D00013030000130300001303000000000000DE
:1000E0000000000000000000000000000000000010
:1000F0000000000000000000000000000000000000
:1001000000000000000000000000000000000000EF
:1001100000000000000000000000000000000000DF
:1001200000000000000000000000000000000000CF
:1001300000000000000000000000000000000000BF
:1001400000000000000000000000000000000000AF
:10015000000000000000000000000000000000009F
:10016000000000000000000000000000000000008F
:10017000000000000000000000000000000000007F
:10018000000000000000000000000000000000006F
:10019000000000000000000000000000000000005F
:1001A000000000000000000000000000000000004F
:1001B000000000000000000000000000000000003F
:1001C000000000000000000000000000000000002F
:1001D000000000000000000000000000000000001F
:1001E000000000000000000000000000000000000F
:1001F00000000000000000000000000000000000FF
:10020000DFF80CD000F0BAF8004800473D120000BB
:10021000F026002030B4044654E8000F0D4644E8B0
:100220000053002BF8D1156030BC704730B4044641
:1002300054E8000F40EA010544E80053002BF7D1D1
:10024000156030BC704730B4044654E8000F00EA33
:10025000010544E80053002BF7D1156030BC70470E
:1002600030B4044654E8000F80EA010544E8005326
:10027000002BF7D1156030BC704730B4044654E809
:10028000000F00EB010544E80053002BF7D1156087
:1002900030BC704730B4044654E8000FA0EB0105B1
:1002A00044E80053002BF7D1156030BC704770B4A0
:1002B00004464FF0000054E8006F0D68AE4207BFDF
:1002C00044E80023012044E800630E60002B1CBFBB
:1002D0000020F0E770BC704730B4044654E8000FCB
:1002E00088422CBF451A054644E80053002BF5D13F
:1002F000156030BC7047000006488047064800473C
:10030000FEE7FEE7FEE7FEE7FEE7FEE7FEE7FEE7C5
:10031000FEE7FEE74D0400000102000000487047C0
:10032000D8C1020040EA01039B0703D009E008C9D5
:10033000121F08C0042AFAD203E011F8013B00F8AA
:10034000013B521EF9D27047D2B201E000F8012BF6
:10035000491EFBD270470022F6E710B513460A4645
:1003600004461946FFF7F0FF204610BD421C10F866
:10037000011B0029FBD1801A70470000064C074D75
:1003800006E0E06840F0010394E807009847103465
:10039000AC42F6D3FFF738FF9CC20200BCC2020099
:1003A00070B54FF48076304601F088F8114CB505F1
:1003B00060B1304601F089F80120C5F80803607982
:1003C00020B9012060712168002088474FF48276AF
:1003D000304601F073F800280AD0304601F075F875
:1003E0000220C5F808032168BDE8704001200847D5
:1003F00070BD000018000020F8B51248124E0446E7
:100400004FF48C7102F0C5F800281AD00025C4F80A
:100410001851D4F818010090F07F3446FF2806D018
:10042000A17F11B101F03BFD01E001F03FFD6577D7
:100430002572D4E9002101B004F10800BDE8F040C4
:100440001047F8BD00300040C4000020F0B5B74AA6
:10045000B7494FF080541368D4F830010978D4F8C4
:100460003421451CC1F3031106D084460127002521
:10047000BCF1060F03D00AE003F0FF0CF6E7B4F876
:100480002463DFF8B0C2C6F30426CCF80060DEB205
:10049000062E06D1032904D1DFF8A0C2A64ECCF85F
:1004A0007460461C04D08446BCF1060F03D00AE0F9
:1004B00003F0FF0CF8E7D4F84462DFF884C2C6F317
:1004C0004236CCF80060DEB2062E08D1032906D1F0
:1004D0009C4ED6F800C02CF0807CC6F800C0461CAC
:1004E00004D08446BCF1060F03D00BE003F0FF0CF0
:1004F000F8E74FF08046C6F80C51C6F81051904E00
:10050000361F3560DEB2062E08D1032906D1DFF88A
:1005100030C203260CF1640CCCF80060DEB2062E6B
:1005200011D103290FD1DFF820C20526CCF80060D5
:10053000854E78363760844E083635600CF1040CF1
:100540003F26CCF80060461C06D084464FEA0206DF
:10055000BCF1060F04D081E003F0FF0C0E46F7E774
:10056000032E7BD0042E79D0784E3668DFF8E0C1B8
:10057000CCF80060754E361D36680CF1040CCCF8D2
:100580000060724E083636680CF1040CCCF800603E
:100590006E4E0C3636680CF1040CCCF800606B4ED5
:1005A000103636680CF1040CCCF80060674E143637
:1005B00036680CF1040CCCF80060644E18363668CE
:1005C000DFF88CC10CF1200CCCF800605F4E1C36BB
:1005D00036680CF1040CCCF800605C4E20363668AE
:1005E0000CF1040CCCF80060584E243636680CF13F
:1005F000040CCCF80060554E283636680CF1040C1B
:10060000CCF80060514E2C3636680CF1040CCCF856
:1006100000604E4E30363668DFF834C10CF1400CC5
:10062000CCF80060494E343636680CF1040CCCF836
:100630000060464E383636680CF1040CCCF8006089
:10064000424E3C3636680CF1040CCCF800603F4E4C
:10065000403636680CF1040CCCF80060461C05D01E
:100660004FEA000CBCF1060F03D008E003F0FF0CCA
:10067000F8E7D4F85842374E04F04F043460441C75
:1006800003D00346062B02D008E0DBB2FAE732497A
:100690000B68DB0702D06FF001030B6006280AD15C
:1006A000032A08D0042A06D0052A04D02B48016862
:1006B00041F48061016023487438016841F470019D
:1006C0000160BFF34F8FBFF36F8F4FF01021D1F850
:1006D0000002002803DBD1F80402002822DA204AB5
:1006E000176020480368002BFCD01523C1F80032A6
:1006F0000468002CFCD0C1F8043201680029FCD049
:10070000156001680029FCD0BFF34F8F0D48F03809
:100710000168154A01F4E06111430160BFF34F8F96
:1007200000BFFDE7124911480860F0BDE00F00F07E
:10073000E80F00F0403501400DF0ADBA00C00740B1
:100740003C050040FCED00E01056004004040010A1
:1007500020C50040E40E0040000400403C1700406B
:1007600004E5014000E401400400FA050090D003D4
:10077000A800002001480068004700002000002079
:1007800002E008C8121F08C1002AFAD1704770475A
:10079000002001E001C1121F002AFBD170470000B8
:1007A00072B601F00BFE00BF01F066FC0028FBD121
:1007B00011481249401AC408012000EB044010A15E
:1007C00001F074FD11480068C00700D000BE02208F
:1007D00000EB04400EA101F069FDBFF34F8F0B4801
:1007E000E43801680E4A01F4E06111430160BFF38F
:1007F0004F8F00BFFDE7000004C30200CCC202001F
:10080000466174616C206572726F7200F0ED00E0F9
:1008100053797374656D2072657365740000000010
:100820000400FA050EB500210091CDE901106A46D9
:1008300044F20100FFF7B4FF0EBD00F003B800F072
:1008400009B8000072B602480168491C016070478F
:100850003000002003490868401E086000D162B6DD
:1008600070470000300000202DE9F041064608687E
:100870000C46411C4FF0A0474FF0010506D005FA89
:1008800000F1C7F80815206801F0F5FA6068411C0E
:1008900002D0002101F0D3FA3168A069C1F8240523
:1008A000607D227D31681043C1F86C05D4E90012E7
:1008B0003068C0F81425C0F80C15207D012815D12A
:1008C000A068411C02D0002101F0B9FAE068411C87
:1008D00005D08540C7F80855E06801F0CCFAD4E9A6
:1008E00002123068C0F80825C0F81015BDE8F08184
:1008F0002DE9F041064608680C46411C4FF0A04720
:100900004FF0010506D005FA00F1C7F80815206878
:1009100001F0BBFA6068411C02D0002101F098FA96
:100920003168A069C1F82405607D217D32680843E3
:10093000C2F86C05D4E900123068C0F80C15C0F894
:100940001425207D012815D1A068411C02D000216A
:1009500001F07EFAE068411C05D08540C7F80855D3
:10096000E06801F092FAD4E902123068C0F8082574
:10097000C0F81015BDE8F0812DE9F0470546861C4A
:1009800091460F464FF0010A0020FFF756FF1B4C1F
:1009900004F21C4860683860D4E90101184F401A1D
:1009A0003968081A0EE00121404600F01FFD00F0F2
:1009B000F3FB0146404600F019FDD4E90101401A5D
:1009C0003968081A401C8642EDD8B9F1000F03D0EF
:1009D000052065F3891002E0062065F39F506168E9
:1009E0003A68114004EB8101C8606068304460607F
:1009F0000020FFF724FF5046BDE8F087D00200201A
:100A00005400002070B50D4604460A2902D10D217C
:100A1000FFF7F8FFA0682268411CA1601554D4E9D3
:100A20000101814204D32046BDE8704000F0EFBDD3
:100A300070BD0000044881684068814201D10120F6
:100A40007047002070470000D00200202DE9FC41D3
:100A500025490026254DD1E90601CDE9000117E021
:100A6000ADF8026000240CE0ADF8004001231F2225
:100A70006946A86800F00CFF08B1FFF7D3FE1534F3
:100A8000A4B2A86801F090F9A042EDD21536B6B232
:100A9000A86800F0F5FFB042E2D20A264FF478478A
:100AA00019E000BFADF802600A240CE0ADF8004088
:100AB00000233A466946A86800F0EAFE08B1FFF74D
:100AC000B1FE1534A4B2A86801F06EF90A30A04254
:100AD000ECD21536B6B2A86800F0D2FF0A30B042A8
:100AE000E0D2BDE8FC810000A0370000000000203B
:100AF00010B5012002F037FE782000F0FFFC28201E
:100B000002F031FE782000F0F9FCCF2002F02BFE3D
:100B1000002002F034FEC12002F031FE302002F04D
:100B20002EFEE82002F01FFE852002F028FE0020A5
:100B300002F025FE782002F022FECB2002F013FE08
:100B4000392002F01CFE2C2002F019FE002002F0D9
:100B500016FE342002F013FE022002F010FEF720F1
:100B600002F001FE202002F00AFEEA2002F0FBFD66
:100B7000002002F004FE002002F001FEC02002F07E
:100B8000F2FD232002F0FBFDC12002F0ECFD10205D
:100B900002F0F5FDC52002F0E6FD3E2002F0EFFD7B
:100BA000282002F0ECFDC72002F0DDFD862002F0D7
:100BB000E6FD362002F0D7FD482002F0E0FD3A20A5
:100BC00002F0D1FD552002F0DAFDB12002F0CBFD9C
:100BD000002002F0D4FD182002F0D1FDB62002F072
:100BE000C2FD082002F0CBFD822002F0C8FD2720C4
:100BF00002F0C5FDF22002F0B6FD002002F0BFFDBC
:100C0000262002F0B0FD012002F0B9FDE02002F044
:100C1000AAFD0F2002F0B3FD312002F0B0FD2B2021
:100C200002F0ADFD0C2002F0AAFD0E2002F0A7FD9F
:100C3000082002F0A4FD4E2002F0A1FDF12002F0F8
:100C40009EFD372002F09BFD072002F098FD10204A
:100C500002F095FD032002F092FD0E2002F08FFDC0
:100C6000092002F08CFD002002F089FDE12002F055
:100C70007AFD002002F083FD0E2002F080FD14209A
:100C800002F07DFD032002F07AFD112002F077FDD5
:100C9000072002F074FD312002F071FDC12002F046
:100CA0006EFD482002F06BFD082002F068FD0F2069
:100CB00002F065FD0C2002F062FD312002F05FFDC4
:100CC000362002F05CFD0F2002F059FD112002F0E9
:100CD0004AFD782000F012FCBDE81040292002F007
:100CE00042BD000010B50021024800F08AFB80F3ED
:100CF000100010BDEC06002008B1212000E02020EB
:100D000002F031BD704700001FB511490320C1F842
:100D10000007104B0FCB8DE80F0019208DF8000055
:100D200018208DF8020017208DF8010016208DF88C
:100D30000300084800231A466946103800F0EEFB0D
:100D4000040002D1FFF7D4FE204604B010BD00001D
:100D5000500000502890020038B514460B46024659
:100D600002F0A2F9200A8DF800008DF801404FF042
:100D7000A0444FF48015C4F808550221684604F5D4
:100D8000A16402F0BBF9656038BDF8B51C46174692
:100D90000A19521E93B2C219521E92B2069D02F057
:100DA00083F9280A8DF800008DF801504FF0A04516
:100DB0004FF48016C5F808657C43E01DC11700EBB1
:100DC0005170C710E01704EB507020F00700201A94
:100DD000082827D2DFE800F004201C1814100C08A3
:100DE0000221684602F08AF90221684602F086F97B
:100DF0000221684602F082F90221684602F07EF97B
:100E00000221684602F07AF90221684602F076F97A
:100E10000221684602F072F90221684602F06EF97A
:100E20007F1EDDD1C5F80C65F8BD10B5044636202F
:100E300002F099FC54B1012C0AD0022C0AD0032CE8
:100E40000AD1E820BDE8104002F099BC4820F9E73B
:100E50002820F7E78820F5E710BD0000014801F0E1
:100E6000A1BC00001C9002002DE9FC5F0E0083462F
:100E7000DDE90C47C6F1000098469246814600D451
:100E80000846012503E000BF90FBFAF06D1C5045B9
:100E9000FADAA84500D9454624B1002E01DB7807CF
:100EA00000D5641EB80702D5B8F1000F0AD0F807C4
:100EB00008D13CB1A54205D220215846641EFFF757
:100EC000A1FDF6E7002E02DA4E462D2102E078075A
:100ED00003D52B215846FFF795FD07F003000228A4
:100EE0000BD1B8F1000F08D13CB1A54205D2302199
:100EF0005846641EFFF786FDF6E7CDE900474346F6
:100F000052463146584602F07BFBBDE8FC9F00008C
:100F100070B50D46044600684FF4887101F054FB2B
:100F20004FF49071206801F04FFB4FF492712068EC
:100F300001F04AFB4FF4A271206801F045FB4FF429
:100F4000AC71206801F040FB20681249C0F804131E
:100F50002068690740F30730090E002804DB00F120
:100F6000E02080F8001405E000F00F0000F1E02020
:100F700080F8141D206840F30730002809DB00F0DA
:100F80001F02012191404009800000F1E020C0F8DB
:100F9000001170BD10034200024600201268530782
:100FA00013D502F00300012802D002280CD105E07D
:100FB000C2F383100B68801C184404E00223086805
:100FC00003EB9252104408600120704770B5424D07
:100FD00086B003AB95E80700404C83E80700303D3E
:100FE000A06800F04DFD3C35ADF8120095E8070013
:100FF0008DE80700A06800F0D7FEADF80000A068FB
:1010000000F03EFDADF80200A06800F039FDADF83B
:10101000060000254FF478460CE000BFADF81050F4
:10102000324603A9A06800F03BFD08B1FFF7FAFBC8
:101030000A35ADB2A06800F0B7FEA842EED2A068B3
:1010400000F0B2FEADF8100000250FE0A06800F03F
:1010500017FD401BADF81200324603A9A06800F04E
:101060001FFD08B1FFF7DEFB0A35ADB2A06800F046
:1010700007FDA842EAD200250FE0A06800F000FDBD
:10108000401BADF806001F226946A06800F008FD6D
:1010900008B1FFF7C7FB0A35ADB2A06800F0F0FC5D
:1010A000A842EAD20020ADF8060005460CE000BFD9
:1010B000ADF804501F226946A06800F0F1FC08B1A9
:1010C000FFF7B0FB0A35ADB2A06800F06DFEA84294
:1010D000EED206B070BD0000D08F020000000020EC
:1010E0002DE9FF4F83B09946DDF840800F46164644
:1010F0004FF0FF30494501D2012300E00346019340
:10110000424500DA012000904FF0000BB9EB0700D8
:1011100000D5404205B2B8EB060000D5404204B20B
:10112000119B039801F016FEA54204DA65406C405D
:1011300065404FF0010B601B400000B20290600060
:101140000FFA80FAAAEB050004B21EE0002C09DBBE
:101150000198384487B20098304486B202982044FF
:1011600004B20CE004EB0A0004B2BBF1000F03D0A0
:101170000098304486B202E00198384487B2324683
:101180003946119B039801F0E5FD4645DED14F45F8
:10119000DCD107B0BDE8F08F2DE9FF4100262448DF
:1011A00000F021F92248001F074600F01CF9214CED
:1011B0002149A06800900D6800E000986946284029
:1011C00004EB80000C30FFF7E7FE0028F5D101AA00
:1011D000009901EA050304EB8303491CDB6842F82C
:1011E0002030401C00910228F2D3019800F0030047
:1011F00001280BD0022810D10198032101EB905057
:101200000099BDF80A6001EB900005E00198BDF877
:101210000A60C0F3831008440090384600F0E0F8FC
:1012200008B10098A06004B03046BDE8F08100002D
:10123000E8060020D0020020540000200EB5002156
:10124000084601F08FF808B1FFF7ECFA00F006FF4E
:1012500029482A49401AC008032101EB004028A16F
:1012600001F024F800F008FF0028FBD12E4CA06804
:1012700000F009FC08B1FFF7D5FA2C4F01264FF416
:101280007A750121A06800F008FC2849A068303177
:1012900000F0B6FA0021A06800F0FFFB3868029069
:1012A000A06800F0EDFB3238ADF80A006068CDE9C7
:1012B0000006002202A92368A06800F06BFC08B1B8
:1012C000FFF7B0FA284600F009F901F0C5FEFFF774
:1012D0007DFE284600F002F901F0BEFEFFF7B6FBE6
:1012E000284600F0FBF801F0B7FE01F0BDFD2846EE
:1012F00000F0F4F8C5E7000004C30200CCC202000D
:10130000474658207573616765206578616D706C1C
:1013100065206170706C69636174696F6E207374AD
:1013200061727465642E000000000020A037000088
:101330002DE9F047C5881E1DB6FBF5F78946B6FBBB
:10134000F5F1044605FB176C407916686843DDF833
:1013500020A0F718001F874200D9C61A166001E0C6
:101360002468491E0029FBD1A5EB0C078846B7422B
:1013700016D818E004EB0C00001D09EB0803BAF1C5
:10138000000F3A4602D00146184600E01946FEF723
:10139000C9FF2468F61B4FF0000CB844B54201D9D0
:1013A000374600E02F46002EE4D1BDE8F08700006C
:1013B00030B5024651B100F0E9FF0021074C08E0CA
:1013C00034F821301568AB4202D11160002030BDE5
:1013D000491C8142F4D3052030BD0000000000000C
:1013E000002100F009B8012100F010B808B56A46E4
:1013F000FEF743FF009808BD08B56A46FEF723FFD5
:1014000008BD08B56A46FEF705FF08BD08B56A467F
:10141000FEF70CFF009808BD08B56A46FEF73AFFD4
:10142000009808BD70B5044600252846FFF705FA68
:1014300021686268086890420ED9401E08600178F1
:10144000238AE26801FB0325227A2168101AC0B2C0
:101450000A79824200D208710020FFF7F0F928468D
:1014600070BD70B505460C460020FFF7E6F9E86848
:10147000298A201AB0FBF1F12A681068431C136016
:101480000170BDE870400020FFF7D9B910B530B148
:10149000017A42680368891AC9B21A6006E00E2010
:1014A00010BD03681A68541C1C601170491EC9B233
:1014B000F7D2006800210171084610BD00F180409C
:1014C0000068002800D00120704708B500F1804076
:1014D000002101600068009008BD00002DE9F04186
:1014E000040007D0044E4FF47A47751C3846A847CD
:1014F000641EFAD1BDE8F081B03700002DE9F0415B
:10150000040007D0044E4FF47A47751C3846A847AC
:10151000641EFAD1BDE8F081109002002DE9FF4170
:101520001C460378164D174E45F823200C3545F818
:101530002340F0CE8DE8F0000C788DF800404C7818
:101540008DF801408C788DF80240CC788DF80340FE
:101550000C798DF805404C798DF806408C68029422
:101560000C7B8DF80C40497B8DF80D1002B1064ABA
:101570006946001D01F060F804B0BDE8F08100008C
:10158000AC000020E88F020029310000F0B50546CC
:101590000478154889B0164640F82420124A086994
:1015A000121DA2F1080742F82400487F3855202276
:1015B0006846FEF7B7FE04942878385C48B10EB14F
:1015C0000A4A00E000226946281D01F0A5FA09B088
:1015D000F0BD0EB1064A00E00022694605F10C009C
:1015E00001F064F9F3E7000010000020BD340000B2
:1015F000053300000FB408B50399002904D004AAEC
:1016000000926A4600F00FF801B05DF814FB10B5C7
:1016100082680446002A05D0D4E90403216898476B
:101620000020A06010BD2DE9FC4791460C008046CB
:1016300076D014F8011B39B125290ED04046FFF7AA
:10164000E1F920780028F4D198F80C00002867D040
:101650004046BDE8FC47FFF7DABF002001222178B1
:101660002B291BD02D2902D0302908D102E040F0CF
:10167000010001E040F00200641C002AEFD10025C7
:101680002A290ED02178A1F130020A2A11D205EBC5
:10169000850201EB4205641C303DF1E740F0040097
:1016A000EAE7D9F800100B1DC9F800300968641C7E
:1016B0000D44217800232E290BD114F8011FA1F12C
:1016C00030020A2A05D203EB830201EB4203303BCE
:1016D000F3E76C290DD068290BD0692921D00BDCE8
:1016E000252918D0582931D063290ED0642915D165
:1016F00017E014F8011FECE7702969D0732932D084
:1017000075291BD0782909D120E0D9F80000011DE6
:10171000C9F8001001784046FFF774F9641C90E79F
:101720006CE0D9F800100A1DC9F800200968CDE95D
:1017300000500A224046FFF797FBEFE7D9F8001068
:101740000A1DC9F8002009680A2206E0D9F800102D
:101750000A1DC9F8002009681022CDE90050404652
:1017600001F04EFFDAE7D9F8001000270A1DC9F88A
:1017700000200E68C00705D112E04046761C7F1C91
:10178000FFF740F931780029F7D104E020214046E5
:101790006D1EFFF737F9BD42C0D9002DF6D1BDE768
:1017A0004EB13046FEF7E2FD074604E020214046F8
:1017B0006D1EFFF727F9BD4206D9002DF6D103E0D3
:1017C0004046761CFFF71EF931780029F8D1A5E7CD
:1017D000D9F80000011DC9F8001005683021404605
:1017E000FFF710F978214046FFF70CF90820002197
:1017F000CDE90001034610222946B0E7BDE8FC8789
:101800001CB5002200920192C2699288ADF80420B2
:10181000C2695288ADF806200A46694600F001F810
:101820001CBD2DE9F0478146C0690C469046818871
:101830002288914203D340886188884202D20720DF
:10184000BDE8F0872079002600F001071BE00025A5
:1018500015E0E1883844891B491E01FB005038F827
:101860001000010A41EA002083B26088304482B24D
:101870002088284481B2484601F06CFA6D1CA0888B
:10188000A842E6D8761CE088B042E0DC0020D7E72A
:101890002DE9FF5F0C46B1F90450C16990468346BB
:1018A0009A462288A08800268B88121A37469342CF
:1018B00006DB62884988101A4FF00109814277DA05
:1018C000072004B0BDE8F09FBAF1000F72D0218864
:1018D000881B01D44A1B33D5701CCDF80090CDE98C
:1018E0000180084483B260880021401B82B25846C0
:1018F00001F066FBCDE900982188681C039008443C
:1019000083B260880021801B82B2584601F058FBE8
:10191000CDE9009821880398084483B260880021AB
:10192000304482B2584601F04BFBCDE90098218843
:101930000298084483B260880021284482B233E0D0
:1019400009EB4601CDF80090CDE901818BB26188A9
:10195000491B8AB281B2584601F032FB09EB4500BF
:10196000CDE9009883B203906088801B82B2208802
:10197000401B81B2584601F023FBCDE90098039843
:1019800083B26088304482B22088401B81B25846BE
:1019900001F016FBCDE9009860880299284482B2D4
:1019A00020888BB2801B81B2584601F009FB51E0C0
:1019B00061E0FFE760884346284482B220883044D3
:1019C00081B2584601F0C6F960884346284482B285
:1019D0002088801B81B2584601F0BCF960884346DC
:1019E000304482B22088284481B2584601F0B2F9CE
:1019F00060884346304482B22088401B81B25846FA
:101A000001F0A8F960884346401B82B22088801B01
:101A100081B2584601F09EF960884346401B82B26D
:101A20002088304481B2584601F094F960884346DA
:101A3000801B82B22088401B81B2584601F08AF98F
:101A400060884346801B82B22088284481B2584671
:101A500001F080F9002F07DC761C36B207EB460058
:101A6000401C07B2002F06DD6D1E2DB2684207EB49
:101A70004000401E07B2B542BFF626AF002020E767
:101A8000C0694088704710B5044600688047002848
:101A900002D1E2690121117010BD82690846104728
:101AA0002DE9FC47C3690C468146988809884FF0A8
:101AB00000081546C446884203D25A88A688B24216
:101AC00006D36288904206D25888E388984202D2B0
:101AD0000720BDE8FC87A388E688CF1AA2EB0600A2
:101AE00000D57F42002800DA4042874202DDB4F888
:101AF00008C001E0B4F80880994201D0B24210D188
:101B0000581AB31A00D55B4263449BB2CDE9003545
:101B1000002800DA4042404483B2484601F050FABF
:101B200036E0B8F1000F15D000260FE0B4F906003A
:101B3000CDE90005A0886288304483B22088304413
:101B400081B24846FFF7CCFA761CB6B22089B04283
:101B5000ECD81DE0BCF1000F14D000260EE0E088A8
:101B6000304400B2CDE900056088A388304482B2D9
:101B700021884846FFF7B4FA761CB6B22089B042F5
:101B8000EDD805E030B2CDE900054846FFF7A8FAE8
:101B900000209EE72DE9FE4F814608880C9DADF898
:101BA0000800D9F81C0088464C88418828781F46D0
:101BB000081A9346A04202DA0720BDE8FE8F0026ED
:101BC0004FF00A0A2BE00A2A2ED0CDE9004B02ABD7
:101BD0002946484601F06EFDB95D6878081AC0B222
:101BE00020292CD0696811F8200000BFD9F81C10FA
:101BF0008A88121ABDF8080082420FDA0D9888B15F
:101C0000B8F80000ADF8080028784988B0FBFAF26F
:101C10002244024494B2081AA04203DB761CBA5D47
:101C2000002AD0D10020C8E7B8F80000ADF80800BD
:101C30002878B0FBFAF12144084484B2CCE7287834
:101C40004008D3E72DE9FE4F9A468B88154681461A
:101C5000581B87B2C8880C46411BDDF830C08EB2D5
:101C6000012B13D0012811D0B3EB450F0ED3B0EBED
:101C7000450F0BD3D9F81C202188B2F80480884581
:101C800007D25288B4F80280424502D20720BDE84C
:101C9000FE8FBCF1000F06D0CDE9000A62884846ED
:101CA00001F08EF950E0ADF800106088ADF8020048
:101CB0002088A18852460844ADF804006088ADF839
:101CC0000600ADF8085069464846FFF7E9FE20884F
:101CD000ADF80000608852463044ADF8020020881C
:101CE000A1880844ADF80400608869463044ADF826
:101CF00006004846FFF7D4FE2088ADF80000608853
:101D000052462844ADF802002088ADF804006088EF
:101D100069463044ADF806004846FFF7C1FE20880A
:101D200052463844ADF80000608869462844ADF852
:101D3000020020883844ADF8040060883044ADF8D3
:101D400006004846FFF7ACFE0020A0E730B4C569A6
:101D50000346A8796A8810F0010FA8880AD00446C3
:101D60001046A97141B101290BD0022904D00329E1
:101D70000BD106E01446F4E7DA695480DA69908002
:101D800003E0DA695080D86984805A6930BC08461B
:101D900010471CB5C3695A889B88CDE900210022F1
:101DA000114601F00DF91CBDC0698088704770B5FF
:101DB00041EA4201DDE904564FF0A04441EA8301C3
:101DC00041EA052104EB800041EA0641C0F8001712
:101DD00070BD70B541EA4201DDE904564FF0A04400
:101DE00041EA830141EA052104EB800041EA064112
:101DF000C0F8001770BD70B541EA4201DDE9045634
:101E00004FF0A04441EA830141EA052104EB800040
:101E100041EA0641C0F8001770BD1CB500210091D1
:101E20000B4601220191FFF7D4FF1CBD1CB5002118
:101E300000910B4601220191FFF7DDFF1CBD1CB58F
:101E400000220B46009211460192FFF7C2FF1CBD13
:101E50001CB500220B46009211460192FFF7CBFF02
:101E60001CBD1CB5002100910B46012201911146B9
:101E7000FFF79DFF1CBD1CB5002100910B46012200
:101E800001911146FFF7A5FF1CBD1CB50021009173
:101E90000B46012201911146FFF7ADFF1CBD4FF02B
:101EA000A04201218140C2F80C1570474FF0A042BA
:101EB00001218140C2F808157047000030B5154A6D
:101EC00001460020D2F8104423460AE0DB681D7961
:101ED000854205D1401C0A28F6DB4FF0FF3030BDAB
:101EE0001B68002BF2D1431CF9D0CB681871D2F8D3
:101EF000103443B1DB68CC681B682360D2F810242F
:101F0000D268116030BDC2F81014C96800220A609E
:101F100030BD0000D0020020F0B595B01C4615463B
:101F20000F4608461A9E00F001FB182109A8FEF78B
:101F300012FA0E96CDE909540023082203A9384667
:101F400000F009FB05980690BDF81000ADF81C00E4
:101F5000BDF81200ADF81E0000208DF82100039896
:101F6000082600F00300012802D0022818D032E031
:101F700003983346850AC0F3C2008DF82000039809
:101F80000FA9C0F38314A200384600F0E4FA09A8B0
:101F9000009006AB22460FA9284600F023FA1AE06B
:101FA0000398840DC0F3C2008DF82000082C01D2E4
:101FB000254600E0082533462A460FA9384600F09A
:101FC000CAFA2E44641B09AB06AA29460FA800F0E2
:101FD00071F9002CEAD1384600F0AEFA15B0F0BD28
:101FE0007047012001F0ACB9084810B50178084AE3
:101FF000515C19B1001D00F029FE02E00C3000F028
:1020000023FDBDE81040002001F09AB938000020FF
:102010000C00002008B5034A00924023024AFFF753
:102020007BFF08BD69300000380100200A4A012901
:1020300002EBC00007D0022907D0032907D00429EA
:1020400007D00020704702207047042070470079B5
:102050007047407970470000CCC2020010B5FFF70E
:10206000C0FF04210348FFF729FF02490120C96886
:10207000487110BDBCC202002DE9F0478CB0FEF7DC
:10208000D9FC18B100200CB0BDE8F0877D4C0020D1
:10209000C4F81804BFF34F8F7B49A06802900D6805
:1020A0004FF00008284004EB80000BE0D4F818043F
:1020B00070B961680298814201D8A160E2E72840C6
:1020C00004EB80000C3002A9FEF766FF0028EDD17A
:1020D000002003AA029901EA050304EB8303491CCB
:1020E000DB6842F82030401C02910228F2D30398AA
:1020F00000F00300022802D001284DD0A7E0039889
:102100005022810D8946B2EB905F00D850210E46D7
:1021100066F39F50039008315C4800F0BEF9070059
:1021200078D000F003FA4346082203A9384600F0AD
:102130001AFA029908F1080A2940681A8000001D5D
:10214000864222D94F4D0C3530B1C2B204EB810129
:10215000301A90460C3104E02946F2B20025904630
:102160002846C6B25346384600F0FDF90AEB08038C
:1021700025B132462946384600F0F5F9029909F1B1
:10218000030001EB900002903BE004EB8101534619
:10219000324638460C31EFE70398C0F38310062827
:1021A00000D30620039960F38911C1F38310801CCA
:1021B00003918100354800F070F9070047D000F026
:1021C000B5F94346082203A9384600F0CCF908F1D6
:1021D000080800260FE00298434600EA0501401C6B
:1021E00004EB81010290042238460C3100F0BBF967
:1021F00008F10408761C0398C0F38310B042EAD8B3
:1022000047B1D4F81054D4F8180478B1384600F027
:1022100093F931E01BE0E8684079012804D12A688D
:102220002846394612689047E8680568002DF2D1C3
:10223000384600F081F90020FEF7FFFAD4F81804C0
:1022400008B90298A0600020FEF7F9FA14E0D4F86B
:10225000104405E02168204689688847E0680468E2
:10226000002CF7D10A480B49401AC008022101EBA3
:10227000004009A100F01AF8FEF7DCFB80F0010035
:1022800001E70000D0020020540000200CC302002F
:1022900004C30200CCC202004261636B656E6473CA
:1022A00020666C75736865640000000000231A46A0
:1022B00000F0B4BF2DE9F0470E4680461C4692461A
:1022C000082940D894F80C90002020731946104635
:1022D00000F072FD0025B54206D218F805201BA1BA
:1022E0002046FFF787F903E01AA12046FFF782F99D
:1022F0006D1C082DEFD318A12046FFF77BF90025B0
:10230000B54212D218F805707E2F08D8FEF706F8ED
:102310000068C05D10F03E0F01D03A4600E02E226A
:102320000EA12046FFF766F903E00DA12046FFF756
:1023300061F96D1C082DE3D301222146504600F0BF
:102340001DFD84F80C90BDE8F08700002025303298
:1023500078000000202020007C00000025630000A1
:1023600020000000064910B500200870054800F064
:10237000E1F8002803D1044800F0FDF8002010BD6A
:10238000D00200200CC3020048C1020002480349E9
:10239000401AC008704700000CC30200CCC2020003
:1023A00013B56846FFF704F808B100201CBD0248C9
:1023B000009950F831001CBDCCC2020070B508482D
:1023C0000125D0F81044057007E0E06845712168E8
:1023D000204649688847E0680468002CF5D170BD44
:1023E000D00200202DE9FF4781460C9D00200C46BD
:1023F0002F7B2873984616462946184600F0DCFCC9
:10240000072E42D2DFE806F004090F161F2A360015
:1024100049462846FFF7EEF837E049462846226845
:10242000FFF7E8F831E0D4E9002349462846FFF7F2
:10243000E1F82AE0A0680090D4E900234946284644
:10244000FFF7D8F821E0D4E90201CDE90001D4E991
:10245000002349462846FFF7CDF816E004F10800AE
:1024600007C88DE80700D4E9002349462846FFF74E
:10247000C1F80AE004F108000FC88DE80F00D4E9A4
:10248000002349462846FFF7B5F800222946404672
:1024900000F074FC2F73BDE8FF872DE9F041058A39
:1024A00080462D1F4819C01CB0FBF5F0C6B240464F
:1024B000FEF7B8FF041E19D00020207101206071C2
:1024C000E58000272546761EC4F800800BE04046D4
:1024D000FEF7A8FF60B16179491C6171286005466B
:1024E0007F1CC0F80080B742F1D32046BDE8F081E0
:1024F000204600F002F80020F8E72DE9F041457988
:1025000001466B1E002201E00968521C9A42FBD36F
:102510000F680146002605E038460C68FEF7A1FF6B
:102520002146761CAE42F7D3BDE8F0810121001DA3
:10253000FEF75CBFFEF7AABF10B504460121001DDF
:10254000FEF76AFF10F0FF0F04D12046BDE81040EF
:10255000FFF7D3BF10BD1CB501920122009201AA62
:10256000FEF7E6FE1CBD1CB501920022009201AAF6
:10257000FEF7DEFE1CBD8268002191608268116159
:10258000826851618268D1608268516080680160B0
:1025900070474058002800D001207047405800285C
:1025A00000D00120704708B50022425040580090EA
:1025B00008BDD0F80403084000D0012070474058FF
:1025C000002800D00120704708B500224250405832
:1025D000009008BD0121B1EB507F01D1012070476F
:1025E000002070470121B1EB507F01D101207047DD
:1025F0000020704770B50D4600F02AFC04000FD093
:102600000020FEF71AF9207920B10020FEF717F913
:10261000112070BD0120256020710020FEF70FF908
:10262000002070BD10B500F013FC002802D000217E
:102630000160017110BD00002DE9FC470C461546F4
:1026400001798046554A01EBC10002EB80069946AC
:10265000307F10B10820BDE8FC87514AD8F800004F
:10266000074652F82110FFF7C5FF08B11120F2E725
:10267000C6E90059207B0128207802D8FFF70FFC1B
:1026800001E0FFF713FC4FF0000ACDF800A0CDF8F1
:1026900004A02078534652460121FFF788FB60785A
:1026A0004FF0FF35FF2806D08146FFF7F8FB48467C
:1026B000FFF7D7FB00E0A946A078FF2809D0002249
:1026C00005460123CDF800A01146CDF804A0FFF780
:1026D0006EFBA07886F82000E078F077E078FF289D
:1026E0000BD0217911B1FFF7DAFB01E0FFF7DEFB38
:1026F000E078FFF7B6FB2079B0772178C7F80815A6
:10270000C7F80C95C7F81055A068C7F82405217BB9
:10271000607B00B10120012904D0022905D00329E2
:1027200008D105E040F0020004E040F0040001E0C0
:1027300040F00600C7F85405A079C7F8C005072087
:10274000C7F800053068012218B3D8F80000617995
:1027500040F3073000284FEA411104DB00F1E0208C
:1027600080F8001405E000F00F0000F1E02080F890
:10277000141DD8F8000040F30730002809DB00F0F2
:102780001F0102FA01F14009800000F1E020C0F8C9
:102790000011504686F81DA032775CE7C400002087
:1027A000F88F02002DE9FC4107460079204900EB33
:1027B000C00001EB80040121206890B1386840F32B
:1027C000073000280DDB00F01F0201FA02F2400979
:1027D000800000F1E020C0F88021BFF34F8FBFF3ED
:1027E0006F8F3D682068002670B11248C5F8080355
:1027F000607F48B169614FF4827841462846FFF70F
:10280000C8FE0028F9D0667794F82000FF2806D08B
:1028100000230096012219460196FFF7C8FAC5F871
:1028200000653868FFF7FEFE2677BDE8FC810000F2
:10283000C4000020520108002DE9F04105460F4672
:102840000079154900EBC00001EB80041646607F5B
:1028500010B11120BDE8F081206820B116F0140FEE
:1028600001D10120607797E80F0004F10C0888E897
:102870000F00E07FFF2806D0A17F11B1FFF716FB04
:1028800001E0FFF70CFB33463A4621462868BDE8D5
:10289000F04100F065BC0000C4000020014902487E
:1028A00000F076BDE8000020002000402DE9F04156
:1028B0000546007916460F4600EB40012D4A01EB14
:1028C000C00102EB810494F82A1011B10820BDE880
:1028D000F081294951F820102868FFF78BFE08B1D4
:1028E0001120F4E739462846FDF7BEFF66603869D7
:1028F000206030004FF001062FD03F7F4FF48E71E3
:102900002868FFF750FE4FF4A2712868FFF74BFECE
:1029100028681A49C0F8041328684FEA471140F3A1
:102920000730002804DB00F1E02080F8001405E007
:1029300000F00F0000F1E02080F8141D286840F33B
:102940000730002809DB00F01F0106FA01F14009F9
:10295000800000F1E020C0F8001128680421C0F8D0
:1029600000150020A061E06184F8290044F8140FEC
:10297000A675ACE7E8000020FC8F02008000020092
:102980002DE9F05F054600790B4600EB400101EBB5
:10299000C000244901EB8004284600F045F810B13E
:1029A0001120BDE8F09F62614FF00009C4F820904B
:1029B000A36084F828904FF48E784E4641462868EC
:1029C000FFF7F1FD28684FF0010AC0F808A0214682
:1029D000286800F06DFC606808BBD5F800B0676936
:1029E0000FE000BF94F8280008B10F2615E041461B
:1029F0005846FFF7D3FD0028F4D02146584600F092
:102A000057FC206AB842F2D3574641462868FFF780
:102A1000C5FD0028F9D02868C760C4F81490304676
:102A2000BFE70000E8000020007900EB400101EB67
:102A3000C000044901EB80004069002800D001205B
:102A400070470000E80000202DE9F04704460079B7
:102A50004FF0000900EB400101EBC000284901EBF9
:102A600080072068C0F800957868B0B120682549D3
:102A7000C0F80813206840F3073000280DDB00F091
:102A80001F02012191404009800000F1E020C0F8C0
:102A90008011BFF34F8FBFF36F8F2068D0F80C25E4
:102AA000D0F81485D0F80865D0F810554FF0FF31F4
:102AB000C0F81415C0F80C152068C0F80815C0F847
:102AC0001015501C02D01046FFF7A7F9B8F1FF3FD0
:102AD00002D04046FFF7A1F9681C02D02846FFF754
:102AE0009CF9701C02D03046FFF797F92068FFF779
:102AF00099FD87F82A90C7F80490BDE8F087000098
:102B0000E8000020840202000149024800F0EEBC07
:102B100014010020002000402DE9F0410546164632
:102B200000790F46154A00EBC00102EB810494F8CE
:102B3000201011B10820BDE8F081114951F8201092
:102B40002868FFF757FD08B11120F4E739462846F9
:102B5000FDF7CEFE6660386920601EB1397F2846D9
:102B6000FEF7D6F928680821C0F800150020A061FA
:102B7000E0616061012184F82010DCE7140100208D
:102B8000009002002DE9F04704460E4600792749DF
:102B900000EBC00001EB800517463046FFF722FD31
:102BA00030B1204600F044F820B11120BDE8F08794
:102BB0001020FBE76F61AE604FF490774FF0000894
:102BC00039462068FFF700FD4FF4AC7631462068A7
:102BD000FFF7FAFC2068AA686969C0F84425C0F8C4
:102BE000481520684FF00109C0F808906868D0B90E
:102BF000BA4651462068FFF7E2FC07463146206896
:102C0000FFF7DDFC0743F4D010B14FF00F0808E0E8
:102C10002068C0F80C9031462068FFF7D0FC0028EF
:102C2000F9D0002068614046C0E700001401002090
:102C30000079054900EBC00001EB800040690028E5
:102C400000D0012070470000140100202DE9F0475A
:102C5000064600793D4900EBC00001EB8005346871
:102C600068680127A8B13A49C4F80813306840F3EE
:102C7000073000280DDB00F01F0107FA01F14009C1
:102C8000800000F1E020C0F88011BFF34F8FBFF348
:102C90006F8FD4F8000220F02000C4F80002A86969
:102CA0004FF4A27820B141462046FFF78DFC6760C3
:102CB0004FF4AC7949462046FFF786FCE76047466B
:102CC00049462046FFF77BFC0028F9D0A86928B1C7
:102CD00039462046FFF773FC0028F1D04FF0000A78
:102CE000C4F800A53068D0F80C25D0F81495D0F8B9
:102CF0000885D0F810754FF0FF31C0F80C15C0F8FA
:102D000014153068C0F80815C0F81015501C02D012
:102D10001046FFF78BF8B9F1FF3F02D04846FFF7A6
:102D200085F8781C02D03846FFF780F8B8F1FF3FED
:102D300002D04046FFF77AF82046FFF773FC85F88B
:102D400020A0C5F804A0BDE8F08700001401002011
:102D500010034200F0B40D46C16914468A884988C0
:102D6000954208D28C4206D2866821462846B4464F
:102D7000F0BC1A466047F0BC7047000010B50C4626
:102D8000017A052908D0407A38B1084808A10268BC
:102D90002046FEF72FFC00E01AB106A12046FEF700
:102DA00029FC2046BDE81040FEF731BC840000201D
:102DB000257300000D0A000038B5C3880D4604468F
:102DC00033B114A0009015A216A12846FEF712FCFC
:102DD000217A05291CD0607A48B1A088FFF726F92E
:102DE000164951F8202016A12846FEF703FCA088BA
:102DF0000021FFF7D5FA03461049207A143951F81B
:102E0000202001B02846BDE830400EA1FEF7F2BBFD
:102E100038BD00001B5B306D000000001B5B313BC8
:102E200033316D0025734C6F67732064726F70705F
:102E30006564202825642925730D0A00840000207C
:102E4000257300003C25733E2025733A20000000C6
:102E50000349884201D103487047002070470000B1
:102E600000200040200000202DE9F041524D86B0A6
:102E7000524CD5E90801CDE90101A068FEF794FFA5
:102E80004008ADF80400A068FEF7FAFD0646A06809
:102E9000FEF78AFFB6FBF0F0ADF80600A068FEF77B
:102EA000EFFDADF80800D5E90A01CDE90301A068FE
:102EB000FEF77AFF4008ADF80C00A068FEF7E0FDD1
:102EC0000546A068FEF770FFB5FBF0F0ADF80E0008
:102ED000A068FEF7D5FDADF810000121A068FEF74F
:102EE00035FF00252E464DE0A81CADF80C00ADF8CE
:102EF0000450B01CADF80660ADF80E00A068FEF7F7
:102F000053FFC5F1000800EB4800ADF80800A068C9
:102F1000FEF7B6FD774200EB4700ADF80A00A06867
:102F2000FEF742FF00EB4800001FADF81000A0685C
:102F3000FEF7A6FD00EB4700001FADF812000020D1
:102F4000AF19009007EB87004300022201A9A06897
:102F5000FEF778FE08B1FDF765FC0120009078428D
:102F600000EB80004FF6FF7101EB4003022203A942
:102F7000A068FEF767FE08B1FDF754FCAD1D0836EA
:102F8000ADB2B6B2A068FEF70FFF001F00EBD07025
:102F9000B5EB600F08DCA068FEF772FD001F00EBC8
:102FA000D070B6EB600F9FDD0021A068FEF7CEFE6B
:102FB00006B0BDE8F0810000A0370000000000204E
:102FC000F8B515460246C0691C460E46DDE90637CF
:102FD000818840888E420FD285420DD2891BA14242
:102FE00000DA8CB2401B984200DA83B20097D768AF
:102FF000224629463046B847F8BD70B5054688696F
:103000000C4600284FF4847128460AD0FFF7CBFA0B
:10301000D5F81805626AE1688854606A401C6062ED
:1030200070BDFFF7C0FAD5F8180570BD1FB50123B4
:103030008DF80030CDE90121D0E9001268469047B3
:103040001FBD1FB501238DF80030CDE90121D0E966
:103050000012684690471FBD02484CF21861806814
:10306000FEF797BE0000002070B50D4C0020D2B2D4
:103070002070201D0B4D0378EB5C1BB1001DFFF78A
:1030800081FD02E00C30FFF77BFC08B1FDF7CAFBC5
:103090006078002802D021780029FAD070BD0000A5
:1030A000340000200C0000202DE9F04107461C46AA
:1030B00015460E462A2000F056FB380A00F05FFB4A
:1030C000F8B200F05CFB280A00F059FBE8B200F00F
:1030D00056FB2B2000F047FB300A00F050FBF0B20B
:1030E00000F04DFB200A00F04AFBE0B200F047FB85
:1030F000BDE8F0412C2000F036BB00001FB5CCB27B
:103100000021CDE90211CDE900040A4669460548CF
:10311000FFF792FB002804D004B0BDE81040FDF793
:1031200081BB1FBD1C90020000B585B00A46017826
:103130008DF8001041680191017A8DF80810C1687E
:103140000391007C8DF81000044850F822100C38D0
:1031500050F822206846904705B000BDB800002016
:103160002DE9F843044610681E4615460F464FF0F9
:10317000000810B1FFF72EFAF8B1A86810B1FFF7F8
:1031800029FAD0B1D5E90001C4F84405C4F84815BE
:10319000D5E90201C4F83405C4F838154FF48C752C
:1031A0004046C4F81881D4F818110091F2074FF086
:1031B000010107D0C4F8501506E087F81D801020E3
:1031C000BDE8F883C4F85005B20702D5C4F840152D
:1031D00001E0C4F84005300700D42161386848B1E7
:1031E00046F38000401C4FF0400014D0C4F80403A4
:1031F0000020E5E729462046FFF7CBF90028F9D063
:10320000F87FFF28F4D0B97F11B1FEF748FEEFE751
:10321000FEF74CFEECE7C4F80803E9E72DE9F84FA8
:10322000074621489146884605681E4601226946A0
:103230001846FDF7A1FBDFF874A060B300980021E9
:103240000446801C0AE000BF00EA050259F821C0CC
:103250000AEB8202401C491CC2F80CC0B142F3D3F5
:103260004FEA1749FDF73EFD611C29400AEB810139
:1032700049EA00422C40CA600AEB8401C86867F33F
:10328000C50066F3891068F39F2020F00300401CFE
:1032900020F00400C8609AF8000001E0FEF7ECFEA0
:1032A0000028FBD1BDE8F88F54000020D002002098
:1032B00070B50C4605464FF48E71FFF774F9216A1C
:1032C000A068415C206A401C2062C5F81C1570BDD6
:1032D0001FB500228DF800200291816801914261A2
:1032E000D0E90012684690471FBD1FB500228DF837
:1032F00000200291816801914261D0E90012684684
:1033000090471FBD1FB50A4601788DF8001041682F
:103310000191017A8DF80810C0680390044850F8B4
:103320002210001F50F82220684690471FBD000061
:10333000140000200149012008707047340000206B
:1033400010B588B0044620220E496846FCF7EAFF13
:1033500006200090C01F0190029003904FF0EB7088
:1033600006900CB1084A00E0002269460748FEF7C3
:103370000DF908B1FDF756FA0448001F447008B073
:1033800010BD000028C102003533000038000020C5
:103390002DE9FF470C4605464FF40071FFF709F988
:1033A00001274FF40178002618B34FF4927949466B
:1033B0002846FFF7F3F8E0B149462846FFF7F3F84F
:1033C000C5F8088394F8290000B96F6002208DF8D1
:1033D0000000D5F88004C5F880040390A06902902D
:1033E000E0680190A661E661D4E900126846904762
:1033F00028E004212846FFF7DCF818B34FF4847165
:103400002846FFF7CBF8E8B121462846FFF7F5FD3F
:10341000616AA069884215D1E06938B1E268616AE1
:10342000A0612069E6616662E06008E094F8290026
:1034300000B96F60C5F80883A661E268616A20463A
:10344000FFF7F4FD4FF48E7841462846FFF7A6F8C3
:1034500080B16069216A814202D294F8280028B3C1
:1034600041462846FFF79FF8606918B16169204618
:10347000FFF72EFF4FF4A27841462846FFF78EF85B
:10348000002818D041462846FFF78DF894F8290007
:1034900000B12F60A06900280DD0A661E268616AC2
:1034A00004B02046BDE8F047FFF7C0BD21462846DE
:1034B000FFF7FEFEDEE7BDE8FF8700001FB50A4606
:1034C00001788DF8001041680191017A8DF808109B
:1034D000C0680390044850F82210001F50F82220C2
:1034E000684690471FBD0000140000202DE9FF41F1
:1034F0000C464FF4927705463946FFF760F80026F0
:10350000B8B139462846FFF75FF802208DF8000071
:10351000D5F88004C5F880040390D5F83C050290E6
:10352000E0680190A661E661D4E900126846904720
:1035300023E04FF4887739462846FFF740F8E0B19A
:1035400039462846FFF740F8D5F83C15A06988426F
:1035500013D1E06960B1E268D5F8000220F02000E4
:10356000C5F80002E069A0612069E661E06001E061
:10357000A661E2682046FFF764FD4FF4A277394662
:103580002846FFF71CF868B139462846FFF71CF8B3
:10359000A06938B1A661E661D5F83C152046E2681D
:1035A000FFF74FFD4FF4907631462846FFF707F8B6
:1035B00060B131462846FFF707F80120E8606069EE
:1035C00020B1D5F84C152046FFF78FFE4FF4AC76AE
:1035D00031462846FEF7F3FF00280ED03146284634
:1035E000FEF7F2FF6069002807D0D5F84C1504B04B
:1035F0002046BDE8F041FFF778BEBDE8FF8100003E
:103600002DE9F05F8346DDE90A4A994690460D466A
:103610000846012703E000BFB0FBF8F07F1C4045DF
:10362000FAD2B94500D94F465FEACA7012D18CB1BF
:103630005FEA8A7002D5B9F1000F01D0202607E0B9
:10364000302605E031465846641EFDF7DBF90CB123
:10365000A742F7D35FF00106B9F1010F02D9A9F132
:10366000010903E0B5FBF6F0404502D306FB08F67E
:10367000F2E7DFF83C9000BFB5FBF6F000FB165513
:1036800019F800105846FDF7BDF9B6FBF8F6002E04
:10369000F2D15FEACA7009D0002C07D0A74205D248
:1036A00020215846641EFDF7ADF9F5E7BDE8F09F0F
:1036B0000CC102002DE9FF4F487883B0101AC0B248
:1036C0000C4600904968984611F82000C01D4FEA4A
:1036D000D009202A01D0002734E0B8F80000217872
:1036E00000EB51003AE0002628E000250098022176
:1036F00001EB800B109807FB096A38440190616860
:10370000C5F1070231F80B00A1680144012011F84E
:103710000A10904001420BD0B8F8000005EBC6013A
:10372000084481B20198119B82B20398FFF712FB03
:103730006D1CEDB2082DE2D3761CB6B24E45D4D343
:103740007F1CBFB22078B842CDD86168009811F8CC
:103750002000E1780144B8F800000844A8F800000F
:1037600007B0BDE8F08F01B54FF0A0414FF48010D5
:10377000C1F80C0501216846FFF7C0FC08BD01B582
:103780004FF0A0414FF48010C1F8080501216846B0
:10379000FFF7B4FC08BD00000000000000000000BE
:1037A0000500000000000000000000000000000014
:1037B0000338FDD870470000000000000A00000038
:1037C00000000000000002000000000000000200F5
:1037D000FFFFFFFFFFFFFFFFFFFFFFFFFFFFFFFFF9
:1037E000FFFFFFFFFFFFFFFFFFFFFFFFFFFFFFFFE9
:1037F000FFFFFFFFFFFFFFFFFFFFFFFFFFFFFFFFD9
:10380000FFFFFFFFFFFFFFFFFFFFFFFFFFFFFFFFC8
:10B5F000FFFFFFFFFFFFFFFFFFFFFFFFFFDFFFFD7D
:10B60000FFFEFFFFFFFEFFDFFFFEFFFDFFFEFFFF70
:10B61000FFFFFFDFFFFFFFFFFFFFFFFFFFFFFFFF5A
:10B62000FFFFFFFFFFFFFFFFFFFFFFFFFFFFFFFF2A
:10B63000FFFFFFFEFFFEFFFFFFFFFFFFFFFFFFFF1C
:10B64000FFFFFFFFFFFFFFFFFFFEFFFEFFFEFFFE0E
:10B65000FFFFFFDFFFFFFFFFFFFFFFFFFFFFFFFF1A
:10B66000FFFFFFFFFFFFFFFFFFFFFFFEFFFEFFFFEC
:10B67000FFFFFFFFFFFFFFFFFFFFFFFFFFFFFFFFDA
:10B68000FFFFFFFFFFFFFFFFFFFFFFFFFFFFFFFFCA
:10B69000FFFFFFFFFFFFFFFFFFFFFFFFFFFFFFFFBA
:10B6A000FFFFFFFFFFFFFFFFFFFFFFFFFFFFFFFFAA
:10B6B000FFFFFFFFFFFFFFFFFFFFFFFFFFFFFFFF9A
:10B6C000FFFFFFFFFFFFFFFFFFFFFFFFFFFFFFFF8A
:10B6D000FFFFFFFFFFFFFFFFFFFFFFFFFFFFFFFF7A
:10B6E000FFFFFFFFFFFFFFFFFFFFFFFFFFFFFFFF6A
:10B6F000FFFFFFFFFFFFFFFFFFFFFFFFFFFFFFFF5A
:10B70000FFFFFFFFFFFFFFFFFFFFFFFFFFFFFFFF49
:10B71000FFFFFFFFFFFFFFFFFFFFFFFFFFFFFFFF39
:10B72000FFFFFFFFFFFFFFFFFFFFFFFFFFFFFFFF29
:10B73000FFFFFFFFFFFFFFFFFFFFFFFFFFFFFFFF19
:10B74000FFFFFFFFFFFFFFFFFFFFFFFFFFFFFFFF09
:10B75000FFFFFFFFFFFFFFFFFFFFFFFFFFFFFFFFF9
:10B76000FFFFFFFFFFFFFFFFFFFFFFFFFFFFFFFFE9
:10B77000FFFFFFFFFFFFFFFFFFFFFFFFFFFFFFFFD9
:10B78000FFFFFFFFFFFFFFFFFFFFFFFFFFFFFFFFC9
:10B79000FFFFFFFFFFFFFFFFFFFFFFFFFFFFFFFFB9
:10B7A000FFFFFFFFFFFFFFFFFFFFFFFFFFFFFFFFA9
:10B7B000FFFFFFFFFFFFFFFFFFFFFFFFFFFFFFFF99
:10B7C000FFFFFFFFFFFFFFFFFFFFFFFFFFFFFFFF89
:10B7D000FFFFFFDEFFFEFFDEFFFFF7FDFFDFFF9D48
:10B7E000FFDFF7FFF7DEFFBFFFBFFFDFFFFFFFDF7A
:10B7F000FFDFFFFFFFDFF7DFFFFFFFDFFFDFFFFF01
:10B80000FFFEFFFEFFFEF7DFF7BEFFFFFFDFFFDFFC
:10B81000F79EF7DEE75AB5F49CF09D31A552BE15B0
:10B82000D6D8E73BE75BF7BDF7DEF7BEFFDFFFDF0C
:10B83000FFFFF7DEFFFFF7BEF7DEFFFFFFFFFFDFD3
:10B84000FFFFFFFFF7DEF7BEFFDFFFDFF7DFF7DF0A
:10B85000FFDFFFDFFFDFFFFFFFFFFFFFFFFFFFFF58
:10B86000FFFFFFFFFFDFFFDFFFFFFFFFFFFFFFFF28
:10B87000FFFFFFFFFFFFFFFEFFFFFFFFFFFFFFDFF9
:10B88000FFDFFFDFFFDFFFFFFFFFFFFFFFFFFFFF28
:10B89000FFFFFFFFFFFFFFFFFFFFFFFFFFFFFFFFB8
:10B8A000FFFFFFFFFFFFFFFFFFFFFFFFFFFFFFFFA8
:10B8B000FFFFFFFFFFFFFFFFFFFFFFFFFFFFFFFF98
:10B8C000FFFFFFFFFFFFFFFFFFFFFFFFFFFFFFFF88
:10B8D000FFFFFFFFFFFFFFFFFFFFFFFFFFFFFFFF78
:10B8E000FFDFFFDFFFDFFFDFFFDFFFDFFFFFFFDF48
:10B8F000FFDFFFDFFFDFFFFFFFFFFFFFFFFFFFFFB8
:10B90000FFFFFFFFFFFFFFFFFFFFFFFFFFFFFFFF47
:10B91000FFFFFFFFFFFFFFFFFFFFFFFFFFFFFFFF37
:10B92000FFFFFFFFFFFFFFFFFFDFFFFFFFFFFFFF47
:10B93000FFFFFFFFFFFFFFFFFFFFFFFFFFFFFFFF17
:10B94000FFFFFFFFFFFFFFFFFFFFFFFFFFFFFFFF07
:10B95000FFFFFFFFFFFFFFFFFFFFFFFFFFFFFFFFF7
:10B96000FFFFFFFFFFFFFFFFFFFFFFFFFFFFFFFFE7
:10B97000FFFFFFFFFFFFFFFFFFFFFFFFFFFFFFFFD7
:10B98000FFFFFFFFFFFFFFFFFFFFFFFFFFFFFFFFC7
:10B99000FFFFFFFFFFFFFFFFFFDFFFFFFFFFFFFFD7
:10B9A000FFFFFFFFFFFFFFFFFFFFFFFFFFFFFFFFA7
:10B9B000FFFFFFFFFFFFFFDFFFFFF7DEFFDEFFFF01
:10B9C000EF9EEFDEFFFEFFFFFFFFF7BEFFDFFFDFB3
:10B9D000F7DFFFFFFFFFFFDEFFFEFFFEFFFFFFFFC2
:10B9E000FFFEFFDEFFDFFFFFFFDFFFDFFFDEFFFF0A
:10B9F000F7DDC6579D319D0F950E7C2A7C4C7C2C23
:10BA00007C0D844E844E94D0AD93B5D5C658D6BB2C
:10BA1000EF9CF7DEFFFFFFFEFFFEFFFEFFFEF7DEFF
:10BA2000F7DFF7BFF7DFFFDEFFFFF7DEFFDFFFFF28
:10BA3000FFFEFFDFFFFFFFDFF7DFFFFFFFFFFFFF7F
:10BA4000FFFFFFFFFFDFFFDFFFDFFFDFFFDFFFDFC6
:10BA5000FFDFFFFFFFDFFFFEFFFFFFFFFFFFFFFF37
:10BA6000FFFFFFFEFFFEFFDFFFDFFFDFFFDFFFDF88
:10BA7000FFFFFFFFFFFFFFFFFFFFFFFFFFFFFFFFD6
:10BA8000FFFFFFFFFFFFFFFFFFFFFFFFFFFFFFFFC6
:10BA9000FFFFFFFFFFFFFFFFFFFFFFFFFFFFFFFFB6
:10BAA000FFFFFFFFFFFFFFFFFFFFFFFFFFFFFFFFA6
:10BAB000FFFFFFFFFFFFFFFFFFFFFFFFFFFFFFFF96
:10BAC000FFFFFFDFFFDFFFDFFFFFFFFFFFFFFFFFE6
:10BAD000FFFFFFFFFFFFFFFFFFFFFFFFFFFFFFFF76
:10BAE000FFFFFFFFFFFFFFFFFFFFFFFFFFFFFFFF66
:10BAF000FFFFFFFFFFFFFFFFFFFFFFFFFFFFFFFF56
:10BB0000FFFFFFFFFFFFFFFFFFFFFFFFFFFFFFFF45
:10BB1000FFFFFFFFFFFFFFFFFFFFFFFFFFFFFFFF35
:10BB2000FFFFFFFFFFFFFFFFFFFFFFFFFFFFFFFF25
:10BB3000FFFFFFFFFFFFFFFFFFFFFFFFFFFFFFFF15
:10BB4000FFFFFFFFFFFFFFFFFFFFFFFFFFFFFFFF05
:10BB5000FFFFFFFFFFFFFFFFFFFFFFFFFFFFFFFFF5
:10BB6000FFFFFFFFFFFFFFFFFFFFFFFFFFFFFFFFE5
:10BB7000FFFFFFFFFFFFFFFFFFDFFFFFFFFFFFFFF5
:10BB8000FFFFFFFFFFFFFFFFFFFFFFFFFFFFFFFFC5
:10BB9000FFFFFFDFFFDFFFDEF7DEF7BECE56B59219
:10BBA0009D0F9D50ADD2C676DF19F7DCF7DEFFDEC4
:10BBB000F7BEF7BEF7BEF7BEFFDFFFDFFFDEFFDE3B
:10BBC000FFDFFFDFFFBFF7BFF7BFF7DDF7DDD6F819
:10BBD00094CF9CF09D109D30A57084AD7C4D8CAFB2
:10BBE0007C2D846E6BEC6BEC742C73EC6BAB6BACE0
:10BBF0007BED94B0AD73BE16CE98DF3BF7BDF7BDBD
:10BC0000F7BDFFDFFFDFF7DEFFDEFFFEFFDEF7BD84
:10BC1000FFFDFFDEFFDFFFDFFFDEFFFFF7DEF7DE0A
:10BC2000F7DEF7DEFFDFFFDFFFDFFFDFFFDFFFDF36
:10BC3000FFDFFFFFFFFFFFFFFFFFFFFFFFDFFFFF54
:10BC4000FFFEFFFEFFFEFFDFFFDFFFDFFFDFFFFF87
:10BC5000FFFFFFFFFFFFFFFFFFFFFFFFFFFFFFFFF4
:10BC6000FFFFFFFFFFFFFFFFFFFFFFFFFFFFFFFFE4
:10BC7000FFFFFFFFFFFFFFFFFFFFFFFFFFFFFFFFD4
:10BC8000FFFFFFFFFFFFFFFFFFFFFFFFFFDFFFDF04
:10BC9000FFFFFFFFFFDFFFDFFFFFFFFFFFDFFFDF34
:10BCA000FFDFFFDFFFFFFFDFFFDFFFFFFFFFFFFF24
:10BCB000FFFFFFFFFFFFFFFFFFFFFFFFFFFFFFFF94
:10BCC000FFFFFFFFFFFFFFFFFFFFFFFFFFFFFFFF84
:10BCD000FFFFFFFFFFFFFFFFFFFFFFFFFFFFFFFF74
:10BCE000FFFFFFFFFFFFFFFFFFFFFFFFFFFFFFFF64
:10BCF000FFFFFFFFFFFFFFFFFFFFFFFFFFFFFFFF54
:10BD0000FFFFFFFFFFFFFFFFFFFFFFFFFFFFFFFF43
:10BD1000FFFFFFFFFFFFFFFFFFFFFFFFFFFFFFFF33
:10BD2000FFFFFFFFFFFFFFFFFFFFFFFFFFFFFFFF23
:10BD3000FFFFFFFFFFFFFFFFFFFFFFFFFFFFFFFF13
:10BD4000FFFFFFFFFFFFFFFFFFFFFFFFFFFFFFFF03
:10BD5000FFFFFFFFFFFFFFFFFFDFFFFFFFFFFFFF13
:10BD6000FFFFFFFFFFFFFFFFFFFFFFFFFFFFFFFFE3
:10BD7000FFFFFFFFF7DEFFDEF7BEBE14AD6E9CEDEA
:10BD80009CCD8C8B73C97C2B73EC8CCF94F1A573F9
:10BD9000B5F6CE99E77CEF5CF7BDFFDEFFFFFFFF56
:10BDA000FFFFFFDFFFDFF7DFF7DED6D9A5738CAD2E
:10BDB00094EE9D4F9D6F9D6F9D717C8E84D07C8F86
:10BDC0007C6E742D742E742D744D7C4D73EC740C3C
:10BDD0007C0C73EC6BAB636A6BAB73EC844E94B00E
:10BDE000A553BDF5CE98DF1ADF1AEF7CFFFEFFFEEC
:10BDF000FFDFF7BEFFFFFFFEF7BEF7BEF7DEF7DEA1
:10BE0000F7DEF7DEF7DEFFDEF7DEF7DEFFDEFFDE72
:10BE1000FFDEFFFEFFFEFFDEFFDEFFDEFFDFFFDFF8
:10BE2000FFDFFFDFFFDFFFDFFFDFFFDFFFDFFFDF22
:10BE3000FFFFFFFFFFFFFFFFFFFFFFFFFFFFFFFF12
:10BE4000FFFFFFFFFFFFFFFFFFFFFFFFFFFFFFFF02
:10BE5000FFFFFFFFFFFFFFFFFFFFFFFFFFFFFFFFF2
:10BE6000FFFFFFFFFFFFFFFFFFFFFFFFFFDFFFDF22
:10BE7000FFFFFFFFFFDFFFDFFFDFFFFFFFDFFFDF72
:10BE8000FFFFFFFFFFFFFFDFFFDFFFFFFFFFFFFF02
:10BE9000FFFFFFFFFFFFFFFFFFFFFFFFFFFFFFFFB2
:10BEA000FFFFFFFFFFFFFFFFFFFFFFFFFFFFFFFFA2
:10BEB000FFFFFFFFFFFFFFFFFFFFFFFFFFFFFFFF92
:10BEC000FFFFFFDFFFDFFFFFFFFFFFFFFFFFFFFFC2
:10BED000FFFFFFFFFFFFFFFFFFFFFFFFFFFFFFFF72
:10BEE000FFFFFFFFFFFFFFFFFFFFFFFFFFFFFFFF62
:10BEF000FFFFFFFFFFFFFFFFFFFFFFFFFFFFFFFF52
:10BF0000FFFFFFFFFFFFFFFFFFFFFFFFFFFFFFFF41
:10BF1000FFFFFFFFFFFFFFFFFFFFFFFFFFFFFFFF31
:10BF2000FFFFFFFFFFFFFFFFFFFFFFFFFFFFFFFF21
:10BF3000FFFFFFFFFFFFFFFFFFDFFFDFFFFFFFFF51
:10BF4000FFFFFFFFFFFFFFFFFFFFFFFFFFFFFFFF01
:10BF5000FFFFFFFFF7DEF7DEEF9DBE33BE2E9D0B2A
:10BF6000A54D94AB844B846C848D742C73EB636A05
:10BF70005B4A73EC7C4E7C2D94D0B5D3BE37CE7823
:10BF8000DEFAEF7BEF9CDEF9AD93846D9D509D4E04
:10BF9000952F9D70956F7C8E63AE63B0638F63CE7B
:10BFA0006C0F63AE74316C106BCE740E740D7C4DDF
:10BFB00073EB73EB73EB740B740B73EB740B6B8A97
:10BFC0006BAA6B896B6A73CC842E8C8FAD73C6376A
:10BFD000DEDAE71BEF9CFFFEFFFEFFFEFFDEFFFF4A
:10BFE000FFFFFFFFF7DEF7DEFFDEFFDEF7DEFFDE3F
:10BFF000FFDEFFDEFFFEFFFEFFDEFFDEFFDFFFDF17
:10C00000FFDFF7DFF7DFFFDEFFDEFFDEFFDEFFFE35
:10C01000FFFEFFFEFFFEFFFEFFFFFFFFFFFFFFFF34
:10C02000FFFFFFFFFFFFFFFFFFFFFFFFFFFFFFFF20
:10C03000FFFFFFFFFFFFFFFFFFFFFFFFFFFFFFFF10
:10C04000FFFFFFFFFFFFFFFFFFFFFFFFF7DEFFDF49
:10C05000FFFFFFFFFFDFFFDFFFFFFFFFFFDFFFDF70
:10C06000FFFFFFFFFFFFFFDFFFFFFFFFFFFFFFFF00
:10C07000FFFFFFFFFFFFFFFFFFFFFFFFFFFFFFFFD0
:10C08000FFFFFFFFFFFFFFFFFFFFFFFFFFFFFFFFC0
:10C09000FFFFFFFFFFFFFFFFFFFFFFFFFFFFFFFFB0
:10C0A000FFFFFFFFFFFFFFFFFFFFFFFFFFFFFFFFA0
:10C0B000FFFFFFFFFFFFFFFFFFFFFFFFFFFFFFFF90
:10C0C000FFFFFFFFFFFFFFFFFFFFFFFFFFFFFFFF80
:10C0D000FFFFFFFFFFFFFFFFFFFFFFFFFFFFFFFF70
:10C0E000FFFFFFFFFFFFFFFFFFFFFFFFFFFFFFFF60
:10C0F000FFFFFFFFFFFFFFFFFFFFFFFFFFFFFFFF50
:10C10000FFFFFFFFFFFFFFFFFFFFFFFFFFFFFFFF3F
:10C11000FFFFFFFFFFFFFFFFFFFFFFFFFFFFFFFF2F
:10C12000FFFFFFFFFFFFFFDFFFFFFFFFFFFFFFDF5F
:10C13000FFDFFFDFFFFFFFFEDF1ABE14BE50A58E3C
:10C140009D4D950E8CCF848D7C6C744B7C6D7C4C9E
:10C150007C4D7C6D742C73EB73EB73EA73EB7C0C8E
:10C160007C0C8C6D9D0F8C8D8CAD8CAD952E8D2E99
:10C170009D9084CF6C3053504B11535253315331F7
:10C180005371533153515B715B4F636E6BCE6BCD0B
:10C190006BAC6BCC6BCC6BEB6BEB742C740B73EAF2
:10C1A00073EA73EB73CA73CB73CB73CA63686B891F
:10C1B0007BEB7C0D8C8F9CF1AD94BE16CE78DF1B93
:10C1C000EF7CF7DEF7BEFFFFFFFFFFFFFFFEFFDEA6
:10C1D000FFDFFFDFFFDFFFDFFFDFF7BEFFFFFFDF78
:10C1E000FFDFFFFFFFFFF7DEFFDFFFFFFFFFFFDEE9
:10C1F000FFFFFFFFFFDFFFDEFFFFFFFFFFFFFFFF90
:10C20000FFFFFFFFFFFFFFFFFFFFFFFFFFFFFFDF5E
:10C21000FFDFFFFFFFFFFFFFFFFFFFFFFFFFFFFF4E
:10C22000FFDFFFFFFFFFFFFFFFFFFFFFFFDFFFDF7E
:10C23000FFFFFFFFFFFFFFFFFFFFFFFFFFFFFFFF0E
:10C24000FFDFFFDFFFDFFFDFFFDFFFFFFFFFFFFF9E
:10C25000FFFFFFFFFFDFFFFFFFFFFFFFFFDFFFDF4E
:10C26000FFFFFFFFFFFFFFFFFFFFFFFFFFFFFFFFDE
:10C27000FFFFFFFFFFFFFFFFFFFFFFFFFFFFFFFFCE
:10C28000FFFFFFFFFFFFFFFFFFDFFFDFFFDFFFDF3E
:10C29000FFFFFFFFFFFFFFFFFFFFFFFFFFFFFFFFAE
:10C2A000FFFFFFFFFFFFFFFFFFFFFFFFFFFFFFFF9E
:10C2B000FFFFFFFFFFFFFFFFFFFFFFFFFFFFFFFF8E
:10C2C000FFFFFFFFFFFFFFFFFFFFFFFFFFFFFFFF7E
:10C2D000FFFFFFFFFFFFFFFFFFFFFFFFFFFFFFFF6E
:10C2E000FFFFFFFFFFFFFFFFFFFFFFFFFFFFFFFF5E
:10C2F000FFFFFFFFFFFFFFFFFFDFFFFFFFFFFFFF6E
:10C30000FFFFFFFFFFFFFFFFFFFFFFFFFFFFFFFF3D
:10C31000FFFFFFDFF7BEFFFECE77BE52A5B184D18F
:10C320006C30745274317450845094B27C6F744E7B
:10C33000744E742E744E7C6E848E742C7C2A844AC7
:10C340008C8B94AB94CC94CC94CD94EE952E95524A
:10C3500084D05BAF533153335BB34B305B9153723B
:10C360005B9253725B9253515B5063916BB16B91D3
:10C370006B8E6B8E636D638D638D638C636B73EDFE
:10C3800073ED73EB740B73EA6BCA6BCA73EA73EBEE
:10C390007C2B7C2C7C4D740C73EC6BAB73EC7C0DA8
:10C3A000844E9CF1B5B5BE17D6B9E73AF79CF7DDD8
:10C3B000FFFEFFFEFFDEFFFFFFDFFFFFF7DEFFFFF9
:10C3C000FFFEFFFEFFFEFFFFFFFFFFFFFFFFFFDFA0
:10C3D000F7BFF7DFFFDFFFDFFFDFFFDFFFFFFFFF5D
:10C3E000FFFFFFFFFFFFFFDFFFFFFFFFFFDFFFFF9D
:10C3F000FFDFFFFFFFFFFFFFFFFFFFFFFFFFFFFF6D
:10C40000FFDFFFFFFFFFFFFFFFFFFFFFFFFFFFDF7C
:10C41000FFFFFFDFFFFFFFFFFFFFFFFFFFFFFFFF4C
:10C42000FFDFFFDFFFDFFFDFFFDFFFFFFFFFFFFFBC
:10C43000FFFFFFFFFFFFFFFFFFFFFFFFFFFFFFFF0C
:10C44000FFFFFFFFFFFFFFFFFFFFFFFFFFFFFFFFFC
:10C45000FFFFFFFFFFFFFFFFFFFFFFFFFFFFFFFFEC
:10C46000FFFFFFDFFFFFFFFFFFFFFFFFFFFFFFFFFC
:10C47000FFFFFFFFFFFFFFFFFFFFFFFFFFFFFFFFCC
:10C48000FFFFFFFFFFFFFFFFFFFFFFFFFFFFFFFFBC
:10C49000FFFFFFFFFFFFFFFFFFFFFFFFFFFFFFFFAC
:10C4A000FFFFFFFFFFFFFFFFFFFFFFFFFFFFFFFF9C
:10C4B000FFFFFFFFFFFFFFFFFFFFFFFFFFFFFFFF8C
:10C4C000FFFFFFFFFFFFFFFFFFFFFFFFFFFFFFFF7C
:10C4D000FFFFFFFFFFFFFFFFFFDFFFFFFFFFFFFF8C
:10C4E000FFFFFFFFFFFFFFFFFFFFFFFFFFFFFFFF5C
:10C4F000FFDFFFFFF7DEF7BDBE56BE7374705BD380
:10C50000539353725B925B9063916B9163B06BD06A
:10C510006C1174316C1074307C506C0E848E8CAE47
:10C520008CAC8CAA94EB8CAA9D4F94F184916BF106
:10C530004B0F5BB25371537153715351537153513C
:10C540005351535153715B715B5063915B315AF09E
:10C55000637163505B2F5B2F636F5B0E6B8F636E3A
:10C5600073B0634D6B8D636C6B8C6BAD6B8C73EDCB
:10C57000740D740B7C4C7C4C7C2C740B7C2C7C0CD4
:10C5800073EB63696B8C73CC7C0C7C0C9CEFAD7291
:10C59000C635D6D8DF1ADF3AE77BF7DDFFFEF7FEB8
:10C5A000F7DEF7DEFFFFF7DFFFDFFFDFFFDFFFDF95
:10C5B000FFFFFFDFFFFFFFFFFFFFFFFFFFDFF7DEF4
:10C5C000FFDFFFDFFFDFFFDFFFDFFFDFFFDFFFDF7B
:10C5D000FFDFFFFFFFFFFFFFFFFFFFDFFFDFFFDFEB
:10C5E000FFFFFFDFFFDFFFFFFFFFFFFFFFFFFFFF9B
:10C5F000FFDFF7DEFFFFFFFFFFFFFFFFFFFFFFDFB4
:10C60000FFFFFFFFFFFFFFDFFFDFFFFFFFFFFFFF7A
:10C61000FFFFFFFFFFFFFFFFFFFFFFFFFFFFFFFF2A
:10C62000FFFFFFFFFFFFFFFFFFFFFFFFFFFFFFFF1A
:10C63000FFFFFFFFFFFFFFFFFFFFFFFFFFFFFFFF0A
:10C64000FFFFFFDFFFFFFFFFFFFFFFFFFFFFFFFF1A
:10C65000FFFFFFFFFFFFFFFFFFFFFFFFFFFFFFFFEA
:10C66000FFFFFFFFFFFFFFFFFFFFFFFFFFFFFFFFDA
:10C67000FFFFFFFFFFFFFFFFFFFFFFFFFFFFFFFFCA
:10C68000FFFFFFFFFFFFFFFFFFFFFFFFFFFFFFFFBA
:10C69000FFFFFFFFFFFFFFFFFFFFFFFFFFFFFFFFAA
:10C6A000FFFFFFFFFFFFFFFFFFFFFFFFFFFFFFFF9A
:10C6B000FFFFFFFFFFFFFFFFFFDFFFFFFFDFFFFFCA
:10C6C000FFFFFFFFFFFFFFFFFFFFFFFFFFFFFFFF7A
:10C6D000FFDFFFDFFFFFDF3AC67595745392647585
:10C6E00064135BB1535063B15B4F63916392639288
:10C6F0005B515B915B715B7063D06C106C1174303B
:10C700007C4F8CAE952E9D509D526BCF5B505BB293
:10C710005B935B7353705BB1535153534AF14AD0EF
:10C720005B715B315330530F5B50532F5B50530F92
:10C730005B1052F052F05310530F5B3063715B107B
:10C74000631073D363505B0F5B2E6BB052EC6BAE18
:10C75000636C6BAD6BCD638C740E6BCC7C2D7C2DC0
:10C760007C4D6BCB740C73EB73CA7C2B846C9D0F6C
:10C77000B5D3ADB3AD93B5F29D108C8E9D11C65758
:10C78000DEFAF7BDF7DEF7DEFFFEFFFEF7DEF7BEEF
:10C79000FFFFFFDFFFDFFFDFF7DEFFDFFFDFFFDF92
:10C7A000FFDFFFDFFFDFFFDFFFDFFFDEFFDEFFDE9C
:10C7B000FFFFFFDEFFFFFFFFFFFFFFDFFFDFFFDF0A
:10C7C000FFDFFFDFFFDFFFDFFFFFFFFFFFFFFFDF19
:10C7D000FFFFFFDFFFFFFFFFFFFFFFFFFFDFFFDFC9
:10C7E000FFDFFFFFFFFFFFDFFFDFFFFFFFFFFFFFB9
:10C7F000FFFFFFFFFFFFFFFFFFFFFFFFFFFFFFFF49
:10C80000FFFFFFFFFFFFFFFFFFFFFFFFFFFFFFFF38
:10C81000FFFFFFFFFFFFFFFFFFFFFFFFFFFFFFFF28
:10C82000FFFFFFDFFFFFFFFFFFFFFFFFFFFFFFFF38
:10C83000FFFFFFFFFFFFFFFFFFFFFFFFFFFFFFFF08
:10C84000FFFFFFFFFFFFFFFFFFFFFFFFFFFFFFFFF8
:10C85000FFFFFFFFFFFFFFFFFFFFFFFFFFFFFFFFE8
:10C86000FFFFFFFFFFFFFFFFFFFFFFFFFFFFFFFFD8
:10C87000FFFFFFFFFFFFFFFFFFFFFFFFFFFFFFFFC8
:10C88000FFFFFFFFFFFFFFFFFFFFFFFFFFFFFFFFB8
:10C89000FFFFFFFFFFFFFFFFFFDFFFDFFFFFFFFFE8
:10C8A000FFDFFFFFFFFFFFFFFFFFFFFFFFFFFFFFB8
:10C8B000FFDFF7BEFFFEC677C6556CD05BF45BF3B7
:10C8C00053508CD563916BF263B263B35B915B920F
:10C8D0005B925B925B725B925B505B5053705B91BF
:10C8E0005B705B6F6BCF6BCF63AF5BB05BD1535152
:10C8F0005BB1539053924B105B9253506BF2951770
:10C90000637152EF63925B515330533052EF4AEEF2
:10C910004AAE4AAE4ACE52EE52CE5B2F52EF5AEF9B
:10C92000633052CE5B1052CF94F67C5394F4636E16
:10C9300073F06B8F52EE634E5B0D5B2C636D634B3C
:10C940006BAD73CD7C0C73EB7C0B7C0A8C8CA54F90
:10C95000ADD29D319D52A5729D117C0D6B8B6BAB41
:10C9600073AC7C0D8C8F9D12AD74C657DF1AEF5BD4
:10C97000EF7CF79DF7DEFFFEFFDFFFDFFFDFFFDF6E
:10C98000F7DEF7DEFFDEFFDFFFDEF7DEFFDEFFDED6
:10C99000FFFFF7DEF7DEF7DEF7DEFFDFFFDFFFDFAB
:10C9A000FFFFFFDFF7DEFFDFFFFFFFFFFFDFFFDF40
:10C9B000FFFFFFFFFFFFFFFFFFFFFFFFFFDFFFDFC7
:10C9C000FFFFFFFFFFFFFFFFFFFFFFDFFFDFFFDFD7
:10C9D000FFFFFFFFFFFFFFFFFFFFFFFFFFDFFFFF87
:10C9E000FFFFFFFFFFFFFFFFFFFFFFFFFFFFFFFF57
:10C9F000FFFFFFFFFFFFFFFFFFFFFFFFFFFFFFFF47
:10CA0000FFFFF7DEFFDFFFFFFFFFFFFFFFDFFFDFBF
:10CA1000FFFFFFFFFFFFFFFFFFFFFFFFFFFFFFFF26
:10CA2000FFFFFFFFFFFFFFFFFFFFFFFFFFFFFFFF16
:10CA3000FFFFFFFFFFFFFFFFFFFFFFFFFFFFFFFF06
:10CA4000FFFFFFFFFFFFFFFFFFFFFFFFFFFFFFFFF6
:10CA5000FFFFFFFFFFFFFFFFFFFFFFFFFFFFFFFFE6
:10CA6000FFFFFFFFFFFFFFFFFFFFFFFFFFFFFFFFD6
:10CA7000FFFFFFFFFFFFFFFFFFFFFFFFFFFFFFFFC6
:10CA8000FFFFFFFFFFFFFFFFFFFFFFDFFFDEFFFFF7
:10CA9000F7DFEF9DF7BDBE57B6545C335C1363F30D
:10CAA00042CEA5B8A597ADF99D795B725B925B927A
:10CAB000639263925B715B925BB35BD25BB24B0E32
:10CAC00063B06C3163F15B91535153305B6F5BB377
:10CAD0005B925371537153525B725B707C93AE39AE
:10CAE0005B6FB63AB63A5B50639252EF52EF5B4FD0
:10CAF00052EF52EE42AC426C52F052F0530F4AAE3B
:10CB000052EF52CF428C8CB4C65BC67B9D15AD975D
:10CB1000ADB8B5F9638FA59794F4634F845473D27D
:10CB2000634F5B0E52EC634D52CB73CF844FAD928B
:10CB30009D6F9D4EB612A591B61294ED844C7C0B60
:10CB4000844B7C2B73EA73EA73EB6BAB740D846ECE
:10CB500084AF9511ADB4BE36D6FAE75CEF9DFFFF0A
:10CB6000FFFFF7FFF7DFFFFFF7DEF7BEF7BEF7DEE9
:10CB7000FFDEFFDEFFFEF7DEFFFEF7BEFFDFF7DEC4
:10CB8000F7BEF7DFF7BFFFFFFFFEFFFDFFFFFFFF71
:10CB9000F7FEFFFEFFDFFFDFFFDFFFFFFFFFFFFF0F
:10CBA000FFFFFFFFFFDFFFFFFFFFFFFFFFFFFFFFB5
:10CBB000FFFFFFFFFFFFFFFFFFFFFFFFFFFFFFFF85
:10CBC000FFFFFFFFFFFFFFFFFFFFFFFFFFFFFFFF75
:10CBD000FFFFFFFFFFFFFFFFFFFFFFFFFFFFFFFF65
:10CBE000FFFFFFFFFFFFFFFFFFFFFFFFFFFFFFFF55
:10CBF000FFFFFFFFFFFFFFFFFFFFFFFFFFFFFFFF45
:10CC0000FFFFFFFFFFFFFFFFFFFFFFFFFFFFFFFF34
:10CC1000FFFFFFFFFFFFFFFFFFFFFFFFFFFFFFFF24
:10CC2000FFFFFFFFFFFFFFFFFFFFFFFFFFFFFFFF14
:10CC3000FFFFFFFFFFFFFFFFFFFFFFFFFFFFFFFF04
:10CC4000FFFFFFFFFFFFFFFFFFFFFFFFFFFFFFFFF4
:10CC5000FFFFFFFFFFFFFFFFFFFFFFFFFFFFFFFFE4
:10CC6000FFFFFFFFFFFFFFFFFFFFFFDFFFDFFFFF14
:10CC7000F7DEFFFFE71AC676959353F353F35BD3C2
:10CC800063B29D579D76A5B78D16535053725B7254
:10CC90005B715B715B7053515B92537163B19D56D5
:10CCA000D6FBE77DE79ECEDC8CF663B25B925B92AF
:10CCB0005B924B304B315B925B7253709536A5B8EB
:10CCC0006BF1BE5BCF1D63B1ADBA5330426DB63B65
:10CCD000637163908CF56BB14AAF4ACF4ACF4AAECD
:10CCE0004ACF4AAF426C7C5273F184949D769D5535
:10CCF000B618ADF7A596C67AD6FC636F84549D1618
:10CD000095157C319D166BB07C325AEE73D16B6DEC
:10CD10006BAD6BCD740F8CD09D3194CF73AC844EC2
:10CD20007C2C8C8D846D8C6E844D844D740C6BCBFF
:10CD30006BAB73EC6BCC6BCC740C7C4D94F0A5722C
:10CD4000ADD4CE97DF19E75BF7BDF7BEFFDEFFDF9F
:10CD5000FFFFF7DFFFDFF7BFFFDFFFFEFFFEFFFE96
:10CD6000FFDFF7DFFFDFF7BFFFDFFFDEFFFFFFFFC4
:10CD7000FFFEFFFEFFFFFFDFFFDFFFFFFFFFFFFF05
:10CD8000FFFFFFFFFFDFFFFFFFFFFFFFFFFFFFFFD3
:10CD9000FFFFFFFFFFFFFFFFFFFFFFFFFFFFFFFFA3
:10CDA000FFFFFFFFFFFFFFFFFFFFFFFFFFFFFFFF93
:10CDB000FFFFFFFFFFFFFFFFFFFFFFFFFFFFFFFF83
:10CDC000FFFFFFFFFFFFFFFFFFFFFFFFFFFFFFFF73
:10CDD000FFFFFFFFFFFFFFFFFFFFFFFFFFFFFFFF63
:10CDE000FFFFFFFFFFFFFFFFFFFFFFFFFFFFFFFF53
:10CDF000FFFFFFFFFFFFFFFFFFFFFFFFFFFFFFFF43
:10CE0000FFFFFFFFFFFFFFFFFFFFFFFFFFFFFFFF32
:10CE1000FFFFFFFFFFFFFFFFFFFFFFFFFFFFFFFF22
:10CE2000FFFFFFFFFFFFFFFFFFFFFFFFFFFFFFFF12
:10CE3000FFFFFFFFFFFFFFFFFFFFFFFFFFFFFFFF02
:10CE4000FFFFFFFFFFFFFFFFFFFFFFDFFFDFFFFE33
:10CE5000F7FEFFDFCE57BE54745153D353B35B92EA
:10CE600084D69D9774117C9284B44B0E53715B7180
:10CE700053505B715B915B525B717C53CE9BF7BFF0
:10CE8000FFBFFFBDFFDEFFDEEFDF951653525BB243
:10CE9000535153715BB2539153715BB184B56BF2D3
:10CEA00074129D568CD44AEE8CF6741363B1BE5B3B
:10CEB0004ACE7433B63B84B6531053104AEF52EF48
:10CEC0004AAF4AD0530F3A6C4ACE42AE532F4ACDA6
:10CED0005B4E74116BF17C739D7752CD9D3595152A
:10CEE000A596B6178493B619AD9784539D368C9446
:10CEF00084537C1394F7530D6BAF632D6B6E6B6E85
:10CF0000634C634C6B8D842F73EE7C2E846E848F08
:10CF1000846F7C4E742D7C4C7C4C7C4C742C6BEB65
:10CF200073EC7C2D740C846E8CAF9D11B5F5D6B965
:10CF3000D6F9E73BEF9CF7BEFFFFFFFEFFFEFFFFCA
:10CF4000FFFEF7BEF7DEF7DEFFFFFFBFFFFEFFFFCE
:10CF5000FFFFFFFFFFFEFFFFFFDFFFDFFFFFFFFF22
:10CF6000FFFFFFDFFFDFFFFFFFFFFFFFFFFFFFFF11
:10CF7000FFFFFFFFFFFFFFFFFFFFFFFFFFFFFFFFC1
:10CF8000FFFFFFFFFFFFFFFFFFFFFFFFFFFFFFFFB1
:10CF9000FFFFFFFFFFFFFFFFFFFFFFFFFFFFFFFFA1
:10CFA000FFFFFFFFFFFFFFFFFFFFFFFFFFFFFFFF91
:10CFB000FFFFFFFFFFFFFFFFFFFFFFFFFFFFFFFF81
:10CFC000FFFFFFFFFFFFFFFFFFFFFFFFFFFFFFFF71
:10CFD000FFFFFFFFFFFFFFFFFFFFFFFFFFFFFFFF61
:10CFE000FFFFFFFFFFFFFFFFFFFFFFFFFFFFFFFF51
:10CFF000FFFFFFFFFFFFFFFFFFFFFFFFFFFFFFFF41
:10D00000FFFFFFFFFFFFFFFFFFFFFFFFFFFFFFFF30
:10D01000FFFFFFFFFFFFFFFFFFDFFFFFFFFFFFDF60
:10D02000FFFFFFFFFFFFFFFFFFFFFFFFFFDFFFDF50
:10D03000FFFEF79EBE14B61363B15BD34B515B92F8
:10D040007453A5B78D1495357C934B0E53305351C3
:10D050004B305B7253305B736392C69AF7BFFFDF4E
:10D06000F7BEF79DFFBEFFDED6F984916BF263F346
:10D0700053715371535153505BB153714AF04B0F7D
:10D080005B4F74125B6F63B0530E5B507C538493A1
:10D090006BB2BE7C9D78637153315330530F5B513B
:10D0A0005B3153104AEE53504AD053314AAF428F4E
:10D0B00042AF428F322D4ACE4AAE3A2B6BAF8CD460
:10D0C000636F95568CF495348CF3BE598492ADB64B
:10D0D000B5F8ADD8849484D4C69B7C11A5576BB1A8
:10D0E00073D15B0E5AEE6B905B0D6B8E636E6BCFE4
:10D0F0007C50742F84907C4E7C4F84B07C2F849025
:10D100007C2E7C6F742D84AF6BEB740B6BEB6BCA56
:10D110007C2C846D950FA571C675D6B9DF1BE77C95
:10D12000F7BDFFFDFFFDFFFDFFFEFFDFFFFEFFFF81
:10D13000FFDFFFDFFFDFFFFEFFFEFFDFFFDFFFDFC1
:10D14000FFFFFFFFFFFFFFDFFFDFFFDFFFDFFFDF8F
:10D15000FFDFFFFFFFFFFFFFFFFFFFFFFFFFFFFFFF
:10D16000FFFFFFFFFFFFFFFFFFFFFFFFFFFFFFFFCF
:10D17000FFFFFFFFFFFFFFFFFFFFFFFFFFFFFFFFBF
:10D18000FFFFFFDFFFFFFFFFFFFFFFFFFFDFFFDF0F
:10D19000FFFFFFFFFFFFFFFFFFFFFFFFFFFFFFFF9F
:10D1A000FFFFFFFFFFFFFFFFFFFFFFFFFFFFFFFF8F
:10D1B000FFFFFFFFFFFFFFFFFFFFFFFFFFFFFFFF7F
:10D1C000FFFFFFFFFFFFFFFFFFFFFFFFFFFFFFFF6F
:10D1D000FFFFFFFFFFFFFFFFFFFFFFFFFFFFFFFF5F
:10D1E000FFFFFFFFFFFFFFFFFFFFFFFFFFFFFFFF4F
:10D1F000FFFFFFFFFFFFFFFFFFDFFFFFFFFFFFDF7F
:10D20000FFFFFFFFFFFFFFFFF7DFFFFEFFFEFFDF78
:10D21000FFFFDED9C6559D5263B263D353506BF204
:10D220009536A597C6BB8CD463B15B5053315B5127
:10D230005350535153516BB36BB0BE37F7BEFFFF22
:10D24000F7FFF7FFF7BECE387C0C8CEF849153715B
:10D250005B92537153504B30537053715B925351E7
:10D26000BE9CA597A5D8A5D89D778CD58CD56BD11C
:10D270005B70743363B25B515B5153305310531086
:10D280005B326391428C5B50743484D55B6F531175
:10D2900052F152F1531142AE426E4ACE4ACD4AAEDD
:10D2A000426E3A4D4ACF52EE63906BD0C69A953497
:10D2B0007C71B6397432C6DB8D14A596ADD88473F3
:10D2C0009D56A5978CB494D484537C338453847333
:10D2D00052ED7411638F6390638E6BEF74307C71C9
:10D2E0007C91744F7C8F7C6E7CAF744D6BEC7C6D4D
:10D2F0007C6E742C846E742D740C740D7C2E8C904A
:10D300009D12A552C676CE56EF3BF79DFFDEFFFE7F
:10D31000FFFFFFDFF7BFFFDEFFFEFFFFFFDFFFFFC7
:10D32000FFFFFFFFFFFFFFFFFFFFFFFFFFFFF7DE36
:10D33000FFDFFFDFFFFFFFFFFFFFFFFFFFFFFFFF3D
:10D34000FFFFFFFFFFFFFFFFFFFFFFFFFFFFFFFFED
:10D35000FFFFFFFFFFFFFFFFFFFFFFFFFFFFFFFFDD
:10D36000FFFFFFDFFFFFFFFFFFFFFFFFFFFFFFFFED
:10D37000FFFFFFFFFFFFFFFFFFFFFFFFFFFFFFFFBD
:10D38000FFFFFFFFFFFFFFFFFFFFFFFFFFFFFFFFAD
:10D39000FFFFFFFFFFFFFFFFFFFFFFFFFFFFFFFF9D
:10D3A000FFFFFFFFFFFFFFFFFFFFFFFFFFFFFFFF8D
:10D3B000FFFFFFFFFFFFFFFFFFFFFFFFFFFFFFFF7D
:10D3C000FFFFFFFFFFFFFFFFFFFFFFFFFFFFFFFF6D
:10D3D000FFFFFFFFFFFFFFFFFFDFFFFFFFFFFFDF9D
:10D3E000FFFFFFFFFFFFFFFFF7FFFFFEFFFFFFBF96
:10D3F000FFDEC656C6757C71639263B263916BD1D2
:10D40000741173D084728CB55B505B10639263921D
:10D410005B915B915B705B7084516B69840DB5D5DA
:10D42000D6D9BE367BEE630A846C8D0F743163F3FC
:10D430005BB2537153515351537153304B0F6C13B3
:10D44000BE9C6BD1AE19638FADF9B619B63AADF982
:10D45000ADF9532F53305B515310533053305310A9
:10D4600063734AAF8CD69D5984759D95CEFA532E21
:10D470004AAE53306BF384B67C555331426E426EE4
:10D480004AB052F0426E3A6E3A6D3A4C73F263B162
:10D49000322B5B504AEE84D463B08493B5F99D354A
:10D4A000ADD7BE79C699ADB773F08472A5779516DE
:10D4B000ADB8A598743384948493638F534E7432BB
:10D4C0005B4E6BD074307C7174507C917CB1744F26
:10D4D0007C6F744F744E7C4F8490846D7C2C7C4D9B
:10D4E000846E846E7C0D7C0D8C6EDED8FFFEFFFE9C
:10D4F000FFFEFFDFF7BFF7DEFFFEFFFFFFDFFFDF0F
:10D50000FFFFFFFFFFFFFFDFFFDFFFDFFFDFF7DED4
:10D51000FFDFFFDFFFFFFFFFFFFFFFFFFFFFFFFF5B
:10D52000FFFFFFFFFFFFFFFFFFDFFFFFFFFFFFDF4B
:10D53000FFFFFFFFFFFFFFFFFFFFFFFFFFFFFFFFFB
:10D54000FFFFFFDFFFFFFFFFFFFFFFDFFFDFFFDF6B
:10D55000FFFFFFFFFFFFFFFFFFFFFFFFFFFFFFFFDB
:10D56000FFFFFFFFFFFFFFFFFFFFFFFFFFFFFFFFCB
:10D57000FFFFFFFFFFFFFFFFFFFFFFFFFFFFFFFFBB
:10D58000FFFFFFFFFFFFFFFFFFFFFFFFFFFFFFFFAB
:10D59000FFFFFFFFFFFFFFFFFFFFFFFFFFFFFFFF9B
:10D5A000FFFFFFFFFFDFFFFFFFFFFFFFFFDFFFFFCB
:10D5B000FFFFFFFFFFFFFFFFFFFFFFDFFFDFFFFFBB
:10D5C000FFFFFFFFFFFFFFFFFFFEF7DFFFFFF7BEDD
:10D5D000F7BDC635BE356BD063716BB26BB19515B7
:10D5E0006BD073F15B2E635063516B926350637029
:10D5F0005B4F63905B90530E8CB17C2B5AE65AE8DC
:10D600004A874A8662E883EB8C8C8D5243105B928A
:10D6100053315B7153515B525B7253305B70B63A5E
:10D620007C73B65AB6397C729D569515530E7C7331
:10D63000AE1A5B505B515331533153305351531138
:10D640004AD08CD784755B314AEFBEB9D77BB63AE6
:10D650007C5484947C755B507C747C5552F06BD305
:10D66000A5B874327C745B50532F530F4AAE42AE50
:10D670003A6E428E3A4D3A6D3A4D3A4D4A8D52EEDF
:10D6800063907C328472AD984AAC8472ADD763AF3C
:10D69000BE7BA5B7BE7A95549537A5D9530F5330A5
:10D6A0005B725B51533063925B505B7063D16BF084
:10D6B00074316C0F7C907C6F84D07C8E8CEF84AF47
:10D6C0007C6D848E848E8CCE848CA58FEF9CF7DE4F
:10D6D000FFDFFFDFFFDFFFDFFFDFFFDFFFFFFFFF1A
:10D6E000FFFFFFFFFFFFFFFFFFFFFFFFFFFFFFDF6A
:10D6F000FFDFFFDFFFFFFFFFFFFFFFFFFFDFFFFF9A
:10D70000FFFFFFFFFFFFFFFFFFDFFFFFFFFFFFFF49
:10D71000FFFFFFFFFFFFFFDFFFDFFFFFFFFFFFFF59
:10D72000FFFFFFFFFFFFFFDFFFDFFFFFFFFFFFFF49
:10D73000FFFFFFFFFFFFFFFFFFFFFFFFFFFFFFFFF9
:10D74000FFFFFFFFFFFFFFFFFFFFFFFFFFFFFFFFE9
:10D75000FFFFFFFFFFFFFFFFFFFFFFFFFFFFFFFFD9
:10D76000FFFFFFFFFFFFFFFFFFFFFFFFFFFFFFFFC9
:10D77000FFFFFFFFFFFFFFFFFFFFFFFFFFFFFFFFB9
:10D78000FFFFFFFFFFFFFFFFFFFFFFFFFFDFFFFFC9
:10D79000FFFFFFFFFFFFFFFFFFDFFFFFFFFFFFDFD9
:10D7A000FFFFFFFFFFFFFFFFFFFEF7DFFFFFFFFEB3
:10D7B000DEB9CE9594F163715B506B7163509D3609
:10D7C00094F4DF1D9D365B2F637073D26B9173B140
:10D7D00063905B505B4F6371636E94F15B495B09CF
:10D7E00052E863496329846E848F63D04B335B5165
:10D7F00053505B515B515B525B325B715B6FC6BBDD
:10D8000063B0ADF98CD4B6199D7684B4532EA5B807
:10D8100074335B715331533153515330531053317F
:10D820004AAFADD9530E5B717454CF3D955684B554
:10D830006BD25B714AAF42AD5B6EA5B75B5095365C
:10D840009555B67995357C93ADF99D7774537C7475
:10D8500095384B0F6BD242AE531052CF426E3A0DF9
:10D86000426E52AF633173D34A8E6350639052EE6F
:10D8700084946BD09DB6A5D6AE1A9D7842CE63B285
:10D88000535163B35B315B51533153316392531046
:10D890006391532E638F638F743073F074107C50D8
:10D8A0007C507C4F848F848D8CED954CC677F7DE51
:10D8B000F7BFF7BEFFFEF7FFFFFFFFDFFFFFFFFF32
