:020000022000DC
:1070000000F003206D7302005573020057730200F5
:10701000597302005B7302005D7302000000000000
:107020000000000000000000000000005F7302008C
:1070300061730200000000006373020065730200C8
:1070400067730200677302006773020067730200D0
:107050006773020067730200C97A02006773020057
:107060006773020035AA0300857903006773020085
:1070700067730200677302006773020067730200A0
:107080006773020079070400E5D10200677302000C
:10709000DD0704006773020099A103006773020013
:1070A0006773020067730200677302006773020070
:1070B00051A80300677302000000000000000000F8
:1070C0006773020067730200677302006773020050
:1070D0006773020021840200677302006773020075
:1070E000677302006773020067730200000000000C
:1070F00000000000677302000000000067730200D8
:10710000000000000000000000000000000000007F
:10711000000000000000000000000000000000006F
:10712000000000000000000000000000000000005F
:10713000000000000000000000000000000000004F
:10714000000000000000000000000000000000003F
:10715000000000000000000000000000000000002F
:10716000000000000000000000000000000000001F
:10717000000000000000000000000000000000000F
:1071800000000000000000000000000000000000FF
:1071900000000000000000000000000000000000EF
:1071A00000000000000000000000000000000000DF
:1071B00000000000000000000000000000000000CF
:1071C00000000000000000000000000000000000BF
:1071D00000000000000000000000000000000000AF
:1071E000000000000000000000000000000000009F
:1071F000000000000000000000000000000000008F
:10720000344935480A1A02D0072291438D46334942
:1072100033480A1A06D00722914381F309880222D3
:1072200082F314882F483049304A00F042F8304841
:107230003049314A00F03DF830483149314A00F0D8
:1072400038F831483149324A00F033F83148324990
:10725000324A00F02EF832483249334A00F029F819
:1072600032483349334A00F024F833483349002286
:1072700000F02AF832483349002200F025F832485D
:107280003249091A082902DB0022026041601F48C6
:107290001F49884205D00268043003B4904703BCFC
:1072A000F7E700208646EC4600200021284A904758
:1072B000FEE7884207D0521A05D0037801300B70E0
:1072C0000131013AF9D17047884202D00270013091
:1072D000FAE7704700F0032000E8032000F00320E5
:1072E00000F00320E0300400002E0020682E002073
:1072F000A0730200A07302007E150400E0300400B9
:10730000002E0020002E0020941804009418040081
:1073100094180400941804009418040094180400AD
:107320009418040094180400E0300400483104006C
:10733000682E0020682E0020682E0020785A002039
:10734000785A0020785A0020785A0020785E002071
:10735000E5770200FEE7FEE7FEE7FEE7FEE7FEE771
:10736000FEE7FEE7FEE7FEE700F002B8FFF7FCBF2E
:1073700008484FF00701884385460748804707487B
:10738000016841F470010160BFF34F8FBFF36F8F4D
:10739000FFF736BF00F003200DA3030088ED00E0E7
:1073A00041DF704708B54FF0A0434FF40052C3F8D7
:1073B00008250022C3F80C25044940681AF031F86A
:1073C00010B1002000F080FE08BD00BF941804003A
:1073D00000B583B00F4B1B6813F4804F03D00E4BE6
:1073E0001B68032B0ADC0322C8214FF4F03000F0A5
:1073F00007FB0AF037FC03B05DF804FB074BD3F83A
:107400000435074A0092CD220649042006F022FFE7
:10741000E9E700BF202E00201C2E002000100140B4
:10742000E0180400D918040008B50378232B00D015
:1074300008BDFFF7CDFFFBE708B54023024A002156
:10744000024810F035F908BD682E0020A82E002053
:1074500000B58DB02422002103A81AF02BF80123D7
:107460008DF80C3007238DF80F300F238DF8143072
:10747000204B0793204903A80AF0B2FB60B30B2806
:1074800029D11E4B1B6813F4804F03D01C4B1B6883
:10749000032B14DC194B1B6813F4804F1CD0184BC2
:1074A0001B68032B18DD174BD3F80435164A0092DE
:1074B00040F207121549042006F0CCFE0CE0114BF7
:1074C000D3F80435124A00924FF483720F49042016
:1074D00006F0C0FEDEE738B90E4804F0DFFCFFF727
:1074E000ABFF0DB05DF804FB0B4A4FF4867113F04F
:1074F00005F8F1E729740200442F0020202E002017
:107500001C2E0020001001404C190400D918040062
:10751000FC180400A57302009C18040000B583B099
:1075200019F060F900BB00F0AFFA1E4A04214FF4D5
:10753000804006F073FE1C4B1B6813F4804F03D091
:107540001A4B1B68032B15DC00F092FBFFF780FF42
:10755000154B1B6813F4804F03D0144B1B68032B8F
:1075600014DC03B05DF804FB114A4FF48E7112F085
:10757000C5FFD8E70F4BD3F804350F4A00924FF4FC
:1075800090720E49042006F065FEDDE7094BD3F842
:1075900004350B4A00924FF493720849042006F018
:1075A00059FEDEE7F1E10200202E00201C2E002013
:1075B0009C1804000010014088190400D918040028
:1075C000B419040008B500F051FA08BD10B504461E
:1075D00000214FF4F03000F007FA04EB840462005D
:1075E00032214FF4C03000F00BFA10BD00B585B069
:1075F00003A80EF0A7FB0D4B1B6813F4804F03D0BC
:107600000B4B1B68032B02DC05B05DF804FB094B38
:10761000D3F80435BDF80C200192074A0092EC2201
:107620000649042006F016FEEEE700BF202E0020DB
:107630001C2E002000100140D0190400D9180400AD
:1076400000B583B0124B1B6813F4804F03D0114B6D
:107650001B68032B11DCFFF7C9FF00F007FA0021BC
:107660004FF4F03000F0C0F90422C8214FF4F0309C
:1076700000F0C6F903B05DF804FB074BD3F80435FE
:10768000064A0092F1220649042006F0E3FDE2E7F3
:10769000202E00201C2E002000100140E8190400BC
:1076A000D918040010B509200FF052FD0C4C2046EB
:1076B0000FF084FE072120460FF0B9FE70B101469D
:1076C000084B1868C1F811009A889B79A1F8152019
:1076D000CB7501230B7120460FF0E6FE10BD00BFF5
:1076E000A82E0020041A040000B58BB0204B1B7894
:1076F000ABB9039306931F4B04931F4B05931F4B8A
:1077000007931F4B08931F4B099303A800F0FCF845
:1077100038B11D4A40F2371112F0F0FE01E0FFF7D8
:1077200065FFFFF7BFFF01F027F800F003FA0AF04A
:10773000E7F958B9154B1B6813F4804F03D0144B6D
:107740001B68032B08DC0BB05DF804FB0E4A40F20B
:10775000451112F0D3FEEDE70E4BD3F804350E4A77
:10776000009240F247120D49042006F073FDEAE74B
:10777000442F002041760200CD750200C57502003D
:107780000C1A04004C1A04009C180400202E00203F
:107790001C2E002000100140241A0400D9180400F7
:1077A00010B509200FF0D4FC0C4C20460FF047FF19
:1077B000072120460FF03BFE70B10146084B1868C8
:1077C000C1F811009A889B79A1F81520CB75012387
:1077D0000B7120460FF068FE10BD00BFA82E0020E0
:1077E000041A040008B5FFF799FEFFF77DFF00F0CB
:1077F00001FF00F08DFB00F059FB0AE000F05EFC99
:1078000040F6330398420DDCFFF7CAFF0AE0FFF7AA
:10781000C7FD00F039FC00F051FC00F04FFCB0F562
:10782000026FEBDC04F02CFB0028F2D0EFE7000045
:1078300008B50749074813F08FFD00B108BD0123C3
:10784000002205494969054813F0A2FDF6E700BF8B
:10785000642F002080320020482F00204C3100206F
:1078600008B50378023B082B41D8DFE803F01C057C
:107870001140402E404038001F4B9B68002B36D0F3
:10788000007A002833D01D4A0121117098472EE05C
:10789000194BDB685BB3194A127842B3174A0021CF
:1078A0001170984723E0164B1B784BB9124B1B699C
:1078B0001BB1124A002111709847FFF7B9FF16E07B
:1078C0000D4B5B689BB1984711E010220A4B9969F8
:1078D0000C4813F0E7FD50B112F002FE07E081689A
:1078E000C0680AF011F918B9054B01221A7008BDD9
:1078F00012F0F6FDF8E700BF482F0020452F0020CA
:10790000462F00204C31002070B586B00446174A3F
:1079100003AB07CA03C323F8022B120C1A70144ED0
:1079200035460FCC0FC594E8070085E80700B3691A
:10793000D3B1104B009303AB0F4A1049104813F01A
:10794000C9FC034610B1184606B070BD0D4815F0CD
:1079500017FA01460A4813F0E9FC03460028F2D161
:10796000FFF766FF0346EEE70723ECE75C1A040027
:10797000482F002061780200642F00208032002010
:107980004C310020842F002008B5134B1B6873B1C5
:107990004FF0A042D2F80435104909684B40C2F8B4
:1079A00004350D4A1368013B136023B108BD002064
:1079B00012F096FDECE70A4818F086FF4FF0A0425F
:1079C000D2F804350549096823EA01030549096825
:1079D0000B43C2F80435E9E7C0320020C43200206E
:1079E000C8320020F032002021B14FF0A043C3F88C
:1079F0000C0570474FF0A043C3F80805704700001E
:107A00005AB338B51346132900D838BD134A10604D
:107A10005B00013B124A13604FF0A043D3F80435DA
:107A20001840104B186000254C0CC8034FF47A72B4
:107A3000002310F5FA7044EB050119F0B9FB01467B
:107A40002A46094818F01EFF0028DED1034B1A68A9
:107A50004FF0A043C3F80C25D7E77047C43200208D
:107A6000C0320020F0320020C832002008B504489F
:107A700018F02AFF0021034B1868FFF7B5FF08BD77
:107A8000C8320020C432002008B50D230BE04FF0AF
:107A9000A04103F5E072032041F8220001229A4040
:107AA000C1F808250133102BF1D9054A01210548F9
:107AB00018F0D2FE00B908BD12F012FDFBE700BFBE
:107AC00089790200681A040010B50024144BC3F829
:107AD0007C4103E0D11A14E00134E4B2032C1ED837
:107AE0004FF0A043D3F810250E4B195D01238B40B6
:107AF0009343F1D00C4B1B680C4AD2F80425991A19
:107B0000E8D443F233339942E6D9084BD3F804253D
:107B1000054B1A60064B1B6820469847DCE710BDF2
:107B2000006000406C1A0400EC320020001001409C
:107B3000E8320020002800F082802DE9F04FD1B01B
:107B400004463F4B1B6813F4804F03D03D4B1B682A
:107B5000032B0BDC3A4B1B6813F4804F03D0394BDB
:107B60001B68032B2ADC51B0BDE8F08F00230F2BDC
:107B70000FD8E25C34490D68100959002E5C0FA83B
:107B800000F8136002F00F020131AA5C4254013385
:107B9000EDE70FAA00238DF85C3003F1804303F575
:107BA0008833D3F804350292284A0192284A009279
:107BB00042222849042006F04DFBCBE7264BD3F8A0
:107BC00004350D932068020202F47F0242EA00624B
:107BD000010A01F47F4142EA010CA5882A0292B20F
:107BE000E688310289B2277A637A94F80AE094F839
:107BF0000B8094F80C9094F80DA094F80EB0E47BF0
:107C00000B94CDF828B0CDF824A0CDF82090CDF875
:107C10001C80CDF818E00593049741EA16210391E2
:107C200042EA152202924CEA106001900B4A00923F
:107C30000D9B43220749042006F00CFB93E7704795
:107C4000202E00201C2E0020242E0020BC1A040010
:107C5000D01A0400A91A040000100140D81A040028
:107C600060DF704769DF704708B504F011F908BD9F
:107C700010B588B012F038FA00282DD1234B0793A5
:107C8000079A069200230393049305938DF80C3012
:107C900003A90120FFF7E6FF08BB00230493059327
:107CA000F8230393069A03A9A120FFF7DBFFC8B9C5
:107CB00006A8FFF7D5FF0446069A079B9A4208D00C
:107CC000134B1B6813F4804F03D0124B1B68012B1E
:107CD0000BDCB4B908B010BD12F002FCCEE712F014
:107CE000FFFBDAE712F0FCFBE2E70B4BD3F80435BD
:107CF00001920A4A0092AB220949022006F0AAFA30
:107D0000E7E7204612F0ECFBE4E700BF002E00207E
:107D1000202E00201C2E0020001001406C1B0400AF
:107D2000511B04000620704700B587B044F20103E0
:107D3000984262D01BD8012836D041F20103984204
:107D400076D1474B1B6813F4804F36D0454B1B68E8
:107D5000002B32DD444BD3F8043502920191434AA3
:107D6000009263224249012006F074FA25E044F2B1
:107D7000020398425CD13A4B1B6813F4804F1CD02D
:107D8000384B1B68002B18DD374BD3F804351068CF
:107D90000390526802920191364A00926922344956
:107DA000012006F057FA08E02D4B1B6813F4804FB2
:107DB00003D02C4B1B68002B12DC4FF0A0434FF478
:107DC000F032C3F81825C3F80C25EFF3108372B610
:107DD0004DF6AD6C284B1B78002B3ED030BFF9E739
:107DE000214BD3F8043502920191244A009260227B
:107DF0001F49012006F02EFADFE7194B1B6813F428
:107E0000804FDAD0174B1B68002BD6DD164BD3F80A
:107E100004351068049050680390029192680192B2
:107E2000174A009273221249012006F013FAC4E7A0
:107E30000B4B1B6813F4804FBFD00A4B1B68002B01
:107E4000BBDD094BD3F8043501910E4A00927B2229
:107E50000749012006F0FEF9AFE707B05DF804FB23
:107E6000202E00201C2E002000100140101C0400B9
:107E7000E11B0400341C0400002E0020F41B04004D
:107E8000541C0400781C040000B583B00146002394
:107E90000093054B01936A4644F20200FFF744FF4A
:107EA00003B05DF804FB00BF741C040010B584B07F
:107EB00000238DF808308DF809308DF80A3006223D
:107EC0008DF80B2003930E4A02A90E4812F0EEFC27
:107ED00090B90D4BD3F81025D2B20A4C0123009370
:107EE0000A4921FA02F20021204612F087FD2046BD
:107EF00012F058FD04B010BD12F0F2FAE9E700BF2D
:107F00006D800200B41C040000900040006A18005C
:107F100000B585B0084A01AB07CA83E80700002214
:107F20001946064812F0D4FB10B905B05DF804FB01
:107F300012F0D6FAF9E700BF941C0400042E0020CA
:107F400008B5084618F0F0FF10A3D3E9002318F095
:107F5000C3FE18F0C3FF63280BDD094B64221A80AF
:107F60005A809A80022301220649074812F030FC09
:107F700008BD80B2024B188058809880F2E700BF9D
:107F80000C330020BC1C0400042E002066666666CC
:107F90006666044008B518F0ADFC4FF47A7303FB35
:107FA00000F0C00B08BD000010B5FFF7F3FF0F4B4A
:107FB00018600F4B1B78ABB10E4B1B68C31A0E4CED
:107FC000226813440D4981FB0321DA17C2EBA12279
:107FD00040F6980101FB12322260064B1860064BF6
:107FE000186810BD044B00221A60F6E7F432002036
:107FF000F8320020FC320020083300207307287775
:1080000008B501460E20FFF79BFF08BD00000000E9
:1080100008B518F089FF13A3D3E9002318F0C0FDB9
:1080200018F0B0FF18F094FF41EC100B18F0DCFFD3
:1080300051EC100B0022084B18F08CFC0022074B6F
:1080400018F0AEFD0022064B18F084FC18F046FF35
:10805000FFF7D6FF08BD00BF0000F03F00805E4084
:10806000000024400EF338BD7365673FB0F5A07F74
:1080700000D0704708B5FFF797FF024B1868FFF76D
:10808000C7FF08BD0833002008B5FFF783FF074A84
:108090001368C31A06490B601060FFF77BFF054B9E
:1080A0001860054B01221A7008BD00BF0433002080
:1080B00000330020F4320020F8320020014B186811
:1080C000704700BF08330020014B1860704700BFA5
:1080D0000833002070B483793BBB027813461F2A13
:1080E00003D902F01F03414A01E04FF0A04203F51B
:1080F000E073032142F82310427813461F2A03D964
:1081000002F01F03394A01E04FF0A04203F5E0738B
:10811000032142F823108378FF2B36D01C461F2BF7
:1081200022D903F01F03314A20E0027813461F2AA8
:1081300003D902F01F032D4A01E04FF0A04203F5DE
:10814000E073002142F82310427813461F2A03D916
:1081500002F01F03254A01E04FF0A04203F5E0734F
:10816000002142F82310D6E74FF0A04203F5E07358
:10817000032142F82310C378FF2B1AD019461F2B76
:1081800006D903F01F03194A04E04FF0FF34F2E769
:108190004FF0A04203F5E073032542F82350037922
:1081A000FF2B1FD01A461F2B06D903F01F030F4DBC
:1081B00004E04FF0FF31F2E74FF0A04503F5E07324
:1081C000002645F8236005784078094BC3F86455CC
:1081D000C3F86805C3F86045C3F87015C3F86C258B
:1081E00070BC70474FF0FF32EDE700BF0003005056
:1081F00000500240F8B52D4B1B79002B51D104469D
:108200000D46827990F807E090F808C0417A877AA5
:10821000C668007C1AB9012925D0022927D0244B31
:10822000C3F80425C3F824E5C3F820C5C3F81C151A
:10823000C3F82875C3F8180526BB0022C3F810251B
:10824000012383B32046FFF745FF184A1560637981
:108250005B01DBB2174981F8253320234B600123F2
:1082600013710020F8BD0128D7D10023E9E780B1C0
:10827000022810D0042810D0062810D00828CED10B
:108280000023DEE70A4AC2F814650123C2F810355C
:10829000D7E70023D5E70023D3E70023D1E7002366
:1082A000CFE70820DEE70720DCE700BF143300201B
:1082B0000050024000E100E0374B1B79012B65D1F3
:1082C00030B484B00C46036823B103F06042B2F1CD
:1082D000005F5DD1426822B102F06042B2F1005FFE
:1082E00058D1003B18BF01232B4A517963F3000199
:1082F00051714368191E18BF0121537961F341037D
:1083000003F0F3036FF304135371D48002F10803F5
:1083100003C883E803000020106150619568D368AA
:108320001E49C1F85045C1F838552D1A18BF01250E
:10833000C1F80855C1F840351B1A18BF0123C1F810
:108340000C350124C1F8004502231371144B186049
:108350001B680393039B134B18601B680293029BDB
:10836000114B18601B680193019B527902FA04F3C8
:1083700003F00203120102F02002134343F004034E
:10838000C1F804330C6004B030BC7047082070475B
:108390001020F8E71020F6E71433002000500240C8
:1083A000045102401451024008510240084B5A79CE
:1083B0006FF304125A71074B2222C3F808230123DA
:1083C000054A13603432136004321360704700BFF3
:1083D00014330020005002400450024008B5FFF75B
:1083E000E5FF0C4B2022C3F88420BFF34F8FBFF36F
:1083F0006F8F094B4FF0FF32C3F86425C3F868252F
:10840000C3F86025C3F87025C3F86C25034B002220
:108410001A7108BD00E100E0005002401433002052
:1084200030B585B0464B1B6873B1454B00221A60CE
:108430001B680093009B434A537943F00803537130
:1084400003F01203122B2FD03F4B1B6873B13E4B2E
:1084500000221A601B680193019B3A4A537943F04A
:108460000403537103F01103112B22D0374B1B6807
:1084700023B3364B00241C601B680293029B344BD1
:108480000422C3F80823C3F800452E4D284650F8AF
:10849000103B21469847284650F8083B214698470C
:1084A00001232B7105B030BD537943F02003537184
:1084B000CAE7537943F020035371D7E7214B5B7927
:1084C00003F00F020F2A0DD013F0010F02D113F0A9
:1084D000080F07D11B4A527912F0020FE2D113F0B4
:1084E000040FDFD0174A537903F0F7036FF38203C9
:1084F000537113F0200F0AD0DBB203F0DF0343F017
:10850000100353711368012100209847CAE70D4BEF
:1085100002AC03F1100292E8030084E80300D9687A
:10852000986882E8030000229A60DA605A7942F083
:1085300010025A711B68012120469847B2E700BF1C
:1085400014510240143300200451024008510240EB
:10855000005002407047E8B130B40546FF281CD0F7
:1085600000234FF0883001E00133DBB2072B0DD838
:1085700045FA03F212F0010FF6D09C000F21A14042
:108580000E22A24020EA01001043EDE74FEA3040FE
:1085900030BC70474FF0883070474FF0EE30F7E74F
:1085A0002DE9F843814688461746002412E04046EC
:1085B000FFF7D1FF0E4D45F82400661C4846FFF733
:1085C000CAFF45F82600A61C3846FFF7C4FF45F849
:1085D00026000334592CEADD5A235F2B05DC044ABC
:1085E000002142F823100133F7E7BDE8F88300BF0C
:1085F000303300202DE9F0418AB006EE900AF8EE03
:10860000E66A9FED3C7AC6EE877A27EE877ABCEE63
:10861000C77A8DED017A9DF804609FED377A27EED9
:10862000877ABCEEC77A8DED017A9DF804709FEDD4
:10863000337A67EE877AFCEEE77ACDED017A9DF822
:108640000480424639463046FFF7AAFF05AC2C4D60
:108650000FCD0FC42B68236000258DF8185005231B
:108660008DF817304FF0C05308938DF824508DF8D3
:108670001E501EE011F034FF23E005244FF47A4031
:10868000204B43F001039847013CF7D1FFF78EFEE2
:1086900005244FF47A401B4B43F001039847013CFB
:1086A000F7D1FFF79BFE424639463046FFF778FF89
:1086B0000135022D1ADC144905A8FFF79BFD00289F
:1086C000D8D1124B1B78002BE2D0114B1B78002B1A
:1086D000DED1002203920F4B0493602103A8FFF721
:1086E000EBFD0028C9D011F0FBFEC6E70AB0BDE8DB
:1086F000F08100BF00007F430000F04200000C4208
:10870000CC1C0400E01C0400558502000C2E002047
:108710002C3300203033002010B40346044C006892
:1087200059689A68DB680FC45DF8044B704700BF56
:10873000B03400200D4B0E4A92E8030083E803009A
:1087400003F108020B4903C982E8030093F90620EC
:1087500002F00F0242F040029A7193F9082002F0F1
:108760003F0242F080021A72704700BFB03400200E
:1087700060000010A400001000487047B0340020D2
:1087800000231F2B09D8074901EBC30000224280B8
:10879000426001F833200133F3E7034B00221A60F3
:1087A000704700BFC0340020C035002030B40546FB
:1087B0000F4B1B6800240AE01F230E4A12F83300F7
:1087C000A0B102EBC3025288AA4207D001341F2C89
:1087D0000BD85A1E002BEFD01346EEE7054A02EBEA
:1087E000C30252688A42F1D100E0002030BC7047D9
:1087F000C0350020C034002030B40A4A13680A4C47
:1088000004EBC30568806960012104F833100B4450
:108810001360202B01D030BC7047134600221A6031
:10882000F9E700BFC0350020C0340020F0B4144682
:108830001D46002300E00133072B0ED81A0108491A
:108840008A5A8242F7D101EB0312D2E90267AF42A2
:1088500008BFA642EFD1012000E00020F0BC704725
:10886000C835002030B4C1698269C3880D0A0C067E
:10887000C2F30C01994216D25B1A1344A3F50053BC
:10888000E41845F10005094A1368591C116003F00A
:108890000703808A064A190102EB03135052C3E909
:1088A000024530BC70475B1A1344E9E748360020A4
:1088B000C8350020C37D002B42D0C3780A7802F06F
:1088C000800203F07F0313430B7002780B7803F0F0
:1088D0007F0343EAC2130B700378002B41D030B4FE
:1088E0008378082B14BF002201224B7803F07F030A
:1088F00043EAC2134B70C58803F08003C5F38614A6
:1089000023434B708A7802F0030242EA8502D2B216
:108910008A70057A02F0FC02C5F3C10422438A7012
:10892000CB7803F01F0343EA4513DBB2CB70427AE6
:1089300003F0E00302F01F021343CB7030BC70471A
:10894000C3780A7802F0BF029B0103F0400313438F
:108950000B70027903F0C00302F03F0213430B7067
:10896000B3E770470023032B31D810B402E0013382
:10897000032B28D8C3EBC302164C04EB021292F867
:108980004820012AF3D1C3EBC30204EB0212948AFC
:10899000C2899442EBD1C3EBC3020E4C04EB02122A
:1089A000D2888A42E3D1C3EBC30204EB0212B2F8CD
:1089B000582012B1848AA242D9D1C3EBC30305481F
:1089C00000EB031000E000205DF8044B704700202E
:1089D000704700BF74360020002300E00133032BF2
:1089E00016D8C3EBC3020B4901EB021292F84820E0
:1089F000022AF3D1C3EBC30201EB0212918A828AED
:108A00009142EBD1C3EBC303024800EB0310704764
:108A1000002070477436002008B9042070470820F1
:108A2000704730B403460C460978C170002141629A
:108A3000A1680B2903D8217BF9B1012100E00121B4
:108A400019700020987029B1A1680731C90801394F
:108A5000597218720121D97503F10C0561692069F9
:108A600085E80300E1899982A1691962217F9975DE
:108A7000216AD9629A6230BC70470021E0E70000A9
:108A80000021164B1B688B4226D90023144A02EBA7
:108A9000C10252689A421DD910B4114A52F83120CD
:108AA00002EBC30412F8332082420DD001330C4A8A
:108AB00002EBC10252689A42EFD80131074B1B68A2
:108AC0008B4205D90023F2E760685DF8044B7047DC
:108AD0000020FAE70131D4E7002070474C3600202F
:108AE0005036002070B58CB006460D4614462C2238
:108AF000002101A818F0DEFC0F238DF80430ADF83A
:108B000008604FF0000365F300038DF80A308DF81C
:108B10000B4001A801F0EAF90CB070BD30B58DB082
:108B200005460C462C22002101A818F0C3FC102396
:108B30008DF8043002958DF80C4001A801F0D6F9AB
:108B40000DB030BD00B58DB010B913F1020F06D1D4
:108B5000074B186804F076FA0DB05DF804FB0121AC
:108B60008DF804100293039201A801F0BFF9EFE71A
:108B700058360020F8B5069C002960D01E460F46E6
:108B800015685168D2F808C0D368E5602161C4F85F
:108B900014C0A36115695169E56121620023637006
:108BA0000278D20922705AB30423BB4249D8E17D2E
:108BB00041B3037803F07F03E3700023A3709AB1FD
:108BC00043789B0103F4FE53827843EA9203E380E7
:108BD0008378DB0003F01803C27843EA5213237250
:108BE000C37803F01F036372002363623378032B9F
:108BF00021D83278144B53F82230E3620020F8BDBC
:108C00000123D2E70178C1F38011E170017801F00E
:108C10003F01217142B190F90130002B02DB0423A6
:108C2000A370CCE70823FBE70421A1700B44BB42EF
:108C3000C5D90920E3E77846FFF726F9D9E70920E7
:108C4000DDE70920DBE700BF741E040070B50C46A9
:108C50001D4603789BB104263244A26000F10C0348
:108C60002360836A6360C36AE36000232374204641
:108C700004F050FD10B963691E442E6070BD0126DA
:108C8000EAE72DE9F0418EB00D4616461C468046B7
:108C900000282DD0002D2FD0002C31D0636A023354
:108CA000059304F10C00E378002B2DD00121A2786C
:108CB00001AF3B46082A14BF0022012204F007FB43
:108CC0000697CDF81C80B2B2ADF820200B95154464
:108CD0000C95A3788DF83430237B022B16D000231B
:108CE000ADF8283005A804F0EAFA0EB0BDE8F0812E
:108CF0007846FFF7C9F8CDE77846FFF7C5F8CBE728
:108D00007846FFF7C1F8C9E70221D0E723692BB104
:108D1000236909931023ADF82830E3E77846FFF77D
:108D2000B3F8F5E72DE9F04188B004460D46C37D60
:108D3000002B3CD0082605FB06F8637AAB4238D0FE
:108D4000257201AB324602A92046FFF77FFF074696
:108D500048BB4DB994F8533033B9A369C3F30C033E
:108D6000E380012384F85330E37D7BB994F85230DB
:108D700063B91DBBE06EB4F84A10A27823468A1A84
:108D80000146FFF77EFF012384F852300799204601
:108D9000FFF790FDE16E32464144019818F061FB07
:108DA00002A804F0DDFC384608B0BDE8F0810C26CE
:108DB000C1E7B4F84A60A6EB0806C1E77846FFF7BA
:108DC00063F8D7E770B505460E4609B100230B607E
:108DD00095F85040002104E0631C85F850300134C0
:108DE000E4B26B7AA34210D3EA6C0123A3401A4287
:108DF000F5D121462846FFF795FF014628B9002EF8
:108E0000EAD0336801333360E6E7084670BDF0B559
:108E100089B004460E46154683789A18C37D63B11F
:108E20000B239A4221D801AB02A92046FFF70EFF7F
:108E3000074620B1384609B0F0BD0F23F1E7079986
:108E40002046FFF737FDE37D43B12A4631460198BE
:108E500018F007FB02A804F083FCEBE723462A4640
:108E600001993046FFF70DFFF4E70927E2E700001C
:108E700010B5044690F84830012B0CD103F0D6FA17
:108E8000237B012B0BD0094BD968014404F130003E
:108E900003F0A2FA10BD7846FEF7F6FFEEE7A17DDB
:108EA000024BDA681B6903FB0121EEE75C36002008
:108EB00030B583B0002403E02846FFF7D9FF013422
:108EC000032C18D8C4EBC4030C4A02EB031393F829
:108ED0004830012BF3D100230193C4EBC40502EB0E
:108EE000051501A92846FFF76DFF0428E4D0019B72
:108EF000002BE4D0E0E703B030BD00BF74360020A3
:108F000038B5044690F84830022B09D1064B1D684D
:108F100003F08CFA411904F1300003F05DFA38BD1A
:108F20007846FEF7B1FFF1E75C36002038B504461D
:108F300090F84830022B10D10A4B5D7D5A689B682F
:108F400003FB052503F072FA411904F1500003F008
:108F500043FA012384F8683038BD7846FEF794FF61
:108F6000EAE700BF5C36002010B50446808A02F0B4
:108F700009FE01281CD1237BE3B194F91620002AB5
:108F80001ADBE27D4AB1022B18D094F90330002B92
:108F900016DBA378B3B900200BE0E2780AB9012B05
:108FA00012D1237893B9A378042B11D1002000E0CB
:108FB000102010BD1020FCE70720FAE71020F8E78A
:108FC0000720F6E70720F4E70720F2E70020F0E7A4
:108FD0000720EEE738B5044603784BB1C388C26971
:108FE0008169808A06F06AFB054645B9284638BD86
:108FF000C2698169808A06F05BFB0546F5E7E16995
:10900000002201F00101A08AFFF76CFDEEE70000ED
:109010002DE9F04780460E4617464B1EDBB2012B6A
:109020000FD8B7F5C07F10D80024032C1AD8C4EB92
:10903000C403314A02EB031393F848304BB10134B7
:10904000F3E77846FEF720FFEBE77846FEF71CFFD4
:10905000EAE7C4EBC40502EB0515384608F037FD16
:10906000E86600E000255DB3EB6E002B42D043467E
:109070002C4608F1300ED3F800C058689968DA68B9
:10908000C4F800C06060A160E26010331034734522
:10909000F1D10023EB64A5F84A70012E13D06FF0D4
:1090A0000103AB62002385F86830144BAB652D6675
:1090B000134BAB632D64012002F036FA85F848604B
:1090C0002846BDE8F0870F4B1B7D85F85130002303
:1090D00085F8523085F8533085F85030D8F828207C
:1090E0006A65A5F858306FF00103AB62064BAB63BD
:1090F0002D64E0E71D46E3E774360020F79A02008E
:10910000419402005C3600208D94020000B585B0C9
:1091100000228DF80F20A0B10B46024602320A60F1
:109120000DF10F01184604F0CEF89DF80F3043B151
:109130000C4B1B6813F0040F03D00B4B1B68032B65
:1091400004DC9DF80F0005B05DF804FB074BD3F875
:109150000435074A009240F215420649042005F002
:1091600079F8EEE7202E00201C2E00200010014090
:109170002C1D0400201D04002DE9F0438FB004468F
:109180000E4615461F46D0F8188003784BB1C288AA
:10919000C8F30C03934241D2D21A4244A2F50052C2
:1091A000A26104F10C00E378002B3AD00121A278EF
:1091B0000DF128094B46082A14BF0022012204F0B1
:1091C00086F8C4F81880CDF808900396A378EA1AB8
:1091D00092B2ADF810203244089207978DF82430EF
:1091E0000023ADF81830E3787BB3237B022B1AD031
:1091F0002546002345F8243F2A462179206A0DF0B0
:10920000DBFD606AA8B101A9FFF780FF002840D10B
:109210002A462179206A0DF0CFFDF2E7D21A4244A6
:10922000BEE70221C3E71023ADF818302369059388
:10923000DEE7237B022B30D104F10C01E0890DF035
:109240006DFE0028D1D1052024E0237B012B01D025
:1092500005201FE0E389ADF80030A38AADF80230A5
:109260000025012D13D82146002341F8243F0EABE1
:1092700003EB450333F8380C0DF0BBFD01A9606A20
:10928000FFF744FF08B90135EBE7002002E00520B5
:1092900000E000200FB0BDE8F0830520FAE70000F1
:1092A00070B5F0B00E4614461D4610AB0A46014696
:1092B0002046FFF761FF50B1214B1B6813F0040FEC
:1092C00003D0204B1B68052B2DDC70B070BD2046F1
:1092D000FFF780FE0028F8D103AB01228DF80C20A7
:1092E000A28AADF80E20002204928DF8142010AA54
:1092F0000692A178711AADF81C1008AA93E8030031
:1093000082E803000AAB2169E06883E80300A37DDB
:109310008DF83830236A0C93636A0D930F9505A876
:1093200000F0E4FDD1E7084BD3F80435074A00927A
:1093300040F201720649062004F08CFFC5E700BF29
:10934000202E00201C2E002000100140401D040093
:10935000201D040010B50446C06E08F0BCFB04F1EB
:10936000300003F021F894F84830022B0AD0702224
:109370000021204618F09EF8002084F8480002F0F2
:10938000D3F810BD04F1500003F00EF8EFE710B56C
:109390008CB0044690F84830012B0FD101238DF892
:1093A0000430636D029303F041F8039001A800F0CC
:1093B0009DFD2046FFF7CEFF0CB010BD7846FEF7AE
:1093C00063FDEBE730B585B00D460446A8B194F8CF
:1093D0004830022B15D02946606DFFF79FFB2046D1
:1093E000FFF7B8FF114B1B6813F0040F03D0104BAD
:1093F0001B68032B09DC05B030BD7846FEF744FD41
:10940000E5E72046FFF72EFAE5E70A4BD3F80435E7
:1094100094F8482002950192074A009240F2F31214
:109420000649042004F016FFE5E700BF202E0020C7
:109430001C2E0020001001406C1D0400201D0400A3
:1094400008B508460021FFF7BDFF08BD08B5037B3E
:10945000012B02D0FFF79BFF08BD0121FFF7B2FFF0
:10946000FAE7000008B590F8513053B1013B80F89D
:109470005130002380F85030034B186803F0E2FDB0
:1094800008BDFFF7E3FFFBE75836002010B50C4698
:1094900091F84830012B03D12046FFF7E3FF10BDC0
:1094A0007846FEF7F1FCF7E7062976D1F0B585B0EE
:1094B00015460678B20102F4FE5241788478C378EA
:1094C0001B0443EA0463047943EA042344791C43FC
:1094D00076B242EA91012846FFF744FA0746E0B126
:1094E000002E2FDBC289A98A8A422BD02B4B1B6806
:1094F00013F0040F3ED02A4B1B68012B3ADD294B99
:10950000D3F8043502910192274A009240F27B621F
:109510002649022004F09EFE2CE0204B1B6813F02D
:10952000040F27D01E4B1B68012B23DD1D4BD3F8E6
:1095300004351F4A009240F277621C49022004F071
:1095400089FE17E0002E17DBFD6C2543FD64BCB1DE
:109550003B78D3B17B7A5A1C01239340013B9D4257
:1095600017D0002187F850103846FFF72BFC3846FB
:10957000FFF77EFC05B0F0BDAB8AA7F85830E3E7F3
:1095800003213846FFF71EFFF4E77846FEF77CFC20
:10959000E0E73846FFF7FBFEECE77047202E00209F
:1095A0001C2E002000100140C01D0400201D0400DE
:1095B000901D04002DE9F0418AB007460E4614467E
:1095C0001D461046FFF706FD50B994F80380B8F128
:1095D000000F08D12B46224631463846FFF764FF7C
:1095E0000AB0BDE8F0814046FFF74AFA024600287B
:1095F000F6D08DF80480236A0793A38AADF8123061
:1096000005AB2169E06883E80300A37D8DF8203075
:109610000297039623788DF81030E36A0993294660
:1096200001A89047DCE710B5547814F0010F03D07F
:10963000D47D14B1FFF7BEFF10BDFFF731FEFBE78D
:1096400008B501390130FFF7EEFF08BDF0B5C7B02E
:109650000F46164682783244C37D2BB14FF4807397
:1096600093427CD3002303E04FF4C073F8E7013347
:10967000032B1AD8C3EBC3043B4D05EB041494F839
:1096800048100129F3D1C3EBC30105EB01118C8A0A
:10969000818A8C42EBD1C3EBC30105EB0111CC896C
:1096A000C1898C42E3D1082552E00121FFF7B0FCCB
:1096B0000446002855D032463946C06E17F0D1FE18
:1096C0000023459345A92046FFF77CFB054608B1DA
:1096D000042840D1459B0BBB244B1B6813F0040F9F
:1096E00035D0234B1B68032B31DDB4F84A70802F33
:1096F00028BF80270023BB4214D2E26ED25C1D49F2
:109700000D68100959002E5C04A800F8136002F0DF
:109710000F020131AA5C42540133ECE72046FFF707
:10972000A7FBD9E704AA002302F8173003F180430E
:1097300003F58833D3F8043502920F4A01920F4A99
:1097400000924FF4AC620E49042004F083FD002522
:10975000284647B0F0BD2046FFF7FCFDF8E7092595
:10976000F6E70425F4E700BF74360020202E002021
:109770001C2E0020242E0020041E0400D01A0400F9
:10978000201D040070B504460D461646FFF7ECFB9D
:1097900030B923782BB1324629462046FFF756FFD1
:1097A00070BD324629462046FFF731FBF8E700003E
:1097B00038B504460D46CB695B780371CB691B78DD
:1097C00083F00103C370CB6943628B8A0B2B07D8EC
:1097D000CB7A002B35D10B7B012B02D0002300E08C
:1097E00001232370002B31D0287B02282BD0FFF7D8
:1097F00013F9A070AB8A03440B33174A82FB03238F
:109800005B10013B6372002323720023E37504F1B4
:109810000C0395E8030083E80300AB6923622B89FE
:10982000A382AB7AA3752B6AA362DF23E362284687
:109830000DF0A2FB20B12B78012B0AD0FF23E362AD
:1098400038BD0123CDE7054B987DD0E70423A370F5
:10985000DBE72023F3E700BFABAAAA2A5C3600208F
:1098600010B54FF4E0720021134817F023FE06F004
:10987000E3F80024114B1C6080222146104817F0A9
:1098800019FE104B104A1A60104A5A604CF25032BE
:109890009A600F49D9601A6104221A759C750822D2
:1098A0005A750C4803F0AEFB0B4B18600B4B1C6059
:1098B0000B4806F0B9F910BD743600204836002078
:1098C000C83500205C36002080969800F0490200E0
:1098D00020A10700E99A0200583600204C360020EB
:1098E000458B020008B505F0DBFE08BD98B110B548
:1098F0008CB00446036983B1C36983B1836983B1C2
:1099000001466846FFF754FFA28A21696846FFF7BF
:1099100039FF0CB010BD0E2070470E20F9E70E2065
:10992000F7E70E20F5E7000058B310B590B00A46EF
:10993000044643683BB383693BB3014604A8FFF781
:1099400070F8134B1B6813F0040F03D0114B1B6806
:10995000062B06DCA268616804A8FFF713FF10B0AD
:1099600010BD0D4BD3F804352278A1690291019204
:109970000A4A009240F603020949072004F06AFCF3
:10998000E8E70E2070470E20E9E70E20E7E700BF6A
:10999000202E00201C2E002000100140141E040068
:1099A000201D0400037B012B01D00020704730B53F
:1099B00091B004460D46334B1B6813F0040F03D0DF
:1099C000314B1B68032B41DC04A900230593CDF820
:1099D0001730E288C2F3861092008DF811202A0E0B
:1099E0008DF812202A0C8DF813202A0A8DF81420E5
:1099F0008DF815506278022A0CBF80221A4642EA7E
:109A000000028DF810204FF0060209924FF001027B
:109A10008DF82C20A28AADF82E200C938DF81C30E6
:109A20000891226A0D928DF82830E36A0F9319D0BD
:109A3000E389ADF82A30A37DF3B98DF838306FF0A3
:109A4000010107A8FFF770FF11B030BD0F4BD3F82D
:109A500004350F4A009240F263220E49042004F0BC
:109A6000F9FBB1E70DF10E0103A80DF073FABDF893
:109A70000C30ADF82A30DEE7074B5B7D8DF83830CF
:109A8000DDE700BF202E00201C2E0020001001402A
:109A9000401E0400201D04005C36002090F8483071
:109AA000022B00D0704710B5044690F86830022BA6
:109AB00000D010BDC16CFFF775FF0028F9D100235D
:109AC00084F86830F5E7000010B5002407E0C4EB27
:109AD000C402130103481844FFF7E0FF0134032CCC
:109AE000F5D910BD7436002008B5FFF7E1F9FFF78E
:109AF000EBFF012008BD10B50C4691F84830022B51
:109B000006D1022384F868302046FFF7C7FF10BD56
:109B10007846FEF7B9F9F4E7F0B583B00446C569B5
:109B20008269C3882F0A2E06C2F30C05AB4232D9D4
:109B30005B1B1344A3F50053F61847F100073246A8
:109B40003B46A08AFEF772FE002840F08B8020463C
:109B5000FEF742FF054648B3D0F81CC08269C388AF
:109B60004FEA1C214FEA0C60C2F30C0C9C4515D245
:109B7000A3EB0C031344A3F50053C01841F10001FB
:109B8000B94208BFB0420DD38F4208BF864230D3DE
:109B9000284603B0F0BD5B1B1344CDE7A3EB0C03D9
:109BA0001344EAE705212846FFF70CFCE388E26945
:109BB000A169A08A05F040FEE8B9627A531CE17DF4
:109BC00099B3082202FB03F289B34FF480739342E6
:109BD00030D302212046FFF71BFA05460028D7D1D3
:109BE00000212046FFF7DEFE02210020FEF796FF4F
:109BF000CEE70025CCE7E388E269A169A08A05F0F9
:109C000095FE60B1237863B1617A4B1C01219940C4
:109C100001392046FFF7C6FE2046FFF7DBF9002595
:109C2000B6E77846FEF730F9EEE70C22CAE74FF4C4
:109C3000C073CCE70C4B1B6813F0040F03D00B4B25
:109C40001B68002B01DC0025A2E7094BD3F8043583
:109C50000192084A009240F27F320749012004F045
:109C6000F9FAF0E7002593E7202E00201C2E0020B3
:109C700000100140501E0400201D04002DE9F04199
:109C800082B007460E46144698461046FFF744FF3A
:109C9000002846D00546404B1B6813F0040F03D044
:109CA0003E4B1B68032B3FDC2846FFF729F92B7B33
:109CB000012B47D0EB6C217A01228A40134230D12C
:109CC0001A43EA64043E237AE27D002A42D04FF030
:109CD000080C0CFB03FC697A8B423ED0002A41D071
:109CE0000823B34240D1AA69A3699A4209D205F177
:109CF0000C0E0C340FCCAEE80F0094E803008EE895
:109D00000300E86E3246391D604417F0AAFBEC6C84
:109D10002B7873B36B7A5A1C01239340013B9C420E
:109D20002BD002B0BDE8F0811D4BD3F80435227A68
:109D300001921C4A009240F2A3321B49042004F015
:109D400089FAB1E795F86830002BB3D12846FFF7C0
:109D5000EDF8AFE74FF00C0CBBE70CEB0603A5F8F2
:109D60004A30C0E70C23BCE704212846FFF72AFB52
:109D7000D7E77846FEF788F8CCE7E96C2846FFF786
:109D800011FE43462A46B5F84A10E86EFFF74BFC31
:109D90002846FFF7DFFAC4E7202E00201C2E002003
:109DA00000100140641E0400201D04002DE9F04154
:109DB00090B000284CD00F4614461E468046002A1C
:109DC00048D004AB00933346FEF7D4FE054618B1E5
:109DD000284610B0BDE8F08104A8FFF7C5F8054695
:109DE0000028F5D100230293039302A960880DF0A7
:109DF00095F828B19DF8113043F001038DF811302A
:109E00002269E168208905F0CFFC38B19DF8113056
:109E100003F0FE038DF81130002BD9D09DF81130DE
:109E2000002BD5D013F0010F01D0039B08939DF8B0
:109E3000103033B1334604AA39464046FFF71EFFBF
:109E4000C6E7334604AA39464046FFF7F9FBBFE7A9
:109E50000E25BDE70E25BBE7F8B508B30E4605464F
:109E6000164B1F68F7B93C46B4420FD205EBC4034A
:109E70005B68D3B115F8340015F93430002B16DBCC
:109E8000B8B1FEF7FDFDB0B90134EDE70C4B43F876
:109E9000375003EBC7035E607B1C084A136002E087
:109EA0000E2700E004273846F8BD0E27FBE70B27F6
:109EB000F9E70F27F7E70F27F5E700BF4C3600203B
:109EC00050360020084B196861B110B504E006480F
:109ED00004F02BF9214624B10C680B79002BF9D042
:109EE000F5E710BD704700BF3838002038B505468B
:109EF00030B1104B1C68C4B10F4B01221A7004E042
:109F00007846FDF7C1FFF4E724683CB12379002BC4
:109F1000FAD154F8043C28469847F5E7064B1B78DD
:109F2000022B03D0044B00221A7038BDFFF7CAFF82
:109F3000F8E700BF383800203438002010B5044658
:109F400030B100232372211D034804F0C3F810BD73
:109F50007846FDF799FFF4E73838002010B504463D
:109F600058B10A4B1B78013BDBB2012B09D8074BD8
:109F700002221A700123237210BD7846FDF784FF78
:109F8000EFE7211D024804F0D0F8F5E7343800204F
:109F9000383800200A8883689B5A07339BB223F025
:109FA000030313449BB20288043A934200D900236E
:109FB0000B80704710B582B004468368C91AADF8AB
:109FC00006100DF10601FFF7E5FFBDF80630A068A9
:109FD000184402B010BD0088043880B2704743882E
:109FE0008268D018D15201238370704782680023A1
:109FF0009370438083807047073189B221F0030159
:10A0000089B2428883889A4204D29B1A99421EDC04
:10A010000020704710B59A420FD90488A41AA142B3
:10A0200017D98B4217D3032C03D983681344042216
:10A030009A7000234380184604E0826813449B789A
:10A040000BB1042010BDFFF7D1FF0020FAE7042078
:10A0500070470020F6E70420F4E738B504460D46C3
:10A060008368828813448B4202D07846FDF70CFF48
:10A070000023AB70211D2046FFF78CFFA288A36848
:10A0800013449B78042B00D038BD0023A380FBE74A
:10A0900010B50C468368428813448B4202D0784640
:10A0A000FDF7F2FE0023A37010BD70B505461446FF
:10A0B0000E46002944D0002D46D0B6F1005F08D9E5
:10A0C0004FF08053D3F80C3103F50023B6EB832F08
:10A0D0000ED3B6F5000F08D94FF08053D3F80C31EA
:10A0E00003F50053B6EB832F02D37846FDF7CCFE81
:10A0F000631E3344B3F1005F08D94FF08052D2F8A9
:10A100000C2102F50022B3EB822F0ED3B3F5000F22
:10A1100008D94FF08052D2F80C2102F50052B3EB6F
:10A12000822F02D37846FDF7AFFE042C10D92C8085
:10A1300000236B80AB80AE60043C3480B37070BD94
:10A140007846FDF7A1FEB6E77846FDF79DFEB4E739
:10A150007846FDF799FEEAE738B50446A0B1628873
:10A16000A36813449B78012B12D0EFF3108572B6CD
:10A17000A388A16819448B78032B0DD02046FFF7E4
:10A1800035FF05B962B638BD7846FDF77DFEE6E7D6
:10A190007846FDF779FEE8E72046FFF70BFFA36856
:10A1A000C31A638000238370EBE72DE9F0410E466C
:10A1B00014460546D0B1EEB16A88AB6813449B786B
:10A1C000012B1BD024B32846FFF705FFA04221D363
:10A1D000EFF3108872B621462846FFF70DFF0746B9
:10A1E00080B1B8F1000F16D162B614E07846FDF7E1
:10A1F0004BFEE0E77846FDF747FEDDE77846FDF7E2
:10A2000043FEDFE721462846FFF7E9FE3060E8E736
:10A21000092700E009273846BDE8F081F8B50C466B
:10A2200015460646E0B1FCB1A378012B20D1238866
:10A23000AB4221D325B3EFF3108772B625800223FA
:10A24000A370F1183046FFF7A5FE7388B2889342D9
:10A2500003D0B268134400229A7007B962B6F8BD01
:10A260007846FDF711FEDEE77846FDF70DFEDBE7E9
:10A270007846FDF709FEDAE77846FDF705FED9E7EF
:10A280007846FDF701FED6E770B50C46054690B15D
:10A29000ACB1EFF3108672B6AA88AB6813449A7813
:10A2A000042A10D09A78022A15D0032A18D0052043
:10A2B00006B962B670BD7846FDF7E6FDE8E7784678
:10A2C000FDF7E2FDE5E7291D2846FFF763FEAA88B2
:10A2D000AB681344E6E703229A7023600020E7E7A7
:10A2E0007846FDF7D1FD0020E2E738B5044680B19D
:10A2F000EFF3108572B6A088A16801448B78042B17
:10A300000BD08878022814BF0020012005B962B65E
:10A3100038BD7846FDF7B8FDEAE72046FFF74AFE6C
:10A320000146EEE738B5054678B1EFF3108472B612
:10A33000A888A96801448878C31EDBB2012B08D81D
:10A340002846FFF737FE0146F5E77846FDF79CFD06
:10A35000EBE7022814BF0020012004B962B638BD23
:10A3600070B50C46064678B194B1EFF3108572B61D
:10A37000A378012B10D0032B13D121463046FFF7D1
:10A380006CFE05B962B670BD7846FDF77DFDEBE762
:10A390007846FDF779FDE8E721463046FFF778FE7D
:10A3A000EFE77846FDF770FDEBE710B5EFF31084AB
:10A3B00072B68388816819448B78042B06D088781C
:10A3C000B0FA80F0400904B962B610BDFFF7F2FDA3
:10A3D0000146F4E708B5064B986800221A605A60F7
:10A3E0009A60DA601A615A619A6104F0FBFE08BD56
:10A3F0003C38002000B585B00A4BDB6802228DF89E
:10A40000002001934FF480530293074A69460120CC
:10A4100001F0CEFA18B9012005B05DF804FB002068
:10A42000FAE700BF3C3800205838002000B585B05E
:10A430000A4B1B6802228DF8002001934FF48053D1
:10A440000293074A6946012001F0B2FA18B90120C7
:10A4500005B05DF804FB0020FAE700BF5C3800207F
:10A4600058380020164BDA68137951795B1A03F5D6
:10A470007F2303F6FF7302EB03339A4205D002F504
:10A4800080520F4BDA600320704700B585B00D4B4A
:10A490001B6801208DF8000001930B4B03930423EC
:10A4A00002930A4A694601F083FA18B1002005B008
:10A4B0005DF804FB024B01221A760220F7E700BF89
:10A4C0003C3800205C3800206038002058380020DC
:10A4D00000B585B00C4BDA680C4B1B6804330120C7
:10A4E0008DF800000192039340F6FC730293084A32
:10A4F000694601F05DFA28B90120034B187605B0D2
:10A500005DF804FB0020FAE73C3800205C380020AE
:10A510005838002000B585B00A4B1B6801208DF823
:10A5200000000193084B039304230293074A6946F2
:10A5300001F03EFA18B9012005B05DF804FB0020D7
:10A54000FAE700BF5C380020483800205838002067
:10A5500010B584B0104BDA681478104B1B680433C4
:10A5600001208DF800000193039202940C4A694681
:10A5700001F01EFA70B9094B1B6804F0FC041C447E
:10A580000434054B5C61D9680A780A441A610120D9
:10A5900004B010BD0020FBE73C3800205C380020F0
:10A5A0005838002008B50023092B09D8064A52F86C
:10A5B0002320824201D00133F6E7044A536002E0CF
:10A5C0007846FDF761FC08BD081F04003C380020F8
:10A5D00010B5214BDB6853B11F4B1B7E5BB91E4B83
:10A5E0005B68092B26D97846FDF74EFC22E07846B9
:10A5F000FDF74AFCF0E77846FDF746FCEFE7164A20
:10A60000536801335360092B21D97846FDF73CFC90
:10A610001DE0114B00225A6019E00F4B1B7E1BB14D
:10A620000D4B02221A7012E0FFF7D4FE0FE00A4B26
:10A630001B7E83B9084B5A68084B53F82230984761
:10A6400004460228E9D00328E3D00128D7D0012C02
:10A65000EDD0032CEBD010BD3C380020081F0400C7
:10A66000104B1B681B685A1E12F1030F18D8C3F356
:10A670000B020AB10020704710B50B4AD3600023CB
:10A68000137653760124147093600848FFF78AFF0D
:10A690000749204601F07AF9FFF79AFF204610BDDE
:10A6A000002070475C3800203C380020F5A30200F1
:10A6B000B5A6020008B50B78032B06D00B4B1B7810
:10A6C000012B06D0022B0BD008BD084B00221A76B6
:10A6D000F4E7064B1B7E002BF6D1FFF779FFF3E77B
:10A6E0000B78032BF0D1FFF775FEEDE73C38002027
:10A6F00000B585B0174BDB6818784FF6FF7203F58D
:10A700008051184405F046FAE0B10246114BD96871
:10A710000B780B44984217D00E4B5B7E83B10E4BE7
:10A7200001208DF8000001920393042302930B4A49
:10A73000694601F03DF948B90120064B187606E05C
:10A74000074BEDE7012002E0012000E0002005B00A
:10A750005DF804FB3C3800208421040058380020B8
:10A760008021040008B5104BDB681878002203F53F
:10A770008051184405F00EFA08B1012008BD0A4BBB
:10A78000DA68137951795B1A03F57F2303F6FF73B7
:10A7900002EB03339A4205D002F58052024BDA6095
:10A7A0000320EBE70220E9E73C380020F0B585B054
:10A7B000514BDE6872793379591E8A4214D006F5FE
:10A7C00080510D780D444D490968081D0F790744E3
:10A7D0009B1A06EB03366B88013B9BB247F6FE6281
:10A7E000934260D92C461AE00120434B58767EE014
:10A7F0007846FDF749FB15E024F47F6424F00F044C
:10A8000004F5805423781C44A64247D9A54247D278
:10A810006388013B9BB247F6FE62934211D92388BD
:10A82000002BE5D0238804EB830323F47F6222F01E
:10A830000F029342E0D06288B2F5FE4FDCD01C4696
:10A84000E2E725462FE07846FDF71EFB15E024F4ED
:10A850007F6424F00F0404F5805423781C44A6423E
:10A8600020D9A5423BD26388013B9BB247F6FE62EA
:10A87000934211D92388002BE5D0238804EB83036E
:10A8800023F47F6222F00F029342E0D06288B2F597
:10A89000FE4FDCD01C46E2E7254604E0002502E03E
:10A8A000002500E00025E5B1144B19686A8801F520
:10A8B0008051384605F06EF9074690B101200E4BE5
:10A8C00018768DF8000001950D4B03930423029335
:10A8D0000C4A694601F06CF858B92C46CAE70025C5
:10A8E000E1E7B5FA85F56D09034B5D76012005B00A
:10A8F000F0BD0020FBE700BF3C3800205C380020A2
:10A900007C210400583800202DE9F04186B0644BCA
:10A910001B692BB1624B5B6933B14FF0000846E015
:10A920007846FDF7B1FAF5E77846FDF7ADFAF4E7BA
:10A930007846FDF7A9FA15E025F47F6525F00F05A7
:10A9400005F580552B781D44AF421CD9AC421ED270
:10A950006B88013B9BB247F6FE62934211D92B886C
:10A96000002BE5D02B8805EB830323F47F6222F0D4
:10A970000F029342E0D06A88B2F5FE4FDCD01D464C
:10A98000E2E72C4600E000241CB100943AE00024E9
:10A99000FAE700230093019B002B5CD14FF00108E4
:10A9A000002C77D0628847F6FF739A4272D0B8F1D4
:10A9B000000F73D13A4B5A6922F47F6626F00F06D6
:10A9C000B61A06F580561C69DF683B797A799B1ABE
:10A9D00007EB0337002301936388013B9BB247F6E3
:10A9E000FE629342D1D92546B9E77846FDF74CFA85
:10A9F00023E024F47F6424F00F0404F580542378CA
:10AA000023441C46A742C6D92388019A02EB83023D
:10AA10009642C0D9009B634023F47F6323F00F0369
:10AA2000002BB8D16388013B9BB247F6FE618B4295
:10AA3000B1D801922388002BD7D0238804EB83035D
:10AA400023F47F6222F00F029342D2D06288B2F5E3
:10AA5000FE4FD6D1CDE7124A526901208DF8080089
:10AA60000392009A059204930E4A02A900F0A0FFF7
:10AA700070B90B49019B23F003024B6913444B61EE
:10AA800014B1074B1C618BE77846FDF7FDF9F8E739
:10AA9000002000E0012006B0BDE8F0810120FAE7C7
:10AAA0003C3800205838002000B585B040F6F873D7
:10AAB0001B68B3F1FF3F09D0B3F1FF3F0CD07BB16E
:10AAC000B3F1FF3F37D0A3F580520FE01E4A126862
:10AAD000B2F1FF3FF0D103E01B4A1268002AEFD128
:10AAE0004FF080514B690A6902FB03F2A2F58052D4
:10AAF000164B1A60164B1B6813F4801F16D0154BAB
:10AB00001B68062B12DD144BD3F8043540F6F871A0
:10AB10000968B1F1FF3F13D0029201910F4A0092F0
:10AB200040F267220E49072003F094FBFFF798FDDF
:10AB300005B05DF804FB044B1A68A2F58052D5E716
:10AB400001490968E8E700BF141000105C380020D4
:10AB5000202E00201C2E002000100140D41E0400D6
:10AB6000BC1E040010B50446B0B1104B1B78BBB13D
:10AB70000E4BD968E3685879A3EB0032914211D3A8
:10AB80001A79121A02F57F2202F6FF7203EB0233E2
:10AB9000994209D8012004E07846FDF775F9E4E709
:10ABA000002010BD0020FCE70020FAE73C38002020
:10ABB000024B1878003818BF012070473C3800203D
:10ABC00010B504460E4B1B7893B92378032B13D191
:10ABD0000B4B9C60E268DA6000225A601A76012012
:10ABE00018705A76074900F0D1FEFFF7F1FC10BD4E
:10ABF0007846FDF749F9E8E77846FDF745F9E7E7D4
:10AC00003C380020B5A60200014B1868704700BF11
:10AC10005C38002010B5044680B163681BB123681E
:10AC20000BB1A36813B97846FDF72EF9A3685A1E35
:10AC3000134207D10023E360236110BD7846FDF77E
:10AC400023F9EAE77846FDF71FF9F3E7F8B500B313
:10AC50000F4604468368F3B1EFF3108572B60369BB
:10AC6000C268934211D0016842688668013E334051
:10AC700003FB021117B1384616F0F3FB23690133C9
:10AC8000236155B962B62846F8BD05B962B60525F7
:10AC9000F9E70E25F7E70925F5E70025F3E70000BA
:10ACA0000246C0F30B0040BB49B310B401F6FF717C
:10ACB0000C0B144B0221C3F80415124BD3F80034CB
:10ACC000002BFAD001460AE00E4BC3F808250D4BC5
:10ACD000D3F80034002BFAD002F580520131A142A2
:10ACE000F2D3084B0022C3F80425064BD3F80034F6
:10ACF000002BFAD05DF8044B7047102070470920F4
:10AD0000704700BF00E0014010F0030F2FD110B4D6
:10AD1000044611F0030F2CD16AB312F0030F2CD1AB
:10AD20009008174B0122C3F80425154BD3F80034C3
:10AD3000002BFAD002E0043404311046421E50B118
:10AD40000B68B3F1FF3FF6D023600D4BD3F800340E
:10AD5000002BFAD0EFE70A4B0022C3F80425084B7A
:10AD6000D3F80034002BFAD05DF8044B7047102064
:10AD700070471020F8E70920F6E70920F4E700BF44
:10AD800000E00140094B1B7813F0040F02D0037858
:10AD9000122B00D07047064B1A68064B5A60034BC3
:10ADA0001A786FF382021A70F4E700BF08390020A6
:10ADB000F83800209438002010B582B001900C467D
:10ADC000000C012810D12368094A136009490B7847
:10ADD00043F001030B705B0883F0010303F00103F0
:10ADE0001371002002B010BD7846FDF74DF8EAE778
:10ADF000F83800200839002010B582B001900C46C8
:10AE0000000C02280FD12268094B1A6022791A71AE
:10AE1000002058719871D871064A137843F00203E4
:10AE2000137002B010BD7846FDF72EF8EBE700BFB7
:10AE3000F03800200839002010B582B001900C468F
:10AE4000000C032806D1054B186820601B7923717C
:10AE500002B010BD7846FDF717F8F4E7F838002087
:10AE600010B582B001900C46000C03280CD1084BA1
:10AE70002068186022791A71064A137843F001039A
:10AE80001370002002B010BD7846FCF7FDFFEEE71E
:10AE9000F83800200839002010B582B001900C4627
:10AEA000000C042805D1054B03CB2060616002B083
:10AEB00010BD7846FCF7E8FFF5E700BFF03800204A
:10AEC00010B582B001900C46000C04280BD1084B41
:10AED0002068616803C3074A137843F002031370C4
:10AEE000002002B010BD7846FCF7CEFFEFE700BFB0
:10AEF000F03800200839002000B583B00190000C24
:10AF0000032806D1054B00221A601A7103B05DF8C0
:10AF100004FB7846FCF7B8FFF4E700BFF8380020E0
:10AF200000B583B00190000C042806D1054B002227
:10AF30001A605A6003B05DF804FB7846FCF7A4FF82
:10AF4000F4E700BFF038002000B585B0184B1B783F
:10AF500013F0400F0FD0164B1B7813F0040F07D1DE
:10AF6000144B5B6803F500530193B3F1807F06D95E
:10AF700005B05DF804FB7846FCF786FFEBE70E4B67
:10AF80001B788DF808300A4A137843F004031370D5
:10AF90000023ADF80C300323ADF80E3001A903985F
:10AFA00005F0FAFE0028E3D07846FCF76DFFDFE7F6
:10AFB00008390020943800200939002000B585B0F8
:10AFC0000022ADF809200F4B996801911B7B8DF889
:10AFD00008300D490B780133DBB20B708DF80B3064
:10AFE000ADF80C200423ADF80E300DEB03010398EF
:10AFF00005F0D2FE10B905B05DF804FB7846FCF709
:10B0000043FFF8E7943800200939002000B585B0E7
:10B010000F4B9A6801921A7B8DF808201B8AADF8B5
:10B0200009300C4B1B788DF80B300023ADF80C3039
:10B030000423ADF80E300DEB0301039805F0ACFED0
:10B0400010B905B05DF804FB7846FCF71DFFF8E782
:10B05000943800200939002000B58DB00B4B1B7BC4
:10B06000012B0ED0094A926804928DF808300390A3
:10B0700002238DF8043001A8FEF738FF0DB05DF80B
:10B0800004FB024A9268013A0492EEE794380020E9
:10B0900008B51D481D4B036000F0F6FE1C4B1B78E5
:10B0A00013F0200F2AD103F00303032B14D1194B03
:10B0B0001968194A916019791173B3F80500108263
:10B0C000DB79164A1370164A1279934217D0B1B938
:10B0D000114B00221A6007E00F4B00221A609A60A1
:10B0E0001A731A82FFF76AFF0B4B1A685A60084AF4
:10B0F000137843F040031370FFF726FF08BD084B99
:10B100001A68054B1A60EFE7E438002085AD0200AD
:10B1100008390020F0380020943800200939002038
:10B12000F838002010B582B00024ADF800400123AB
:10B13000ADF80230009805F060FEADF8044002233F
:10B14000ADF80630019805F058FE02B010BD0000C1
:10B1500008B5002005F078FE084B00221A605A60FE
:10B160009A60DA601A61064A137803F0DF0343F04D
:10B1700040031370FFF7E8FE08BD00BF94380020BD
:10B180000839002038B50C4D00242C606C60AC6090
:10B19000EC602C6101F04AF9084B5860084A9A604B
:10B1A000084ADA601C615C61074B1A7864F3C302D9
:10B1B0001A706C6038BD00BF9438002070380020D1
:10B1C00025B30200008793030839002008B50C4B13
:10B1D0001B7813F0100F00D008BD0A480A4B03601B
:10B1E00000F052FEFFF754FFFFF79CFF074801F005
:10B1F000B5F8034A137843F010031370ECE700BF6F
:10B2000008390020883800207DB402007038002002
:10B21000034B1878800880F0010000F001007047AF
:10B220000839002010B501F075FE174B1B7B1BBBC6
:10B23000154B9B7B2BBB144B1A8A41F282639A42BB
:10B2400006D8124B1B7813F0080F05D0012300E03D
:10B2500001231BB9082410E00023FAE70A4B01225E
:10B260001A7300241C829A6801329A60FFF7A6FEC6
:10B270002046FFF7F1FE00E0082401F08FFE204693
:10B2800010BD0824F9E700BF9438002008390020D9
:10B2900010B501F03FFE214B5B7BABB11F4B9B7B9D
:10B2A00003BB1E4B1A8A41F282639A4206D81C4B9A
:10B2B0001B7813F0080F05D0012300E001239BB198
:10B2C000012302E00023FAE700231C460BB3134BD3
:10B2D00000225A731B7B4BB1012B0ED07846FCF732
:10B2E000D3FD16E00023F0E70023EEE7FFF79AFF17
:10B2F00078B17846FCF7C8FD0BE0084B00201860D9
:10B30000586018731882FFF7A7FEFFF757FEFFF784
:10B310001BFE01F043FE204610BD00BF9438002004
:10B320000839002008B52C4B1B7BDBB1012B2ED03C
:10B330007846FCF7A9FD284A138A01339BB2138291
:10B34000264AA2FB03121209C2EB0212A3EB42032C
:10B350009BB2002B3DD0204B5B8A13B1013B1E4AB0
:10B36000538208BD1C4B1A8A41F282639A4206D866
:10B370001B4B1B7813F0080F07D0012300E00123BB
:10B38000002BD8D0FFF784FFE5E70023F8E7124B46
:10B390001B8A41F28262934206D8114A127812F057
:10B3A000080F14D0012200E00122002AC3D042F28B
:10B3B000B012934202D9084B01225A73FFF768FF7B
:10B3C0000028C8D1044B5B7B012BB4D1C3E700221A
:10B3D000EBE7FFF71BFEBEE79438002089888888DA
:10B3E0000839002010B5244B1B7B002B35D10446B7
:10B3F000214B5B8A2BBB1AB91F4B9B688B4205D331
:10B40000FAB11D4B9B6801338B421AD21A4B9B68D1
:10B410002A338B4223D3184B9B7B03BB164B99607B
:10B4200000221A605A601A8242F6065159825A73F3
:10B430001A73FFF7C3FDFFF787FD2046FFF70CFEE9
:10B440000DE062B10C4B9B6801338B4207D10A4B74
:10B4500001225A73FFF71CFF01E0012B00D010BD41
:10B46000002AFCD1044B9B688B42F8D1024B01228D
:10B470005A73FFF70DFFF2E7943800200378042B8E
:10B4800000D0704743681B78002BFAD010B5846851
:10B49000027E437E012A14BF00220122416904F189
:10B4A0001000FFF79FFF10BD1B4B1B7813F0400FE0
:10B4B00030D010B50446194B1A685B689A4225D201
:10B4C000164B1B7B012B14D0154B9A4213D2134BF6
:10B4D0001A685B68403B9A4215D2EFF3108172B64E
:10B4E0000E4A1368581C1060236001B962B6002030
:10B4F00010BD0C4BE9E7094B01225A73FFF7C8FE58
:10B500000028EAD1E3E7FFF71FFDE6E7FFF71CFDA0
:10B510000F20EDE70F2070470839002094380020F5
:10B52000FFFF7F0000E0FF0008B538B10D4B01229E
:10B530009A730D4A13680133136008BD0A4B1B68E8
:10B540005BB1094A1368013B1360002BF5D1054B31
:10B5500000229A73FFF79CFEEFE77846FCF794FC15
:10B56000EFE700BF943800206438002000B58DB0AC
:10B57000ADF808008DF81020039103238DF80430F6
:10B5800001A8FEF7B3FC0DB05DF804FB014B986811
:10B59000704700BF94380020054B1B7B012B02D065
:10B5A000034B98687047024B98680138704700BF9A
:10B5B00094380020044B9B68584010F0010F00D0D5
:10B5C000013B1846704700BF94380020014B187BA0
:10B5D000704700BF943800200F4B1B7813F0200FEA
:10B5E00001D00820704770B50B4E43F02003337034
:10B5F0000A4DA860297300242C82FFF7DFFC204647
:10B60000FFF72AFD2C606C60337843F04003337001
:10B61000FFF79AFC204670BD0839002094380020BE
:10B620002DE9F041002624E02449BC2303FB04F368
:10B63000CA5A0132CA520221284602F04BFC013795
:10B640000221284602F016FC014679B11B4ABC23B0
:10B6500003FB0423D3F80880B8F1000FE4D0BC2327
:10B6600003FB04F3D25A3046C047DDE797B90136F1
:10B67000F6B2022E1FD83446BC2303FB06F3083370
:10B680000E4D1D4404350221284602F0F3FB01460D
:10B690000027DAE7284602F085FC0828E7D1074BA7
:10B6A000BC2202FB0434A368002BE0D00022044932
:10B6B00030469847DBE70120BDE8F08114390020CF
:10B6C000401F040008B5082383731023437300F15F
:10B6D0001C0343610323037300F1180303610C305F
:10B6E00002F032FC08BD000008B50378012B06D03B
:10B6F000022B06D07846FCF7C7FB002002E0292089
:10B7000000E0014808BD00BF084C010008B50378FF
:10B71000012B07D0022B15D07846FCF7B5FB4FF470
:10B72000FA730AE08368591A21F0030303EB9103CB
:10B73000DB0003EB910303F5FA730748984228BF37
:10B74000184608BD8368591A090B044B03FB01F323
:10B7500003F5FA73F1E700BF60850100084C0100B2
:10B7600038B5044601210C3002F084FB054678B15F
:10B77000084BC4F89C300023C4F8A0306168FFF780
:10B78000C5FFC4F8A800C4F8AC40012384F8B83061
:10B79000284638BDB5B8020010B50446FFF7E0FFF3
:10B7A00020B104F19C000CF077F900B910BD784687
:10B7B000FCF76AFBFAE70000F8B505460C461646AA
:10B7C00017680378012B19D11249A1FB04314909EB
:10B7D0008B00AC68E41BB4EB810F00D31C468CB12A
:10B7E000686827F00307E968224639443844FFF7C0
:10B7F0008BFA58B933681C443460F8BD7846FCF7BE
:10B8000043FBE1E77846FCF73FFBE9E77846FCF7C6
:10B810003BFBEFE77D0CCEC7F8B506460C46154658
:10B8200017680378022B17D1114BA3FB04231B0CC1
:10B830001A03B468E41BB4EB033F00D314467CB195
:10B84000706827F0030721463844FFF729FA58B9F2
:10B850002B681C442C60F8BD7846FCF715FBE3E729
:10B860007846FCF711FBEBE77846FCF70DFBEFE7BA
:10B87000EB0661C538B505460C4611462378012B09
:10B8800006D0022B0FD07846FCF7FEFA002304E026
:10B89000021D2046FFF790FFA3686868984214BF16
:10B8A0000020012038BD021D2046FFF7B5FFA36828
:10B8B000F3E700002DE9F8430F46D1F8A850254BD7
:10B8C0001B786BB90446A5F5FA7501F10C08012146
:10B8D000404602F0CFFA064648B14FF0000924E096
:10B8E0000CF016F9002387F8B830BDE8F8837846E5
:10B8F000FCF7CAFAF1E70CF00BF90121404602F01F
:10B90000E9FA00237B6087F8B830134B186801F020
:10B9100099FB3846FFF740FFE7E7A4EB0009304604
:10B92000FFF7E2FE4844A8420DD8A5EB09023146D4
:10B930003846FFF79FFF0028DDD101F0BDF9B0EBDD
:10B940000409ECD5E9E70CF0E3F83846FFF724FFEB
:10B95000CBE700BF103900200C39002010B5084893
:10B9600001F050FB074B1860002406E0064BBC209A
:10B9700000FB0430FFF7A6FE0134022CF6D910BDFF
:10B9800021B602000C3900201439002038B50446D5
:10B990000D46022805D80548BC2303FB0404A56016
:10B9A00038BD7846FCF770FAF5E700BF143900207F
:10B9B0002DE9F84305460C461746022816D8CCB1A7
:10B9C0002378012B1AD0022B3ED16368C3F30B03FB
:10B9D000002B31D1A368C3F30B03002B30D1A36834
:10B9E000002B34D17846FCF74FFA30E07846FCF76C
:10B9F0004BFAE4E77846FCF747FAE1E7636813F0AF
:10BA0000030F0DD1E36813F0030F0DD1A36813F0FA
:10BA1000030F0DD1A368D3B97846FCF735FA16E0C9
:10BA20007846FCF731FAEDE77846FCF72DFAEDE7BA
:10BA30007846FCF729FAEDE77846FCF725FAC9E7DE
:10BA40007846FCF721FACAE77846FCF71DFAEFF3CF
:10BA5000108872B6BC2606FB05F606F108032A4ECE
:10BA60001E4404360021304602F004FA814678B3C1
:10BA70000021304602F02EFA20686168A268E3686F
:10BA8000C9F80000C9F80410C9F80820C9F80C303A
:10BA90002FB11D4ABC2303FB05235B883B801A4A58
:10BAA000BC2303FB05235A8801325A8093F8B8302F
:10BAB00083B9164B1B7813B10024A1460CE0124B3E
:10BAC000BC2000FB0530FFF74BFE8146002403E05D
:10BAD000042401E00024A146B8F1000F00D162B6B1
:10BAE000B9F1000F09D0BC2000FB05F09830064DDD
:10BAF000284404300BF0D0FF10B92046BDE8F8838D
:10BB00007846FCF7C1F9F8E7143900201039002015
:10BB100038B50446EFF3108572B610B9164B1B68A2
:10BB200073B18CB1144A136801331360124B1B6854
:10BB3000003B18BF0123114A137005B962B638BD26
:10BB40007846FCF7A1F9ECE70B4B1C68013C1C6044
:10BB500034B1EBE7BC2000FB0420FFF71DFE0134ED
:10BB6000022CE3D8064ABC2303FB042393F8B83025
:10BB7000002BF4D1EEE700BF483B00201039002035
:10BB80001439002018B1830B024AD05C70470020A2
:10BB9000704700BF501F040012DF704700B583B02C
:10BBA00001F088FE40B10C4B1B6813F0400F03D02E
:10BBB0000A4B1B68012B02DC03B05DF804FB084B49
:10BBC000D3F804350190074A0092752206490220F5
:10BBD00002F040FBF0E700BF202E00201C2E0020CA
:10BBE00000100140981F04008C1F040000B58DB0A8
:10BBF000114B1B78022B06D07846FCF745F9012043
:10BC00000DB05DF804FBFFF703FB18B90B48FEF716
:10BC100095F9F4E70CF0B4FC074B03221A702C22C0
:10BC2000002101A815F046FC1D238DF8043001A861
:10BC3000FEF75CF9E3E700BF503B0020102E002028
:10BC400008B50378122B00D008BD0448FEF786F92A
:10BC5000034B186801F0F6F9F6E700BF102E00203C
:10BC60004C3B002070B58AB00CF0CCFC48B30646C3
:10BC700000238DF8103005AC05460FCD0FC42B689E
:10BC80002360727D052A04D9337D03F00F03072B4F
:10BC90001ED1174B1A688AB104AB0393337DC3F3EB
:10BCA00003038DF80430737D062B1BD9063B8DF8FA
:10BCB000053006F11D03029301A8904730460CF0B1
:10BCC00081FC0CF0BBFC80F00100C0B20AB070BD7A
:10BCD000307D04AB063A06F11D0100F00F000BF0B9
:10BCE000BDF9D6E700238DF805300293E4E700BFE5
:10BCF000543B002070B582B0314B1B78002B54D1DF
:10BD00000446002855D0067A0F2E01D0062E52D1B7
:10BD100005F0DCFEE06870B1FCF7FEFC0DF10700F9
:10BD2000FFF73AFF0546002840D19DF80730012B68
:10BD300004D002253AE0FCF7FDFCEFE7FCF720FD1C
:10BD400000F0F8FA304601F08DF8E07800F01CF9C8
:10BD500000F08CFE0BF044FE1A480CF00BFD0BF0CB
:10BD600025FB0BF05DF9FFF7F9FD04F0D9FF00F0BA
:10BD7000D9FC05F06BFE05F02FFC204601F0B4FC69
:10BD8000FDF76EFD04F070FAFBF7CCFF08B1062852
:10BD900013D10D4801F036F90C4B18600C4B002202
:10BDA0001A60074B01221A7000E00825284602B0ED
:10BDB00070BD0E25FAE70725F8E70546F6E700BF50
:10BDC000503B002065BC0200EDBB02004C3B002054
:10BDD000543B002010B582B0204B1B78012B0DD0B6
:10BDE0005AB2002A35D0043BDBB2012B33D80BF01A
:10BDF00043FE044628B3204602B010BD01F084FC87
:10BE0000FDF770FDFBF78EFF0446B8B1062815D08C
:10BE1000134B1B6813F4804FEDD0124B1B68012BA2
:10BE2000E9DD114BD3F804350190104A009240F23D
:10BE300089120F49022002F00DFADCE701F03EF80A
:10BE4000D5E7064B02221A700A4B186801F0FAF87F
:10BE5000D1E70824CFE70824CDE700BF503B0020FE
:10BE6000202E00201C2E002000100140C41F0400C2
:10BE70008C1F04004C3B002008B5FDF737FD08BDC2
:10BE800008B501F047F908BD08B5FEF757F808BD39
:10BE900008B500F0B1FD002008BD0000014B18609E
:10BEA000704700BF543B002070470000064A1368EB
:10BEB00001331360B3F1704F02D0034B1868704721
:10BEC000134601221A60F8E7583B002010B50446DB
:10BED00018B100232360636010BD7846FBF7D4FFE0
:10BEE000F7E738B50C46054668B184B100236360B6
:10BEF000EFF3108372B62A686AB16A6854606C60A6
:10BF000003B962B638BD7846FBF7BEFFEDE7784669
:10BF1000FBF7BAFFEAE72C60F1E710B5044658B129
:10BF2000EFF3108372B6206808B14268226022687D
:10BF300032B103B962B610BD7846FBF7A5FFEFE753
:10BF40006260F6E710B5044608B1206810BD784677
:10BF5000FBF79AFFF9E735DF7047000008B54FF0AF
:10BF6000FF30FFF7F8FFBFF34F8F0549CA6802F4AF
:10BF7000E062044B1343CB60BFF34F8F00BFFDE77C
:10BF800000ED00E00400FA05072814D8DFE800F00F
:10BF9000080C1504110F0A0664207047142070471E
:10BFA000FA2070471E2070474FF4FA707047322015
:10BFB00070474B207047FA2070479620704700006A
:10BFC000024B5868103840B2704700BF00ED00E0E7
:10BFD000034600280FDB5B11084A52F82330424227
:10BFE00000F01F0002F01F0258BF504223FA00F079
:10BFF00000F00100704700F11F03ECE700E100E0F2
:10C0000046DF7047F8B504460D464B1EDBB2012BE8
:10C0100009D8002323616361A361E3612046FFF730
:10C02000EFFF012016E07846FBF72EFFF1E7CA5C30
:10C03000CE185200D2B2767842EAD612CA540133F0
:10C040009BB20E2BF3D9CB7B5B00CB73002F08DBAD
:10C050000130C0B2A8420BD8214611F9207F00233D
:10C06000EFE794F82F3083F0870384F82F30EFE761
:10C07000F8BD2DE9F04190B084460C4696461F4627
:10C0800002F10F084FEA281604AD0068DCF804102E
:10C09000DCF80820DCF80C300FC50EF00F055FEA65
:10C0A000181302D07DB1002300E00023984663B14D
:10C0B000012104A8FFF7A6FFB8F1000F1AD0701EE7
:10C0C000000110230EE00123F0E70221F1E7013B1C
:10C0D0009BB22218D25C10A9194411F8101C4A40D6
:10C0E0000DF80320002BF2D100250C950D950E952F
:10C0F0000F9533E0711EADB22A4604EB011168467C
:10C1000015F0AFF980230DF805306B1C03E0002219
:10C110000DF8032001330F2BF9DD10230AE0013B5A
:10C120009BB21DF8032010A9194411F8101C4A40B5
:10C130000DF80320002BF2D1D6E7013A92B210ABF2
:10C14000134413F8100C63189B5C584008AB9854C8
:10C15000002AF2D104A8FFF753FF0135731EAB424A
:10C1600002DD29011022F3E710230AE0013B9BB214
:10C1700010AAD11811F8402C11F8101C4A4008A937
:10C18000CA54002BF2D104A8FFF73AFF0CAC0FCC35
:10C1900038607960BA60FB6010B0BDE8F0810000E3
:10C1A00010B50446134B1B6893B14168114B1B68D3
:10C1B0005B68CB1A002B0BDB0E4B1B6818465B69C8
:10C1C0001BB15A68521A002AF8DB6361446103E02C
:10C1D000084B1A6862611C60064A93889BB201335F
:10C1E0009BB2938013B10123237010BD7846FBF7F7
:10C1F0004BFEF8E7603B002038B505461CE078466A
:10C20000FBF742FE6369204A136000236361938851
:10C210009BB2591E89B29180F3B1A36803B3022384
:10C220002370A36821692846984700F0FFF8054667
:10C230002378DBB2022B17D0134B1B681BB3124BB6
:10C240001B685B685B1B642B1DD50F4B1C68237838
:10C25000DBB2012BD6D0D2E77846FBF715FEDCE740
:10C260007846FBF711FEDAE7E26812B90023237083
:10C27000E2E76368134463605B1B642BF9D42046D8
:10C28000FFF78EFFD8E738BD603B002010B50446AD
:10C29000144B1B68834207D0124B1B68D3B15A69F9
:10C2A000A2420ED01346F9E743690E4A1360938801
:10C2B0009BB2591E89B2918063B97846FBF7E4FDC1
:10C2C00008E062695A6107498B889BB25A1E92B294
:10C2D0008A8013B10023237010BD7846FBF7D4FD8C
:10C2E000F8E700BF603B002008B5064B1B6833B180
:10C2F000044B1B680449586800F044F908BD00F07D
:10C300009FF9FBE7603B002025C3020008B500F061
:10C310008DF8FFF771FF00F089F8FFF7E5FF0120C6
:10C3200008BD000008B5024B186800F08BFE08BD80
:10C330005C3B002008B5064B00221A605A60054895
:10C3400000F060FE044B186000F063F808BD00BF09
:10C35000603B00200DC302005C3B002010B504468A
:10C3600000F044FF80B19CB1A368ABB12378DBB28D
:10C37000012B15D0002363612046FFF711FF00F069
:10C3800055F8FFF7B1FF10BD7846FBF77DFDEAE7F2
:10C390007846FBF779FDE7E77846FBF775FDE5E7BB
:10C3A0007846FBF771FDE5E710B5044600F01EFF87
:10C3B00050B16CB12046FFF769FF0023636100F0C4
:10C3C00035F8FFF791FF10BD7846FBF75DFDF0E70C
:10C3D0007846FBF759FDEDE738B504460D4600F009
:10C3E00005FF70B18CB12046FFF750FF0023636159
:10C3F00065602046FFF7D4FE00F018F8FFF774FFE1
:10C4000038BD7846FBF740FDECE77846FBF73CFD8E
:10C41000E9E708B514F074FA00B108BD14F0E2F9C8
:10C420000028FAD07846FBF72FFDF6E770B4EFF35B
:10C43000108172B6184B1A68184BD3F80455D3F80C
:10C440000431012B22D001B962B645EA026500260B
:10C450006B01EA0E5B1B62EB0602510241EAD3510B
:10C460005802431941EB0600810141EA93619A01A8
:10C47000D31A61EB00005B1946EB000013F5804313
:10C480007041DB0B43EA404070BC7047034BD3F86C
:10C4900004550132D7E700BF683B0020001001407F
:10C4A00010B50A4B4FF40032C3F84823C3F80823F1
:10C4B000074B1B682BB1064B1C68FFF7B7FFA04763
:10C4C00010BD7846FBF7E0FCF5E700BF0010014027
:10C4D000743B0020EFF3108172B6254B0022C3F8A5
:10C4E0000421244A13680133136001B962B6224B58
:10C4F0001B68002B3AD0204B1A68013A1A601B685F
:10C50000002B33D103F1804303F58833D3F804259E
:10C510001A4B1B689A421BD2EFF3108272B6144B6F
:10C52000D3F80435981C1549096888420DD30333A4
:10C530000F49C1F8443502B962B60D4B4FF40032D1
:10C54000C3F84423C3F8042370470C4B1B68EFE780
:10C5500010B50B4B1B682BB1094B1C68FFF766FF2E
:10C56000A04710BD7846FBF78FFCF5E7704700BF8A
:10C5700000100140683B00206C3B0020703B002015
:10C58000743B002030B583B00446002301930D4670
:10C59000002936D0244B1D60FFF748FF031B002BFA
:10C5A00033DB0023590CD803204C214A0023001907
:10C5B0004FF0000444EB010114F0FAFDEFF3108397
:10C5C000019372B61B4BD3F80435032838BF032000
:10C5D000C3F1FF1202F57F42824218D30344154A89
:10C5E000C2F844354FF40033C2F84433C2F8043380
:10C5F000114A1460114A1460019B03B962B603B07A
:10C6000030BD7846FBF740FCC4E7231ACAE7034471
:10C6100003F17F4301331A0E013207490A6023F008
:10C620007F43064A1360E7E7743B002020A1070020
:10C6300040420F00001001406C3B0020703B002086
:10C64000074B4FF40032C3F84823C3F808230023F4
:10C65000044A1360044A1360044A1360704700BF21
:10C66000001001406C3B0020703B0020743B002018
:10C6700030DF704731DF704710B40346026840680E
:10C68000A2EB70129C6880EAF4301860D9680C4400
:10C690005C60114499601044D8605DF8044B7047A9
:10C6A00070B582B00D46064608B100240BE078460E
:10C6B000FBF7EAFBF9E79DF807103019FFF7DAFFFF
:10C6C0009DF807301C44A5420DD90DF10700FFF776
:10C6D000CFFF9DF80730002BF7D02A1B9342EAD9F1
:10C6E0008DF80720E7E702B070BD000030B583B0D9
:10C6F00005460024019404210DEB0100FFF7D0FF53
:10C70000074B2B60019B6B60AB60EB6003E028463E
:10C71000FFF7B2FF0134132CF9D903B030BD00BFCD
:10C72000ED5EEAF1704708B5032004F08DFB08BD0B
:10C7300048DF704749DF70474ADF7047044B0122EA
:10C740005A7143F2B0629A6043F69822DA607047F9
:10C75000D43B0020094B03221A74094A5A611A6813
:10C7600040F6D8639A4204D9054B43F2B0629A600E
:10C770007047034B40F6D8629A607047B43B002084
:10C78000D43B002008B50F4B1B78022B12D0032B93
:10C7900008D0012B03D07846FBF776FB0EE002238E
:10C7A00003740BE0084B00225A710849996008494C
:10C7B000D960827103230374034B4361014B002250
:10C7C0001A7008BDE53B0020D43B0020A086010084
:10C7D000FF1FA10738B504460025057401234371E6
:10C7E0000E4A13680133136000F0C4FA0BF00AFA22
:10C7F00023680B4A1168283101FB03F1094AA2FBA7
:10C800000121A3EB9141084A7839284600F02EFA1D
:10C8100000B938BD7846FBF737FBFAE7E83B002064
:10C82000D03B002083DE1B4355C7020010B50446F1
:10C8300000238360C36003680D4A926802608179B7
:10C8400091B10121017403B90A4B991A6161B1F5E3
:10C850007A7F01D39A4202D94FF47A736361FFF76A
:10C860006DFF0123A37110BDFFF7B4FFF7E700BF11
:10C87000D43B00208096980010B50C4631B1C368B7
:10C880000133C36042690368134403608368013362
:10C89000836001220274426952084261012B0DD06B
:10C8A000022B19D042690368134417498B4222D8DE
:10C8B00040F6D7639A4221D800231DE0B2F5FA7FF3
:10C8C00005D040F6D8639A42ECD84361EAE7002CE1
:10C8D000F7D100234361E5E7C368022B06D0012BA3
:10C8E000E0D1002CDED100234361DBE70268064B78
:10C8F0009B1A4361D6E7002313B110BD0123FBE768
:10C90000FFF768FFF9E700BF8096980043791BB9ED
:10C910000D4B00221A70704710B504460BF08EF9CB
:10C9200023680A4A1068283003FB00F0084AA2FB7B
:10C930000020A3EB9040783800F04CFA002363719C
:10C94000014B00221A7010BDE43B0020D03B0020B8
:10C9500083DE1B4308B5254B01221A71244B1B783B
:10C9600013B1244B1B781BB3204B00221A740428EC
:10C970001AD8DFE800F00314110C07001B48FFF77A
:10C9800055FF1CE001211948FFF776FF17E0002151
:10C990001648FFF771FF12E00BF0E0F80FE000F02F
:10C9A000ABF90BF015F90AE07846FBF76DFA06E0F3
:10C9B00000F082F90D4B18601846FFF7E3FE0B4BB1
:10C9C0001B7C023BDBB2012B08D9084B1B7C022BE2
:10C9D00008D0064800230371103008BD0348FFF754
:10C9E00095FFF2E7014B01221A76F2E7B43B0020F3
:10C9F000E53B0020E43B002008B50438042814D8A7
:10CA0000DFE800F0182614030E00164B1B7E012BE6
:10CA10000BD1FFF78FFE40B17846FBF735FA04E003
:10CA2000104B00221A760BF031F908BD7846FBF75F
:10CA30002BFAFAE7FFF782FE0B4840F6D8638360D3
:10CA4000FFF77AFE0028F0D07846FBF71DFAECE7F6
:10CA50000548FFF771FE0028E7D07846FBF714FA87
:10CA6000E3E700BFB43B0020D43B002010B40E4AE3
:10CA70000023137013710121517143F2B06494606B
:10CA800043F69824D460094A1060094A1370094A91
:10CA90001370094A1360094A1371537113601376B6
:10CAA00091715DF8044B7047D43B0020D03B0020CF
:10CAB000E43B0020E53B0020E83B0020B43B0020A5
:10CAC00008B5104B1B7E012B08D0022B17D00BB1E1
:10CAD000002008BD0C48FFF72BFE40B90B48FFF7BC
