:020000022000DC
:1070000000F003206D7302005573020057730200F5
:10701000597302005B7302005D7302000000000000
:107020000000000000000000000000005F7302008C
:1070300061730200000000006373020065730200C8
:1070400067730200677302006773020067730200D0
:107050006773020067730200757B020067730200AA
:1070600067730200A1A60300F175030067730200B5
:1070700067730200677302006773020067730200A0
:10708000677302006508040051CE020067730200B6
:10709000C908040067730200059E030067730200BD
:1070A0006773020067730200677302006773020070
:1070B000BDA4030067730200000000000000000090
:1070C0006773020067730200677302006773020050
:1070D0006773020005AA030067730200677302006A
:1070E000677302006773020067730200000000000C
:1070F00000000000677302000000000067730200D8
:10710000000000000000000000000000000000007F
:10711000000000000000000000000000000000006F
:10712000000000000000000000000000000000005F
:10713000000000000000000000000000000000004F
:10714000000000000000000000000000000000003F
:10715000000000000000000000000000000000002F
:10716000000000000000000000000000000000001F
:10717000000000000000000000000000000000000F
:1071800000000000000000000000000000000000FF
:1071900000000000000000000000000000000000EF
:1071A00000000000000000000000000000000000DF
:1071B00000000000000000000000000000000000CF
:1071C00000000000000000000000000000000000BF
:1071D00000000000000000000000000000000000AF
:1071E000000000000000000000000000000000009F
:1071F000000000000000000000000000000000008F
:10720000344935480A1A02D0072291438D46334942
:1072100033480A1A06D00722914381F309880222D3
:1072200082F314882F483049304A00F042F8304841
:107230003049314A00F03DF830483149314A00F0D8
:1072400038F831483149324A00F033F83148324990
:10725000324A00F02EF832483249334A00F029F819
:1072600032483349334A00F024F833483349002286
:1072700000F02AF832483349002200F025F832485D
:107280003249091A082902DB0022026041601F48C6
:107290001F49884205D00268043003B4904703BCFC
:1072A000F7E700208646EC4600200021284A904758
:1072B000FEE7884207D0521A05D0037801300B70E0
:1072C0000131013AF9D17047884202D00270013091
:1072D000FAE7704700F0032000E8032000F00320E5
:1072E00000F00320CC310400002E0020642E00208A
:1072F000A0730200A07302006E160400CC310400DB
:10730000002E0020002E002084190400841904009F
:1073100084190400841904008419040084190400E9
:107320008419040084190400CC31040030320400B4
:10733000642E0020642E0020642E0020C05A0020FD
:10734000C05A0020C05A0020C05A0020C05E002051
:1073500065780200FEE7FEE7FEE7FEE7FEE7FEE7F0
:10736000FEE7FEE7FEE7FEE700F002B8FFF7FCBF2E
:1073700008484FF00701884385460748804707487B
:10738000016841F470010160BFF34F8FBFF36F8F4D
:10739000FFF736BF00F00320799F030088ED00E07F
:1073A00041DF7047024A136864331360704700BFBF
:1073B000642F002010B54FF0A0434FF40052C3F8E3
:1073C00008250022C3F80C2544680C4920461AF011
:1073D000A0F868B1E279237A1B0403EB0263627AB6
:1073E00003EB0223A27A1344054A12689A4200D39F
:1073F00010BD002000F0C8FEFAE700BF84190400A9
:10740000642F002000B583B00F4B1B6813F4804F2E
:1074100003D00E4B1B68032B0ADC0322C8214FF458
:10742000F03000F043FB0AF053FA03B05DF804FBC0
:10743000074BD3F80435074A0092D12206490420AD
:1074400006F03EFDE9E700BF1C2E0020182E0020AC
:1074500000100140D0190400C919040008B50378D0
:10746000232B00D008BDFFF7CDFFFBE708B5402375
:10747000024A002102480FF051FF08BD642E00208F
:10748000A42E002000B58DB02422002103A81AF0FC
:1074900089F801238DF80C3007238DF80F300F2366
:1074A0008DF81430204B0793204903A80AF0CEF939
:1074B00060B30B2829D11E4B1B6813F4804F03D0F7
:1074C0001C4B1B68032B14DC194B1B6813F4804FF7
:1074D0001CD0184B1B68032B18DD174BD3F8043551
:1074E000164A00924FF485721549042006F0E8FC14
:1074F0000CE0114BD3F80435124A009240F2091205
:107500000F49042006F0DCFCDEE738B90E4804F031
:10751000FBFAFFF7ABFF0DB05DF804FB0B4A40F23E
:107520000F1112F021FEF1E75D740200402F0020E0
:107530001C2E0020182E002000100140441A0400C8
:10754000C9190400F0190400B57302008C19040075
:1075500000B583B019F0BCF900BB00F0EBFA1E4A8D
:1075600004214FF4804006F08FFC1C4B1B6813F481
:10757000804F03D01A4B1B68032B15DC00F0CEFBA9
:10758000FFF780FF154B1B6813F4804F03D0144B9B
:107590001B68032B14DC03B05DF804FB114A40F2B6
:1075A0001F1112F0E1FDD8E70F4BD3F804350F4A55
:1075B000009240F223120E49042006F081FCDDE720
:1075C000094BD3F804350B4A009240F229120849BE
:1075D000042006F075FCDEE75DDE02001C2E0020B4
:1075E000182E00208C19040000100140881A040095
:1075F000C9190400C81A040008B500F08DFA08BDC6
:1076000010B5044600214FF4F03000F043FA04EBCB
:107610008404620032214FF4C03000F047FA10BDFC
:1076200000B585B003A80EF0C3F90D4B1B6813F429
:10763000804F03D00B4B1B68032B02DC05B05DF8B9
:1076400004FB094BD3F80435BDF80C200192074A1E
:107650000092F0220649042006F032FCEEE700BF5B
:107660001C2E0020182E002000100140E81A0400F3
:10767000C919040000B583B0124B1B6813F4804F86
:1076800003D0114B1B68032B11DCFFF7C9FF00F07F
:1076900043FA00214FF4F03000F0FCF90422C82135
:1076A0004FF4F03000F002FA03B05DF804FB074B32
:1076B000D3F80435064A0092F5220649042006F064
:1076C000FFFBE2E71C2E0020182E002000100140D6
:1076D000081B0400C919040010B509200FF06EFB47
:1076E0000C4C20460FF0A0FC072120460FF0D5FCE3
:1076F00070B10146084B1868C1F811009A889B794F
:10770000A1F81520CB7501230B7120460FF002FD67
:1077100010BD00BFA42E0020281B040000B58BB0B4
:10772000204B1B78ABB9039306931F4B04931F4B5D
:1077300005931F4B07931F4B08931F4B099303A8F7
:1077400000F038F938B11D4A40F2391112F00CFD41
:1077500001E0FFF765FFFFF7BFFF00F043FE00F019
:107760003FFA0AF003F858B9154B1B6813F4804F21
:1077700003D0144B1B68032B08DC0BB05DF804FB33
:107780000E4A40F2471112F0EFFCEDE70E4BD3F832
:1077900004350E4A009240F249120D49042006F0C9
:1077A0008FFBEAE7402F0020757602000176020089
:1077B000F9750200301B0400781B04008C190400CA
:1077C0001C2E0020182E002000100140481B040031
:1077D000C919040010B584B009200FF0EFFA1F4C4E
:1077E00020460FF062FD0A238DF8043009238DF83E
:1077F000053053238DF8063057238DF80730412389
:107800008DF8083052238DF809304D238DF80A3059
:10781000134B1B681A0E8DF80B201A0C8DF80C20D8
:107820001A0A8DF80D208DF80E300B2120460FF02E
:1078300034FC88B1034601AA03CAC3F81100C3F897
:10784000151011889278A3F81910DA7601221A71AE
:10785000194620460FF05EFC04B010BDA42E002097
:10786000642F002008B5FFF773FEFFF757FF00F005
:10787000A5FB00F071FB164A0121164819F062F8C9
:1078800048B9002240F6CD41134819F071F880B193
:1078900012F05CFC0DE012F059FCF2E700F06EFC17
:1078A00040F6330398420DDCFFF794FF0AE0FFF740
:1078B00077FD00F049FC00F061FC00F05FFCB0F5E2
:1078C000026FEBDC04F012F90028F2D0EFE700BF02
:1078D000A5730200741B0400442F002008B507495B
:1078E000074813F0AFFD00B108BD01230022054990
:1078F0004969054813F0C2FDF6E700BF882F002054
:10790000A43200206C2F00207031002008B50378CD
:10791000023B082B41D8DFE803F01C051140402E44
:10792000404038001F4B9B68002B36D0007A00285F
:1079300033D01D4A0121117098472EE0194BDB68A6
:107940005BB3194A127842B3174A00211170984765
:1079500023E0164B1B784BB9124B1B691BB1124A23
:10796000002111709847FFF7B9FF16E00D4B5B68D7
:107970009BB1984711E010220A4B99690C4813F00B
:1079800007FE50B112F0E2FB07E08168C06809F021
:10799000F1FE18B9054B01221A7008BD12F0D6FB92
:1079A000F8E700BF6C2F0020682F0020692F00200F
:1079B0007031002070B586B00446174A03AB07CA81
:1079C00003C323F8022B120C1A70144E35460FCC49
:1079D0000FC594E8070085E80700B369D3B1104BE1
:1079E000009303AB0F4A1049104813F0E9FC03461B
:1079F00010B1184606B070BD0D4815F037FA0146B3
:107A00000A4813F009FD03460028F2D1FFF766FF8C
:107A10000346EEE70723ECE7881B04006C2F0020E9
:107A20000D790200882F0020A43200207031002040
:107A3000A82F002008B5134B1B6873B14FF0A0426C
:107A4000D2F80435104909684B40C2F804350D4A94
:107A50001368013B136023B108BD002012F076FBD0
:107A6000ECE70A4818F0A6FF4FF0A042D2F8043520
:107A70000549096823EA0103054909680B43C2F86F
:107A80000435E9E7E4320020E8320020EC3200203F
:107A90001433002021B14FF0A043C3F80C05704708
:107AA0004FF0A043C3F80805704700005AB338B53B
:107AB0001346132900D838BD134A10605B00013B00
:107AC000124A13604FF0A043D3F804351840104B0E
:107AD000186000254C0CC8034FF47A72002310F58F
:107AE000FA7044EB050119F0DBFB01462A46094810
:107AF00018F03EFF0028DED1034B1A684FF0A04378
:107B0000C3F80C25D7E77047E8320020E4320020A4
:107B100014330020EC32002008B5044818F04AFF66
:107B20000021034B1868FFF7B5FF08BDEC320020B9
:107B3000E832002008B50D230BE04FF0A04103F51B
:107B4000E072032041F8220001229A40C1F8082582
:107B50000133102BF1D9054A0121054818F0F2FE36
:107B600000B908BD12F0F2FAFBE700BF357A020057
:107B7000941B040010B50024144BC3F87C4103E0AF
:107B8000D11A14E00134E4B2032C1ED84FF0A04304
:107B9000D3F810250E4B195D01238B409343F1D090
:107BA0000C4B1B680C4AD2F80425991AE8D443F20E
:107BB00033339942E6D9084BD3F80425054B1A60B4
:107BC000064B1B6820469847DCE710BD006000406C
:107BD000981B040010330020001001400C330020DB
:107BE000002800F082802DE9F04FD1B004463F4BD1
:107BF0001B6813F4804F03D03D4B1B68032B0BDC39
:107C00003A4B1B6813F4804F03D0394B1B68032B8E
:107C10002ADC51B0BDE8F08F00230F2B0FD8E25CB7
:107C200034490D68100959002E5C0FA800F8136044
:107C300002F00F020131AA5C42540133EDE70FAAB2
:107C400000238DF85C3003F1804303F58833D3F8CB
:107C500004350292284A0192284A00924222284979
:107C6000042006F02DF9CBE7264BD3F804350D930D
:107C70002068020202F47F0242EA0062010A01F473
:107C80007F4142EA010CA5882A0292B2E6883102BD
:107C900089B2277A637A94F80AE094F80B8094F812
:107CA0000C9094F80DA094F80EB0E47B0B94CDF8F2
:107CB00028B0CDF824A0CDF82090CDF81C80CDF8C8
:107CC00018E00593049741EA1621039142EA152230
:107CD00002924CEA106001900B4A00920D9B4322E5
:107CE0000749042006F0ECF893E770471C2E0020AB
:107CF000182E0020202E0020E81B0400FC1B04008E
:107D0000D51B040000100140041C040060DF704714
:107D100069DF704708B503F0F1FE08BD10B588B003
:107D200012F018F800282DD1234B0793079A0692DA
:107D300000230393049305938DF80C3003A90120CD
:107D4000FFF7E6FF08BB002304930593F823039392
:107D5000069A03A9A120FFF7DBFFC8B906A8FFF721
:107D6000D5FF0446069A079B9A4208D0134B1B681E
:107D700013F4804F03D0124B1B68012B0BDCB4B9FA
:107D800008B010BD12F0E2F9CEE712F0DFF9DAE741
:107D900012F0DCF9E2E70B4BD3F8043501920A4A02
:107DA0000092AB220949022006F08AF8E7E7204654
:107DB00012F0CCF9E4E700BF002E00201C2E0020BA
:107DC000182E002000100140981C04007D1C0400A7
:107DD0000620704700B587B044F20103984262D094
:107DE0001BD8012836D041F20103984276D1474B87
:107DF0001B6813F4804F36D0454B1B68002B32DDD7
:107E0000444BD3F8043502920191434A0092632215
:107E10004249012006F054F825E044F2020398425A
:107E20005CD13A4B1B6813F4804F1CD0384B1B6855
:107E3000002B18DD374BD3F80435106803905268D7
:107E400002920191364A009269223449012006F0DB
:107E500037F808E02D4B1B6813F4804F03D02C4BF0
:107E60001B68002B12DC4FF0A0434FF4F032C3F834
:107E70001825C3F80C25EFF3108372B64DF6AD6CE0
:107E8000284B1B78002B3ED030BFF9E7214BD3F8AD
:107E9000043502920191244A009260221F49012078
:107EA00006F00EF8DFE7194B1B6813F4804FDAD0A9
:107EB000174B1B68002BD6DD164BD3F80435106822
:107EC000049050680390029192680192174A0092C0
:107ED00073221249012005F0F3FFC4E70B4B1B6826
:107EE00013F4804FBFD00A4B1B68002BBBDD094B3E
:107EF000D3F8043501910E4A00927B2207490120F4
:107F000005F0DEFFAFE707B05DF804FB1C2E002094
:107F1000182E0020001001403C1D04000D1D04001F
:107F2000601D0400002E0020201D0400801D0400A0
:107F3000A41D040000B583B0014600230093054B47
:107F400001936A4644F20200FFF744FF03B05DF874
:107F500004FB00BF041B040010B584B000238DF89F
:107F600008308DF809308DF80A3006228DF80B2084
:107F700003930E4A02A90E4812F0CEFA90B90D4BA7
:107F8000D3F81025D2B20A4C012300930A4921FAF2
:107F900002F20021204612F067FB204612F038FB67
:107FA00004B010BD12F0D2F8E9E700BF2D81020045
:107FB000E01D040000900040006A180000B585B084
:107FC000084A01AB07CA83E80700002219460648A1
:107FD00012F0B4F910B905B05DF804FB12F0B6F870
:107FE000F9E700BFC01D0400042E002000000000BF
:107FF00008B5084619F00EF810A3D3E9002318F0CD
:10800000E1FE18F0E1FF63280BDD094B64221A80C2
:108010005A809A80022301220649074812F00EFA7C
:1080200008BD80B2024B188058809880F2E700BFEC
:1080300030330020E81D0400042E002066666666CA
:108040006666044008B518F0CBFC4FF47A7303FB66
:1080500000F0C00B08BD000010B5FFF7F3FF0F4B99
:1080600018600F4B1B78ABB10E4B1B68C31A0E4C3C
:10807000226813440D4981FB0321DA17C2EBA122C8
:1080800040F6980101FB12322260064B1860064B45
:10809000186810BD044B00221A60F6E71833002060
:1080A0001C330020203300202C3300207307287756
:1080B00010B5044601460820FFF79AFF21460C2020
:1080C000FFF796FF204600F0C3F810BD0000000047
:1080D00008B518F09FFF13A3D3E9002318F0D6FDCD
:1080E00018F0C6FF18F0AAFF41EC100B18F0F4FFCF
:1080F00051EC100B0022084B18F0A2FC0022074B99
:1081000018F0C4FD0022064B18F09AFC18F05CFF32
:10811000FFF7CEFF08BD00BF0000F03F00805E40CB
:10812000000024400EF338BD7365673FB0F5A07FB3
:1081300000D0704708B5FFF78FFF024B1868FFF7B4
:10814000C7FF08BD2C33002008B5FFF77BFF074AA7
:108150001368C31A06490B601060FFF773FF054BE5
:108160001860054B01221A7008BD00BF283300209B
:1081700024330020183300201C330020014B1868E2
:10818000704700BF2C330020014B1860704700BFC0
:108190002C3300207047000008B512F0F9FB12F0F4
:1081A0000FFC024B00221A7008BD00BFE034002013
:1081B000E8B130B40546FF281CD000234FF08830CA
:1081C00001E00133DBB2072B0DD845FA03F212F0C0
:1081D000010FF6D09C000F21A1400E22A24020EA00
:1081E00001001043EDE74FEA304030BC70474FF0DC
:1081F000883070474FF0EE30F7E700002DE9F84384
:10820000814688461746002412E04046FFF7D0FF1B
:108210000E4D45F82400661C4846FFF7C9FF45F897
:108220002600A61C3846FFF7C3FF45F82600033496
:10823000592CEADD5A235F2B05DC044A002142F861
:1082400023100133F7E7BDE8F88300BF3C3300207B
:10825000F0B52DED028B8BB008EE100A3D4B1B786C
:1082600083B3B8EEC88A9FED3C7AC8EE077A3B4BE1
:10827000C3ED007A27EE877ABCEEC77A8DED017ADE
:108280009DF804409FED367A27EE877ABCEEC77AD8
:108290008DED017A9DF804509FED327A67EE877A72
:1082A000FCEEE77ACDED017A9DF804603246214676
:1082B0002846FFF7A3FF2C4B1B78CBB10BB0BDECCE
:1082C000028BF0BD294A0121294818F03BFB48B92F
:1082D00000224221274818F04BFB30B91D4B0122E8
:1082E0001A70BEE711F032FFF2E711F02FFFF5E749
:1082F00005AFDFF88CC0BCE80F000FC7DCF800301A
:108300003B6000238DF8183006228DF817204FF0BF
:10831000C05208928DF824308DF81E30164905A8F9
:1083200012F05AFA90B901270A4B1F7000220392EB
:10833000124B0493602103A812F0B0FA324629468A
:108340002046FFF75BFF084B1F70B7E711F0FEFEFA
:10835000E9E700BF3833002000007F43BC34002031
:108360000000000000007042E0340020998102000B
:108370000C1E0400C0340020958102003C33002014
:10838000F81D040010B40346044C006859689A684C
:10839000DB680FC45DF8044B704700BFE434002075
:1083A0000D4B0E4A92E8030083E8030003F1080234
:1083B0000B4903C982E8030093F9062002F00F027B
:1083C00042F040029A7193F9082002F03F0242F015
:1083D00080021A72704700BFE43400206000001071
:1083E000A400001000487047E434002000231F2B35
:1083F00009D8074901EBC30000224280426001F81E
:1084000033200133F3E7034B00221A60704700BFAB
:10841000F4340020F435002030B405460F4B1B68BF
:1084200000240AE01F230E4A12F83300A0B102EB29
:10843000C3025288AA4207D001341F2C0BD85A1EFF
:10844000002BEFD01346EEE7054A02EBC302526859
:108450008A42F1D100E0002030BC7047F4350020A2
:10846000F434002030B40A4A13680A4C04EBC30504
:1084700068806960012104F833100B441360202BDD
:1084800001D030BC7047134600221A60F9E700BFE4
:10849000F4350020F4340020F0B414461D460023C7
:1084A00000E00133072B0ED81A0108498A5A82428C
:1084B000F7D101EB0312D2E90267AF4208BFA6422F
:1084C000EFD1012000E00020F0BC7047F83500201B
:1084D00030B4C1698269C3880D0A0C06C2F30C016D
:1084E000994216D25B1A1344A3F50053E41845F1E0
:1084F0000005094A1368591C116003F00703808ABC
:10850000064A190102EB03135052C3E9024530BC7D
:1085100070475B1A1344E9E778360020F8350020ED
:10852000C37D002B42D0C3780A7802F0800203F0AA
:108530007F0313430B7002780B7803F07F0343EA49
:10854000C2130B700378002B41D030B48378082B12
:1085500014BF002201224B7803F07F0343EAC213C9
:108560004B70C58803F08003C5F3861423434B701A
:108570008A7802F0030242EA8502D2B28A70057A52
:1085800002F0FC02C5F3C10422438A70CB7803F0E9
:108590001F0343EA4513DBB2CB70427A03F0E003DA
:1085A00002F01F021343CB7030BC7047C3780A78C7
:1085B00002F0BF029B0103F0400313430B700279EA
:1085C00003F0C00302F03F0213430B70B3E77047A0
:1085D0000023032B31D810B402E00133032B28D839
:1085E000C3EBC302164C04EB021292F84820012A96
:1085F000F3D1C3EBC30204EB0212948AC289944202
:10860000EBD1C3EBC3020E4C04EB0212D2888A42B8
:10861000E3D1C3EBC30204EB0212B2F8582012B14B
:10862000848AA242D9D1C3EBC303054800EB0310EF
:1086300000E000205DF8044B70470020704700BF49
:10864000A4360020002300E00133032B16D8C3EB2F
:10865000C3020B4901EB021292F84820022AF3D11F
:10866000C3EBC30201EB0212918A828A9142EBD1E1
:10867000C3EBC303024800EB0310704700207047B0
:10868000A436002008B9042070470820704730B491
:1086900003460C460978C17000214162A1680B298C
:1086A00003D8217BF9B1012100E0012119700020DC
:1086B000987029B1A1680731C90801395972187237
:1086C0000121D97503F10C056169206985E8030072
:1086D000E1899982A1691962217F9975216AD9621C
:1086E0009A6230BC70470021E0E700000021164B81
:1086F0001B688B4226D90023144A02EBC102526840
:108700009A421DD910B4114A52F8312002EBC30429
:1087100012F8332082420DD001330C4A02EBC10221
:1087200052689A42EFD80131074B1B688B4205D93A
:108730000023F2E760685DF8044B70470020FAE719
:108740000131D4E7002070477C36002080360020BD
:1087500070B58CB006460D4614462C22002101A8A7
:1087600018F020FF0F238DF80430ADF808604FF0AB
:10877000000365F300038DF80A308DF80B4001A863
:1087800001F0EAF90CB070BD30B58DB005460C466D
:108790002C22002101A818F005FF10238DF80430C9
:1087A00002958DF80C4001A801F0D6F90DB030BD4E
:1087B00000B58DB010B913F1020F06D1074B186840
:1087C00004F076FA0DB05DF804FB01218DF8041079
:1087D0000293039201A801F0BFF9EFE78836002069
:1087E000F8B5069C002960D01E460F4615685168F2
:1087F000D2F808C0D368E5602161C4F814C0A36151
:1088000015695169E5612162002363700278D2091C
:1088100022705AB30423BB4249D8E17D41B30378A7
:1088200003F07F03E3700023A3709AB143789B01A8
:1088300003F4FE53827843EA9203E3808378DB00FB
:1088400003F01803C27843EA52132372C37803F08B
:108850001F036372002363623378032B21D83278BD
:10886000144B53F82230E3620020F8BD0123D2E715
:108870000178C1F38011E170017801F03F012171AD
:1088800042B190F90130002B02DB0423A370CCE746
:108890000823FBE70421A1700B44BB42C5D9092082
:1088A000E3E77846FFF746FBD9E70920DDE7092033
:1088B000DBE700BF981F040070B50C461D46037827
:1088C0009BB104263244A26000F10C032360836A4A
:1088D0006360C36AE36000232374204604F050FD04
:1088E00010B963691E442E6070BD0126EAE72DE9C8
:1088F000F0418EB00D4616461C46804600282DD00D
:10890000002D2FD0002C31D0636A0233059304F17F
:108910000C00E378002B2DD00121A27801AF3B465B
:10892000082A14BF0022012204F007FB0697CDF8A5
:108930001C80B2B2ADF820200B9515440C95A3789D
:108940008DF83430237B022B16D00023ADF828306D
:1089500005A804F0EAFA0EB0BDE8F0817846FFF70A
:10896000E9FACDE77846FFF7E5FACBE77846FFF777
:10897000E1FAC9E70221D0E723692BB12369099302
:108980001023ADF82830E3E77846FFF7D3FAF5E790
:108990002DE9F04188B004460D46C37D002B3CD044
:1089A000082605FB06F8637AAB4238D0257201AB86
:1089B000324602A92046FFF77FFF074648BB4DB964
:1089C00094F8533033B9A369C3F30C03E380012354
:1089D00084F85330E37D7BB994F8523063B91DBB02
:1089E000E06EB4F84A10A27823468A1A0146FFF7CF
:1089F0007EFF012384F8523007992046FFF790FD4F
:108A0000E16E32464144019818F0A3FD02A804F03B
:108A1000DDFC384608B0BDE8F0810C26C1E7B4F8AB
:108A20004A60A6EB0806C1E77846FFF783FAD7E766
:108A300070B505460E4609B100230B6095F850400D
:108A4000002104E0631C85F850300134E4B26B7AF5
:108A5000A34210D3EA6C0123A3401A42F5D1214668
:108A60002846FFF795FF014628B9002EEAD0336863
:108A700001333360E6E7084670BDF0B589B00446BF
:108A80000E46154683789A18C37D63B10B239A422C
:108A900021D801AB02A92046FFF70EFF074620B1FF
:108AA000384609B0F0BD0F23F1E707992046FFF7DC
:108AB00037FDE37D43B12A463146019818F049FD60
:108AC00002A804F083FCEBE723462A4601993046CE
:108AD000FFF70DFFF4E70927E2E7000010B50446B1
:108AE00090F84830012B0CD103F0D6FA237B012BF0
:108AF0000BD0094BD968014404F1300003F0A2FA0D
:108B000010BD7846FFF716FAEEE7A17D024BDA6852
:108B10001B6903FB0121EEE78C36002030B583B0E2
:108B2000002403E02846FFF7D9FF0134032C18D8AE
:108B3000C4EBC4030C4A02EB031393F84830012B37
:108B4000F3D100230193C4EBC40502EB051501A981
:108B50002846FFF76DFF0428E4D0019B002BE4D0EA
:108B6000E0E703B030BD00BFA436002038B50446AE
:108B700090F84830022B09D1064B1D6803F08CFA9F
:108B8000411904F1300003F05DFA38BD7846FFF773
:108B9000D1F9F1E78C36002038B5044690F848301A
:108BA000022B10D10A4B5D7D5A689B6803FB05259B
:108BB00003F072FA411904F1500003F043FA012363
:108BC00084F8683038BD7846FFF7B4F9EAE700BFAB
:108BD0008C36002010B50446808A02F009FE012878
:108BE0001CD1237BE3B194F91620002A1ADBE27D25
:108BF0004AB1022B18D094F90330002B16DBA3786E
:108C0000B3B900200BE0E2780AB9012B12D1237826
:108C100093B9A378042B11D1002000E0102010BDDF
:108C20001020FCE70720FAE71020F8E70720F6E716
:108C30000720F4E70720F2E70020F0E70720EEE73F
:108C400038B5044603784BB1C388C2698169808A0C
:108C500006F06AFB054645B9284638BDC2698169F8
:108C6000808A06F05BFB0546F5E7E169002201F02A
:108C70000101A08AFFF76CFDEEE700002DE9F04747
:108C800080460E4617464B1EDBB2012B0FD8B7F5B8
:108C9000C07F10D80024032C1AD8C4EBC403314A77
:108CA00002EB031393F848304BB10134F3E77846F5
:108CB000FFF740F9EBE77846FFF73CF9EAE7C4EB4A
:108CC000C40502EB0515384608F037FDE86600E0FC
:108CD00000255DB3EB6E002B42D043462C4608F1D5
:108CE000300ED3F800C058689968DA68C4F800C03C
:108CF0006060A160E260103310347345F1D100234D
:108D0000EB64A5F84A70012E13D06FF00103AB623B
:108D1000002385F86830144BAB652D66134BAB63AD
:108D20002D64012002F036FA85F848602846BDE837
:108D3000F0870F4B1B7D85F85130002385F85230AA
:108D400085F8533085F85030D8F828206A65A5F8A2
:108D500058306FF00103AB62064BAB632D64E0E764
:108D60001D46E3E7A436002063970200AD900200A1
:108D70008C360020F990020000B585B000228DF8F5
:108D80000F20A0B10B46024602320A600DF10F011E
:108D9000184604F0CEF89DF80F3043B10C4B1B6819
:108DA00013F0040F03D00B4B1B68032B04DC9DF85E
:108DB0000F0005B05DF804FB074BD3F80435074AF4
:108DC000009240F215420649042005F079F8EEE7DA
:108DD0001C2E0020182E002000100140501E040000
:108DE000441E04002DE9F0438FB004460E4615469C
:108DF0001F46D0F8188003784BB1C288C8F30C0323
:108E0000934241D2D21A4244A2F50052A26104F127
:108E10000C00E378002B3AD00121A2780DF128094B
:108E20004B46082A14BF0022012204F086F8C4F839
:108E30001880CDF808900396A378EA1A92B2ADF89C
:108E400010203244089207978DF824300023ADF8A3
:108E50001830E3787BB3237B022B1AD025460023FE
:108E600045F8243F2A462179206A0DF0DBFD606A2F
:108E7000A8B101A9FFF780FF002840D12A46217937
:108E8000206A0DF0CFFDF2E7D21A4244BEE702217C
:108E9000C3E71023ADF8183023690593DEE7237B81
:108EA000022B30D104F10C01E0890DF06DFE002899
:108EB000D1D1052024E0237B012B01D005201FE028
:108EC000E389ADF80030A38AADF802300025012D0A
:108ED00013D82146002341F8243F0EAB03EB450392
:108EE00033F8380C0DF0BBFD01A9606AFFF744FFB1
:108EF00008B90135EBE7002002E0052000E0002082
:108F00000FB0BDE8F0830520FAE7000070B5F0B0BF
:108F10000E4614461D4610AB0A4601462046FFF792
:108F200061FF50B1214B1B6813F0040F03D0204B9D
:108F30001B68052B2DDC70B070BD2046FFF780FE4E
:108F40000028F8D103AB01228DF80C20A28AADF8DD
:108F50000E20002204928DF8142010AA0692A17807
:108F6000711AADF81C1008AA93E8030082E8030008
:108F70000AAB2169E06883E80300A37D8DF83830EF
:108F8000236A0C93636A0D930F9505A800F0E4FD26
:108F9000D1E7084BD3F80435074A009240F201723A
:108FA0000649062004F08CFFC5E700BF1C2E0020F8
:108FB000182E002000100140641E0400441E04000E
:108FC00010B50446C06E08F0BCFB04F1300003F09D
:108FD00021F894F84830022B0AD070220021204654
:108FE00018F0E0FA002084F8480002F0D3F810BD31
:108FF00004F1500003F00EF8EFE710B58CB0044612
:1090000090F84830012B0FD101238DF80430636DA7
:10901000029303F041F8039001A800F09DFD204663
:10902000FFF7CEFF0CB010BD7846FEF783FFEBE7ED
:1090300030B585B00D460446A8B194F84830022BEF
:1090400015D02946606DFFF79FFB2046FFF7B8FF5C
:10905000114B1B6813F0040F03D0104B1B68032B3C
:1090600009DC05B030BD7846FEF764FFE5E7204631
:10907000FFF72EFAE5E70A4BD3F8043594F84820B9
:1090800002950192074A009240F2F3120649042029
:1090900004F016FFE5E700BF1C2E0020182E00206C
:1090A00000100140901E0400441E040008B508464C
:1090B0000021FFF7BDFF08BD08B5037B012B02D0DF
:1090C000FFF79BFF08BD0121FFF7B2FFFAE70000A1
:1090D00008B590F8513053B1013B80F8513000236E
:1090E00080F85030034B186803F0E2FD08BDFFF72D
:1090F000E3FFFBE78836002010B50C4691F84830B6
:10910000012B03D12046FFF7E3FF10BD7846FEF7A1
:1091100011FFF7E7062976D1F0B585B01546067838
:10912000B20102F4FE5241788478C3781B0443EA0A
:109130000463047943EA042344791C4376B242EA87
:1091400091012846FFF744FA0746E0B1002E2FDBD5
:10915000C289A98A8A422BD02B4B1B6813F0040FBB
:109160003ED02A4B1B68012B3ADD294BD3F804353E
:1091700002910192274A009240F27B622649022026
:1091800004F09EFE2CE0204B1B6813F0040F27D048
:109190001E4B1B68012B23DD1D4BD3F804351F4AE2
:1091A000009240F277621C49022004F089FE17E029
:1091B000002E17DBFD6C2543FD64BCB13B78D3B1B9
:1091C0007B7A5A1C01239340013B9D4217D000211A
:1091D00087F850103846FFF72BFC3846FFF77EFC27
:1091E00005B0F0BDAB8AA7F85830E3E70321384655
:1091F000FFF71EFFF4E77846FEF79CFEE0E73846EF
:10920000FFF7FBFEECE770471C2E0020182E002015
:1092100000100140E41E0400441E0400B41E0400BB
:109220002DE9F0418AB007460E4614461D46104609
:10923000FFF706FD50B994F80380B8F1000F08D18C
:109240002B46224631463846FFF764FF0AB0BDE898
:10925000F0814046FFF74AFA02460028F6D08DF822
:109260000480236A0793A38AADF8123005AB216905
:10927000E06883E80300A37D8DF820300297039611
:1092800023788DF81030E36A0993294601A89047A6
:10929000DCE710B5547814F0010F03D0D47D14B17D
:1092A000FFF7BEFF10BDFFF731FEFBE708B5013940
:1092B0000130FFF7EEFF08BDF0B5C7B00F46164608
:1092C00082783244C37D2BB14FF4807393427CD3B8
:1092D000002303E04FF4C073F8E70133032B1AD8DF
:1092E000C3EBC3043B4D05EB041494F8481001296B
:1092F000F3D1C3EBC30105EB01118C8A818A8C4247
:10930000EBD1C3EBC30105EB0111CC89C1898C42C0
:10931000E3D1082552E00121FFF7B0FC0446002804
:1093200055D032463946C06E18F013F900234593E4
:1093300045A92046FFF77CFB054608B1042840D12B
:10934000459B0BBB244B1B6813F0040F35D0234BFC
:109350001B68032B31DDB4F84A70802F28BF8027AB
:109360000023BB4214D2E26ED25C1D490D68100985
:1093700059002E5C04A800F8136002F00F020131BE
:10938000AA5C42540133ECE72046FFF7A7FBD9E77C
:1093900004AA002302F8173003F1804303F5883351
:1093A000D3F8043502920F4A01920F4A00924FF40B
:1093B000AC620E49042004F083FD0025284647B026
:1093C000F0BD2046FFF7FCFDF8E70925F6E7042588
:1093D000F4E700BFA43600201C2E0020182E002029
:1093E000202E0020281F0400FC1B0400441E040043
:1093F00070B504460D461646FFF7ECFB30B92378EE
:109400002BB1324629462046FFF756FF70BD324643
:1094100029462046FFF731FBF8E7000038B504463F
:109420000D46CB695B780371CB691B7883F0010330
:10943000C370CB6943628B8A0B2B07D8CB7A002B86
:1094400035D10B7B012B02D0002300E001232370D8
:10945000002B31D0287B02282BD0FFF713F9A07006
:10946000AB8A03440B33174A82FB03235B10013B97
:109470006372002323720023E37504F10C0395E863
:10948000030083E80300AB6923622B89A382AB7AD4
:10949000A3752B6AA362DF23E36228460DF0A2FBCB
:1094A00020B12B78012B0AD0FF23E36238BD0123C2
:1094B000CDE7054B987DD0E70423A370DBE720239D
:1094C000F3E700BFABAAAA2A8C36002010B54FF4F0
:1094D000E0720021134818F065F806F0E3F8002464
:1094E000114B1C6080222146104818F05BF8104B8D
:1094F000104A1A60104A5A604CF250329A600F4972
:10950000D9601A6104221A759C7508225A750C4894
:1095100003F0AEFB0B4B18600B4B1C600B4806F0C6
:10952000B9F910BDA436002078360020F8350020A7
:109530008C36002080969800F049020020A1070098
:1095400055970200883600207C360020B187020043
:1095500008B505F0DBFE08BD98B110B58CB0044627
:10956000036983B1C36983B1836983B101466846E6
:10957000FFF754FFA28A21696846FFF739FF0CB054
:1095800010BD0E2070470E20F9E70E20F7E70E20E1
:10959000F5E7000058B310B590B00A46044643689A
:1095A0003BB383693BB3014604A8FFF770F8134B44
:1095B0001B6813F0040F03D0114B1B68062B06DC4D
:1095C000A268616804A8FFF713FF10B010BD0D4B2F
:1095D000D3F804352278A169029101920A4A0092D7
:1095E00040F603020949072004F06AFCE8E70E2070
:1095F00070470E20E9E70E20E7E700BF1C2E002091
:10960000182E002000100140381F0400441E0400E2
:10961000037B012B01D00020704730B591B0044688
:109620000D46334B1B6813F0040F03D0314B1B68FE
:10963000032B41DC04A900230593CDF81730E28801
:10964000C2F3861092008DF811202A0E8DF8122098
:109650002A0C8DF813202A0A8DF814208DF8155045
:109660006278022A0CBF80221A4642EA00028DF874
:1096700010204FF0060209924FF001028DF82C20C5
:10968000A28AADF82E200C938DF81C300891226A26
:109690000D928DF82830E36A0F9319D0E389ADF865
:1096A0002A30A37DF3B98DF838306FF0010107A897
:1096B000FFF770FF11B030BD0F4BD3F804350F4AE0
:1096C000009240F263220E49042004F0F9FBB1E756
:1096D0000DF10E0103A80DF073FABDF80C30ADF8D2
:1096E0002A30DEE7074B5B7D8DF83830DDE700BFC1
:1096F0001C2E0020182E002000100140641F0400C2
:10970000441E04008C36002090F84830022B00D014
:10971000704710B5044690F86830022B00D010BD99
:10972000C16CFFF775FF0028F9D1002384F8683079
:10973000F5E7000010B5002407E0C4EBC4021301F4
:1097400003481844FFF7E0FF0134032CF5D910BD9E
:10975000A436002008B5FFF7E1F9FFF7EBFF012081
:1097600008BD10B50C4691F84830022B06D10223F3
:1097700084F868302046FFF7C7FF10BD7846FEF733
:10978000D9FBF4E7F0B583B00446C5698269C388A4
:109790002F0A2E06C2F30C05AB4232D95B1B1344D1
:1097A000A3F50053F61847F1000732463B46A08A5E
:1097B000FEF772FE002840F08B802046FEF742FF45
:1097C000054648B3D0F81CC08269C3884FEA1C2103
:1097D0004FEA0C60C2F30C0C9C4515D2A3EB0C03B2
:1097E0001344A3F50053C01841F10001B94208BF6A
:1097F000B0420DD38F4208BF864230D3284603B013
:10980000F0BD5B1B1344CDE7A3EB0C031344EAE765
:1098100005212846FFF70CFCE388E269A169A08ACC
:1098200005F040FEE8B9627A531CE17D99B3082245
:1098300002FB03F289B34FF48073934230D30221C9
:109840002046FFF71BFA05460028D7D10021204605
:10985000FFF7DEFE02210020FEF796FFCEE700258F
:10986000CCE7E388E269A169A08A05F095FE60B1C2
:10987000237863B1617A4B1C01219940013920465C
:10988000FFF7C6FE2046FFF7DBF90025B6E778466E
:10989000FEF750FBEEE70C22CAE74FF4C073CCE7AB
:1098A0000C4B1B6813F0040F03D00B4B1B68002BF1
:1098B00001DC0025A2E7094BD3F804350192084AE0
:1098C000009240F27F320749012004F0F9FAF0E7F4
:1098D000002593E71C2E0020182E002000100140C8
:1098E000741F0400441E04002DE9F04182B00746B5
:1098F0000E46144698461046FFF744FF002846D00F
:109900000546404B1B6813F0040F03D03E4B1B6809
:10991000032B3FDC2846FFF729F92B7B012B47D08F
:10992000EB6C217A01228A40134230D11A43EA6457
:10993000043E237AE27D002A42D04FF0080C0CFB53
:1099400003FC697A8B423ED0002A41D00823B342FF
:1099500040D1AA69A3699A4209D205F10C0E0C34D0
:109960000FCCAEE80F0094E803008EE80300E86E29
:109970003246391D604417F0ECFDEC6C2B7873B364
:109980006B7A5A1C01239340013B9C422BD002B0BE
:10999000BDE8F0811D4BD3F80435227A01921C4AB0
:1099A000009240F2A3321B49042004F089FAB1E787
:1099B00095F86830002BB3D12846FFF7EDF8AFE7F4
:1099C0004FF00C0CBBE70CEB0603A5F84A30C0E7E0
:1099D0000C23BCE704212846FFF72AFBD7E778468B
:1099E000FEF7A8FACCE7E96C2846FFF711FE4346DC
:1099F0002A46B5F84A10E86EFFF74BFC2846FFF7F9
:109A0000DFFAC4E71C2E0020182E002000100140B1
:109A1000881F0400441E04002DE9F04190B0002886
:109A20004CD00F4614461E468046002A48D004AB50
:109A300000933346FEF7D4FE054618B1284610B011
:109A4000BDE8F08104A8FFF7C5F805460028F5D168
:109A500000230293039302A960880DF095F828B1C2
:109A60009DF8113043F001038DF811302269E1684F
:109A7000208905F0CFFC38B19DF8113003F0FE03CA
:109A80008DF81130002BD9D09DF81130002BD5D096
:109A900013F0010F01D0039B08939DF8103033B1F0
:109AA000334604AA39464046FFF71EFFC6E7334651
:109AB00004AA39464046FFF7F9FBBFE70E25BDE78C
:109AC0000E25BBE7F8B508B30E460546164B1F68D2
:109AD000F7B93C46B4420FD205EBC4035B68D3B17F
:109AE00015F8340015F93430002B16DBB8B1FEF749
:109AF000FDFDB0B90134EDE70C4B43F8375003EBF3
:109B0000C7035E607B1C084A136002E00E2700E07A
:109B100004273846F8BD0E27FBE70B27F9E70F2788
:109B2000F7E70F27F5E700BF7C36002080360020DE
:109B3000084B196861B110B504E0064804F02BF930
:109B4000214624B10C680B79002BF9D0F5E710BD44
:109B5000704700BF6838002038B5054630B1104B5B
:109B60001C68C4B10F4B01221A7004E07846FEF75E
:109B7000E1F9F4E724683CB12379002BFAD154F8D9
:109B8000043C28469847F5E7064B1B78022B03D088
:109B9000044B00221A7038BDFFF7CAFFF8E700BF78
:109BA000683800206438002010B5044630B1002326
:109BB0002372211D034804F0C3F810BD7846FEF758
:109BC000B9F9F4E76838002010B5044658B10A4BDB
:109BD0001B78013BDBB2012B09D8074B02221A701C
:109BE0000123237210BD7846FEF7A4F9EFE7211D8B
:109BF000024804F0D0F8F5E7643800206838002007
:109C00000A8883689B5A07339BB223F003031344EB
:109C10009BB20288043A934200D900230B8070471C
:109C200010B582B004468368C91AADF806100DF16C
:109C30000601FFF7E5FFBDF80630A068184402B042
:109C400010BD0088043880B2704743888268D018FD
:109C5000D152012383707047826800239370438040
:109C600083807047073189B221F0030189B24288AD
:109C700083889A4204D29B1A99421EDC00207047C6
:109C800010B59A420FD90488A41AA14217D98B4261
:109C900017D3032C03D98368134404229A7000233A
:109CA0004380184604E0826813449B780BB104207B
:109CB00010BDFFF7D1FF0020FAE704207047002015
:109CC000F6E70420F4E738B504460D468368828839
:109CD00013448B4202D07846FEF72CF90023AB7078
:109CE000211D2046FFF78CFFA288A36813449B78B0
:109CF000042B00D038BD0023A380FBE710B50C4631
:109D00008368428813448B4202D07846FEF712F9EA
:109D10000023A37010BD70B5054614460E460029F9
:109D200044D0002D46D0B6F1005F08D94FF08053E3
:109D3000D3F80C3103F50023B6EB832F0ED3B6F521
:109D4000000F08D94FF08053D3F80C3103F50053BE
:109D5000B6EB832F02D37846FEF7ECF8631E33444C
:109D6000B3F1005F08D94FF08052D2F80C2102F510
:109D70000022B3EB822F0ED3B3F5000F08D94FF0BA
:109D80008052D2F80C2102F50052B3EB822F02D39D
:109D90007846FEF7CFF8042C10D92C8000236B8076
:109DA000AB80AE60043C3480B37070BD7846FEF783
:109DB000C1F8B6E77846FEF7BDF8B4E77846FEF797
:109DC000B9F8EAE738B50446A0B16288A36813443D
:109DD0009B78012B12D0EFF3108572B6A388A1688F
:109DE00019448B78032B0DD02046FFF735FF05B9BA
:109DF00062B638BD7846FEF79DF8E6E77846FEF78E
:109E000099F8E8E72046FFF70BFFA368C31A6380C1
:109E100000238370EBE72DE9F0410E46144605461A
:109E2000D0B1EEB16A88AB6813449B78012B1BD08C
:109E300024B32846FFF705FFA04221D3EFF3108893
:109E400072B621462846FFF70DFF074680B1B8F1EC
:109E5000000F16D162B614E07846FEF76BF8E0E723
:109E60007846FEF767F8DDE77846FEF763F8DFE748
:109E700021462846FFF7E9FE3060E8E7092700E0C1
:109E800009273846BDE8F081F8B50C461546064668
:109E9000E0B1FCB1A378012B20D12388AB4221D3C0
:109EA00025B3EFF3108772B625800223A370F11853
:109EB0003046FFF7A5FE7388B288934203D0B2689C
:109EC000134400229A7007B962B6F8BD7846FEF7CF
:109ED00031F8DEE77846FEF72DF8DBE77846FEF747
:109EE00029F8DAE77846FEF725F8D9E77846FEF74D
:109EF00021F8D6E770B50C46054690B1ACB1EFF34A
:109F0000108672B6AA88AB6813449A78042A10D0D7
:109F10009A78022A15D0032A18D0052006B962B60D
:109F200070BD7846FEF706F8E8E77846FEF702F8D7
:109F3000E5E7291D2846FFF763FEAA88AB681344AE
:109F4000E6E703229A7023600020E7E77846FDF7F2
:109F5000F1FF0020E2E738B5044680B1EFF3108549
:109F600072B6A088A16801448B78042B0BD0887846
:109F7000022814BF0020012005B962B638BD78461A
:109F8000FDF7D8FFEAE72046FFF74AFE0146EEE775
:109F900038B5054678B1EFF3108472B6A888A96881
:109FA00001448878C31EDBB2012B08D82846FFF78E
:109FB00037FE0146F5E77846FDF7BCFFEBE70228E0
:109FC00014BF0020012004B962B638BD70B50C463C
:109FD000064678B194B1EFF3108572B6A378012BE1
:109FE00010D0032B13D121463046FFF76CFE05B984
:109FF00062B670BD7846FDF79DFFEBE77846FDF74A
:10A0000099FFE8E721463046FFF778FEEFE778460C
:10A01000FDF790FFEBE710B5EFF3108472B683887D
:10A02000816819448B78042B06D08878B0FA80F0C8
:10A03000400904B962B610BDFFF7F2FD0146F4E72E
:10A0400008B5064B986800221A605A609A60DA6078
:10A050001A615A619A6104F0FBFE08BD6C38002059
:10A0600000B585B00A4BDB6802228DF80020019311
:10A070004FF480530293074A6946012001F0CEFA5B
:10A0800018B9012005B05DF804FB0020FAE700BF15
:10A090006C3800208838002000B585B00A4B1B685A
:10A0A00002228DF8002001934FF480530293074A57
:10A0B0006946012001F0B2FA18B9012005B05DF837
:10A0C00004FB0020FAE700BF8C380020883800200D
:10A0D000164BDA68137951795B1A03F57F2303F67F
:10A0E000FF7302EB03339A4205D002F580520F4B07
:10A0F000DA600320704700B585B00D4B1B68012066
:10A100008DF8000001930B4B0393042302930A4A3A
:10A11000694601F083FA18B1002005B05DF804FB30
:10A12000024B01221A760220F7E700BF6C380020AC
:10A130008C380020903800208838002000B585B089
:10A140000C4BDA680C4B1B68043301208DF80000BF
:10A150000192039340F6FC730293084A694601F0AA
:10A160005DFA28B90120034B187605B05DF804FBB1
:10A170000020FAE76C3800208C3800208838002056
:10A1800000B585B00A4B1B6801208DF800000193D3
:10A19000084B039304230293074A694601F03EFAF1
:10A1A00018B9012005B05DF804FB0020FAE700BFF4
:10A1B0008C380020783800208838002010B584B012
:10A1C000104BDA681478104B1B68043301208DF8AB
:10A1D00000000193039202940C4A694601F01EFAB2
:10A1E00070B9094B1B6804F0FC041C440434054B93
:10A1F0005C61D9680A780A441A61012004B010BD74
:10A200000020FBE76C3800208C38002088380020C4
:10A2100008B50023092B09D8064A52F823208242A8
:10A2200001D00133F6E7044A536002E07846FDF7B7
:10A2300081FE08BD282004006C38002010B5214B99
:10A24000DB6853B11F4B1B7E5BB91E4B5B68092B50
:10A2500026D97846FDF76EFE22E07846FDF76AFEC5
:10A26000F0E77846FDF766FEEFE7164A53680133DC
:10A270005360092B21D97846FDF75CFE1DE0114B98
:10A2800000225A6019E00F4B1B7E1BB10D4B0222BE
:10A290001A7012E0FFF7D4FE0FE00A4B1B7E83B961
:10A2A000084B5A68084B53F8223098470446022856
:10A2B000E9D00328E3D00128D7D0012CEDD0032C1E
:10A2C000EBD010BD6C38002028200400104B1B6818
:10A2D0001B685A1E12F1030F18D8C3F30B020AB100
:10A2E0000020704710B50B4AD360002313765376D5
:10A2F0000124147093600848FFF78AFF074920463D
:10A3000001F07AF9FFF79AFF204610BD0020704750
:10A310008C3800206C38002061A0020021A30200CC
:10A3200008B50B78032B06D00B4B1B78012B06D0FE
:10A33000022B0BD008BD084B00221A76F4E7064B1F
:10A340001B7E002BF6D1FFF779FFF3E70B78032B89
:10A35000F0D1FFF775FEEDE76C38002000B585B051
:10A36000174BDB6818784FF6FF7203F580511844DD
:10A3700005F046FAE0B10246114BD9680B780B4460
:10A38000984217D00E4B5B7E83B10E4B01208DF8A7
:10A39000000001920393042302930B4A694601F0E3
:10A3A0003DF948B90120064B187606E0074BEDE76A
:10A3B000012002E0012000E0002005B05DF804FB70
:10A3C0006C38002094220400883800209022040079
:10A3D00008B5104BDB681878002203F5805118444B
:10A3E00005F00EFA08B1012008BD0A4BDA681379AE
:10A3F00051795B1A03F57F2303F6FF7302EB0333F6
:10A400009A4205D002F58052024BDA600320EBE756
:10A410000220E9E76C380020F0B585B0514BDE68CA
:10A4200072793379591E8A4214D006F580510D781D
:10A430000D444D490968081D0F7907449B1A06EB26
:10A4400003366B88013B9BB247F6FE62934260D9AC
:10A450002C461AE00120434B58767EE07846FDF703
:10A4600069FD15E024F47F6424F00F0404F58054A2
:10A4700023781C44A64247D9A54247D26388013BB2
:10A480009BB247F6FE62934211D92388002BE5D098
:10A49000238804EB830323F47F6222F00F029342AC
:10A4A000E0D06288B2F5FE4FDCD01C46E2E72546DC
:10A4B0002FE07846FDF73EFD15E024F47F6424F09C
:10A4C0000F0404F5805423781C44A64220D9A542E9
:10A4D0003BD26388013B9BB247F6FE62934211D99F
:10A4E0002388002BE5D0238804EB830323F47F62C9
:10A4F00022F00F029342E0D06288B2F5FE4FDCD02A
:10A500001C46E2E7254604E0002502E0002500E0C5
:10A510000025E5B1144B19686A8801F58051384669
:10A5200005F06EF9074690B101200E4B18768DF8B4
:10A53000000001950D4B0393042302930C4A6946D6
:10A5400001F06CF858B92C46CAE70025E1E7B5FAE6
:10A5500085F56D09034B5D76012005B0F0BD002047
:10A56000FBE700BF6C3800208C3800208C220400F0
:10A57000883800202DE9F04186B0644B1B692BB16F
:10A58000624B5B6933B14FF0000846E07846FDF757
:10A59000D1FCF5E77846FDF7CDFCF4E77846FDF70A
:10A5A000C9FC15E025F47F6525F00F0505F58055FC
:10A5B0002B781D44AF421CD9AC421ED26B88013BA4
:10A5C0009BB247F6FE62934211D92B88002BE5D04F
:10A5D0002B8805EB830323F47F6222F00F02934262
:10A5E000E0D06A88B2F5FE4FDCD01D46E2E72C468B
:10A5F00000E000241CB100943AE00024FAE70023B4
:10A600000093019B002B5CD14FF00108002C77D008
:10A61000628847F6FF739A4272D0B8F1000F73D187
:10A620003A4B5A6922F47F6626F00F06B61A06F5F1
:10A6300080561C69DF683B797A799B1A07EB0337F0
:10A64000002301936388013B9BB247F6FE6293426D
:10A65000D1D92546B9E77846FDF76CFC23E024F410
:10A660007F6424F00F0404F58054237823441C46AF
:10A67000A742C6D92388019A02EB83029642C0D929
:10A68000009B634023F47F6323F00F03002BB8D1BA
:10A690006388013B9BB247F6FE618B42B1D80192C1
:10A6A0002388002BD7D0238804EB830323F47F6215
:10A6B00022F00F029342D2D06288B2F5FE4FD6D17B
:10A6C000CDE7124A526901208DF808000392009AE2
:10A6D000059204930E4A02A900F0A0FF70B90B493D
:10A6E000019B23F003024B6913444B6114B1074BE8
:10A6F0001C618BE77846FDF71DFCF8E7002000E0C1
:10A70000012006B0BDE8F0810120FAE76C38002096
:10A710008838002000B585B040F6F8731B68B3F1A7
:10A72000FF3F09D0B3F1FF3F0CD07BB1B3F1FF3F46
:10A7300037D0A3F580520FE01E4A1268B2F1FF3FF6
:10A74000F0D103E01B4A1268002AEFD14FF080518C
:10A750004B690A6902FB03F2A2F58052164B1A609C
:10A76000164B1B6813F4801F16D0154B1B68062B65
:10A7700012DD144BD3F8043540F6F8710968B1F1D5
:10A78000FF3F13D0029201910F4A009240F26722DC
:10A790000E49072003F094FBFFF798FD05B05DF824
:10A7A00004FB044B1A68A2F58052D5E701490968F9
:10A7B000E8E700BF141000108C3800201C2E002089
:10A7C000182E002000100140F41F0400DC1F0400BC
:10A7D00010B50446B0B1104B1B78BBB10E4BD96815
:10A7E000E3685879A3EB0032914211D31A79121A17
:10A7F00002F57F2202F6FF7203EB0233994209D879
:10A80000012004E07846FDF795FBE4E7002010BD49
:10A810000020FCE70020FAE76C380020024B187893
:10A82000003818BF012070476C38002010B504466E
:10A830000E4B1B7893B92378032B13D10B4B9C60E1
:10A84000E268DA6000225A601A76012018705A769F
:10A85000074900F0D1FEFFF7F1FC10BD7846FDF787
:10A8600069FBE8E77846FDF765FBE7E76C38002011
:10A8700021A30200014B1868704700BF8C380020EC
:10A8800010B5044680B163681BB123680BB1A3689F
:10A8900013B97846FDF74EFBA3685A1E134207D141
:10A8A0000023E360236110BD7846FDF743FBEAE730
:10A8B0007846FDF73FFBF3E7F8B500B30F460446D3
:10A8C0008368F3B1EFF3108572B60369C2689342EF
:10A8D00011D0016842688668013E334003FB0211D3
:10A8E00017B1384616F035FE23690133236155B997
:10A8F00062B62846F8BD05B962B60525F9E70E250A
:10A90000F7E70925F5E70025F3E700000246C0F365
:10A910000B0040BB49B310B401F6FF710C0B144B94
:10A920000221C3F80415124BD3F80034002BFAD0DF
:10A9300001460AE00E4BC3F808250D4BD3F800344E
:10A94000002BFAD002F580520131A142F2D3084B1C
:10A950000022C3F80425064BD3F80034002BFAD0AC
:10A960005DF8044B7047102070470920704700BF06
:10A9700000E0014010F0030F2FD110B4044611F095
:10A98000030F2CD16AB312F0030F2CD19008174B90
:10A990000122C3F80425154BD3F80034002BFAD05C
:10A9A00002E0043404311046421E50B10B68B3F18A
:10A9B000FF3FF6D023600D4BD3F80034002BFAD0C4
:10A9C000EFE70A4B0022C3F80425084BD3F8003404
:10A9D000002BFAD05DF8044B704710207047102010
:10A9E000F8E70920F6E70920F4E700BF00E001409E
:10A9F000094B1B7813F0040F02D00378122B00D000
:10AA00007047064B1A68064B5A60034B1A786FF36F
:10AA100082021A70F4E700BF38390020283900207C
:10AA2000C438002010B582B001900C46000C0128FB
:10AA300010D12368094A136009490B7843F00103D8
:10AA40000B705B0883F0010303F001031371002016
:10AA500002B010BD7846FDF76DFAEAE7283900200C
:10AA60003839002010B582B001900C46000C022845
:10AA70000FD12268094B1A6022791A71002058718F
:10AA80009871D871064A137843F00203137002B02C
:10AA900010BD7846FDF74EFAEBE700BF20390020E5
:10AAA0003839002010B582B001900C46000C032804
:10AAB00006D1054B186820601B79237102B010BDC8
:10AAC0007846FDF737FAF4E72839002010B582B050
:10AAD00001900C46000C03280CD1084B206818602C
:10AAE00022791A71064A137843F00103137000208B
:10AAF00002B010BD7846FDF71DFAEEE728390020B8
:10AB00003839002010B582B001900C46000C0428A2
:10AB100005D1054B03CB2060616002B010BD7846C3
:10AB2000FDF708FAF5E700BF2039002010B582B024
:10AB300001900C46000C04280BD1084B206861687A
:10AB400003C3074A137843F002031370002002B0D6
:10AB500010BD7846FDF7EEF9EFE700BF2039002081
:10AB60003839002000B583B00190000C032806D1CD
:10AB7000054B00221A601A7103B05DF804FB784699
:10AB8000FDF7D8F9F4E700BF2839002000B583B0FD
:10AB90000190000C042806D1054B00221A605A606F
:10ABA00003B05DF804FB7846FDF7C4F9F4E700BF95
:10ABB0002039002000B585B0184B1B7813F0400FEA
:10ABC0000FD0164B1B7813F0040F07D1144B5B68A2
:10ABD00003F500530193B3F1807F06D905B05DF80A
:10ABE00004FB7846FDF7A6F9EBE70E4B1B788DF8D2
:10ABF00008300A4A137843F0040313700023ADF8B9
:10AC00000C300323ADF80E3001A9039805F0FAFECD
:10AC10000028E3D07846FDF78DF9DFE738390020CA
:10AC2000C43800203939002000B585B00022ADF8C5
:10AC300009200F4B996801911B7B8DF808300D4955
:10AC40000B780133DBB20B708DF80B30ADF80C20B4
:10AC50000423ADF80E300DEB0301039805F0D2FE8E
:10AC600010B905B05DF804FB7846FDF763F9F8E725
:10AC7000C43800203939002000B585B00F4B9A68E0
:10AC800001921A7B8DF808201B8AADF809300C4B15
:10AC90001B788DF80B300023ADF80C300423ADF891
:10ACA0000E300DEB0301039805F0ACFE10B905B0B2
:10ACB0005DF804FB7846FDF73DF9F8E7C43800205D
:10ACC0003939002000B58DB00B4B1B7B012B0ED00A
:10ACD000094A926804928DF80830039002238DF897
:10ACE000043001A8FEF738FF0DB05DF804FB024AFE
:10ACF0009268013A0492EEE7C438002008B51D4876
:10AD00001D4B036000F0F6FE1C4B1B7813F0200F68
:10AD10002AD103F00303032B14D1194B1968194AE4
:10AD2000916019791173B3F805001082DB79164A26
:10AD30001370164A1279934217D0B1B9114B002201
:10AD40001A6007E00F4B00221A609A601A731A8289
:10AD5000FFF76AFF0B4B1A685A60084A137843F0F2
:10AD600040031370FFF726FF08BD084B1A68054B18
:10AD70001A60EFE714390020F1A9020038390020E9
:10AD800020390020C438002039390020283900201B
:10AD900010B582B00024ADF800400123ADF80230B8
:10ADA000009805F060FEADF804400223ADF80630CF
:10ADB000019805F058FE02B010BD000008B5002053
:10ADC00005F078FE084B00221A605A609A60DA603B
:10ADD0001A61064A137803F0DF0343F0400313704F
:10ADE000FFF7E8FE08BD00BFC43800203839002056
:10ADF00038B50C4D00242C606C60AC60EC602C61AC
:10AE000001F04AF9084B5860084A9A60084ADA602B
:10AE10001C615C61074B1A7864F3C3021A706C60A2
:10AE200038BD00BFC4380020A038002091AF020018
:10AE3000008793033839002008B50C4B1B7813F0BA
:10AE4000100F00D008BD0A480A4B036000F052FE04
:10AE5000FFF754FFFFF79CFF074801F0B5F8034ADE
:10AE6000137843F010031370ECE700BF383900206B
:10AE7000B8380020E9B00200A0380020034B187851
:10AE8000800880F0010000F0010070473839002090
:10AE900010B501F075FE174B1B7B1BBB154B9B7B45
:10AEA0002BBB144B1A8A41F282639A4206D8124B8A
:10AEB0001B7813F0080F05D0012300E001231BB914
:10AEC000082410E00023FAE70A4B01221A73002439
:10AED0001C829A6801329A60FFF7A6FE2046FFF7AF
:10AEE000F1FE00E0082401F08FFE204610BD08248A
:10AEF000F9E700BFC43800203839002010B501F050
:10AF00003FFE214B5B7BABB11F4B9B7B03BB1E4BBF
:10AF10001A8A41F282639A4206D81C4B1B7813F0BE
:10AF2000080F05D0012300E001239BB1012302E0BB
:10AF30000023FAE700231C460BB3134B00225A737D
:10AF40001B7B4BB1012B0ED07846FCF7F3FF16E0CC
:10AF50000023F0E70023EEE7FFF79AFF78B1784689
:10AF6000FCF7E8FF0BE0084B0020186058601873EE
:10AF70001882FFF7A7FEFFF757FEFFF71BFE01F051
:10AF800043FE204610BD00BFC438002038390020E1
:10AF900008B52C4B1B7BDBB1012B2ED07846FCF780
:10AFA000C9FF284A138A01339BB21382264AA2FBA7
:10AFB00003121209C2EB0212A3EB42039BB2002B55
:10AFC0003DD0204B5B8A13B1013B1E4A538208BD22
:10AFD0001C4B1A8A41F282639A4206D81B4B1B789B
:10AFE00013F0080F07D0012300E00123002BD8D075
:10AFF000FFF784FFE5E70023F8E7124B1B8A41F2D5
:10B000008262934206D8114A127812F0080F14D0C7
:10B01000012200E00122002AC3D042F2B012934282
:10B0200002D9084B01225A73FFF768FF0028C8D1E4
:10B03000044B5B7B012BB4D1C3E70022EBE7FFF7A6
:10B040001BFEBEE7C4380020898888883839002074
:10B0500010B5244B1B7B002B35D10446214B5B8A5A
:10B060002BBB1AB91F4B9B688B4205D3FAB11D4B02
:10B070009B6801338B421AD21A4B9B682A338B424E
:10B0800023D3184B9B7B03BB164B996000221A609D
:10B090005A601A8242F6065159825A731A73FFF7A0
:10B0A000C3FDFFF787FD2046FFF70CFE0DE062B100
:10B0B0000C4B9B6801338B4207D10A4B01225A7318
:10B0C000FFF71CFF01E0012B00D010BD002AFCD1CE
:10B0D000044B9B688B42F8D1024B01225A73FFF755
:10B0E0000DFFF2E7C43800200378042B00D070472E
:10B0F00043681B78002BFAD010B58468027E437E2B
:10B10000012A14BF00220122416904F11000FFF757
:10B110009FFF10BD1B4B1B7813F0400F30D010B5B4
:10B120000446194B1A685B689A4225D2164B1B7B62
:10B13000012B14D0154B9A4213D2134B1A685B683B
:10B14000403B9A4215D2EFF3108172B60E4A136853
:10B15000581C1060236001B962B6002010BD0C4B72
:10B16000E9E7094B01225A73FFF7C8FE0028EAD12C
:10B17000E3E7FFF71FFDE6E7FFF71CFD0F20EDE714
:10B180000F20704738390020C4380020FFFF7F00AF
:10B1900000E0FF0008B538B10D4B01229A730D4A4B
:10B1A00013680133136008BD0A4B1B685BB1094A81
:10B1B0001368013B1360002BF5D1054B00229A73F5
:10B1C000FFF79CFEEFE77846FCF7B4FEEFE700BF21
:10B1D000C43800209438002000B58DB0ADF80800C8
:10B1E0008DF81020039103238DF8043001A8FEF799
:10B1F000B3FC0DB05DF804FB014B9868704700BFCD
:10B20000C4380020054B1B7B012B02D0034B9868F0
:10B210007047024B98680138704700BFC43800205F
:10B22000044B9B68584010F0010F00D0013B1846BA
:10B23000704700BFC4380020014B187B704700BF27
:10B24000C43800200F4B1B7813F0200F01D00820CA
:10B25000704770B50B4E43F0200333700A4DA86061
:10B26000297300242C82FFF7DFFC2046FFF72AFD1C
:10B270002C606C60337843F040033370FFF79AFC26
:10B28000204670BD38390020C43800202DE9F04137
:10B29000002624E02449BC2303FB04F3CA5A0132EC
:10B2A000CA520221284602F04BFC013702212846EF
:10B2B00002F016FC014679B11B4ABC2303FB0423B0
:10B2C000D3F80880B8F1000FE4D0BC2303FB04F3EB
:10B2D000D25A3046C047DDE797B90136F6B2022EA2
:10B2E0001FD83446BC2303FB06F308330E4D1D4420
:10B2F00004350221284602F0F3FB01460027DAE775
:10B30000284602F085FC0828E7D1074BBC2202FB47
:10B310000434A368002BE0D000220449304698474B
:10B32000DBE70120BDE8F081443900206020040003
:10B3300008B5082383731023437300F11C03436192
:10B340000323037300F1180303610C3002F032FC95
:10B3500008BD000008B50378012B06D0022B06D0EB
:10B360007846FCF7E7FD002002E0292000E00148D4
:10B3700008BD00BF084C010008B50378012B07D0B9
:10B38000022B15D07846FCF7D5FD4FF4FA730AE08E
:10B390008368591A21F0030303EB9103DB0003EBED
:10B3A000910303F5FA730748984228BF184608BD71
:10B3B0008368591A090B044B03FB01F303F5FA7375
:10B3C000F1E700BF60850100084C010038B5044674
:10B3D00001210C3002F084FB054678B1084BC4F81B
:10B3E0009C300023C4F8A0306168FFF7C5FFC4F8A3
:10B3F000A800C4F8AC40012384F8B830284638BD12
:10B4000021B5020010B50446FFF7E0FF20B104F1BA
:10B410009C000CF077F900B910BD7846FCF78AFD66
:10B42000FAE70000F8B505460C461646176803789B
:10B43000012B19D11249A1FB043149098B00AC68D9
:10B44000E41BB4EB810F00D31C468CB1686827F075
:10B450000307E968224639443844FFF78BFA58B9A4
:10B4600033681C443460F8BD7846FCF763FDE1E7BF
:10B470007846FCF75FFDE9E77846FCF75BFDEFE710
:10B480007D0CCEC7F8B506460C46154617680378FE
:10B49000022B17D1114BA3FB04231B0C1A03B46816
:10B4A000E41BB4EB033F00D314467CB1706827F073
:10B4B000030721463844FFF729FA58B92B681C4482
:10B4C0002C60F8BD7846FCF735FDE3E77846FCF7DD
:10B4D00031FDEBE77846FCF72DFDEFE7EB0661C5A4
:10B4E00038B505460C4611462378012B06D0022BB1
:10B4F0000FD07846FCF71EFD002304E0021D204615
:10B50000FFF790FFA3686868984214BF00200120ED
:10B5100038BD021D2046FFF7B5FFA368F3E7000022
:10B520002DE9F8430F46D1F8A850254B1B786BB98D
:10B530000446A5F5FA7501F10C080121404602F018
:10B54000CFFA064648B14FF0000924E00CF016F996
:10B55000002387F8B830BDE8F8837846FCF7EAFCAA
:10B56000F1E70CF00BF90121404602F0E9FA002363
:10B570007B6087F8B830134B186801F099FB3846A8
:10B58000FFF740FFE7E7A4EB00093046FFF7E2FED4
:10B590004844A8420DD8A5EB090231463846FFF7CA
:10B5A0009FFF0028DDD101F0BDF9B0EB0409ECD517
:10B5B000E9E70CF0E3F83846FFF724FFCBE700BFDC
:10B5C000403900203C39002010B5084801F050FBFC
:10B5D000074B1860002406E0064BBC2000FB04303B
:10B5E000FFF7A6FE0134022CF6D910BD8DB2020081
:10B5F0003C3900204439002038B504460D46022865
:10B6000005D80548BC2303FB0404A56038BD784673
:10B61000FCF790FCF5E700BF443900202DE9F84322
:10B6200005460C461746022816D8CCB12378012BC4
:10B630001AD0022B3ED16368C3F30B03002B31D128
:10B64000A368C3F30B03002B30D1A368002B34D1C4
:10B650007846FCF76FFC30E07846FCF76BFCE4E7DB
:10B660007846FCF767FCE1E7636813F0030F0DD140
:10B67000E36813F0030F0DD1A36813F0030F0DD18E
:10B68000A368D3B97846FCF755FC16E07846FCF77A
:10B6900051FCEDE77846FCF74DFCEDE77846FCF70A
:10B6A00049FCEDE77846FCF745FCC9E77846FCF72E
:10B6B00041FCCAE77846FCF73DFCEFF3108872B610
:10B6C000BC2606FB05F606F108032A4E1E44043686
:10B6D0000021304602F004FA814678B3002130465A
:10B6E00002F02EFA20686168A268E368C9F80000D9
:10B6F000C9F80410C9F80820C9F80C302FB11D4A48
:10B70000BC2303FB05235B883B801A4ABC2303FB55
:10B7100005235A8801325A8093F8B83083B9164B02
:10B720001B7813B10024A1460CE0124BBC2000FB97
:10B730000530FFF74BFE8146002403E0042401E0BE
:10B740000024A146B8F1000F00D162B6B9F1000F94
:10B7500009D0BC2000FB05F09830064D2844043089
:10B760000BF0D0FF10B92046BDE8F8837846FCF70F
:10B77000E1FBF8E7443900204039002038B50446A1
:10B78000EFF3108572B610B9164B1B6873B18CB10C
:10B79000144A136801331360124B1B68003B18BF37
:10B7A0000123114A137005B962B638BD7846FCF71B
:10B7B000C1FBECE70B4B1C68013C1C6034B1EBE7B0
:10B7C000BC2000FB0420FFF71DFE0134022CE3D84F
:10B7D000064ABC2303FB042393F8B830002BF4D1B2
:10B7E000EEE700BF783B00204039002044390020BC
:10B7F00018B1830B024AD05C70470020704700BF2D
:10B800007020040012DF704700B583B001F088FE9D
:10B8100040B10C4B1B6813F0400F03D00A4B1B6860
:10B82000012B02DC03B05DF804FB084BD3F80435B0
:10B830000190074A009275220649022002F040FB5F
:10B84000F0E700BF1C2E0020182E00200010014041
:10B85000B4200400A820040000B58DB0114B1B7863
:10B86000022B06D07846FCF765FB01200DB05DF891
:10B8700004FBFFF703FB18B90B48FEF795F9F4E753
:10B880000CF0B4FC074B03221A702C22002101A8F3
:10B8900015F088FE1D238DF8043001A8FEF75CF931
:10B8A000E3E700BF803B00200C2E002008B50378A2
:10B8B000122B00D008BD0448FEF786F9034B186828
:10B8C00001F0F6F9F6E700BF0C2E00207C3B0020CB
:10B8D00070B58AB00CF0CCFC48B3064600238DF856
:10B8E000103005AC05460FCD0FC42B682360727D68
:10B8F000052A04D9337D03F00F03072B1ED1174B04
:10B900001A688AB104AB0393337DC3F303038DF844
:10B910000430737D062B1BD9063B8DF8053006F1EC
:10B920001D03029301A8904730460CF081FC0CF0F7
:10B93000BBFC80F00100C0B20AB070BD307D04AB2A
:10B94000063A06F11D0100F00F000BF0BDF9D6E735
:10B9500000238DF805300293E4E700BF843B00200C
:10B9600070B582B0314B1B78002B54D104460028AF
:10B9700055D0067A0F2E01D0062E52D105F0DCFEEE
:10B98000E06870B1FCF7FEFC0DF10700FFF73AFF2D
:10B990000546002840D19DF80730012B04D0022530
:10B9A0003AE0FCF7FDFCEFE7FCF720FD00F0F8FAC9
:10B9B000304601F08DF8E07800F01CF900F08CFEC4
:10B9C0000BF044FE1A480CF00BFD0BF025FB0BF0BE
:10B9D0005DF9FFF7F9FD04F0D9FF00F0D9FC05F09F
:10B9E0006BFE05F02FFC204601F0B4FCFDF76EFD68
:10B9F00004F070FAFCF7ECF908B1062813D10D48F1
:10BA000001F036F90C4B18600C4B00221A60074B02
:10BA100001221A7000E00825284602B070BD0E25EC
:10BA2000FAE70725F8E70546F6E700BF803B002068
:10BA3000D1B8020059B802007C3B0020843B0020B2
:10BA400010B582B0204B1B78012B0DD05AB2002AC2
:10BA500035D0043BDBB2012B33D80BF043FE044658
:10BA600028B3204602B010BD01F084FCFDF770FD44
:10BA7000FCF7AEF90446B8B1062815D0134B1B6885
:10BA800013F4804FEDD0124B1B68012BE9DD114BF5
:10BA9000D3F804350190104A009240F289120F4900
:10BAA000022002F00DFADCE701F03EF8D5E7064B84
:10BAB00002221A700A4B186801F0FAF8D1E708243C
:10BAC000CFE70824CDE700BF803B00201C2E0020DC
:10BAD000182E002000100140E0200400A8200400DF
:10BAE0007C3B002008B5FDF737FD08BD08B501F027
:10BAF00047F908BD08B5FEF757F808BD08B500F0CE
:10BB0000B1FD002008BD0000014B1860704700BF68
:10BB1000843B002070470000064A1368013313601D
:10BB2000B3F1704F02D0034B1868704713460122DF
:10BB30001A60F8E7883B002010B5044618B10023CE
:10BB40002360636010BD7846FCF7F4F9F7E738B579
:10BB50000C46054668B184B100236360EFF310839F
:10BB600072B62A686AB16A6854606C6003B962B6DA
:10BB700038BD7846FCF7DEF9EDE77846FCF7DAF9F0
:10BB8000EAE72C60F1E710B5044658B1EFF31083F3
:10BB900072B6206808B142682260226832B103B9E7
:10BBA00062B610BD7846FCF7C5F9EFE76260F6E7CC
:10BBB00010B5044608B1206810BD7846FCF7BAF904
:10BBC000F9E735DF7047000008B54FF0FF30FFF7A9
:10BBD000F8FFBFF34F8F0549CA6802F4E062044BD7
:10BBE0001343CB60BFF34F8F00BFFDE700ED00E0D4
:10BBF0000400FA05072814D8DFE800F0080C150443
:10BC0000110F0A066420704714207047FA2070470D
:10BC10001E2070474FF4FA707047322070474B2057
:10BC20007047FA207047962070470000024B586812
:10BC3000103840B2704700BF00ED00E00346002816
:10BC40000FDB5B11084A52F82330424200F01F001C
:10BC500002F01F0258BF504223FA00F000F001002A
:10BC6000704700F11F03ECE700E100E046DF70479A
:10BC7000F8B504460D464B1EDBB2012B09D8002354
:10BC800023616361A361E3612046FFF7EFFF0120B9
:10BC900016E07846FCF74EF9F1E7CA5CCE18520080
:10BCA000D2B2767842EAD612CA5401339BB20E2B36
:10BCB000F3D9CB7B5B00CB73002F08DB0130C0B224
:10BCC000A8420BD8214611F9207F0023EFE794F812
:10BCD0002F3083F0870384F82F30EFE7F8BD2DE98C
:10BCE000F04190B084460C4696461F4602F10F087C
:10BCF0004FEA281604AD0068DCF80410DCF80820D0
:10BD0000DCF80C300FC50EF00F055FEA181302D0F7
:10BD10007DB1002300E00023984663B1012104A80F
:10BD2000FFF7A6FFB8F1000F1AD0701E0001102314
:10BD30000EE00123F0E70221F1E7013B9BB222185C
:10BD4000D25C10A9194411F8101C4A400DF80320C8
:10BD5000002BF2D100250C950D950E950F9533E033
:10BD6000711EADB22A4604EB0111684615F0F1FBD5
:10BD700080230DF805306B1C03E000220DF8032032
:10BD800001330F2BF9DD10230AE0013B9BB21DF8B4
:10BD9000032010A9194411F8101C4A400DF8032083
:10BDA000002BF2D1D6E7013A92B210AB134413F84C
:10BDB000100C63189B5C584008AB9854002AF2D1D1
:10BDC00004A8FFF753FF0135731EAB4202DD2901C2
:10BDD0001022F3E710230AE0013B9BB210AAD1180E
:10BDE00011F8402C11F8101C4A4008A9CA54002B25
:10BDF000F2D104A8FFF73AFF0CAC0FCC38607960A1
:10BE0000BA60FB6010B0BDE8F081000010B50446D8
:10BE1000134B1B6893B14168114B1B685B68CB1ACD
:10BE2000002B0BDB0E4B1B6818465B691BB15A6875
:10BE3000521A002AF8DB6361446103E0084B1A6878
:10BE400062611C60064A93889BB201339BB2938067
:10BE500013B10123237010BD7846FCF76BF8F8E7A7
:10BE6000903B002038B505461CE07846FCF762F8A8
:10BE70006369204A13600023636193889BB2591E53
:10BE800089B29180F3B1A36803B302232370A3683E
:10BE900021692846984700F0FFF805462378DBB271
:10BEA000022B17D0134B1B681BB3124B1B685B682C
:10BEB0005B1B642B1DD50F4B1C682378DBB2012B59
:10BEC000D6D0D2E77846FCF735F8DCE77846FCF7C1
:10BED00031F8DAE7E26812B900232370E2E7636819
:10BEE000134463605B1B642BF9D42046FFF78EFF7D
:10BEF000D8E738BD903B002010B50446144B1B68B2
:10BF0000834207D0124B1B68D3B15A69A2420ED0AC
:10BF10001346F9E743690E4A136093889BB2591E92
:10BF200089B2918063B97846FCF704F808E0626949
:10BF30005A6107498B889BB25A1E92B28A8013B10C
:10BF40000023237010BD7846FBF7F4FFF8E700BF2D
:10BF5000903B002008B5064B1B6833B1044B1B68AF
:10BF60000449586800F044F908BD00F09FF9FBE768
:10BF7000903B002091BF020008B500F08DF8FFF75C
:10BF800071FF00F089F8FFF7E5FF012008BD000010
:10BF900008B5024B186800F08BFE08BD8C3B0020F2
:10BFA00008B5064B00221A605A60054800F060FE92
:10BFB000044B186000F063F808BD00BF903B002000
:10BFC00079BF02008C3B002010B5044600F044FF0E
:10BFD00080B19CB1A368ABB12378DBB2012B15D043
:10BFE000002363612046FFF711FF00F055F8FFF7CB
:10BFF000B1FF10BD7846FBF79DFFEAE77846FBF7F7
:10C0000099FFE7E77846FBF795FFE5E77846FBF70A
:10C0100091FFE5E710B5044600F01EFF50B16CB18A
:10C020002046FFF769FF0023636100F035F8FFF752
:10C0300091FF10BD7846FBF77DFFF0E77846FBF7F0
:10C0400079FFEDE738B504460D4600F005FF70B105
:10C050008CB12046FFF750FF0023636165602046E6
:10C06000FFF7D4FE00F018F8FFF774FF38BD7846EC
:10C07000FBF760FFECE77846FBF75CFFE9E708B504
:10C0800014F0B4FC00B108BD14F022FC0028FAD072
:10C090007846FBF74FFFF6E770B4EFF3108172B606
:10C0A000184B1A68184BD3F80455D3F80431012BF8
:10C0B00022D001B962B645EA026500266B01EA0E9C
:10C0C0005B1B62EB0602510241EAD351580243194D
:10C0D00041EB0600810141EA93619A01D31A61EBB9
:10C0E00000005B1946EB000013F580437041DB0B49
:10C0F00043EA404070BC7047034BD3F8045501320B
:10C10000D7E700BF983B00200010014010B50A4B54
:10C110004FF40032C3F84823C3F80823074B1B68C9
:10C120002BB1064B1C68FFF7B7FFA04710BD784640
:10C13000FBF700FFF5E700BF00100140A43B002023
:10C14000EFF3108172B6254B0022C3F80421244A74
:10C1500013680133136001B962B6224B1B68002BD0
:10C160003AD0204B1A68013A1A601B68002B33D171
:10C1700003F1804303F58833D3F804251A4B1B6879
:10C180009A421BD2EFF3108272B6144BD3F80435E7
:10C19000981C1549096888420DD303330F49C1F82B
:10C1A000443502B962B60D4B4FF40032C3F8442354
:10C1B000C3F8042370470C4B1B68EFE710B50B4B1B
:10C1C0001B682BB1094B1C68FFF766FFA04710BD29
:10C1D0007846FBF7AFFEF5E7704700BF001001405F
:10C1E000983B00209C3B0020A03B0020A43B00206B
:10C1F00030B583B00446002301930D46002936D0A4
:10C20000244B1D60FFF748FF031B002B33DB00238B
:10C21000590CD803204C214A002300194FF0000488
:10C2200044EB010115F03CF8EFF31083019372B673
:10C230001B4BD3F80435032838BF0320C3F1FF128A
:10C2400002F57F42824218D30344154AC2F84435AE
:10C250004FF40033C2F84433C2F80433114A146077
:10C26000114A1460019B03B962B603B030BD784631
:10C27000FBF760FEC4E7231ACAE7034403F17F43D8
:10C2800001331A0E013207490A6023F07F43064A40
:10C290001360E7E7A43B002020A1070040420F0005
:10C2A000001001409C3B0020A03B0020074B4FF4B6
:10C2B0000032C3F84823C3F808230023044A13605C
:10C2C000044A1360044A1360704700BF0010014025
:10C2D0009C3B0020A03B0020A43B002030DF7047A7
:10C2E00031DF704710B4034602684068A2EB701259
:10C2F0009C6880EAF4301860D9680C445C60114492
:10C3000099601044D8605DF8044B704770B582B0F6
:10C310000D46064608B100240BE07846FBF70AFEFE
:10C32000F9E79DF807103019FFF7DAFF9DF807309D
:10C330001C44A5420DD90DF10700FFF7CFFF9DF872
:10C340000730002BF7D02A1B9342EAD98DF807203B
:10C35000E7E702B070BD000030B583B005460024A9
:10C36000019404210DEB0100FFF7D0FF074B2B6078
:10C37000019B6B60AB60EB6003E02846FFF7B2FF08
:10C380000134132CF9D903B030BD00BFED5EEAF1E2
:10C39000704708B5032004F08DFB08BD48DF7047E7
:10C3A00049DF70474ADF7047044B01225A7143F25C
:10C3B000B0629A6043F69822DA607047043C00202D
:10C3C000094B03221A74094A5A611A6840F6D86365
:10C3D0009A4204D9054B43F2B0629A607047034B0E
:10C3E00040F6D8629A607047E43B0020043C00208D
:10C3F00008B50F4B1B78022B12D0032B08D0012B52
:10C4000003D07846FBF796FD0EE0022303740BE0A1
:10C41000084B00225A71084999600849D960827115
:10C4200003230374034B4361014B00221A7008BDC0
:10C43000153C0020043C0020A0860100FF1FA1073E
:10C4400038B5044600250574012343710E4A13686C
:10C450000133136000F0C4FA0BF00AFA23680B4AA8
:10C460001168283101FB03F1094AA2FB0121A3EB6A
:10C470009141084A7839284600F02EFA00B938BDB3
:10C480007846FBF757FDFAE7183C0020003C0020F7
:10C4900083DE1B43C1C3020010B504460023836042
:10C4A000C36003680D4A92680260817991B10121ED
:10C4B000017403B90A4B991A6161B1F57A7F01D30E
:10C4C0009A4202D94FF47A736361FFF76DFF01233B
:10C4D000A37110BDFFF7B4FFF7E700BF043C0020D5
:10C4E0008096980010B50C4631B1C3680133C36023
:10C4F0004269036813440360836801338360012247
:10C500000274426952084261012B0DD0022B19D0EE
:10C5100042690368134417498B4222D840F6D76317
:10C520009A4221D800231DE0B2F5FA7F05D040F6EB
:10C53000D8639A42ECD84361EAE7002CF7D1002394
:10C540004361E5E7C368022B06D0012BE0D1002C44
:10C55000DED100234361DBE70268064B9B1A43618F
:10C56000D6E7002313B110BD0123FBE7FFF768FFF7
:10C57000F9E700BF8096980043791BB90D4B002264
:10C580001A70704710B504460BF08EF923680A4AFA
:10C590001068283003FB00F0084AA2FB0020A3EB40
:10C5A0009040783800F04CFA00236371014B002270
:10C5B0001A7010BD143C0020003C002083DE1B4399
:10C5C00008B5254B01221A71244B1B7813B1244B5B
:10C5D0001B781BB3204B00221A7404281AD8DFE8FA
:10C5E00000F00314110C07001B48FFF755FF1CE077
:10C5F00001211948FFF776FF17E000211648FFF7E1
:10C6000071FF12E00BF0E0F80FE000F0ABF90BF077
:10C6100015F90AE07846FBF78DFC06E000F082F998
:10C620000D4B18601846FFF7E3FE0B4B1B7C023BDB
:10C63000DBB2012B08D9084B1B7C022B08D0064823
:10C6400000230371103008BD0348FFF795FFF2E7A0
:10C65000014B01221A76F2E7E43B0020153C002052
:10C66000143C002008B50438042814D8DFE800F092
:10C67000182614030E00164B1B7E012B0BD1FFF75F
:10C680008FFE40B17846FBF755FC04E0104B0022CA
:10C690001A760BF031F908BD7846FBF74BFCFAE748
:10C6A000FFF782FE0B4840F6D8638360FFF77AFEFF
:10C6B0000028F0D07846FBF73DFCECE70548FFF793
:10C6C00071FE0028E7D07846FBF734FCE3E700BFB3
:10C6D000E43B0020043C002010B40E4A00231370F9
:10C6E00013710121517143F2B064946043F69824B0
:10C6F000D460094A1060094A1370094A1370094A44
:10C700001360094A137153711360137691715DF8C8
:10C71000044B7047043C0020003C0020143C0020E7
:10C72000153C0020183C0020E43B002008B5104BCD
:10C730001B7E012B08D0022B17D00BB1002008BDA7
:10C740000C48FFF72BFE40B90B48FFF72BFE40B912
:10C75000074B02221A760020F1E77846FBF7EAFB46
:10C76000F2E77846FBF7E6FBF2E71120E7E700BFC8
:10C77000E43B0020C1C50200043C00200B4B1B7CA5
:10C78000023BDBB2012B0BD9094B1B78012B09D0E3
:10C79000022B09D0032B01D00020704701207047E5
:10C7A000012070470120704701207047E43B0020C2
:10C7B000153C0020014B1868704700BFE43B002087
:10C7C0000D4B5B790BB90020704710B50A4B1C6804
:10C7D0000A4B1B68283303FB04F3094AA2FB03231B
:10C7E000A4EB9344783C00F09DF80346201A00D453
:10C7F00010BD181BFCE700BFE43B0020003C0020FC
:10C8000083DE1B43014B1879704700BFE43B0020D7
:10C81000EFF3108372B6054A527922B1044A4FF4FD
:10C820008071C2F8001103B962B67047E43B002082
:10C8300000E100E008B5054B1B7E022B00D008BDCF
:10C84000034B01221A70FFF7E3FFF8E7E43B0020F7
:10C85000153C002008B5074B1B7E022B00D008BDFD
:10C86000012804D0044A1370FFF7D2FFF7E703232F
:10C87000F8E700BFE43B0020153C002008B5094B59
:10C880001B782BB148B9084B1B7813B1012300E08A
:10C890000023044A107013B908BD0023F9E7FFF71D
:10C8A000B7FFF9E7143C0020153C002010B4094BF9
:10C8B00000F15002002443F8224000F1100401224C
:10C8C000A240C3F8042300F5A87043F820105DF8D7
:10C8D000044B704700800040022817D810B5EFF3D2
:10C8E00010840C4B1C6072B60B4B43F820200B4B92
:10C8F000002243F820200A4B1B7823B9054B186807
:10C9000030B962B605E0FFF7D1FFF7E707207047BF
:10C91000002010BD2C3C00201C3C0020383C002096
:10C92000283C0020EFF310820A4B1A6072B60A4BC3
:10C930001B7863B1094B0022C3F84C210122DA6451
:10C94000D3F84C05034B1B6803B962B67047044B20
:10C950001868F7E72C3C0020283C002000800040AD
:10C96000303C00202DE9F041002411E00027174B56
:10C9700043F82470012303FA05F5154EC6F8085351
:10C98000FFF7D0FFC04704F1500346F8237001348D
:10C99000022C18D804F150030D4A52F82330002B12
:10C9A000F5D0D2F8043304F11005EB4013F0010F79
:10C9B000EDD0064B53F82480B8F1000FD6D178465D
:10C9C000FBF7B8FAD2E7BDE8F08100BF1C3C0020BD
:10C9D00000800040014B1B6818447047343C002025
:10C9E00010B500230CE0114A03F5A871002042F8AD
:10C9F000210003F1500142F8210052F821200133B7
:10CA0000022BF0D90A4B1B681BB90A4B4FF48072FA
:10CA10001A60094B01221A70FFF73EFB0446FFF72C
:10CA200081FF241A054B1C6010BD00BF0080004030
:10CA30002C3C002000E100E0283C0020343C002099
:10CA4000002307E000220C4941F823200B4941F85C
:10CA500023200133022BF5D9094B1860094B002222
:10CA60001A70094B4FF0FF32C3F80823074B4FF4FD
:10CA70008072C3F8802170471C3C0020383C0020A5
:10CA8000303C0020283C00200080004000E100E015
:10CA900008B503783BB1012B04D1436813B1C168D9
:10CAA0008068984708BD4368002BFBD08068984792
:10CAB000F8E70000044B1B780F2B04D0034B4FF416
:10CAC0008022C3F8002170479C3D002000E100E077
:10CAD00010B5104C20701048104B036010234360B9
